{
	"TransferUSDCBasic.sol": {
		"TransferUSDCBasic": {
			"abi": [
				{
					"inputs": [],
					"stateMutability": "nonpayable",
					"type": "constructor"
				},
				{
					"inputs": [
						{
							"internalType": "uint256",
							"name": "currentBalance",
							"type": "uint256"
						},
						{
							"internalType": "uint256",
							"name": "calculatedFees",
							"type": "uint256"
						}
					],
					"name": "NotEnoughBalanceForFees",
					"type": "error"
				},
				{
					"inputs": [
						{
							"internalType": "uint256",
							"name": "currentBalance",
							"type": "uint256"
						}
					],
					"name": "NotEnoughBalanceUsdcForTransfer",
					"type": "error"
				},
				{
					"inputs": [],
					"name": "NothingToWithdraw",
					"type": "error"
				},
				{
					"anonymous": false,
					"inputs": [
						{
							"indexed": false,
							"internalType": "bytes32",
							"name": "messageId",
							"type": "bytes32"
						},
						{
							"indexed": false,
							"internalType": "uint64",
							"name": "destinationChainSelector",
							"type": "uint64"
						},
						{
							"indexed": false,
							"internalType": "address",
							"name": "receiver",
							"type": "address"
						},
						{
							"indexed": false,
							"internalType": "uint256",
							"name": "amount",
							"type": "uint256"
						},
						{
							"indexed": false,
							"internalType": "uint256",
							"name": "ccipFee",
							"type": "uint256"
						}
					],
					"name": "UsdcTransferred",
					"type": "event"
				},
				{
					"inputs": [],
					"name": "allowanceUsdc",
					"outputs": [
						{
							"internalType": "uint256",
							"name": "usdcAmount",
							"type": "uint256"
						}
					],
					"stateMutability": "view",
					"type": "function"
				},
				{
					"inputs": [
						{
							"internalType": "address",
							"name": "account",
							"type": "address"
						}
					],
					"name": "balancesOf",
					"outputs": [
						{
							"internalType": "uint256",
							"name": "linkBalance",
							"type": "uint256"
						},
						{
							"internalType": "uint256",
							"name": "usdcBalance",
							"type": "uint256"
						}
					],
					"stateMutability": "view",
					"type": "function"
				},
				{
					"inputs": [],
					"name": "owner",
					"outputs": [
						{
							"internalType": "address",
							"name": "",
							"type": "address"
						}
					],
					"stateMutability": "view",
					"type": "function"
				},
				{
					"inputs": [
						{
							"internalType": "address",
							"name": "_receiver",
							"type": "address"
						},
						{
							"internalType": "uint256",
							"name": "_amount",
							"type": "uint256"
						}
					],
					"name": "transferUsdcToSepolia",
					"outputs": [
						{
							"internalType": "bytes32",
							"name": "messageId",
							"type": "bytes32"
						}
					],
					"stateMutability": "nonpayable",
					"type": "function"
				},
				{
					"inputs": [
						{
							"internalType": "address",
							"name": "_beneficiary",
							"type": "address"
						},
						{
							"internalType": "address",
							"name": "_token",
							"type": "address"
						}
					],
					"name": "withdrawToken",
					"outputs": [],
					"stateMutability": "nonpayable",
					"type": "function"
				}
			],
			"devdoc": {
				"kind": "dev",
				"methods": {},
				"version": 1
			},
			"evm": {
				"assembly": "    /* \"TransferUSDCBasic.sol\":700:4472  contract TransferUSDCBasic {... */\n  mstore(0x40, 0xe0)\n    /* \"TransferUSDCBasic.sol\":1188:1258  address ccipRouterAddress = 0xF694E193200268f9a4868e4Aa017A0118C9a8177 */\n  0x01\n  dup1\n  sload\n  not(sub(shl(0xa0, 0x01), 0x01))\n  swap1\n  dup2\n  and\n    /* \"TransferUSDCBasic.sol\":1216:1258  0xF694E193200268f9a4868e4Aa017A0118C9a8177 */\n  0xf694e193200268f9a4868e4aa017a0118c9a8177\n    /* \"TransferUSDCBasic.sol\":1188:1258  address ccipRouterAddress = 0xF694E193200268f9a4868e4Aa017A0118C9a8177 */\n  or\n  swap1\n  swap2\n  sstore\n    /* \"TransferUSDCBasic.sol\":1340:1404  address linkAddress = 0x0b9d5D9136855f6FEc3c0993feE6E9CE8a297846 */\n  0x02\n  dup1\n  sload\n  swap1\n  swap2\n  and\n    /* \"TransferUSDCBasic.sol\":1362:1404  0x0b9d5D9136855f6FEc3c0993feE6E9CE8a297846 */\n  0x0b9d5d9136855f6fec3c0993fee6e9ce8a297846\n    /* \"TransferUSDCBasic.sol\":1340:1404  address linkAddress = 0x0b9d5D9136855f6FEc3c0993feE6E9CE8a297846 */\n  or\n  swap1\n  sstore\n    /* \"TransferUSDCBasic.sol\":1487:1551  address usdcAddress = 0x5425890298aed601595a70AB815c96711a31Bc65 */\n  0x03\n  dup1\n  sload\n    /* \"TransferUSDCBasic.sol\":1645:1699  uint64 destinationChainSelector = 16015286601757825753 */\n  0xde41ba4fc9d91ad95425890298aed601595a70ab815c96711a31bc65\n  not(sub(shl(0xe0, 0x01), 0x01))\n  swap1\n  swap2\n  and\n  or\n  swap1\n  sstore\n    /* \"TransferUSDCBasic.sol\":1883:2069  constructor() {... */\n  callvalue\n  dup1\n  iszero\n  tag_1\n  jumpi\n  0x00\n  dup1\n  revert\ntag_1:\n  pop\n    /* \"TransferUSDCBasic.sol\":1907:1912  owner */\n  0x00\n    /* \"TransferUSDCBasic.sol\":1907:1925  owner = msg.sender */\n  dup1\n  sload\n  not(sub(shl(0xa0, 0x01), 0x01))\n  and\n    /* \"TransferUSDCBasic.sol\":1915:1925  msg.sender */\n  caller\n    /* \"TransferUSDCBasic.sol\":1907:1925  owner = msg.sender */\n  or\n  swap1\n  sstore\n  0x01\n    /* \"TransferUSDCBasic.sol\":1962:1979  ccipRouterAddress */\n  sload\n  sub(shl(0xa0, 0x01), 0x01)\n  swap1\n  dup2\n  and\n    /* \"TransferUSDCBasic.sol\":1935:1980  ccipRouter = IRouterClient(ccipRouterAddress) */\n  0x80\n  mstore\n    /* \"TransferUSDCBasic.sol\":2009:2020  linkAddress */\n  sload(0x02)\n  dup2\n  and\n    /* \"TransferUSDCBasic.sol\":1990:2021  linkToken = IERC20(linkAddress) */\n  0xa0\n  mstore\n    /* \"TransferUSDCBasic.sol\":2050:2061  usdcAddress */\n  sload(0x03)\n  and\n    /* \"TransferUSDCBasic.sol\":2031:2062  usdcToken = IERC20(usdcAddress) */\n  0xc0\n  mstore\n    /* \"TransferUSDCBasic.sol\":700:4472  contract TransferUSDCBasic {... */\n  mload(0x80)\n  mload(0xa0)\n  mload(0xc0)\n  codecopy(0x00, dataOffset(sub_0), dataSize(sub_0))\n  0x00\n  assignImmutable(\"0xed5982c3d05e794784cff21558897eecbae249eb7518af5506bc91284dc3b788\")\n  0x00\n  assignImmutable(\"0x51af0b011a8186c01f00efb4bfb18f2c7a1b6da2f988a2541d85684767c6542e\")\n  0x00\n  assignImmutable(\"0xf44e26cb6192c7a70f026ebae4c4bdf0822fd8ec199501187afd94cd2c3c7097\")\n  return(0x00, dataSize(sub_0))\nstop\n\nsub_0: assembly {\n        /* \"TransferUSDCBasic.sol\":700:4472  contract TransferUSDCBasic {... */\n      mstore(0x40, 0x80)\n      callvalue\n      dup1\n      iszero\n      tag_1\n      jumpi\n      0x00\n      dup1\n      revert\n    tag_1:\n      pop\n      jumpi(tag_2, lt(calldatasize, 0x04))\n      shr(0xe0, calldataload(0x00))\n      dup1\n      0x3aeac4e1\n      eq\n      tag_3\n      jumpi\n      dup1\n      0x6392a51f\n      eq\n      tag_4\n      jumpi\n      dup1\n      0x8da5cb5b\n      eq\n      tag_5\n      jumpi\n      dup1\n      0xed3bd5bc\n      eq\n      tag_6\n      jumpi\n      dup1\n      0xfe2c5d36\n      eq\n      tag_7\n      jumpi\n    tag_2:\n      0x00\n      dup1\n      revert\n        /* \"TransferUSDCBasic.sol\":4189:4470  function withdrawToken(... */\n    tag_3:\n      tag_8\n      tag_9\n      calldatasize\n      0x04\n      tag_10\n      jump\t// in\n    tag_9:\n      tag_11\n      jump\t// in\n    tag_8:\n      stop\n        /* \"TransferUSDCBasic.sol\":3880:4100  function balancesOf(address account) public view returns (uint256 linkBalance, uint256 usdcBalance) {... */\n    tag_4:\n      tag_12\n      tag_13\n      calldatasize\n      0x04\n      tag_14\n      jump\t// in\n    tag_13:\n      tag_15\n      jump\t// in\n    tag_12:\n      0x40\n      dup1\n      mload\n        /* \"#utility.yul\":822:847   */\n      swap3\n      dup4\n      mstore\n        /* \"#utility.yul\":878:880   */\n      0x20\n        /* \"#utility.yul\":863:881   */\n      dup4\n      add\n        /* \"#utility.yul\":856:890   */\n      swap2\n      swap1\n      swap2\n      mstore\n        /* \"#utility.yul\":795:813   */\n      add\n        /* \"TransferUSDCBasic.sol\":3880:4100  function balancesOf(address account) public view returns (uint256 linkBalance, uint256 usdcBalance) {... */\n    tag_16:\n      mload(0x40)\n      dup1\n      swap2\n      sub\n      swap1\n      return\n        /* \"TransferUSDCBasic.sol\":948:968  address public owner */\n    tag_5:\n      sload(0x00)\n      tag_18\n      swap1\n      sub(shl(0xa0, 0x01), 0x01)\n      and\n      dup2\n      jump\n    tag_18:\n      mload(0x40)\n      sub(shl(0xa0, 0x01), 0x01)\n        /* \"#utility.yul\":1174:1206   */\n      swap1\n      swap2\n      and\n        /* \"#utility.yul\":1156:1207   */\n      dup2\n      mstore\n        /* \"#utility.yul\":1144:1146   */\n      0x20\n        /* \"#utility.yul\":1129:1147   */\n      add\n        /* \"TransferUSDCBasic.sol\":948:968  address public owner */\n      tag_16\n        /* \"#utility.yul\":1010:1213   */\n      jump\n        /* \"TransferUSDCBasic.sol\":3732:3874  function allowanceUsdc() public view returns (uint256 usdcAmount) {... */\n    tag_6:\n      tag_22\n      tag_23\n      jump\t// in\n    tag_22:\n      mload(0x40)\n        /* \"#utility.yul\":1364:1389   */\n      swap1\n      dup2\n      mstore\n        /* \"#utility.yul\":1352:1354   */\n      0x20\n        /* \"#utility.yul\":1337:1355   */\n      add\n        /* \"TransferUSDCBasic.sol\":3732:3874  function allowanceUsdc() public view returns (uint256 usdcAmount) {... */\n      tag_16\n        /* \"#utility.yul\":1218:1395   */\n      jump\n        /* \"TransferUSDCBasic.sol\":2075:3726  function transferUsdcToSepolia(... */\n    tag_7:\n      tag_22\n      tag_27\n      calldatasize\n      0x04\n      tag_28\n      jump\t// in\n    tag_27:\n      tag_29\n      jump\t// in\n        /* \"TransferUSDCBasic.sol\":4189:4470  function withdrawToken(... */\n    tag_11:\n        /* \"TransferUSDCBasic.sol\":4159:4164  owner */\n      and(sub(shl(0xa0, 0x01), 0x01), sload(0x00))\n        /* \"TransferUSDCBasic.sol\":4145:4155  msg.sender */\n      caller\n        /* \"TransferUSDCBasic.sol\":4145:4164  msg.sender == owner */\n      eq\n        /* \"TransferUSDCBasic.sol\":4137:4165  require(msg.sender == owner) */\n      tag_33\n      jumpi\n      0x00\n      dup1\n      revert\n    tag_33:\n        /* \"TransferUSDCBasic.sol\":4316:4355  IERC20(_token).balanceOf(address(this)) */\n      mload(0x40)\n      shl(0xe0, 0x70a08231)\n      dup2\n      mstore\n        /* \"TransferUSDCBasic.sol\":4349:4353  this */\n      address\n        /* \"TransferUSDCBasic.sol\":4316:4355  IERC20(_token).balanceOf(address(this)) */\n      0x04\n      dup3\n      add\n        /* \"#utility.yul\":1156:1207   */\n      mstore\n        /* \"TransferUSDCBasic.sol\":4299:4313  uint256 amount */\n      0x00\n      swap1\n      sub(shl(0xa0, 0x01), 0x01)\n        /* \"TransferUSDCBasic.sol\":4316:4340  IERC20(_token).balanceOf */\n      dup4\n      and\n      swap1\n      0x70a08231\n      swap1\n        /* \"#utility.yul\":1129:1147   */\n      0x24\n      add\n        /* \"TransferUSDCBasic.sol\":4316:4355  IERC20(_token).balanceOf(address(this)) */\n      0x20\n      mload(0x40)\n      dup1\n      dup4\n      sub\n      dup2\n      dup7\n      gas\n      staticcall\n      iszero\n      dup1\n      iszero\n      tag_37\n      jumpi\n      returndatasize\n      0x00\n      dup1\n      returndatacopy\n      revert(0x00, returndatasize)\n    tag_37:\n      pop\n      pop\n      pop\n      pop\n      mload(0x40)\n      returndatasize\n      not(0x1f)\n      0x1f\n      dup3\n      add\n      and\n      dup3\n      add\n      dup1\n      0x40\n      mstore\n      pop\n      dup2\n      add\n      swap1\n      tag_38\n      swap2\n      swap1\n      tag_39\n      jump\t// in\n    tag_38:\n        /* \"TransferUSDCBasic.sol\":4299:4355  uint256 amount = IERC20(_token).balanceOf(address(this)) */\n      swap1\n      pop\n        /* \"TransferUSDCBasic.sol\":4369:4375  amount */\n      dup1\n        /* \"TransferUSDCBasic.sol\":4379:4380  0 */\n      0x00\n        /* \"TransferUSDCBasic.sol\":4369:4380  amount == 0 */\n      sub\n        /* \"TransferUSDCBasic.sol\":4365:4408  if (amount == 0) revert NothingToWithdraw() */\n      tag_40\n      jumpi\n        /* \"TransferUSDCBasic.sol\":4389:4408  NothingToWithdraw() */\n      mload(0x40)\n      shl(0xe5, 0x0686827b)\n      dup2\n      mstore\n      0x04\n      add\n      mload(0x40)\n      dup1\n      swap2\n      sub\n      swap1\n      revert\n        /* \"TransferUSDCBasic.sol\":4365:4408  if (amount == 0) revert NothingToWithdraw() */\n    tag_40:\n        /* \"TransferUSDCBasic.sol\":4418:4463  IERC20(_token).transfer(_beneficiary, amount) */\n      mload(0x40)\n      shl(0xe0, 0xa9059cbb)\n      dup2\n      mstore\n      sub(shl(0xa0, 0x01), 0x01)\n        /* \"#utility.yul\":2222:2254   */\n      dup5\n      dup2\n      and\n        /* \"TransferUSDCBasic.sol\":4418:4463  IERC20(_token).transfer(_beneficiary, amount) */\n      0x04\n      dup4\n      add\n        /* \"#utility.yul\":2204:2255   */\n      mstore\n        /* \"#utility.yul\":2271:2289   */\n      0x24\n      dup3\n      add\n        /* \"#utility.yul\":2264:2298   */\n      dup4\n      swap1\n      mstore\n        /* \"TransferUSDCBasic.sol\":4418:4441  IERC20(_token).transfer */\n      dup4\n      and\n      swap1\n      0xa9059cbb\n      swap1\n        /* \"#utility.yul\":2177:2195   */\n      0x44\n      add\n        /* \"TransferUSDCBasic.sol\":4418:4463  IERC20(_token).transfer(_beneficiary, amount) */\n      0x20\n      mload(0x40)\n      dup1\n      dup4\n      sub\n      dup2\n      0x00\n      dup8\n      gas\n      call\n      iszero\n      dup1\n      iszero\n      tag_44\n      jumpi\n      returndatasize\n      0x00\n      dup1\n      returndatacopy\n      revert(0x00, returndatasize)\n    tag_44:\n      pop\n      pop\n      pop\n      pop\n      mload(0x40)\n      returndatasize\n      not(0x1f)\n      0x1f\n      dup3\n      add\n      and\n      dup3\n      add\n      dup1\n      0x40\n      mstore\n      pop\n      dup2\n      add\n      swap1\n      tag_45\n      swap2\n      swap1\n      tag_46\n      jump\t// in\n    tag_45:\n      pop\n        /* \"TransferUSDCBasic.sol\":4289:4470  {... */\n      pop\n        /* \"TransferUSDCBasic.sol\":4189:4470  function withdrawToken(... */\n      pop\n      pop\n      jump\t// out\n        /* \"TransferUSDCBasic.sol\":3880:4100  function balancesOf(address account) public view returns (uint256 linkBalance, uint256 usdcBalance) {... */\n    tag_15:\n        /* \"TransferUSDCBasic.sol\":4005:4033  linkToken.balanceOf(account) */\n      mload(0x40)\n      shl(0xe0, 0x70a08231)\n      dup2\n      mstore\n      sub(shl(0xa0, 0x01), 0x01)\n        /* \"#utility.yul\":1174:1206   */\n      dup3\n      dup2\n      and\n        /* \"TransferUSDCBasic.sol\":4005:4033  linkToken.balanceOf(account) */\n      0x04\n      dup4\n      add\n        /* \"#utility.yul\":1156:1207   */\n      mstore\n        /* \"TransferUSDCBasic.sol\":3938:3957  uint256 linkBalance */\n      0x00\n      swap2\n      dup3\n      swap2\n        /* \"TransferUSDCBasic.sol\":4005:4014  linkToken */\n      immutable(\"0x51af0b011a8186c01f00efb4bfb18f2c7a1b6da2f988a2541d85684767c6542e\")\n        /* \"TransferUSDCBasic.sol\":4005:4024  linkToken.balanceOf */\n      and\n      swap1\n      0x70a08231\n      swap1\n        /* \"#utility.yul\":1129:1147   */\n      0x24\n      add\n        /* \"TransferUSDCBasic.sol\":4005:4033  linkToken.balanceOf(account) */\n      0x20\n      mload(0x40)\n      dup1\n      dup4\n      sub\n      dup2\n      dup7\n      gas\n      staticcall\n      iszero\n      dup1\n      iszero\n      tag_50\n      jumpi\n      returndatasize\n      0x00\n      dup1\n      returndatacopy\n      revert(0x00, returndatasize)\n    tag_50:\n      pop\n      pop\n      pop\n      pop\n      mload(0x40)\n      returndatasize\n      not(0x1f)\n      0x1f\n      dup3\n      add\n      and\n      dup3\n      add\n      dup1\n      0x40\n      mstore\n      pop\n      dup2\n      add\n      swap1\n      tag_51\n      swap2\n      swap1\n      tag_39\n      jump\t// in\n    tag_51:\n        /* \"TransferUSDCBasic.sol\":4057:4093  IERC20(usdcToken).balanceOf(account) */\n      mload(0x40)\n      shl(0xe0, 0x70a08231)\n      dup2\n      mstore\n      sub(shl(0xa0, 0x01), 0x01)\n        /* \"#utility.yul\":1174:1206   */\n      dup6\n      dup2\n      and\n        /* \"TransferUSDCBasic.sol\":4057:4093  IERC20(usdcToken).balanceOf(account) */\n      0x04\n      dup4\n      add\n        /* \"#utility.yul\":1156:1207   */\n      mstore\n        /* \"TransferUSDCBasic.sol\":3990:4033  linkBalance =  linkToken.balanceOf(account) */\n      swap2\n      swap4\n      pop\n        /* \"TransferUSDCBasic.sol\":4064:4073  usdcToken */\n      immutable(\"0xed5982c3d05e794784cff21558897eecbae249eb7518af5506bc91284dc3b788\")\n        /* \"TransferUSDCBasic.sol\":4057:4084  IERC20(usdcToken).balanceOf */\n      swap1\n      swap2\n      and\n      swap1\n      0x70a08231\n      swap1\n        /* \"#utility.yul\":1129:1147   */\n      0x24\n      add\n        /* \"TransferUSDCBasic.sol\":4057:4093  IERC20(usdcToken).balanceOf(account) */\n      0x20\n      mload(0x40)\n      dup1\n      dup4\n      sub\n      dup2\n      dup7\n      gas\n      staticcall\n      iszero\n      dup1\n      iszero\n      tag_54\n      jumpi\n      returndatasize\n      0x00\n      dup1\n      returndatacopy\n      revert(0x00, returndatasize)\n    tag_54:\n      pop\n      pop\n      pop\n      pop\n      mload(0x40)\n      returndatasize\n      not(0x1f)\n      0x1f\n      dup3\n      add\n      and\n      dup3\n      add\n      dup1\n      0x40\n      mstore\n      pop\n      dup2\n      add\n      swap1\n      tag_55\n      swap2\n      swap1\n      tag_39\n      jump\t// in\n    tag_55:\n        /* \"TransferUSDCBasic.sol\":4043:4093  usdcBalance = IERC20(usdcToken).balanceOf(account) */\n      swap1\n      pop\n        /* \"TransferUSDCBasic.sol\":3880:4100  function balancesOf(address account) public view returns (uint256 linkBalance, uint256 usdcBalance) {... */\n      swap2\n      pop\n      swap2\n      jump\t// out\n        /* \"TransferUSDCBasic.sol\":3732:3874  function allowanceUsdc() public view returns (uint256 usdcAmount) {... */\n    tag_23:\n        /* \"TransferUSDCBasic.sol\":3821:3867  usdcToken.allowance(msg.sender, address(this)) */\n      mload(0x40)\n      shl(0xe1, 0x6eb1769f)\n      dup2\n      mstore\n        /* \"TransferUSDCBasic.sol\":3841:3851  msg.sender */\n      caller\n        /* \"TransferUSDCBasic.sol\":3821:3867  usdcToken.allowance(msg.sender, address(this)) */\n      0x04\n      dup3\n      add\n        /* \"#utility.yul\":2803:2837   */\n      mstore\n        /* \"TransferUSDCBasic.sol\":3861:3865  this */\n      address\n        /* \"#utility.yul\":2853:2871   */\n      0x24\n      dup3\n      add\n        /* \"#utility.yul\":2846:2889   */\n      mstore\n        /* \"TransferUSDCBasic.sol\":3778:3796  uint256 usdcAmount */\n      0x00\n      swap1\n        /* \"TransferUSDCBasic.sol\":3821:3830  usdcToken */\n      immutable(\"0xed5982c3d05e794784cff21558897eecbae249eb7518af5506bc91284dc3b788\")\n      sub(shl(0xa0, 0x01), 0x01)\n        /* \"TransferUSDCBasic.sol\":3821:3840  usdcToken.allowance */\n      and\n      swap1\n      0xdd62ed3e\n      swap1\n        /* \"#utility.yul\":2738:2756   */\n      0x44\n      add\n        /* \"TransferUSDCBasic.sol\":3821:3867  usdcToken.allowance(msg.sender, address(this)) */\n      0x20\n      mload(0x40)\n      dup1\n      dup4\n      sub\n      dup2\n      dup7\n      gas\n      staticcall\n      iszero\n      dup1\n      iszero\n      tag_60\n      jumpi\n      returndatasize\n      0x00\n      dup1\n      returndatacopy\n      revert(0x00, returndatasize)\n    tag_60:\n      pop\n      pop\n      pop\n      pop\n      mload(0x40)\n      returndatasize\n      not(0x1f)\n      0x1f\n      dup3\n      add\n      and\n      dup3\n      add\n      dup1\n      0x40\n      mstore\n      pop\n      dup2\n      add\n      swap1\n      tag_61\n      swap2\n      swap1\n      tag_39\n      jump\t// in\n    tag_61:\n        /* \"TransferUSDCBasic.sol\":3808:3867  usdcAmount = usdcToken.allowance(msg.sender, address(this)) */\n      swap1\n      pop\n        /* \"TransferUSDCBasic.sol\":3732:3874  function allowanceUsdc() public view returns (uint256 usdcAmount) {... */\n      swap1\n      jump\t// out\n        /* \"TransferUSDCBasic.sol\":2075:3726  function transferUsdcToSepolia(... */\n    tag_29:\n        /* \"TransferUSDCBasic.sol\":2289:2319  new Client.EVMTokenAmount[](1) */\n      0x40\n      dup1\n      mload\n        /* \"TransferUSDCBasic.sol\":2317:2318  1 */\n      0x01\n        /* \"TransferUSDCBasic.sol\":2289:2319  new Client.EVMTokenAmount[](1) */\n      dup1\n      dup3\n      mstore\n      dup2\n      dup4\n      add\n      swap1\n      swap3\n      mstore\n        /* \"TransferUSDCBasic.sol\":2198:2215  bytes32 messageId */\n      0x00\n      swap2\n      dup3\n      swap2\n        /* \"TransferUSDCBasic.sol\":2289:2319  new Client.EVMTokenAmount[](1) */\n      swap1\n      dup2\n      0x20\n      add\n    tag_67:\n      0x40\n      dup1\n      mload\n      dup1\n      dup3\n      add\n      swap1\n      swap2\n      mstore\n      0x00\n      dup1\n      dup3\n      mstore\n      0x20\n      dup3\n      add\n      mstore\n      dup2\n      mstore\n      0x20\n      add\n      swap1\n      0x01\n      swap1\n      sub\n      swap1\n      dup2\n      tag_67\n      jumpi\n      swap1\n      pop\n      pop\n        /* \"TransferUSDCBasic.sol\":2231:2319  Client.EVMTokenAmount[]... */\n      swap1\n      pop\n        /* \"TransferUSDCBasic.sol\":2329:2369  Client.EVMTokenAmount memory tokenAmount */\n      0x00\n        /* \"TransferUSDCBasic.sol\":2372:2473  Client.EVMTokenAmount({... */\n      mload(0x40)\n      dup1\n      0x40\n      add\n      0x40\n      mstore\n      dup1\n        /* \"TransferUSDCBasic.sol\":2423:2432  usdcToken */\n      immutable(\"0xed5982c3d05e794784cff21558897eecbae249eb7518af5506bc91284dc3b788\")\n      sub(shl(0xa0, 0x01), 0x01)\n        /* \"TransferUSDCBasic.sol\":2372:2473  Client.EVMTokenAmount({... */\n      and\n      dup2\n      mstore\n      0x20\n      add\n        /* \"TransferUSDCBasic.sol\":2455:2462  _amount */\n      dup6\n        /* \"TransferUSDCBasic.sol\":2372:2473  Client.EVMTokenAmount({... */\n      dup2\n      mstore\n      pop\n        /* \"TransferUSDCBasic.sol\":2329:2473  Client.EVMTokenAmount memory tokenAmount = Client.EVMTokenAmount({... */\n      swap1\n      pop\n        /* \"TransferUSDCBasic.sol\":2501:2512  tokenAmount */\n      dup1\n        /* \"TransferUSDCBasic.sol\":2483:2495  tokenAmounts */\n      dup3\n        /* \"TransferUSDCBasic.sol\":2496:2497  0 */\n      0x00\n        /* \"TransferUSDCBasic.sol\":2483:2498  tokenAmounts[0] */\n      dup2\n      mload\n      dup2\n      lt\n      tag_71\n      jumpi\n      tag_71\n      tag_72\n      jump\t// in\n    tag_71:\n      0x20\n      swap1\n      dup2\n      mul\n      swap2\n      swap1\n      swap2\n      add\n      add\n        /* \"TransferUSDCBasic.sol\":2483:2512  tokenAmounts[0] = tokenAmount */\n      mstore\n        /* \"TransferUSDCBasic.sol\":2562:2856  Client.EVM2AnyMessage({... */\n      0x40\n      dup1\n      mload\n      0xa0\n      dup2\n      add\n      swap1\n      swap2\n      mstore\n      sub(shl(0xa0, 0x01), 0x01)\n        /* \"#utility.yul\":1174:1206   */\n      dup7\n      and\n        /* \"TransferUSDCBasic.sol\":2608:2629  abi.encode(_receiver) */\n      0xc0\n      dup3\n      add\n        /* \"#utility.yul\":1156:1207   */\n      mstore\n        /* \"TransferUSDCBasic.sol\":2523:2559  Client.EVM2AnyMessage memory message */\n      0x00\n      swap1\n        /* \"TransferUSDCBasic.sol\":2562:2856  Client.EVM2AnyMessage({... */\n      dup1\n        /* \"#utility.yul\":1129:1147   */\n      0xe0\n      dup2\n      add\n        /* \"TransferUSDCBasic.sol\":2608:2629  abi.encode(_receiver) */\n      mload(0x40)\n      0x20\n      dup2\n      dup4\n      sub\n      sub\n      dup2\n      mstore\n      swap1\n      0x40\n      mstore\n        /* \"TransferUSDCBasic.sol\":2562:2856  Client.EVM2AnyMessage({... */\n      dup2\n      mstore\n      0x20\n      add\n      mload(0x40)\n      dup1\n      0x20\n      add\n      0x40\n      mstore\n      dup1\n      0x00\n      dup2\n      mstore\n      pop\n      dup2\n      mstore\n      0x20\n      add\n        /* \"TransferUSDCBasic.sol\":2679:2691  tokenAmounts */\n      dup5\n        /* \"TransferUSDCBasic.sol\":2562:2856  Client.EVM2AnyMessage({... */\n      dup2\n      mstore\n      0x20\n      add\n        /* \"TransferUSDCBasic.sol\":2835:2844  linkToken */\n      immutable(\"0x51af0b011a8186c01f00efb4bfb18f2c7a1b6da2f988a2541d85684767c6542e\")\n      sub(shl(0xa0, 0x01), 0x01)\n        /* \"TransferUSDCBasic.sol\":2562:2856  Client.EVM2AnyMessage({... */\n      and\n      dup2\n      mstore\n      0x20\n      add\n        /* \"TransferUSDCBasic.sol\":2716:2803  Client._argsToBytes(... */\n      tag_74\n        /* \"TransferUSDCBasic.sol\":2753:2789  Client.EVMExtraArgsV1({gasLimit: 0}) */\n      mload(0x40)\n      dup1\n      0x20\n      add\n      0x40\n      mstore\n      dup1\n        /* \"TransferUSDCBasic.sol\":2786:2787  0 */\n      0x00\n        /* \"TransferUSDCBasic.sol\":2753:2789  Client.EVMExtraArgsV1({gasLimit: 0}) */\n      dup2\n      mstore\n      pop\n        /* \"@chainlink/contracts-ccip/src/v0.8/ccip/libraries/Client.sol\":1395:1451  abi.encodeWithSelector(EVM_EXTRA_ARGS_V1_TAG, extraArgs) */\n      0x40\n      dup1\n      mload\n        /* \"#utility.yul\":6230:6243   */\n      swap2\n      mload\n        /* \"@chainlink/contracts-ccip/src/v0.8/ccip/libraries/Client.sol\":1395:1451  abi.encodeWithSelector(EVM_EXTRA_ARGS_V1_TAG, extraArgs) */\n      0x24\n      dup1\n      dup5\n      add\n        /* \"#utility.yul\":6212:6244   */\n      swap2\n      swap1\n      swap2\n      mstore\n        /* \"@chainlink/contracts-ccip/src/v0.8/ccip/libraries/Client.sol\":1395:1451  abi.encodeWithSelector(EVM_EXTRA_ARGS_V1_TAG, extraArgs) */\n      dup2\n      mload\n      dup1\n      dup5\n      sub\n      swap1\n      swap2\n      add\n      dup2\n      mstore\n        /* \"#utility.yul\":6185:6203   */\n      0x44\n      swap1\n      swap3\n      add\n        /* \"@chainlink/contracts-ccip/src/v0.8/ccip/libraries/Client.sol\":1395:1451  abi.encodeWithSelector(EVM_EXTRA_ARGS_V1_TAG, extraArgs) */\n      swap1\n      mstore\n      0x20\n      dup2\n      add\n      dup1\n      mload\n      sub(shl(0xe0, 0x01), 0x01)\n      and\n      shl(0xe0, 0x97a657c9)\n      or\n      swap1\n      mstore\n      swap1\n        /* \"@chainlink/contracts-ccip/src/v0.8/ccip/libraries/Client.sol\":1286:1456  function _argsToBytes(EVMExtraArgsV1 memory extraArgs) internal pure returns (bytes memory bts) {... */\n      jump\n        /* \"TransferUSDCBasic.sol\":2716:2803  Client._argsToBytes(... */\n    tag_74:\n        /* \"TransferUSDCBasic.sol\":2562:2856  Client.EVM2AnyMessage({... */\n      swap1\n      mstore\n        /* \"TransferUSDCBasic.sol\":2916:2940  destinationChainSelector */\n      sload(0x03)\n        /* \"TransferUSDCBasic.sol\":2885:2971  ccipRouter.getFee(... */\n      mload(0x40)\n      shl(0xe0, 0x20487ded)\n      dup2\n      mstore\n        /* \"TransferUSDCBasic.sol\":2523:2856  Client.EVM2AnyMessage memory message = Client.EVM2AnyMessage({... */\n      swap2\n      swap3\n      pop\n        /* \"TransferUSDCBasic.sol\":2867:2882  uint256 ccipFee */\n      0x00\n      swap2\n        /* \"TransferUSDCBasic.sol\":2885:2895  ccipRouter */\n      immutable(\"0xf44e26cb6192c7a70f026ebae4c4bdf0822fd8ec199501187afd94cd2c3c7097\")\n      sub(shl(0xa0, 0x01), 0x01)\n        /* \"TransferUSDCBasic.sol\":2885:2902  ccipRouter.getFee */\n      and\n      swap2\n      0x20487ded\n      swap2\n        /* \"TransferUSDCBasic.sol\":2885:2971  ccipRouter.getFee(... */\n      tag_76\n      swap2\n      shl(0xa0, 0x01)\n        /* \"TransferUSDCBasic.sol\":2916:2940  destinationChainSelector */\n      swap1\n      div\n      0xffffffffffffffff\n      and\n      swap1\n        /* \"TransferUSDCBasic.sol\":2523:2856  Client.EVM2AnyMessage memory message = Client.EVM2AnyMessage({... */\n      dup7\n      swap1\n        /* \"TransferUSDCBasic.sol\":2885:2971  ccipRouter.getFee(... */\n      0x04\n      add\n      tag_77\n      jump\t// in\n    tag_76:\n      0x20\n      mload(0x40)\n      dup1\n      dup4\n      sub\n      dup2\n      dup7\n      gas\n      staticcall\n      iszero\n      dup1\n      iszero\n      tag_79\n      jumpi\n      returndatasize\n      0x00\n      dup1\n      returndatacopy\n      revert(0x00, returndatasize)\n    tag_79:\n      pop\n      pop\n      pop\n      pop\n      mload(0x40)\n      returndatasize\n      not(0x1f)\n      0x1f\n      dup3\n      add\n      and\n      dup3\n      add\n      dup1\n      0x40\n      mstore\n      pop\n      dup2\n      add\n      swap1\n      tag_80\n      swap2\n      swap1\n      tag_39\n      jump\t// in\n    tag_80:\n        /* \"TransferUSDCBasic.sol\":2996:3030  linkToken.balanceOf(address(this)) */\n      mload(0x40)\n      shl(0xe0, 0x70a08231)\n      dup2\n      mstore\n        /* \"TransferUSDCBasic.sol\":3024:3028  this */\n      address\n        /* \"TransferUSDCBasic.sol\":2996:3030  linkToken.balanceOf(address(this)) */\n      0x04\n      dup3\n      add\n        /* \"#utility.yul\":1156:1207   */\n      mstore\n        /* \"TransferUSDCBasic.sol\":2867:2971  uint256 ccipFee = ccipRouter.getFee(... */\n      swap1\n      swap2\n      pop\n        /* \"TransferUSDCBasic.sol\":2996:3005  linkToken */\n      immutable(\"0x51af0b011a8186c01f00efb4bfb18f2c7a1b6da2f988a2541d85684767c6542e\")\n      sub(shl(0xa0, 0x01), 0x01)\n        /* \"TransferUSDCBasic.sol\":2996:3015  linkToken.balanceOf */\n      and\n      swap1\n      0x70a08231\n      swap1\n        /* \"#utility.yul\":1129:1147   */\n      0x24\n      add\n        /* \"TransferUSDCBasic.sol\":2996:3030  linkToken.balanceOf(address(this)) */\n      0x20\n      mload(0x40)\n      dup1\n      dup4\n      sub\n      dup2\n      dup7\n      gas\n      staticcall\n      iszero\n      dup1\n      iszero\n      tag_83\n      jumpi\n      returndatasize\n      0x00\n      dup1\n      returndatacopy\n      revert(0x00, returndatasize)\n    tag_83:\n      pop\n      pop\n      pop\n      pop\n      mload(0x40)\n      returndatasize\n      not(0x1f)\n      0x1f\n      dup3\n      add\n      and\n      dup3\n      add\n      dup1\n      0x40\n      mstore\n      pop\n      dup2\n      add\n      swap1\n      tag_84\n      swap2\n      swap1\n      tag_39\n      jump\t// in\n    tag_84:\n        /* \"TransferUSDCBasic.sol\":2986:2993  ccipFee */\n      dup2\n        /* \"TransferUSDCBasic.sol\":2986:3030  ccipFee > linkToken.balanceOf(address(this)) */\n      gt\n        /* \"TransferUSDCBasic.sol\":2982:3119  if (ccipFee > linkToken.balanceOf(address(this)))... */\n      iszero\n      tag_85\n      jumpi\n        /* \"TransferUSDCBasic.sol\":3075:3109  linkToken.balanceOf(address(this)) */\n      mload(0x40)\n      shl(0xe0, 0x70a08231)\n      dup2\n      mstore\n        /* \"TransferUSDCBasic.sol\":3103:3107  this */\n      address\n        /* \"TransferUSDCBasic.sol\":3075:3109  linkToken.balanceOf(address(this)) */\n      0x04\n      dup3\n      add\n        /* \"#utility.yul\":1156:1207   */\n      mstore\n        /* \"TransferUSDCBasic.sol\":3075:3084  linkToken */\n      immutable(\"0x51af0b011a8186c01f00efb4bfb18f2c7a1b6da2f988a2541d85684767c6542e\")\n      sub(shl(0xa0, 0x01), 0x01)\n        /* \"TransferUSDCBasic.sol\":3075:3094  linkToken.balanceOf */\n      and\n      swap1\n      0x70a08231\n      swap1\n        /* \"#utility.yul\":1129:1147   */\n      0x24\n      add\n        /* \"TransferUSDCBasic.sol\":3075:3109  linkToken.balanceOf(address(this)) */\n      0x20\n      mload(0x40)\n      dup1\n      dup4\n      sub\n      dup2\n      dup7\n      gas\n      staticcall\n      iszero\n      dup1\n      iszero\n      tag_88\n      jumpi\n      returndatasize\n      0x00\n      dup1\n      returndatacopy\n      revert(0x00, returndatasize)\n    tag_88:\n      pop\n      pop\n      pop\n      pop\n      mload(0x40)\n      returndatasize\n      not(0x1f)\n      0x1f\n      dup3\n      add\n      and\n      dup3\n      add\n      dup1\n      0x40\n      mstore\n      pop\n      dup2\n      add\n      swap1\n      tag_89\n      swap2\n      swap1\n      tag_39\n      jump\t// in\n    tag_89:\n        /* \"TransferUSDCBasic.sol\":3051:3119  NotEnoughBalanceForFees(linkToken.balanceOf(address(this)), ccipFee) */\n      mload(0x40)\n      shl(0xe0, 0x28fdcaa1)\n      dup2\n      mstore\n      0x04\n      dup2\n      add\n        /* \"#utility.yul\":822:847   */\n      swap2\n      swap1\n      swap2\n      mstore\n        /* \"#utility.yul\":863:881   */\n      0x24\n      dup2\n      add\n        /* \"#utility.yul\":856:890   */\n      dup3\n      swap1\n      mstore\n        /* \"#utility.yul\":795:813   */\n      0x44\n      add\n        /* \"TransferUSDCBasic.sol\":3051:3119  NotEnoughBalanceForFees(linkToken.balanceOf(address(this)), ccipFee) */\n    tag_90:\n      mload(0x40)\n      dup1\n      swap2\n      sub\n      swap1\n      revert\n        /* \"TransferUSDCBasic.sol\":2982:3119  if (ccipFee > linkToken.balanceOf(address(this)))... */\n    tag_85:\n        /* \"TransferUSDCBasic.sol\":3129:3176  linkToken.approve(address(ccipRouter), ccipFee) */\n      mload(0x40)\n      shl(0xe0, 0x095ea7b3)\n      dup2\n      mstore\n      sub(shl(0xa0, 0x01), 0x01)\n        /* \"TransferUSDCBasic.sol\":3155:3165  ccipRouter */\n      immutable(\"0xf44e26cb6192c7a70f026ebae4c4bdf0822fd8ec199501187afd94cd2c3c7097\")\n        /* \"#utility.yul\":2222:2254   */\n      dup2\n      and\n        /* \"TransferUSDCBasic.sol\":3129:3176  linkToken.approve(address(ccipRouter), ccipFee) */\n      0x04\n      dup4\n      add\n        /* \"#utility.yul\":2204:2255   */\n      mstore\n        /* \"#utility.yul\":2271:2289   */\n      0x24\n      dup3\n      add\n        /* \"#utility.yul\":2264:2298   */\n      dup4\n      swap1\n      mstore\n        /* \"TransferUSDCBasic.sol\":3129:3138  linkToken */\n      immutable(\"0x51af0b011a8186c01f00efb4bfb18f2c7a1b6da2f988a2541d85684767c6542e\")\n        /* \"TransferUSDCBasic.sol\":3129:3146  linkToken.approve */\n      and\n      swap1\n      0x095ea7b3\n      swap1\n        /* \"#utility.yul\":2177:2195   */\n      0x44\n      add\n        /* \"TransferUSDCBasic.sol\":3129:3176  linkToken.approve(address(ccipRouter), ccipFee) */\n      0x20\n      mload(0x40)\n      dup1\n      dup4\n      sub\n      dup2\n      0x00\n      dup8\n      gas\n      call\n      iszero\n      dup1\n      iszero\n      tag_93\n      jumpi\n      returndatasize\n      0x00\n      dup1\n      returndatacopy\n      revert(0x00, returndatasize)\n    tag_93:\n      pop\n      pop\n      pop\n      pop\n      mload(0x40)\n      returndatasize\n      not(0x1f)\n      0x1f\n      dup3\n      add\n      and\n      dup3\n      add\n      dup1\n      0x40\n      mstore\n      pop\n      dup2\n      add\n      swap1\n      tag_94\n      swap2\n      swap1\n      tag_46\n      jump\t// in\n    tag_94:\n      pop\n        /* \"TransferUSDCBasic.sol\":3201:3232  usdcToken.balanceOf(msg.sender) */\n      mload(0x40)\n      shl(0xe0, 0x70a08231)\n      dup2\n      mstore\n        /* \"TransferUSDCBasic.sol\":3221:3231  msg.sender */\n      caller\n        /* \"TransferUSDCBasic.sol\":3201:3232  usdcToken.balanceOf(msg.sender) */\n      0x04\n      dup3\n      add\n        /* \"#utility.yul\":1156:1207   */\n      mstore\n        /* \"TransferUSDCBasic.sol\":3201:3210  usdcToken */\n      immutable(\"0xed5982c3d05e794784cff21558897eecbae249eb7518af5506bc91284dc3b788\")\n      sub(shl(0xa0, 0x01), 0x01)\n        /* \"TransferUSDCBasic.sol\":3201:3220  usdcToken.balanceOf */\n      and\n      swap1\n      0x70a08231\n      swap1\n        /* \"#utility.yul\":1129:1147   */\n      0x24\n      add\n        /* \"TransferUSDCBasic.sol\":3201:3232  usdcToken.balanceOf(msg.sender) */\n      0x20\n      mload(0x40)\n      dup1\n      dup4\n      sub\n      dup2\n      dup7\n      gas\n      staticcall\n      iszero\n      dup1\n      iszero\n      tag_97\n      jumpi\n      returndatasize\n      0x00\n      dup1\n      returndatacopy\n      revert(0x00, returndatasize)\n    tag_97:\n      pop\n      pop\n      pop\n      pop\n      mload(0x40)\n      returndatasize\n      not(0x1f)\n      0x1f\n      dup3\n      add\n      and\n      dup3\n      add\n      dup1\n      0x40\n      mstore\n      pop\n      dup2\n      add\n      swap1\n      tag_98\n      swap2\n      swap1\n      tag_39\n      jump\t// in\n    tag_98:\n        /* \"TransferUSDCBasic.sol\":3191:3198  _amount */\n      dup7\n        /* \"TransferUSDCBasic.sol\":3191:3232  _amount > usdcToken.balanceOf(msg.sender) */\n      gt\n        /* \"TransferUSDCBasic.sol\":3187:3317  if (_amount > usdcToken.balanceOf(msg.sender))... */\n      iszero\n      tag_99\n      jumpi\n        /* \"TransferUSDCBasic.sol\":3285:3316  usdcToken.balanceOf(msg.sender) */\n      mload(0x40)\n      shl(0xe0, 0x70a08231)\n      dup2\n      mstore\n        /* \"TransferUSDCBasic.sol\":3305:3315  msg.sender */\n      caller\n        /* \"TransferUSDCBasic.sol\":3285:3316  usdcToken.balanceOf(msg.sender) */\n      0x04\n      dup3\n      add\n        /* \"#utility.yul\":1156:1207   */\n      mstore\n        /* \"TransferUSDCBasic.sol\":3285:3294  usdcToken */\n      immutable(\"0xed5982c3d05e794784cff21558897eecbae249eb7518af5506bc91284dc3b788\")\n      sub(shl(0xa0, 0x01), 0x01)\n        /* \"TransferUSDCBasic.sol\":3285:3304  usdcToken.balanceOf */\n      and\n      swap1\n      0x70a08231\n      swap1\n        /* \"#utility.yul\":1129:1147   */\n      0x24\n      add\n        /* \"TransferUSDCBasic.sol\":3285:3316  usdcToken.balanceOf(msg.sender) */\n      0x20\n      mload(0x40)\n      dup1\n      dup4\n      sub\n      dup2\n      dup7\n      gas\n      staticcall\n      iszero\n      dup1\n      iszero\n      tag_102\n      jumpi\n      returndatasize\n      0x00\n      dup1\n      returndatacopy\n      revert(0x00, returndatasize)\n    tag_102:\n      pop\n      pop\n      pop\n      pop\n      mload(0x40)\n      returndatasize\n      not(0x1f)\n      0x1f\n      dup3\n      add\n      and\n      dup3\n      add\n      dup1\n      0x40\n      mstore\n      pop\n      dup2\n      add\n      swap1\n      tag_103\n      swap2\n      swap1\n      tag_39\n      jump\t// in\n    tag_103:\n        /* \"TransferUSDCBasic.sol\":3253:3317  NotEnoughBalanceUsdcForTransfer(usdcToken.balanceOf(msg.sender)) */\n      mload(0x40)\n      shl(0xe0, 0x6212cf3b)\n      dup2\n      mstore\n      0x04\n      add\n      tag_90\n      swap2\n        /* \"#utility.yul\":1364:1389   */\n      dup2\n      mstore\n        /* \"#utility.yul\":1352:1354   */\n      0x20\n        /* \"#utility.yul\":1337:1355   */\n      add\n      swap1\n        /* \"#utility.yul\":1218:1395   */\n      jump\n        /* \"TransferUSDCBasic.sol\":3187:3317  if (_amount > usdcToken.balanceOf(msg.sender))... */\n    tag_99:\n        /* \"TransferUSDCBasic.sol\":3327:3389  usdcToken.safeTransferFrom(msg.sender, address(this), _amount) */\n      tag_105\n      sub(shl(0xa0, 0x01), 0x01)\n        /* \"TransferUSDCBasic.sol\":3327:3336  usdcToken */\n      immutable(\"0xed5982c3d05e794784cff21558897eecbae249eb7518af5506bc91284dc3b788\")\n        /* \"TransferUSDCBasic.sol\":3327:3353  usdcToken.safeTransferFrom */\n      and\n        /* \"TransferUSDCBasic.sol\":3354:3364  msg.sender */\n      caller\n        /* \"TransferUSDCBasic.sol\":3374:3378  this */\n      address\n        /* \"TransferUSDCBasic.sol\":3381:3388  _amount */\n      dup10\n        /* \"TransferUSDCBasic.sol\":3327:3353  usdcToken.safeTransferFrom */\n      tag_106\n        /* \"TransferUSDCBasic.sol\":3327:3389  usdcToken.safeTransferFrom(msg.sender, address(this), _amount) */\n      jump\t// in\n    tag_105:\n        /* \"TransferUSDCBasic.sol\":3399:3446  usdcToken.approve(address(ccipRouter), _amount) */\n      mload(0x40)\n      shl(0xe0, 0x095ea7b3)\n      dup2\n      mstore\n      sub(shl(0xa0, 0x01), 0x01)\n        /* \"TransferUSDCBasic.sol\":3425:3435  ccipRouter */\n      immutable(\"0xf44e26cb6192c7a70f026ebae4c4bdf0822fd8ec199501187afd94cd2c3c7097\")\n        /* \"#utility.yul\":2222:2254   */\n      dup2\n      and\n        /* \"TransferUSDCBasic.sol\":3399:3446  usdcToken.approve(address(ccipRouter), _amount) */\n      0x04\n      dup4\n      add\n        /* \"#utility.yul\":2204:2255   */\n      mstore\n        /* \"#utility.yul\":2271:2289   */\n      0x24\n      dup3\n      add\n        /* \"#utility.yul\":2264:2298   */\n      dup9\n      swap1\n      mstore\n        /* \"TransferUSDCBasic.sol\":3399:3408  usdcToken */\n      immutable(\"0xed5982c3d05e794784cff21558897eecbae249eb7518af5506bc91284dc3b788\")\n        /* \"TransferUSDCBasic.sol\":3399:3416  usdcToken.approve */\n      and\n      swap1\n      0x095ea7b3\n      swap1\n        /* \"#utility.yul\":2177:2195   */\n      0x44\n      add\n        /* \"TransferUSDCBasic.sol\":3399:3446  usdcToken.approve(address(ccipRouter), _amount) */\n      0x20\n      mload(0x40)\n      dup1\n      dup4\n      sub\n      dup2\n      0x00\n      dup8\n      gas\n      call\n      iszero\n      dup1\n      iszero\n      tag_109\n      jumpi\n      returndatasize\n      0x00\n      dup1\n      returndatacopy\n      revert(0x00, returndatasize)\n    tag_109:\n      pop\n      pop\n      pop\n      pop\n      mload(0x40)\n      returndatasize\n      not(0x1f)\n      0x1f\n      dup3\n      add\n      and\n      dup3\n      add\n      dup1\n      0x40\n      mstore\n      pop\n      dup2\n      add\n      swap1\n      tag_110\n      swap2\n      swap1\n      tag_46\n      jump\t// in\n    tag_110:\n      pop\n        /* \"TransferUSDCBasic.sol\":3518:3542  destinationChainSelector */\n      sload(0x03)\n        /* \"TransferUSDCBasic.sol\":3498:3552  ccipRouter.ccipSend(destinationChainSelector, message) */\n      mload(0x40)\n      shl(0xe0, 0x96f4e9f9)\n      dup2\n      mstore\n        /* \"TransferUSDCBasic.sol\":3498:3508  ccipRouter */\n      immutable(\"0xf44e26cb6192c7a70f026ebae4c4bdf0822fd8ec199501187afd94cd2c3c7097\")\n      sub(shl(0xa0, 0x01), 0x01)\n        /* \"TransferUSDCBasic.sol\":3498:3517  ccipRouter.ccipSend */\n      and\n      swap2\n      0x96f4e9f9\n      swap2\n        /* \"TransferUSDCBasic.sol\":3498:3552  ccipRouter.ccipSend(destinationChainSelector, message) */\n      tag_111\n      swap2\n      shl(0xa0, 0x01)\n        /* \"TransferUSDCBasic.sol\":3518:3542  destinationChainSelector */\n      swap1\n      div\n      0xffffffffffffffff\n      and\n      swap1\n        /* \"TransferUSDCBasic.sol\":3544:3551  message */\n      dup7\n      swap1\n        /* \"TransferUSDCBasic.sol\":3498:3552  ccipRouter.ccipSend(destinationChainSelector, message) */\n      0x04\n      add\n      tag_77\n      jump\t// in\n    tag_111:\n      0x20\n      mload(0x40)\n      dup1\n      dup4\n      sub\n      dup2\n      0x00\n      dup8\n      gas\n      call\n      iszero\n      dup1\n      iszero\n      tag_113\n      jumpi\n      returndatasize\n      0x00\n      dup1\n      returndatacopy\n      revert(0x00, returndatasize)\n    tag_113:\n      pop\n      pop\n      pop\n      pop\n      mload(0x40)\n      returndatasize\n      not(0x1f)\n      0x1f\n      dup3\n      add\n      and\n      dup3\n      add\n      dup1\n      0x40\n      mstore\n      pop\n      dup2\n      add\n      swap1\n      tag_114\n      swap2\n      swap1\n      tag_39\n      jump\t// in\n    tag_114:\n        /* \"TransferUSDCBasic.sol\":3620:3644  destinationChainSelector */\n      sload(0x03)\n        /* \"TransferUSDCBasic.sol\":3568:3719  UsdcTransferred(... */\n      0x40\n      dup1\n      mload\n        /* \"#utility.yul\":5746:5771   */\n      dup4\n      dup2\n      mstore\n      shl(0xa0, 0x01)\n        /* \"TransferUSDCBasic.sol\":3620:3644  destinationChainSelector */\n      swap1\n      swap3\n      div\n      0xffffffffffffffff\n      and\n        /* \"#utility.yul\":5802:5804   */\n      0x20\n        /* \"#utility.yul\":5787:5805   */\n      dup4\n      add\n        /* \"#utility.yul\":5780:5839   */\n      mstore\n      sub(shl(0xa0, 0x01), 0x01)\n        /* \"#utility.yul\":5875:5907   */\n      dup11\n      and\n        /* \"#utility.yul\":5855:5873   */\n      swap1\n      dup3\n      add\n        /* \"#utility.yul\":5848:5908   */\n      mstore\n        /* \"#utility.yul\":5939:5941   */\n      0x60\n        /* \"#utility.yul\":5924:5942   */\n      dup2\n      add\n        /* \"#utility.yul\":5917:5951   */\n      dup9\n      swap1\n      mstore\n        /* \"#utility.yul\":5982:5985   */\n      0x80\n        /* \"#utility.yul\":5967:5986   */\n      dup2\n      add\n        /* \"#utility.yul\":5960:5995   */\n      dup4\n      swap1\n      mstore\n        /* \"#utility.yul\":5746:5771   */\n      swap1\n      swap6\n      pop\n        /* \"TransferUSDCBasic.sol\":3568:3719  UsdcTransferred(... */\n      0xb55a3d3f1ccd1c10f00aff03ad884028d98fa1d478fae03acecbf884ce8e8fbc\n      swap1\n        /* \"#utility.yul\":5733:5736   */\n      0xa0\n        /* \"#utility.yul\":5718:5737   */\n      add\n        /* \"TransferUSDCBasic.sol\":3568:3719  UsdcTransferred(... */\n      mload(0x40)\n      dup1\n      swap2\n      sub\n      swap1\n      log1\n        /* \"TransferUSDCBasic.sol\":2221:3726  {... */\n      pop\n      pop\n      pop\n      pop\n        /* \"TransferUSDCBasic.sol\":2075:3726  function transferUsdcToSepolia(... */\n      swap3\n      swap2\n      pop\n      pop\n      jump\t// out\n        /* \"@chainlink/contracts-ccip/src/v0.8/vendor/openzeppelin-solidity/v4.8.0/token/ERC20/utils/SafeERC20.sol\":948:1165  function safeTransferFrom(... */\n    tag_106:\n        /* \"@chainlink/contracts-ccip/src/v0.8/vendor/openzeppelin-solidity/v4.8.0/token/ERC20/utils/SafeERC20.sol\":1091:1159  abi.encodeWithSelector(token.transferFrom.selector, from, to, value) */\n      0x40\n      dup1\n      mload\n      sub(shl(0xa0, 0x01), 0x01)\n        /* \"#utility.yul\":6513:6528   */\n      dup6\n      dup2\n      and\n        /* \"@chainlink/contracts-ccip/src/v0.8/vendor/openzeppelin-solidity/v4.8.0/token/ERC20/utils/SafeERC20.sol\":1091:1159  abi.encodeWithSelector(token.transferFrom.selector, from, to, value) */\n      0x24\n      dup4\n      add\n        /* \"#utility.yul\":6495:6529   */\n      mstore\n        /* \"#utility.yul\":6565:6580   */\n      dup5\n      dup2\n      and\n        /* \"#utility.yul\":6545:6563   */\n      0x44\n      dup4\n      add\n        /* \"#utility.yul\":6538:6581   */\n      mstore\n        /* \"#utility.yul\":6597:6615   */\n      0x64\n      dup1\n      dup4\n      add\n        /* \"#utility.yul\":6590:6624   */\n      dup6\n      swap1\n      mstore\n        /* \"@chainlink/contracts-ccip/src/v0.8/vendor/openzeppelin-solidity/v4.8.0/token/ERC20/utils/SafeERC20.sol\":1091:1159  abi.encodeWithSelector(token.transferFrom.selector, from, to, value) */\n      dup4\n      mload\n      dup1\n      dup5\n      sub\n      swap1\n      swap2\n      add\n      dup2\n      mstore\n        /* \"#utility.yul\":6430:6448   */\n      0x84\n      swap1\n      swap3\n      add\n        /* \"@chainlink/contracts-ccip/src/v0.8/vendor/openzeppelin-solidity/v4.8.0/token/ERC20/utils/SafeERC20.sol\":1091:1159  abi.encodeWithSelector(token.transferFrom.selector, from, to, value) */\n      dup4\n      mstore\n      0x20\n      dup1\n      dup4\n      add\n      dup1\n      mload\n      sub(shl(0xe0, 0x01), 0x01)\n      and\n      shl(0xe0, 0x23b872dd)\n      or\n      swap1\n      mstore\n        /* \"@chainlink/contracts-ccip/src/v0.8/vendor/openzeppelin-solidity/v4.8.0/token/ERC20/utils/SafeERC20.sol\":3914:3983  address(token).functionCall(data, \"SafeERC20: low-level call failed\") */\n      dup4\n      mload\n      dup1\n      dup6\n      add\n      swap1\n      swap5\n      mstore\n      dup1\n      dup5\n      mstore\n      0x5361666545524332303a206c6f772d6c6576656c2063616c6c206661696c6564\n      swap1\n      dup5\n      add\n      mstore\n        /* \"@chainlink/contracts-ccip/src/v0.8/vendor/openzeppelin-solidity/v4.8.0/token/ERC20/utils/SafeERC20.sol\":1064:1160  _callOptionalReturn(token, abi.encodeWithSelector(token.transferFrom.selector, from, to, value)) */\n      tag_45\n      swap3\n        /* \"@chainlink/contracts-ccip/src/v0.8/vendor/openzeppelin-solidity/v4.8.0/token/ERC20/utils/SafeERC20.sol\":1084:1089  token */\n      dup8\n      swap3\n        /* \"@chainlink/contracts-ccip/src/v0.8/vendor/openzeppelin-solidity/v4.8.0/token/ERC20/utils/SafeERC20.sol\":1091:1159  abi.encodeWithSelector(token.transferFrom.selector, from, to, value) */\n      swap2\n      0x00\n      swap2\n        /* \"@chainlink/contracts-ccip/src/v0.8/vendor/openzeppelin-solidity/v4.8.0/token/ERC20/utils/SafeERC20.sol\":3914:3983  address(token).functionCall(data, \"SafeERC20: low-level call failed\") */\n      tag_127\n      swap2\n        /* \"@chainlink/contracts-ccip/src/v0.8/vendor/openzeppelin-solidity/v4.8.0/token/ERC20/utils/SafeERC20.sol\":3914:3941  address(token).functionCall */\n      dup6\n      and\n      swap1\n        /* \"@chainlink/contracts-ccip/src/v0.8/vendor/openzeppelin-solidity/v4.8.0/token/ERC20/utils/SafeERC20.sol\":1091:1159  abi.encodeWithSelector(token.transferFrom.selector, from, to, value) */\n      dup5\n      swap1\n        /* \"@chainlink/contracts-ccip/src/v0.8/vendor/openzeppelin-solidity/v4.8.0/token/ERC20/utils/SafeERC20.sol\":3914:3941  address(token).functionCall */\n      tag_128\n        /* \"@chainlink/contracts-ccip/src/v0.8/vendor/openzeppelin-solidity/v4.8.0/token/ERC20/utils/SafeERC20.sol\":3914:3983  address(token).functionCall(data, \"SafeERC20: low-level call failed\") */\n      jump\t// in\n    tag_127:\n        /* \"@chainlink/contracts-ccip/src/v0.8/vendor/openzeppelin-solidity/v4.8.0/token/ERC20/utils/SafeERC20.sol\":3993:4010  returndata.length */\n      dup1\n      mload\n        /* \"@chainlink/contracts-ccip/src/v0.8/vendor/openzeppelin-solidity/v4.8.0/token/ERC20/utils/SafeERC20.sol\":3888:3983  bytes memory returndata = address(token).functionCall(data, \"SafeERC20: low-level call failed\") */\n      swap1\n      swap2\n      pop\n        /* \"@chainlink/contracts-ccip/src/v0.8/vendor/openzeppelin-solidity/v4.8.0/token/ERC20/utils/SafeERC20.sol\":3993:4014  returndata.length > 0 */\n      iszero\n        /* \"@chainlink/contracts-ccip/src/v0.8/vendor/openzeppelin-solidity/v4.8.0/token/ERC20/utils/SafeERC20.sol\":3989:4149  if (returndata.length > 0) {... */\n      tag_131\n      jumpi\n        /* \"@chainlink/contracts-ccip/src/v0.8/vendor/openzeppelin-solidity/v4.8.0/token/ERC20/utils/SafeERC20.sol\":4076:4086  returndata */\n      dup1\n        /* \"@chainlink/contracts-ccip/src/v0.8/vendor/openzeppelin-solidity/v4.8.0/token/ERC20/utils/SafeERC20.sol\":4065:4095  abi.decode(returndata, (bool)) */\n      dup1\n      0x20\n      add\n      swap1\n      mload\n      dup2\n      add\n      swap1\n      tag_130\n      swap2\n      swap1\n      tag_46\n      jump\t// in\n    tag_130:\n        /* \"@chainlink/contracts-ccip/src/v0.8/vendor/openzeppelin-solidity/v4.8.0/token/ERC20/utils/SafeERC20.sol\":4057:4142  require(abi.decode(returndata, (bool)), \"SafeERC20: ERC20 operation did not succeed\") */\n      tag_131\n      jumpi\n      mload(0x40)\n      shl(0xe5, 0x461bcd)\n      dup2\n      mstore\n        /* \"#utility.yul\":6837:6839   */\n      0x20\n        /* \"@chainlink/contracts-ccip/src/v0.8/vendor/openzeppelin-solidity/v4.8.0/token/ERC20/utils/SafeERC20.sol\":4057:4142  require(abi.decode(returndata, (bool)), \"SafeERC20: ERC20 operation did not succeed\") */\n      0x04\n      dup3\n      add\n        /* \"#utility.yul\":6819:6840   */\n      mstore\n        /* \"#utility.yul\":6876:6878   */\n      0x2a\n        /* \"#utility.yul\":6856:6874   */\n      0x24\n      dup3\n      add\n        /* \"#utility.yul\":6849:6879   */\n      mstore\n        /* \"#utility.yul\":6915:6949   */\n      0x5361666545524332303a204552433230206f7065726174696f6e20646964206e\n        /* \"#utility.yul\":6895:6913   */\n      0x44\n      dup3\n      add\n        /* \"#utility.yul\":6888:6950   */\n      mstore\n      shl(0xb2, 0x1bdd081cdd58d8d95959)\n        /* \"#utility.yul\":6966:6984   */\n      0x64\n      dup3\n      add\n        /* \"#utility.yul\":6959:6999   */\n      mstore\n        /* \"#utility.yul\":7016:7035   */\n      0x84\n      add\n        /* \"@chainlink/contracts-ccip/src/v0.8/vendor/openzeppelin-solidity/v4.8.0/token/ERC20/utils/SafeERC20.sol\":4057:4142  require(abi.decode(returndata, (bool)), \"SafeERC20: ERC20 operation did not succeed\") */\n      tag_90\n        /* \"#utility.yul\":6635:7041   */\n      jump\n        /* \"@chainlink/contracts-ccip/src/v0.8/vendor/openzeppelin-solidity/v4.8.0/token/ERC20/utils/SafeERC20.sol\":4057:4142  require(abi.decode(returndata, (bool)), \"SafeERC20: ERC20 operation did not succeed\") */\n    tag_131:\n        /* \"@chainlink/contracts-ccip/src/v0.8/vendor/openzeppelin-solidity/v4.8.0/token/ERC20/utils/SafeERC20.sol\":3555:4153  {... */\n      pop\n        /* \"@chainlink/contracts-ccip/src/v0.8/vendor/openzeppelin-solidity/v4.8.0/token/ERC20/utils/SafeERC20.sol\":3485:4153  function _callOptionalReturn(IERC20 token, bytes memory data) private {... */\n      pop\n      pop\n      jump\t// out\n        /* \"@chainlink/contracts-ccip/src/v0.8/vendor/openzeppelin-solidity/v4.8.0/utils/Address.sol\":3695:3898  function functionCall(... */\n    tag_128:\n        /* \"@chainlink/contracts-ccip/src/v0.8/vendor/openzeppelin-solidity/v4.8.0/utils/Address.sol\":3814:3826  bytes memory */\n      0x60\n        /* \"@chainlink/contracts-ccip/src/v0.8/vendor/openzeppelin-solidity/v4.8.0/utils/Address.sol\":3841:3893  functionCallWithValue(target, data, 0, errorMessage) */\n      tag_135\n        /* \"@chainlink/contracts-ccip/src/v0.8/vendor/openzeppelin-solidity/v4.8.0/utils/Address.sol\":3863:3869  target */\n      dup5\n        /* \"@chainlink/contracts-ccip/src/v0.8/vendor/openzeppelin-solidity/v4.8.0/utils/Address.sol\":3871:3875  data */\n      dup5\n        /* \"@chainlink/contracts-ccip/src/v0.8/vendor/openzeppelin-solidity/v4.8.0/utils/Address.sol\":3877:3878  0 */\n      0x00\n        /* \"@chainlink/contracts-ccip/src/v0.8/vendor/openzeppelin-solidity/v4.8.0/utils/Address.sol\":3880:3892  errorMessage */\n      dup6\n        /* \"@chainlink/contracts-ccip/src/v0.8/vendor/openzeppelin-solidity/v4.8.0/utils/Address.sol\":3841:3862  functionCallWithValue */\n      tag_136\n        /* \"@chainlink/contracts-ccip/src/v0.8/vendor/openzeppelin-solidity/v4.8.0/utils/Address.sol\":3841:3893  functionCallWithValue(target, data, 0, errorMessage) */\n      jump\t// in\n    tag_135:\n        /* \"@chainlink/contracts-ccip/src/v0.8/vendor/openzeppelin-solidity/v4.8.0/utils/Address.sol\":3834:3893  return functionCallWithValue(target, data, 0, errorMessage) */\n      swap5\n        /* \"@chainlink/contracts-ccip/src/v0.8/vendor/openzeppelin-solidity/v4.8.0/utils/Address.sol\":3695:3898  function functionCall(... */\n      swap4\n      pop\n      pop\n      pop\n      pop\n      jump\t// out\n        /* \"@chainlink/contracts-ccip/src/v0.8/vendor/openzeppelin-solidity/v4.8.0/utils/Address.sol\":4704:5118  function functionCallWithValue(... */\n    tag_136:\n        /* \"@chainlink/contracts-ccip/src/v0.8/vendor/openzeppelin-solidity/v4.8.0/utils/Address.sol\":4851:4863  bytes memory */\n      0x60\n        /* \"@chainlink/contracts-ccip/src/v0.8/vendor/openzeppelin-solidity/v4.8.0/utils/Address.sol\":4904:4909  value */\n      dup3\n        /* \"@chainlink/contracts-ccip/src/v0.8/vendor/openzeppelin-solidity/v4.8.0/utils/Address.sol\":4879:4900  address(this).balance */\n      selfbalance\n        /* \"@chainlink/contracts-ccip/src/v0.8/vendor/openzeppelin-solidity/v4.8.0/utils/Address.sol\":4879:4909  address(this).balance >= value */\n      lt\n      iszero\n        /* \"@chainlink/contracts-ccip/src/v0.8/vendor/openzeppelin-solidity/v4.8.0/utils/Address.sol\":4871:4952  require(address(this).balance >= value, \"Address: insufficient balance for call\") */\n      tag_138\n      jumpi\n      mload(0x40)\n      shl(0xe5, 0x461bcd)\n      dup2\n      mstore\n        /* \"#utility.yul\":7248:7250   */\n      0x20\n        /* \"@chainlink/contracts-ccip/src/v0.8/vendor/openzeppelin-solidity/v4.8.0/utils/Address.sol\":4871:4952  require(address(this).balance >= value, \"Address: insufficient balance for call\") */\n      0x04\n      dup3\n      add\n        /* \"#utility.yul\":7230:7251   */\n      mstore\n        /* \"#utility.yul\":7287:7289   */\n      0x26\n        /* \"#utility.yul\":7267:7285   */\n      0x24\n      dup3\n      add\n        /* \"#utility.yul\":7260:7290   */\n      mstore\n        /* \"#utility.yul\":7326:7360   */\n      0x416464726573733a20696e73756666696369656e742062616c616e636520666f\n        /* \"#utility.yul\":7306:7324   */\n      0x44\n      dup3\n      add\n        /* \"#utility.yul\":7299:7361   */\n      mstore\n      shl(0xd2, 0x1c8818d85b1b)\n        /* \"#utility.yul\":7377:7395   */\n      0x64\n      dup3\n      add\n        /* \"#utility.yul\":7370:7406   */\n      mstore\n        /* \"#utility.yul\":7423:7442   */\n      0x84\n      add\n        /* \"@chainlink/contracts-ccip/src/v0.8/vendor/openzeppelin-solidity/v4.8.0/utils/Address.sol\":4871:4952  require(address(this).balance >= value, \"Address: insufficient balance for call\") */\n      tag_90\n        /* \"#utility.yul\":7046:7448   */\n      jump\n        /* \"@chainlink/contracts-ccip/src/v0.8/vendor/openzeppelin-solidity/v4.8.0/utils/Address.sol\":4871:4952  require(address(this).balance >= value, \"Address: insufficient balance for call\") */\n    tag_138:\n        /* \"@chainlink/contracts-ccip/src/v0.8/vendor/openzeppelin-solidity/v4.8.0/utils/Address.sol\":4959:4971  bool success */\n      0x00\n        /* \"@chainlink/contracts-ccip/src/v0.8/vendor/openzeppelin-solidity/v4.8.0/utils/Address.sol\":4973:4996  bytes memory returndata */\n      dup1\n        /* \"@chainlink/contracts-ccip/src/v0.8/vendor/openzeppelin-solidity/v4.8.0/utils/Address.sol\":5000:5006  target */\n      dup7\n      sub(shl(0xa0, 0x01), 0x01)\n        /* \"@chainlink/contracts-ccip/src/v0.8/vendor/openzeppelin-solidity/v4.8.0/utils/Address.sol\":5000:5011  target.call */\n      and\n        /* \"@chainlink/contracts-ccip/src/v0.8/vendor/openzeppelin-solidity/v4.8.0/utils/Address.sol\":5019:5024  value */\n      dup6\n        /* \"@chainlink/contracts-ccip/src/v0.8/vendor/openzeppelin-solidity/v4.8.0/utils/Address.sol\":5026:5030  data */\n      dup8\n        /* \"@chainlink/contracts-ccip/src/v0.8/vendor/openzeppelin-solidity/v4.8.0/utils/Address.sol\":5000:5031  target.call{value: value}(data) */\n      mload(0x40)\n      tag_141\n      swap2\n      swap1\n      tag_142\n      jump\t// in\n    tag_141:\n      0x00\n      mload(0x40)\n      dup1\n      dup4\n      sub\n      dup2\n      dup6\n      dup8\n      gas\n      call\n      swap3\n      pop\n      pop\n      pop\n      returndatasize\n      dup1\n      0x00\n      dup2\n      eq\n      tag_145\n      jumpi\n      mload(0x40)\n      swap2\n      pop\n      and(add(returndatasize, 0x3f), not(0x1f))\n      dup3\n      add\n      0x40\n      mstore\n      returndatasize\n      dup3\n      mstore\n      returndatasize\n      0x00\n      0x20\n      dup5\n      add\n      returndatacopy\n      jump(tag_144)\n    tag_145:\n      0x60\n      swap2\n      pop\n    tag_144:\n      pop\n        /* \"@chainlink/contracts-ccip/src/v0.8/vendor/openzeppelin-solidity/v4.8.0/utils/Address.sol\":4958:5031  (bool success, bytes memory returndata) = target.call{value: value}(data) */\n      swap2\n      pop\n      swap2\n      pop\n        /* \"@chainlink/contracts-ccip/src/v0.8/vendor/openzeppelin-solidity/v4.8.0/utils/Address.sol\":5044:5113  verifyCallResultFromTarget(target, success, returndata, errorMessage) */\n      tag_146\n        /* \"@chainlink/contracts-ccip/src/v0.8/vendor/openzeppelin-solidity/v4.8.0/utils/Address.sol\":5071:5077  target */\n      dup8\n        /* \"@chainlink/contracts-ccip/src/v0.8/vendor/openzeppelin-solidity/v4.8.0/utils/Address.sol\":5079:5086  success */\n      dup4\n        /* \"@chainlink/contracts-ccip/src/v0.8/vendor/openzeppelin-solidity/v4.8.0/utils/Address.sol\":5088:5098  returndata */\n      dup4\n        /* \"@chainlink/contracts-ccip/src/v0.8/vendor/openzeppelin-solidity/v4.8.0/utils/Address.sol\":5100:5112  errorMessage */\n      dup8\n        /* \"@chainlink/contracts-ccip/src/v0.8/vendor/openzeppelin-solidity/v4.8.0/utils/Address.sol\":5044:5070  verifyCallResultFromTarget */\n      tag_147\n        /* \"@chainlink/contracts-ccip/src/v0.8/vendor/openzeppelin-solidity/v4.8.0/utils/Address.sol\":5044:5113  verifyCallResultFromTarget(target, success, returndata, errorMessage) */\n      jump\t// in\n    tag_146:\n        /* \"@chainlink/contracts-ccip/src/v0.8/vendor/openzeppelin-solidity/v4.8.0/utils/Address.sol\":5037:5113  return verifyCallResultFromTarget(target, success, returndata, errorMessage) */\n      swap8\n        /* \"@chainlink/contracts-ccip/src/v0.8/vendor/openzeppelin-solidity/v4.8.0/utils/Address.sol\":4704:5118  function functionCallWithValue(... */\n      swap7\n      pop\n      pop\n      pop\n      pop\n      pop\n      pop\n      pop\n      jump\t// out\n        /* \"@chainlink/contracts-ccip/src/v0.8/vendor/openzeppelin-solidity/v4.8.0/utils/Address.sol\":7048:7596  function verifyCallResultFromTarget(... */\n    tag_147:\n        /* \"@chainlink/contracts-ccip/src/v0.8/vendor/openzeppelin-solidity/v4.8.0/utils/Address.sol\":7210:7222  bytes memory */\n      0x60\n        /* \"@chainlink/contracts-ccip/src/v0.8/vendor/openzeppelin-solidity/v4.8.0/utils/Address.sol\":7234:7241  success */\n      dup4\n        /* \"@chainlink/contracts-ccip/src/v0.8/vendor/openzeppelin-solidity/v4.8.0/utils/Address.sol\":7230:7592  if (success) {... */\n      iszero\n      tag_149\n      jumpi\n        /* \"@chainlink/contracts-ccip/src/v0.8/vendor/openzeppelin-solidity/v4.8.0/utils/Address.sol\":7255:7265  returndata */\n      dup3\n        /* \"@chainlink/contracts-ccip/src/v0.8/vendor/openzeppelin-solidity/v4.8.0/utils/Address.sol\":7255:7272  returndata.length */\n      mload\n        /* \"@chainlink/contracts-ccip/src/v0.8/vendor/openzeppelin-solidity/v4.8.0/utils/Address.sol\":7276:7277  0 */\n      0x00\n        /* \"@chainlink/contracts-ccip/src/v0.8/vendor/openzeppelin-solidity/v4.8.0/utils/Address.sol\":7255:7277  returndata.length == 0 */\n      sub\n        /* \"@chainlink/contracts-ccip/src/v0.8/vendor/openzeppelin-solidity/v4.8.0/utils/Address.sol\":7251:7507  if (returndata.length == 0) {... */\n      tag_153\n      jumpi\n      sub(shl(0xa0, 0x01), 0x01)\n        /* \"@chainlink/contracts-ccip/src/v0.8/vendor/openzeppelin-solidity/v4.8.0/utils/Address.sol\":1395:1414  account.code.length */\n      dup6\n      and\n      extcodesize\n        /* \"@chainlink/contracts-ccip/src/v0.8/vendor/openzeppelin-solidity/v4.8.0/utils/Address.sol\":7438:7498  require(isContract(target), \"Address: call to non-contract\") */\n      tag_153\n      jumpi\n      mload(0x40)\n      shl(0xe5, 0x461bcd)\n      dup2\n      mstore\n        /* \"#utility.yul\":7947:7949   */\n      0x20\n        /* \"@chainlink/contracts-ccip/src/v0.8/vendor/openzeppelin-solidity/v4.8.0/utils/Address.sol\":7438:7498  require(isContract(target), \"Address: call to non-contract\") */\n      0x04\n      dup3\n      add\n        /* \"#utility.yul\":7929:7950   */\n      mstore\n        /* \"#utility.yul\":7986:7988   */\n      0x1d\n        /* \"#utility.yul\":7966:7984   */\n      0x24\n      dup3\n      add\n        /* \"#utility.yul\":7959:7989   */\n      mstore\n        /* \"#utility.yul\":8025:8056   */\n      0x416464726573733a2063616c6c20746f206e6f6e2d636f6e7472616374000000\n        /* \"#utility.yul\":8005:8023   */\n      0x44\n      dup3\n      add\n        /* \"#utility.yul\":7998:8057   */\n      mstore\n        /* \"#utility.yul\":8074:8092   */\n      0x64\n      add\n        /* \"@chainlink/contracts-ccip/src/v0.8/vendor/openzeppelin-solidity/v4.8.0/utils/Address.sol\":7438:7498  require(isContract(target), \"Address: call to non-contract\") */\n      tag_90\n        /* \"#utility.yul\":7745:8098   */\n      jump\n        /* \"@chainlink/contracts-ccip/src/v0.8/vendor/openzeppelin-solidity/v4.8.0/utils/Address.sol\":7438:7498  require(isContract(target), \"Address: call to non-contract\") */\n    tag_153:\n      pop\n        /* \"@chainlink/contracts-ccip/src/v0.8/vendor/openzeppelin-solidity/v4.8.0/utils/Address.sol\":7521:7531  returndata */\n      dup2\n        /* \"@chainlink/contracts-ccip/src/v0.8/vendor/openzeppelin-solidity/v4.8.0/utils/Address.sol\":7514:7531  return returndata */\n      jump(tag_135)\n        /* \"@chainlink/contracts-ccip/src/v0.8/vendor/openzeppelin-solidity/v4.8.0/utils/Address.sol\":7230:7592  if (success) {... */\n    tag_149:\n        /* \"@chainlink/contracts-ccip/src/v0.8/vendor/openzeppelin-solidity/v4.8.0/utils/Address.sol\":7552:7585  _revert(returndata, errorMessage) */\n      tag_135\n        /* \"@chainlink/contracts-ccip/src/v0.8/vendor/openzeppelin-solidity/v4.8.0/utils/Address.sol\":7560:7570  returndata */\n      dup4\n        /* \"@chainlink/contracts-ccip/src/v0.8/vendor/openzeppelin-solidity/v4.8.0/utils/Address.sol\":7572:7584  errorMessage */\n      dup4\n        /* \"@chainlink/contracts-ccip/src/v0.8/vendor/openzeppelin-solidity/v4.8.0/utils/Address.sol\":8213:8230  returndata.length */\n      dup2\n      mload\n        /* \"@chainlink/contracts-ccip/src/v0.8/vendor/openzeppelin-solidity/v4.8.0/utils/Address.sol\":8213:8234  returndata.length > 0 */\n      iszero\n        /* \"@chainlink/contracts-ccip/src/v0.8/vendor/openzeppelin-solidity/v4.8.0/utils/Address.sol\":8209:8534  if (returndata.length > 0) {... */\n      tag_161\n      jumpi\n        /* \"@chainlink/contracts-ccip/src/v0.8/vendor/openzeppelin-solidity/v4.8.0/utils/Address.sol\":8415:8425  returndata */\n      dup2\n        /* \"@chainlink/contracts-ccip/src/v0.8/vendor/openzeppelin-solidity/v4.8.0/utils/Address.sol\":8409:8426  mload(returndata) */\n      mload\n        /* \"@chainlink/contracts-ccip/src/v0.8/vendor/openzeppelin-solidity/v4.8.0/utils/Address.sol\":8463:8478  returndata_size */\n      dup1\n        /* \"@chainlink/contracts-ccip/src/v0.8/vendor/openzeppelin-solidity/v4.8.0/utils/Address.sol\":8450:8460  returndata */\n      dup4\n        /* \"@chainlink/contracts-ccip/src/v0.8/vendor/openzeppelin-solidity/v4.8.0/utils/Address.sol\":8446:8448  32 */\n      0x20\n        /* \"@chainlink/contracts-ccip/src/v0.8/vendor/openzeppelin-solidity/v4.8.0/utils/Address.sol\":8442:8461  add(32, returndata) */\n      add\n        /* \"@chainlink/contracts-ccip/src/v0.8/vendor/openzeppelin-solidity/v4.8.0/utils/Address.sol\":8435:8479  revert(add(32, returndata), returndata_size) */\n      revert\n        /* \"@chainlink/contracts-ccip/src/v0.8/vendor/openzeppelin-solidity/v4.8.0/utils/Address.sol\":8209:8534  if (returndata.length > 0) {... */\n    tag_161:\n        /* \"@chainlink/contracts-ccip/src/v0.8/vendor/openzeppelin-solidity/v4.8.0/utils/Address.sol\":8514:8526  errorMessage */\n      dup1\n        /* \"@chainlink/contracts-ccip/src/v0.8/vendor/openzeppelin-solidity/v4.8.0/utils/Address.sol\":8507:8527  revert(errorMessage) */\n      mload(0x40)\n      shl(0xe5, 0x461bcd)\n      dup2\n      mstore\n      0x04\n      add\n      tag_90\n      swap2\n      swap1\n      tag_164\n      jump\t// in\n        /* \"#utility.yul\":14:187   */\n    tag_165:\n        /* \"#utility.yul\":82:102   */\n      dup1\n      calldataload\n      sub(shl(0xa0, 0x01), 0x01)\n        /* \"#utility.yul\":131:162   */\n      dup2\n      and\n        /* \"#utility.yul\":121:163   */\n      dup2\n      eq\n        /* \"#utility.yul\":111:181   */\n      tag_171\n      jumpi\n        /* \"#utility.yul\":177:178   */\n      0x00\n        /* \"#utility.yul\":174:175   */\n      dup1\n        /* \"#utility.yul\":167:179   */\n      revert\n        /* \"#utility.yul\":111:181   */\n    tag_171:\n        /* \"#utility.yul\":14:187   */\n      swap2\n      swap1\n      pop\n      jump\t// out\n        /* \"#utility.yul\":192:452   */\n    tag_10:\n        /* \"#utility.yul\":260:266   */\n      0x00\n        /* \"#utility.yul\":268:274   */\n      dup1\n        /* \"#utility.yul\":321:323   */\n      0x40\n        /* \"#utility.yul\":309:318   */\n      dup4\n        /* \"#utility.yul\":300:307   */\n      dup6\n        /* \"#utility.yul\":296:319   */\n      sub\n        /* \"#utility.yul\":292:324   */\n      slt\n        /* \"#utility.yul\":289:341   */\n      iszero\n      tag_173\n      jumpi\n        /* \"#utility.yul\":337:338   */\n      0x00\n        /* \"#utility.yul\":334:335   */\n      dup1\n        /* \"#utility.yul\":327:339   */\n      revert\n        /* \"#utility.yul\":289:341   */\n    tag_173:\n        /* \"#utility.yul\":360:389   */\n      tag_174\n        /* \"#utility.yul\":379:388   */\n      dup4\n        /* \"#utility.yul\":360:389   */\n      tag_165\n      jump\t// in\n    tag_174:\n        /* \"#utility.yul\":350:389   */\n      swap2\n      pop\n        /* \"#utility.yul\":408:446   */\n      tag_175\n        /* \"#utility.yul\":442:444   */\n      0x20\n        /* \"#utility.yul\":431:440   */\n      dup5\n        /* \"#utility.yul\":427:445   */\n      add\n        /* \"#utility.yul\":408:446   */\n      tag_165\n      jump\t// in\n    tag_175:\n        /* \"#utility.yul\":398:446   */\n      swap1\n      pop\n        /* \"#utility.yul\":192:452   */\n      swap3\n      pop\n      swap3\n      swap1\n      pop\n      jump\t// out\n        /* \"#utility.yul\":457:643   */\n    tag_14:\n        /* \"#utility.yul\":516:522   */\n      0x00\n        /* \"#utility.yul\":569:571   */\n      0x20\n        /* \"#utility.yul\":557:566   */\n      dup3\n        /* \"#utility.yul\":548:555   */\n      dup5\n        /* \"#utility.yul\":544:567   */\n      sub\n        /* \"#utility.yul\":540:572   */\n      slt\n        /* \"#utility.yul\":537:589   */\n      iszero\n      tag_177\n      jumpi\n        /* \"#utility.yul\":585:586   */\n      0x00\n        /* \"#utility.yul\":582:583   */\n      dup1\n        /* \"#utility.yul\":575:587   */\n      revert\n        /* \"#utility.yul\":537:589   */\n    tag_177:\n        /* \"#utility.yul\":608:637   */\n      tag_178\n        /* \"#utility.yul\":627:636   */\n      dup3\n        /* \"#utility.yul\":608:637   */\n      tag_165\n      jump\t// in\n    tag_178:\n        /* \"#utility.yul\":598:637   */\n      swap4\n        /* \"#utility.yul\":457:643   */\n      swap3\n      pop\n      pop\n      pop\n      jump\t// out\n        /* \"#utility.yul\":1400:1654   */\n    tag_28:\n        /* \"#utility.yul\":1468:1474   */\n      0x00\n        /* \"#utility.yul\":1476:1482   */\n      dup1\n        /* \"#utility.yul\":1529:1531   */\n      0x40\n        /* \"#utility.yul\":1517:1526   */\n      dup4\n        /* \"#utility.yul\":1508:1515   */\n      dup6\n        /* \"#utility.yul\":1504:1527   */\n      sub\n        /* \"#utility.yul\":1500:1532   */\n      slt\n        /* \"#utility.yul\":1497:1549   */\n      iszero\n      tag_184\n      jumpi\n        /* \"#utility.yul\":1545:1546   */\n      0x00\n        /* \"#utility.yul\":1542:1543   */\n      dup1\n        /* \"#utility.yul\":1535:1547   */\n      revert\n        /* \"#utility.yul\":1497:1549   */\n    tag_184:\n        /* \"#utility.yul\":1568:1597   */\n      tag_185\n        /* \"#utility.yul\":1587:1596   */\n      dup4\n        /* \"#utility.yul\":1568:1597   */\n      tag_165\n      jump\t// in\n    tag_185:\n        /* \"#utility.yul\":1558:1597   */\n      swap5\n        /* \"#utility.yul\":1644:1646   */\n      0x20\n        /* \"#utility.yul\":1629:1647   */\n      swap4\n      swap1\n      swap4\n      add\n        /* \"#utility.yul\":1616:1648   */\n      calldataload\n      swap4\n      pop\n      pop\n      pop\n        /* \"#utility.yul\":1400:1654   */\n      jump\t// out\n        /* \"#utility.yul\":1841:2025   */\n    tag_39:\n        /* \"#utility.yul\":1911:1917   */\n      0x00\n        /* \"#utility.yul\":1964:1966   */\n      0x20\n        /* \"#utility.yul\":1952:1961   */\n      dup3\n        /* \"#utility.yul\":1943:1950   */\n      dup5\n        /* \"#utility.yul\":1939:1962   */\n      sub\n        /* \"#utility.yul\":1935:1967   */\n      slt\n        /* \"#utility.yul\":1932:1984   */\n      iszero\n      tag_188\n      jumpi\n        /* \"#utility.yul\":1980:1981   */\n      0x00\n        /* \"#utility.yul\":1977:1978   */\n      dup1\n        /* \"#utility.yul\":1970:1982   */\n      revert\n        /* \"#utility.yul\":1932:1984   */\n    tag_188:\n      pop\n        /* \"#utility.yul\":2003:2019   */\n      mload\n      swap2\n        /* \"#utility.yul\":1841:2025   */\n      swap1\n      pop\n      jump\t// out\n        /* \"#utility.yul\":2309:2586   */\n    tag_46:\n        /* \"#utility.yul\":2376:2382   */\n      0x00\n        /* \"#utility.yul\":2429:2431   */\n      0x20\n        /* \"#utility.yul\":2417:2426   */\n      dup3\n        /* \"#utility.yul\":2408:2415   */\n      dup5\n        /* \"#utility.yul\":2404:2427   */\n      sub\n        /* \"#utility.yul\":2400:2432   */\n      slt\n        /* \"#utility.yul\":2397:2449   */\n      iszero\n      tag_191\n      jumpi\n        /* \"#utility.yul\":2445:2446   */\n      0x00\n        /* \"#utility.yul\":2442:2443   */\n      dup1\n        /* \"#utility.yul\":2435:2447   */\n      revert\n        /* \"#utility.yul\":2397:2449   */\n    tag_191:\n        /* \"#utility.yul\":2477:2486   */\n      dup2\n        /* \"#utility.yul\":2471:2487   */\n      mload\n        /* \"#utility.yul\":2530:2535   */\n      dup1\n        /* \"#utility.yul\":2523:2536   */\n      iszero\n        /* \"#utility.yul\":2516:2537   */\n      iszero\n        /* \"#utility.yul\":2509:2514   */\n      dup2\n        /* \"#utility.yul\":2506:2538   */\n      eq\n        /* \"#utility.yul\":2496:2556   */\n      tag_178\n      jumpi\n        /* \"#utility.yul\":2552:2553   */\n      0x00\n        /* \"#utility.yul\":2549:2550   */\n      dup1\n        /* \"#utility.yul\":2542:2554   */\n      revert\n        /* \"#utility.yul\":3032:3159   */\n    tag_72:\n        /* \"#utility.yul\":3093:3103   */\n      0x4e487b71\n        /* \"#utility.yul\":3088:3091   */\n      0xe0\n        /* \"#utility.yul\":3084:3104   */\n      shl\n        /* \"#utility.yul\":3081:3082   */\n      0x00\n        /* \"#utility.yul\":3074:3105   */\n      mstore\n        /* \"#utility.yul\":3124:3128   */\n      0x32\n        /* \"#utility.yul\":3121:3122   */\n      0x04\n        /* \"#utility.yul\":3114:3129   */\n      mstore\n        /* \"#utility.yul\":3148:3152   */\n      0x24\n        /* \"#utility.yul\":3145:3146   */\n      0x00\n        /* \"#utility.yul\":3138:3153   */\n      revert\n        /* \"#utility.yul\":3164:3414   */\n    tag_167:\n        /* \"#utility.yul\":3249:3250   */\n      0x00\n        /* \"#utility.yul\":3259:3372   */\n    tag_197:\n        /* \"#utility.yul\":3273:3279   */\n      dup4\n        /* \"#utility.yul\":3270:3271   */\n      dup2\n        /* \"#utility.yul\":3267:3280   */\n      lt\n        /* \"#utility.yul\":3259:3372   */\n      iszero\n      tag_199\n      jumpi\n        /* \"#utility.yul\":3349:3360   */\n      dup2\n      dup2\n      add\n        /* \"#utility.yul\":3343:3361   */\n      mload\n        /* \"#utility.yul\":3330:3341   */\n      dup4\n      dup3\n      add\n        /* \"#utility.yul\":3323:3362   */\n      mstore\n        /* \"#utility.yul\":3295:3297   */\n      0x20\n        /* \"#utility.yul\":3288:3298   */\n      add\n        /* \"#utility.yul\":3259:3372   */\n      jump(tag_197)\n    tag_199:\n      pop\n      pop\n        /* \"#utility.yul\":3406:3407   */\n      0x00\n        /* \"#utility.yul\":3388:3404   */\n      swap2\n      add\n        /* \"#utility.yul\":3381:3408   */\n      mstore\n        /* \"#utility.yul\":3164:3414   */\n      jump\t// out\n        /* \"#utility.yul\":3419:3689   */\n    tag_168:\n        /* \"#utility.yul\":3460:3463   */\n      0x00\n        /* \"#utility.yul\":3498:3503   */\n      dup2\n        /* \"#utility.yul\":3492:3504   */\n      mload\n        /* \"#utility.yul\":3525:3531   */\n      dup1\n        /* \"#utility.yul\":3520:3523   */\n      dup5\n        /* \"#utility.yul\":3513:3532   */\n      mstore\n        /* \"#utility.yul\":3541:3617   */\n      tag_201\n        /* \"#utility.yul\":3610:3616   */\n      dup2\n        /* \"#utility.yul\":3603:3607   */\n      0x20\n        /* \"#utility.yul\":3598:3601   */\n      dup7\n        /* \"#utility.yul\":3594:3608   */\n      add\n        /* \"#utility.yul\":3587:3591   */\n      0x20\n        /* \"#utility.yul\":3580:3585   */\n      dup7\n        /* \"#utility.yul\":3576:3592   */\n      add\n        /* \"#utility.yul\":3541:3617   */\n      tag_167\n      jump\t// in\n    tag_201:\n        /* \"#utility.yul\":3671:3673   */\n      0x1f\n        /* \"#utility.yul\":3650:3665   */\n      add\n      not(0x1f)\n        /* \"#utility.yul\":3646:3675   */\n      and\n        /* \"#utility.yul\":3637:3676   */\n      swap3\n      swap1\n      swap3\n      add\n        /* \"#utility.yul\":3678:3682   */\n      0x20\n        /* \"#utility.yul\":3633:3683   */\n      add\n      swap3\n        /* \"#utility.yul\":3419:3689   */\n      swap2\n      pop\n      pop\n      jump\t// out\n        /* \"#utility.yul\":3694:5295   */\n    tag_77:\n        /* \"#utility.yul\":3872:3876   */\n      0x00\n        /* \"#utility.yul\":3901:3903   */\n      0x40\n        /* \"#utility.yul\":3942:3960   */\n      0xffffffffffffffff\n        /* \"#utility.yul\":3934:3940   */\n      dup6\n        /* \"#utility.yul\":3930:3961   */\n      and\n        /* \"#utility.yul\":3919:3928   */\n      dup4\n        /* \"#utility.yul\":3912:3962   */\n      mstore\n        /* \"#utility.yul\":3981:3983   */\n      0x20\n        /* \"#utility.yul\":4019:4021   */\n      dup2\n        /* \"#utility.yul\":4014:4016   */\n      dup2\n        /* \"#utility.yul\":4003:4012   */\n      dup6\n        /* \"#utility.yul\":3999:4017   */\n      add\n        /* \"#utility.yul\":3992:4022   */\n      mstore\n        /* \"#utility.yul\":4057:4063   */\n      dup5\n        /* \"#utility.yul\":4051:4064   */\n      mload\n        /* \"#utility.yul\":4100:4104   */\n      0xa0\n        /* \"#utility.yul\":4095:4097   */\n      dup4\n        /* \"#utility.yul\":4084:4093   */\n      dup7\n        /* \"#utility.yul\":4080:4098   */\n      add\n        /* \"#utility.yul\":4073:4105   */\n      mstore\n        /* \"#utility.yul\":4128:4179   */\n      tag_203\n        /* \"#utility.yul\":4174:4177   */\n      0xe0\n        /* \"#utility.yul\":4163:4172   */\n      dup7\n        /* \"#utility.yul\":4159:4178   */\n      add\n        /* \"#utility.yul\":4145:4157   */\n      dup3\n        /* \"#utility.yul\":4128:4179   */\n      tag_168\n      jump\t// in\n    tag_203:\n        /* \"#utility.yul\":4114:4179   */\n      swap1\n      pop\n        /* \"#utility.yul\":4228:4230   */\n      dup2\n        /* \"#utility.yul\":4220:4226   */\n      dup7\n        /* \"#utility.yul\":4216:4231   */\n      add\n        /* \"#utility.yul\":4210:4232   */\n      mload\n        /* \"#utility.yul\":4255:4257   */\n      0x3f\n        /* \"#utility.yul\":4251:4258   */\n      not\n        /* \"#utility.yul\":4322:4324   */\n      dup1\n        /* \"#utility.yul\":4310:4319   */\n      dup8\n        /* \"#utility.yul\":4302:4308   */\n      dup5\n        /* \"#utility.yul\":4298:4320   */\n      sub\n        /* \"#utility.yul\":4294:4325   */\n      add\n        /* \"#utility.yul\":4289:4291   */\n      0x60\n        /* \"#utility.yul\":4278:4287   */\n      dup9\n        /* \"#utility.yul\":4274:4292   */\n      add\n        /* \"#utility.yul\":4267:4326   */\n      mstore\n        /* \"#utility.yul\":4349:4389   */\n      tag_204\n        /* \"#utility.yul\":4382:4388   */\n      dup4\n        /* \"#utility.yul\":4366:4380   */\n      dup4\n        /* \"#utility.yul\":4349:4389   */\n      tag_168\n      jump\t// in\n    tag_204:\n        /* \"#utility.yul\":4426:4441   */\n      dup9\n      dup7\n      add\n        /* \"#utility.yul\":4420:4442   */\n      mload\n        /* \"#utility.yul\":4483:4505   */\n      dup9\n      dup3\n      sub\n        /* \"#utility.yul\":4479:4510   */\n      dup4\n      add\n        /* \"#utility.yul\":4473:4476   */\n      0x80\n        /* \"#utility.yul\":4458:4477   */\n      dup11\n      add\n        /* \"#utility.yul\":4451:4511   */\n      mstore\n        /* \"#utility.yul\":4560:4581   */\n      dup1\n      mload\n        /* \"#utility.yul\":4590:4612   */\n      dup1\n      dup4\n      mstore\n        /* \"#utility.yul\":4666:4689   */\n      swap1\n      dup7\n      add\n      swap5\n      pop\n        /* \"#utility.yul\":4707:4708   */\n      0x00\n      swap4\n      pop\n        /* \"#utility.yul\":4628:4643   */\n      swap1\n      dup6\n      add\n      swap1\n        /* \"#utility.yul\":4717:4997   */\n    tag_205:\n        /* \"#utility.yul\":4731:4737   */\n      dup1\n        /* \"#utility.yul\":4728:4729   */\n      dup5\n        /* \"#utility.yul\":4725:4738   */\n      lt\n        /* \"#utility.yul\":4717:4997   */\n      iszero\n      tag_207\n      jumpi\n        /* \"#utility.yul\":4790:4803   */\n      dup5\n      mload\n        /* \"#utility.yul\":4832:4841   */\n      dup1\n      mload\n      sub(shl(0xa0, 0x01), 0x01)\n        /* \"#utility.yul\":4828:4863   */\n      and\n        /* \"#utility.yul\":4816:4864   */\n      dup4\n      mstore\n        /* \"#utility.yul\":4904:4915   */\n      dup7\n      add\n        /* \"#utility.yul\":4898:4916   */\n      mload\n        /* \"#utility.yul\":4884:4896   */\n      dup7\n      dup4\n      add\n        /* \"#utility.yul\":4877:4917   */\n      mstore\n        /* \"#utility.yul\":4972:4987   */\n      swap4\n      dup6\n      add\n      swap4\n        /* \"#utility.yul\":4860:4861   */\n      0x01\n        /* \"#utility.yul\":4746:4755   */\n      swap4\n      swap1\n      swap4\n      add\n      swap3\n        /* \"#utility.yul\":4937:4949   */\n      swap1\n      dup7\n      add\n      swap1\n        /* \"#utility.yul\":4717:4997   */\n      jump(tag_205)\n    tag_207:\n      pop\n        /* \"#utility.yul\":5046:5048   */\n      0x60\n        /* \"#utility.yul\":5034:5049   */\n      dup10\n      add\n        /* \"#utility.yul\":5028:5050   */\n      mload\n      sub(shl(0xa0, 0x01), 0x01)\n        /* \"#utility.yul\":967:998   */\n      and\n        /* \"#utility.yul\":5109:5113   */\n      0xa0\n        /* \"#utility.yul\":5094:5114   */\n      dup10\n      add\n        /* \"#utility.yul\":955:999   */\n      mstore\n        /* \"#utility.yul\":5164:5167   */\n      0x80\n        /* \"#utility.yul\":5152:5168   */\n      dup10\n      add\n        /* \"#utility.yul\":5146:5169   */\n      mload\n        /* \"#utility.yul\":5210:5229   */\n      dup9\n      dup3\n      sub\n        /* \"#utility.yul\":5206:5234   */\n      dup4\n      add\n        /* \"#utility.yul\":5200:5203   */\n      0xc0\n        /* \"#utility.yul\":5185:5204   */\n      dup11\n      add\n        /* \"#utility.yul\":5178:5235   */\n      mstore\n        /* \"#utility.yul\":5146:5169   */\n      swap6\n      pop\n        /* \"#utility.yul\":5252:5289   */\n      tag_209\n        /* \"#utility.yul\":5214:5217   */\n      dup2\n        /* \"#utility.yul\":5146:5169   */\n      dup8\n        /* \"#utility.yul\":5252:5289   */\n      tag_168\n      jump\t// in\n    tag_209:\n        /* \"#utility.yul\":5244:5289   */\n      swap11\n        /* \"#utility.yul\":3694:5295   */\n      swap10\n      pop\n      pop\n      pop\n      pop\n      pop\n      pop\n      pop\n      pop\n      pop\n      pop\n      jump\t// out\n        /* \"#utility.yul\":7453:7740   */\n    tag_142:\n        /* \"#utility.yul\":7582:7585   */\n      0x00\n        /* \"#utility.yul\":7620:7626   */\n      dup3\n        /* \"#utility.yul\":7614:7627   */\n      mload\n        /* \"#utility.yul\":7636:7702   */\n      tag_218\n        /* \"#utility.yul\":7695:7701   */\n      dup2\n        /* \"#utility.yul\":7690:7693   */\n      dup5\n        /* \"#utility.yul\":7683:7687   */\n      0x20\n        /* \"#utility.yul\":7675:7681   */\n      dup8\n        /* \"#utility.yul\":7671:7688   */\n      add\n        /* \"#utility.yul\":7636:7702   */\n      tag_167\n      jump\t// in\n    tag_218:\n        /* \"#utility.yul\":7718:7734   */\n      swap2\n      swap1\n      swap2\n      add\n      swap3\n        /* \"#utility.yul\":7453:7740   */\n      swap2\n      pop\n      pop\n      jump\t// out\n        /* \"#utility.yul\":8103:8322   */\n    tag_164:\n        /* \"#utility.yul\":8252:8254   */\n      0x20\n        /* \"#utility.yul\":8241:8250   */\n      dup2\n        /* \"#utility.yul\":8234:8255   */\n      mstore\n        /* \"#utility.yul\":8215:8219   */\n      0x00\n        /* \"#utility.yul\":8272:8316   */\n      tag_178\n        /* \"#utility.yul\":8312:8314   */\n      0x20\n        /* \"#utility.yul\":8301:8310   */\n      dup4\n        /* \"#utility.yul\":8297:8315   */\n      add\n        /* \"#utility.yul\":8289:8295   */\n      dup5\n        /* \"#utility.yul\":8272:8316   */\n      tag_168\n      jump\t// in\n\n    auxdata: 0xa26469706673582212207144d716101e2cbe9484aa00a67484e9ec19179f05eed314cd704e43da03962964736f6c63430008130033\n}\n",
				"bytecode": {
					"linkReferences": {},
					"object": "60e0604052600180546001600160a01b031990811673f694e193200268f9a4868e4aa017a0118c9a81771790915560028054909116730b9d5d9136855f6fec3c0993fee6e9ce8a297846179055600380547bde41ba4fc9d91ad95425890298aed601595a70ab815c96711a31bc656001600160e01b031990911617905534801561008857600080fd5b50600080546001600160a01b031916331790556001546001600160a01b03908116608052600254811660a0526003541660c05260805160a05160c05161103c610145600039600081816102c1015281816103530152818161041d015281816107f50152818161088401528181610920015261098e015260008181610234015281816104c201528181610601015281816106900152610772015260008181610559015281816107430152818161095f0152610a0e015261103c6000f3fe608060405234801561001057600080fd5b50600436106100575760003560e01c80633aeac4e11461005c5780636392a51f146100715780638da5cb5b1461009e578063ed3bd5bc146100c9578063fe2c5d36146100df575b600080fd5b61006f61006a366004610ddd565b6100f2565b005b61008461007f366004610e10565b610210565b604080519283526020830191909152015b60405180910390f35b6000546100b1906001600160a01b031681565b6040516001600160a01b039091168152602001610095565b6100d1610335565b604051908152602001610095565b6100d16100ed366004610e32565b6103cb565b6000546001600160a01b0316331461010957600080fd5b6040516370a0823160e01b81523060048201526000906001600160a01b038316906370a0823190602401602060405180830381865afa158015610150573d6000803e3d6000fd5b505050506040513d601f19601f820116820180604052508101906101749190610e5c565b90508060000361019757604051630686827b60e51b815260040160405180910390fd5b60405163a9059cbb60e01b81526001600160a01b0384811660048301526024820183905283169063a9059cbb906044016020604051808303816000875af11580156101e6573d6000803e3d6000fd5b505050506040513d601f19601f8201168201806040525081019061020a9190610e75565b50505050565b6040516370a0823160e01b81526001600160a01b03828116600483015260009182917f000000000000000000000000000000000000000000000000000000000000000016906370a0823190602401602060405180830381865afa15801561027b573d6000803e3d6000fd5b505050506040513d601f19601f8201168201806040525081019061029f9190610e5c565b6040516370a0823160e01b81526001600160a01b0385811660048301529193507f0000000000000000000000000000000000000000000000000000000000000000909116906370a0823190602401602060405180830381865afa15801561030a573d6000803e3d6000fd5b505050506040513d601f19601f8201168201806040525081019061032e9190610e5c565b9050915091565b604051636eb1769f60e11b81523360048201523060248201526000907f00000000000000000000000000000000000000000000000000000000000000006001600160a01b03169063dd62ed3e90604401602060405180830381865afa1580156103a2573d6000803e3d6000fd5b505050506040513d601f19601f820116820180604052508101906103c69190610e5c565b905090565b604080516001808252818301909252600091829190816020015b60408051808201909152600080825260208201528152602001906001900390816103e5579050509050600060405180604001604052807f00000000000000000000000000000000000000000000000000000000000000006001600160a01b03168152602001858152509050808260008151811061046457610464610e97565b60209081029190910101526040805160a081019091526001600160a01b03861660c08201526000908060e0810160405160208183030381529060405281526020016040518060200160405280600081525081526020018481526020017f00000000000000000000000000000000000000000000000000000000000000006001600160a01b0316815260200161053f6040518060200160405280600081525060408051915160248084019190915281518084039091018152604490920190526020810180516001600160e01b03166397a657c960e01b17905290565b90526003546040516320487ded60e01b81529192506000917f00000000000000000000000000000000000000000000000000000000000000006001600160a01b0316916320487ded916105a891600160a01b900467ffffffffffffffff16908690600401610efd565b602060405180830381865afa1580156105c5573d6000803e3d6000fd5b505050506040513d601f19601f820116820180604052508101906105e99190610e5c565b6040516370a0823160e01b81523060048201529091507f00000000000000000000000000000000000000000000000000000000000000006001600160a01b0316906370a0823190602401602060405180830381865afa158015610650573d6000803e3d6000fd5b505050506040513d601f19601f820116820180604052508101906106749190610e5c565b81111561072c576040516370a0823160e01b81523060048201527f00000000000000000000000000000000000000000000000000000000000000006001600160a01b0316906370a0823190602401602060405180830381865afa1580156106df573d6000803e3d6000fd5b505050506040513d601f19601f820116820180604052508101906107039190610e5c565b6040516328fdcaa160e01b81526004810191909152602481018290526044015b60405180910390fd5b60405163095ea7b360e01b81526001600160a01b037f000000000000000000000000000000000000000000000000000000000000000081166004830152602482018390527f0000000000000000000000000000000000000000000000000000000000000000169063095ea7b3906044016020604051808303816000875af11580156107bb573d6000803e3d6000fd5b505050506040513d601f19601f820116820180604052508101906107df9190610e75565b506040516370a0823160e01b81523360048201527f00000000000000000000000000000000000000000000000000000000000000006001600160a01b0316906370a0823190602401602060405180830381865afa158015610844573d6000803e3d6000fd5b505050506040513d601f19601f820116820180604052508101906108689190610e5c565b861115610913576040516370a0823160e01b81523360048201527f00000000000000000000000000000000000000000000000000000000000000006001600160a01b0316906370a0823190602401602060405180830381865afa1580156108d3573d6000803e3d6000fd5b505050506040513d601f19601f820116820180604052508101906108f79190610e5c565b604051636212cf3b60e01b815260040161072391815260200190565b6109486001600160a01b037f000000000000000000000000000000000000000000000000000000000000000016333089610b17565b60405163095ea7b360e01b81526001600160a01b037f000000000000000000000000000000000000000000000000000000000000000081166004830152602482018890527f0000000000000000000000000000000000000000000000000000000000000000169063095ea7b3906044016020604051808303816000875af11580156109d7573d6000803e3d6000fd5b505050506040513d601f19601f820116820180604052508101906109fb9190610e75565b506003546040516396f4e9f960e01b81527f00000000000000000000000000000000000000000000000000000000000000006001600160a01b0316916396f4e9f991610a5d91600160a01b900467ffffffffffffffff16908690600401610efd565b6020604051808303816000875af1158015610a7c573d6000803e3d6000fd5b505050506040513d601f19601f82011682018060405250810190610aa09190610e5c565b60035460408051838152600160a01b90920467ffffffffffffffff1660208301526001600160a01b038a169082015260608101889052608081018390529095507fb55a3d3f1ccd1c10f00aff03ad884028d98fa1d478fae03acecbf884ce8e8fbc9060a00160405180910390a15050505092915050565b604080516001600160a01b038581166024830152848116604483015260648083018590528351808403909101815260849092018352602080830180516001600160e01b03166323b872dd60e01b17905283518085019094528084527f5361666545524332303a206c6f772d6c6576656c2063616c6c206661696c65649084015261020a92879291600091610baf918516908490610c31565b805190915015610c2c5780806020019051810190610bcd9190610e75565b610c2c5760405162461bcd60e51b815260206004820152602a60248201527f5361666545524332303a204552433230206f7065726174696f6e20646964206e6044820152691bdd081cdd58d8d9595960b21b6064820152608401610723565b505050565b6060610c408484600085610c48565b949350505050565b606082471015610ca95760405162461bcd60e51b815260206004820152602660248201527f416464726573733a20696e73756666696369656e742062616c616e636520666f6044820152651c8818d85b1b60d21b6064820152608401610723565b600080866001600160a01b03168587604051610cc59190610fd7565b60006040518083038185875af1925050503d8060008114610d02576040519150601f19603f3d011682016040523d82523d6000602084013e610d07565b606091505b5091509150610d1887838387610d23565b979650505050505050565b60608315610d92578251600003610d8b576001600160a01b0385163b610d8b5760405162461bcd60e51b815260206004820152601d60248201527f416464726573733a2063616c6c20746f206e6f6e2d636f6e74726163740000006044820152606401610723565b5081610c40565b610c408383815115610da75781518083602001fd5b8060405162461bcd60e51b81526004016107239190610ff3565b80356001600160a01b0381168114610dd857600080fd5b919050565b60008060408385031215610df057600080fd5b610df983610dc1565b9150610e0760208401610dc1565b90509250929050565b600060208284031215610e2257600080fd5b610e2b82610dc1565b9392505050565b60008060408385031215610e4557600080fd5b610e4e83610dc1565b946020939093013593505050565b600060208284031215610e6e57600080fd5b5051919050565b600060208284031215610e8757600080fd5b81518015158114610e2b57600080fd5b634e487b7160e01b600052603260045260246000fd5b60005b83811015610ec8578181015183820152602001610eb0565b50506000910152565b60008151808452610ee9816020860160208601610ead565b601f01601f19169290920160200192915050565b6000604067ffffffffffffffff8516835260208181850152845160a083860152610f2a60e0860182610ed1565b905081860151603f1980878403016060880152610f478383610ed1565b88860151888203830160808a01528051808352908601945060009350908501905b80841015610f9a57845180516001600160a01b0316835286015186830152938501936001939093019290860190610f68565b5060608901516001600160a01b031660a08901526080890151888203830160c08a01529550610fc98187610ed1565b9a9950505050505050505050565b60008251610fe9818460208701610ead565b9190910192915050565b602081526000610e2b6020830184610ed156fea26469706673582212207144d716101e2cbe9484aa00a67484e9ec19179f05eed314cd704e43da03962964736f6c63430008130033",
					"opcodes": "PUSH1 0xE0 PUSH1 0x40 MSTORE PUSH1 0x1 DUP1 SLOAD PUSH1 0x1 PUSH1 0x1 PUSH1 0xA0 SHL SUB NOT SWAP1 DUP2 AND PUSH20 0xF694E193200268F9A4868E4AA017A0118C9A8177 OR SWAP1 SWAP2 SSTORE PUSH1 0x2 DUP1 SLOAD SWAP1 SWAP2 AND PUSH20 0xB9D5D9136855F6FEC3C0993FEE6E9CE8A297846 OR SWAP1 SSTORE PUSH1 0x3 DUP1 SLOAD PUSH28 0xDE41BA4FC9D91AD95425890298AED601595A70AB815C96711A31BC65 PUSH1 0x1 PUSH1 0x1 PUSH1 0xE0 SHL SUB NOT SWAP1 SWAP2 AND OR SWAP1 SSTORE CALLVALUE DUP1 ISZERO PUSH2 0x88 JUMPI PUSH1 0x0 DUP1 REVERT JUMPDEST POP PUSH1 0x0 DUP1 SLOAD PUSH1 0x1 PUSH1 0x1 PUSH1 0xA0 SHL SUB NOT AND CALLER OR SWAP1 SSTORE PUSH1 0x1 SLOAD PUSH1 0x1 PUSH1 0x1 PUSH1 0xA0 SHL SUB SWAP1 DUP2 AND PUSH1 0x80 MSTORE PUSH1 0x2 SLOAD DUP2 AND PUSH1 0xA0 MSTORE PUSH1 0x3 SLOAD AND PUSH1 0xC0 MSTORE PUSH1 0x80 MLOAD PUSH1 0xA0 MLOAD PUSH1 0xC0 MLOAD PUSH2 0x103C PUSH2 0x145 PUSH1 0x0 CODECOPY PUSH1 0x0 DUP2 DUP2 PUSH2 0x2C1 ADD MSTORE DUP2 DUP2 PUSH2 0x353 ADD MSTORE DUP2 DUP2 PUSH2 0x41D ADD MSTORE DUP2 DUP2 PUSH2 0x7F5 ADD MSTORE DUP2 DUP2 PUSH2 0x884 ADD MSTORE DUP2 DUP2 PUSH2 0x920 ADD MSTORE PUSH2 0x98E ADD MSTORE PUSH1 0x0 DUP2 DUP2 PUSH2 0x234 ADD MSTORE DUP2 DUP2 PUSH2 0x4C2 ADD MSTORE DUP2 DUP2 PUSH2 0x601 ADD MSTORE DUP2 DUP2 PUSH2 0x690 ADD MSTORE PUSH2 0x772 ADD MSTORE PUSH1 0x0 DUP2 DUP2 PUSH2 0x559 ADD MSTORE DUP2 DUP2 PUSH2 0x743 ADD MSTORE DUP2 DUP2 PUSH2 0x95F ADD MSTORE PUSH2 0xA0E ADD MSTORE PUSH2 0x103C PUSH1 0x0 RETURN INVALID PUSH1 0x80 PUSH1 0x40 MSTORE CALLVALUE DUP1 ISZERO PUSH2 0x10 JUMPI PUSH1 0x0 DUP1 REVERT JUMPDEST POP PUSH1 0x4 CALLDATASIZE LT PUSH2 0x57 JUMPI PUSH1 0x0 CALLDATALOAD PUSH1 0xE0 SHR DUP1 PUSH4 0x3AEAC4E1 EQ PUSH2 0x5C JUMPI DUP1 PUSH4 0x6392A51F EQ PUSH2 0x71 JUMPI DUP1 PUSH4 0x8DA5CB5B EQ PUSH2 0x9E JUMPI DUP1 PUSH4 0xED3BD5BC EQ PUSH2 0xC9 JUMPI DUP1 PUSH4 0xFE2C5D36 EQ PUSH2 0xDF JUMPI JUMPDEST PUSH1 0x0 DUP1 REVERT JUMPDEST PUSH2 0x6F PUSH2 0x6A CALLDATASIZE PUSH1 0x4 PUSH2 0xDDD JUMP JUMPDEST PUSH2 0xF2 JUMP JUMPDEST STOP JUMPDEST PUSH2 0x84 PUSH2 0x7F CALLDATASIZE PUSH1 0x4 PUSH2 0xE10 JUMP JUMPDEST PUSH2 0x210 JUMP JUMPDEST PUSH1 0x40 DUP1 MLOAD SWAP3 DUP4 MSTORE PUSH1 0x20 DUP4 ADD SWAP2 SWAP1 SWAP2 MSTORE ADD JUMPDEST PUSH1 0x40 MLOAD DUP1 SWAP2 SUB SWAP1 RETURN JUMPDEST PUSH1 0x0 SLOAD PUSH2 0xB1 SWAP1 PUSH1 0x1 PUSH1 0x1 PUSH1 0xA0 SHL SUB AND DUP2 JUMP JUMPDEST PUSH1 0x40 MLOAD PUSH1 0x1 PUSH1 0x1 PUSH1 0xA0 SHL SUB SWAP1 SWAP2 AND DUP2 MSTORE PUSH1 0x20 ADD PUSH2 0x95 JUMP JUMPDEST PUSH2 0xD1 PUSH2 0x335 JUMP JUMPDEST PUSH1 0x40 MLOAD SWAP1 DUP2 MSTORE PUSH1 0x20 ADD PUSH2 0x95 JUMP JUMPDEST PUSH2 0xD1 PUSH2 0xED CALLDATASIZE PUSH1 0x4 PUSH2 0xE32 JUMP JUMPDEST PUSH2 0x3CB JUMP JUMPDEST PUSH1 0x0 SLOAD PUSH1 0x1 PUSH1 0x1 PUSH1 0xA0 SHL SUB AND CALLER EQ PUSH2 0x109 JUMPI PUSH1 0x0 DUP1 REVERT JUMPDEST PUSH1 0x40 MLOAD PUSH4 0x70A08231 PUSH1 0xE0 SHL DUP2 MSTORE ADDRESS PUSH1 0x4 DUP3 ADD MSTORE PUSH1 0x0 SWAP1 PUSH1 0x1 PUSH1 0x1 PUSH1 0xA0 SHL SUB DUP4 AND SWAP1 PUSH4 0x70A08231 SWAP1 PUSH1 0x24 ADD PUSH1 0x20 PUSH1 0x40 MLOAD DUP1 DUP4 SUB DUP2 DUP7 GAS STATICCALL ISZERO DUP1 ISZERO PUSH2 0x150 JUMPI RETURNDATASIZE PUSH1 0x0 DUP1 RETURNDATACOPY RETURNDATASIZE PUSH1 0x0 REVERT JUMPDEST POP POP POP POP PUSH1 0x40 MLOAD RETURNDATASIZE PUSH1 0x1F NOT PUSH1 0x1F DUP3 ADD AND DUP3 ADD DUP1 PUSH1 0x40 MSTORE POP DUP2 ADD SWAP1 PUSH2 0x174 SWAP2 SWAP1 PUSH2 0xE5C JUMP JUMPDEST SWAP1 POP DUP1 PUSH1 0x0 SUB PUSH2 0x197 JUMPI PUSH1 0x40 MLOAD PUSH4 0x686827B PUSH1 0xE5 SHL DUP2 MSTORE PUSH1 0x4 ADD PUSH1 0x40 MLOAD DUP1 SWAP2 SUB SWAP1 REVERT JUMPDEST PUSH1 0x40 MLOAD PUSH4 0xA9059CBB PUSH1 0xE0 SHL DUP2 MSTORE PUSH1 0x1 PUSH1 0x1 PUSH1 0xA0 SHL SUB DUP5 DUP2 AND PUSH1 0x4 DUP4 ADD MSTORE PUSH1 0x24 DUP3 ADD DUP4 SWAP1 MSTORE DUP4 AND SWAP1 PUSH4 0xA9059CBB SWAP1 PUSH1 0x44 ADD PUSH1 0x20 PUSH1 0x40 MLOAD DUP1 DUP4 SUB DUP2 PUSH1 0x0 DUP8 GAS CALL ISZERO DUP1 ISZERO PUSH2 0x1E6 JUMPI RETURNDATASIZE PUSH1 0x0 DUP1 RETURNDATACOPY RETURNDATASIZE PUSH1 0x0 REVERT JUMPDEST POP POP POP POP PUSH1 0x40 MLOAD RETURNDATASIZE PUSH1 0x1F NOT PUSH1 0x1F DUP3 ADD AND DUP3 ADD DUP1 PUSH1 0x40 MSTORE POP DUP2 ADD SWAP1 PUSH2 0x20A SWAP2 SWAP1 PUSH2 0xE75 JUMP JUMPDEST POP POP POP POP JUMP JUMPDEST PUSH1 0x40 MLOAD PUSH4 0x70A08231 PUSH1 0xE0 SHL DUP2 MSTORE PUSH1 0x1 PUSH1 0x1 PUSH1 0xA0 SHL SUB DUP3 DUP2 AND PUSH1 0x4 DUP4 ADD MSTORE PUSH1 0x0 SWAP2 DUP3 SWAP2 PUSH32 0x0 AND SWAP1 PUSH4 0x70A08231 SWAP1 PUSH1 0x24 ADD PUSH1 0x20 PUSH1 0x40 MLOAD DUP1 DUP4 SUB DUP2 DUP7 GAS STATICCALL ISZERO DUP1 ISZERO PUSH2 0x27B JUMPI RETURNDATASIZE PUSH1 0x0 DUP1 RETURNDATACOPY RETURNDATASIZE PUSH1 0x0 REVERT JUMPDEST POP POP POP POP PUSH1 0x40 MLOAD RETURNDATASIZE PUSH1 0x1F NOT PUSH1 0x1F DUP3 ADD AND DUP3 ADD DUP1 PUSH1 0x40 MSTORE POP DUP2 ADD SWAP1 PUSH2 0x29F SWAP2 SWAP1 PUSH2 0xE5C JUMP JUMPDEST PUSH1 0x40 MLOAD PUSH4 0x70A08231 PUSH1 0xE0 SHL DUP2 MSTORE PUSH1 0x1 PUSH1 0x1 PUSH1 0xA0 SHL SUB DUP6 DUP2 AND PUSH1 0x4 DUP4 ADD MSTORE SWAP2 SWAP4 POP PUSH32 0x0 SWAP1 SWAP2 AND SWAP1 PUSH4 0x70A08231 SWAP1 PUSH1 0x24 ADD PUSH1 0x20 PUSH1 0x40 MLOAD DUP1 DUP4 SUB DUP2 DUP7 GAS STATICCALL ISZERO DUP1 ISZERO PUSH2 0x30A JUMPI RETURNDATASIZE PUSH1 0x0 DUP1 RETURNDATACOPY RETURNDATASIZE PUSH1 0x0 REVERT JUMPDEST POP POP POP POP PUSH1 0x40 MLOAD RETURNDATASIZE PUSH1 0x1F NOT PUSH1 0x1F DUP3 ADD AND DUP3 ADD DUP1 PUSH1 0x40 MSTORE POP DUP2 ADD SWAP1 PUSH2 0x32E SWAP2 SWAP1 PUSH2 0xE5C JUMP JUMPDEST SWAP1 POP SWAP2 POP SWAP2 JUMP JUMPDEST PUSH1 0x40 MLOAD PUSH4 0x6EB1769F PUSH1 0xE1 SHL DUP2 MSTORE CALLER PUSH1 0x4 DUP3 ADD MSTORE ADDRESS PUSH1 0x24 DUP3 ADD MSTORE PUSH1 0x0 SWAP1 PUSH32 0x0 PUSH1 0x1 PUSH1 0x1 PUSH1 0xA0 SHL SUB AND SWAP1 PUSH4 0xDD62ED3E SWAP1 PUSH1 0x44 ADD PUSH1 0x20 PUSH1 0x40 MLOAD DUP1 DUP4 SUB DUP2 DUP7 GAS STATICCALL ISZERO DUP1 ISZERO PUSH2 0x3A2 JUMPI RETURNDATASIZE PUSH1 0x0 DUP1 RETURNDATACOPY RETURNDATASIZE PUSH1 0x0 REVERT JUMPDEST POP POP POP POP PUSH1 0x40 MLOAD RETURNDATASIZE PUSH1 0x1F NOT PUSH1 0x1F DUP3 ADD AND DUP3 ADD DUP1 PUSH1 0x40 MSTORE POP DUP2 ADD SWAP1 PUSH2 0x3C6 SWAP2 SWAP1 PUSH2 0xE5C JUMP JUMPDEST SWAP1 POP SWAP1 JUMP JUMPDEST PUSH1 0x40 DUP1 MLOAD PUSH1 0x1 DUP1 DUP3 MSTORE DUP2 DUP4 ADD SWAP1 SWAP3 MSTORE PUSH1 0x0 SWAP2 DUP3 SWAP2 SWAP1 DUP2 PUSH1 0x20 ADD JUMPDEST PUSH1 0x40 DUP1 MLOAD DUP1 DUP3 ADD SWAP1 SWAP2 MSTORE PUSH1 0x0 DUP1 DUP3 MSTORE PUSH1 0x20 DUP3 ADD MSTORE DUP2 MSTORE PUSH1 0x20 ADD SWAP1 PUSH1 0x1 SWAP1 SUB SWAP1 DUP2 PUSH2 0x3E5 JUMPI SWAP1 POP POP SWAP1 POP PUSH1 0x0 PUSH1 0x40 MLOAD DUP1 PUSH1 0x40 ADD PUSH1 0x40 MSTORE DUP1 PUSH32 0x0 PUSH1 0x1 PUSH1 0x1 PUSH1 0xA0 SHL SUB AND DUP2 MSTORE PUSH1 0x20 ADD DUP6 DUP2 MSTORE POP SWAP1 POP DUP1 DUP3 PUSH1 0x0 DUP2 MLOAD DUP2 LT PUSH2 0x464 JUMPI PUSH2 0x464 PUSH2 0xE97 JUMP JUMPDEST PUSH1 0x20 SWAP1 DUP2 MUL SWAP2 SWAP1 SWAP2 ADD ADD MSTORE PUSH1 0x40 DUP1 MLOAD PUSH1 0xA0 DUP2 ADD SWAP1 SWAP2 MSTORE PUSH1 0x1 PUSH1 0x1 PUSH1 0xA0 SHL SUB DUP7 AND PUSH1 0xC0 DUP3 ADD MSTORE PUSH1 0x0 SWAP1 DUP1 PUSH1 0xE0 DUP2 ADD PUSH1 0x40 MLOAD PUSH1 0x20 DUP2 DUP4 SUB SUB DUP2 MSTORE SWAP1 PUSH1 0x40 MSTORE DUP2 MSTORE PUSH1 0x20 ADD PUSH1 0x40 MLOAD DUP1 PUSH1 0x20 ADD PUSH1 0x40 MSTORE DUP1 PUSH1 0x0 DUP2 MSTORE POP DUP2 MSTORE PUSH1 0x20 ADD DUP5 DUP2 MSTORE PUSH1 0x20 ADD PUSH32 0x0 PUSH1 0x1 PUSH1 0x1 PUSH1 0xA0 SHL SUB AND DUP2 MSTORE PUSH1 0x20 ADD PUSH2 0x53F PUSH1 0x40 MLOAD DUP1 PUSH1 0x20 ADD PUSH1 0x40 MSTORE DUP1 PUSH1 0x0 DUP2 MSTORE POP PUSH1 0x40 DUP1 MLOAD SWAP2 MLOAD PUSH1 0x24 DUP1 DUP5 ADD SWAP2 SWAP1 SWAP2 MSTORE DUP2 MLOAD DUP1 DUP5 SUB SWAP1 SWAP2 ADD DUP2 MSTORE PUSH1 0x44 SWAP1 SWAP3 ADD SWAP1 MSTORE PUSH1 0x20 DUP2 ADD DUP1 MLOAD PUSH1 0x1 PUSH1 0x1 PUSH1 0xE0 SHL SUB AND PUSH4 0x97A657C9 PUSH1 0xE0 SHL OR SWAP1 MSTORE SWAP1 JUMP JUMPDEST SWAP1 MSTORE PUSH1 0x3 SLOAD PUSH1 0x40 MLOAD PUSH4 0x20487DED PUSH1 0xE0 SHL DUP2 MSTORE SWAP2 SWAP3 POP PUSH1 0x0 SWAP2 PUSH32 0x0 PUSH1 0x1 PUSH1 0x1 PUSH1 0xA0 SHL SUB AND SWAP2 PUSH4 0x20487DED SWAP2 PUSH2 0x5A8 SWAP2 PUSH1 0x1 PUSH1 0xA0 SHL SWAP1 DIV PUSH8 0xFFFFFFFFFFFFFFFF AND SWAP1 DUP7 SWAP1 PUSH1 0x4 ADD PUSH2 0xEFD JUMP JUMPDEST PUSH1 0x20 PUSH1 0x40 MLOAD DUP1 DUP4 SUB DUP2 DUP7 GAS STATICCALL ISZERO DUP1 ISZERO PUSH2 0x5C5 JUMPI RETURNDATASIZE PUSH1 0x0 DUP1 RETURNDATACOPY RETURNDATASIZE PUSH1 0x0 REVERT JUMPDEST POP POP POP POP PUSH1 0x40 MLOAD RETURNDATASIZE PUSH1 0x1F NOT PUSH1 0x1F DUP3 ADD AND DUP3 ADD DUP1 PUSH1 0x40 MSTORE POP DUP2 ADD SWAP1 PUSH2 0x5E9 SWAP2 SWAP1 PUSH2 0xE5C JUMP JUMPDEST PUSH1 0x40 MLOAD PUSH4 0x70A08231 PUSH1 0xE0 SHL DUP2 MSTORE ADDRESS PUSH1 0x4 DUP3 ADD MSTORE SWAP1 SWAP2 POP PUSH32 0x0 PUSH1 0x1 PUSH1 0x1 PUSH1 0xA0 SHL SUB AND SWAP1 PUSH4 0x70A08231 SWAP1 PUSH1 0x24 ADD PUSH1 0x20 PUSH1 0x40 MLOAD DUP1 DUP4 SUB DUP2 DUP7 GAS STATICCALL ISZERO DUP1 ISZERO PUSH2 0x650 JUMPI RETURNDATASIZE PUSH1 0x0 DUP1 RETURNDATACOPY RETURNDATASIZE PUSH1 0x0 REVERT JUMPDEST POP POP POP POP PUSH1 0x40 MLOAD RETURNDATASIZE PUSH1 0x1F NOT PUSH1 0x1F DUP3 ADD AND DUP3 ADD DUP1 PUSH1 0x40 MSTORE POP DUP2 ADD SWAP1 PUSH2 0x674 SWAP2 SWAP1 PUSH2 0xE5C JUMP JUMPDEST DUP2 GT ISZERO PUSH2 0x72C JUMPI PUSH1 0x40 MLOAD PUSH4 0x70A08231 PUSH1 0xE0 SHL DUP2 MSTORE ADDRESS PUSH1 0x4 DUP3 ADD MSTORE PUSH32 0x0 PUSH1 0x1 PUSH1 0x1 PUSH1 0xA0 SHL SUB AND SWAP1 PUSH4 0x70A08231 SWAP1 PUSH1 0x24 ADD PUSH1 0x20 PUSH1 0x40 MLOAD DUP1 DUP4 SUB DUP2 DUP7 GAS STATICCALL ISZERO DUP1 ISZERO PUSH2 0x6DF JUMPI RETURNDATASIZE PUSH1 0x0 DUP1 RETURNDATACOPY RETURNDATASIZE PUSH1 0x0 REVERT JUMPDEST POP POP POP POP PUSH1 0x40 MLOAD RETURNDATASIZE PUSH1 0x1F NOT PUSH1 0x1F DUP3 ADD AND DUP3 ADD DUP1 PUSH1 0x40 MSTORE POP DUP2 ADD SWAP1 PUSH2 0x703 SWAP2 SWAP1 PUSH2 0xE5C JUMP JUMPDEST PUSH1 0x40 MLOAD PUSH4 0x28FDCAA1 PUSH1 0xE0 SHL DUP2 MSTORE PUSH1 0x4 DUP2 ADD SWAP2 SWAP1 SWAP2 MSTORE PUSH1 0x24 DUP2 ADD DUP3 SWAP1 MSTORE PUSH1 0x44 ADD JUMPDEST PUSH1 0x40 MLOAD DUP1 SWAP2 SUB SWAP1 REVERT JUMPDEST PUSH1 0x40 MLOAD PUSH4 0x95EA7B3 PUSH1 0xE0 SHL DUP2 MSTORE PUSH1 0x1 PUSH1 0x1 PUSH1 0xA0 SHL SUB PUSH32 0x0 DUP2 AND PUSH1 0x4 DUP4 ADD MSTORE PUSH1 0x24 DUP3 ADD DUP4 SWAP1 MSTORE PUSH32 0x0 AND SWAP1 PUSH4 0x95EA7B3 SWAP1 PUSH1 0x44 ADD PUSH1 0x20 PUSH1 0x40 MLOAD DUP1 DUP4 SUB DUP2 PUSH1 0x0 DUP8 GAS CALL ISZERO DUP1 ISZERO PUSH2 0x7BB JUMPI RETURNDATASIZE PUSH1 0x0 DUP1 RETURNDATACOPY RETURNDATASIZE PUSH1 0x0 REVERT JUMPDEST POP POP POP POP PUSH1 0x40 MLOAD RETURNDATASIZE PUSH1 0x1F NOT PUSH1 0x1F DUP3 ADD AND DUP3 ADD DUP1 PUSH1 0x40 MSTORE POP DUP2 ADD SWAP1 PUSH2 0x7DF SWAP2 SWAP1 PUSH2 0xE75 JUMP JUMPDEST POP PUSH1 0x40 MLOAD PUSH4 0x70A08231 PUSH1 0xE0 SHL DUP2 MSTORE CALLER PUSH1 0x4 DUP3 ADD MSTORE PUSH32 0x0 PUSH1 0x1 PUSH1 0x1 PUSH1 0xA0 SHL SUB AND SWAP1 PUSH4 0x70A08231 SWAP1 PUSH1 0x24 ADD PUSH1 0x20 PUSH1 0x40 MLOAD DUP1 DUP4 SUB DUP2 DUP7 GAS STATICCALL ISZERO DUP1 ISZERO PUSH2 0x844 JUMPI RETURNDATASIZE PUSH1 0x0 DUP1 RETURNDATACOPY RETURNDATASIZE PUSH1 0x0 REVERT JUMPDEST POP POP POP POP PUSH1 0x40 MLOAD RETURNDATASIZE PUSH1 0x1F NOT PUSH1 0x1F DUP3 ADD AND DUP3 ADD DUP1 PUSH1 0x40 MSTORE POP DUP2 ADD SWAP1 PUSH2 0x868 SWAP2 SWAP1 PUSH2 0xE5C JUMP JUMPDEST DUP7 GT ISZERO PUSH2 0x913 JUMPI PUSH1 0x40 MLOAD PUSH4 0x70A08231 PUSH1 0xE0 SHL DUP2 MSTORE CALLER PUSH1 0x4 DUP3 ADD MSTORE PUSH32 0x0 PUSH1 0x1 PUSH1 0x1 PUSH1 0xA0 SHL SUB AND SWAP1 PUSH4 0x70A08231 SWAP1 PUSH1 0x24 ADD PUSH1 0x20 PUSH1 0x40 MLOAD DUP1 DUP4 SUB DUP2 DUP7 GAS STATICCALL ISZERO DUP1 ISZERO PUSH2 0x8D3 JUMPI RETURNDATASIZE PUSH1 0x0 DUP1 RETURNDATACOPY RETURNDATASIZE PUSH1 0x0 REVERT JUMPDEST POP POP POP POP PUSH1 0x40 MLOAD RETURNDATASIZE PUSH1 0x1F NOT PUSH1 0x1F DUP3 ADD AND DUP3 ADD DUP1 PUSH1 0x40 MSTORE POP DUP2 ADD SWAP1 PUSH2 0x8F7 SWAP2 SWAP1 PUSH2 0xE5C JUMP JUMPDEST PUSH1 0x40 MLOAD PUSH4 0x6212CF3B PUSH1 0xE0 SHL DUP2 MSTORE PUSH1 0x4 ADD PUSH2 0x723 SWAP2 DUP2 MSTORE PUSH1 0x20 ADD SWAP1 JUMP JUMPDEST PUSH2 0x948 PUSH1 0x1 PUSH1 0x1 PUSH1 0xA0 SHL SUB PUSH32 0x0 AND CALLER ADDRESS DUP10 PUSH2 0xB17 JUMP JUMPDEST PUSH1 0x40 MLOAD PUSH4 0x95EA7B3 PUSH1 0xE0 SHL DUP2 MSTORE PUSH1 0x1 PUSH1 0x1 PUSH1 0xA0 SHL SUB PUSH32 0x0 DUP2 AND PUSH1 0x4 DUP4 ADD MSTORE PUSH1 0x24 DUP3 ADD DUP9 SWAP1 MSTORE PUSH32 0x0 AND SWAP1 PUSH4 0x95EA7B3 SWAP1 PUSH1 0x44 ADD PUSH1 0x20 PUSH1 0x40 MLOAD DUP1 DUP4 SUB DUP2 PUSH1 0x0 DUP8 GAS CALL ISZERO DUP1 ISZERO PUSH2 0x9D7 JUMPI RETURNDATASIZE PUSH1 0x0 DUP1 RETURNDATACOPY RETURNDATASIZE PUSH1 0x0 REVERT JUMPDEST POP POP POP POP PUSH1 0x40 MLOAD RETURNDATASIZE PUSH1 0x1F NOT PUSH1 0x1F DUP3 ADD AND DUP3 ADD DUP1 PUSH1 0x40 MSTORE POP DUP2 ADD SWAP1 PUSH2 0x9FB SWAP2 SWAP1 PUSH2 0xE75 JUMP JUMPDEST POP PUSH1 0x3 SLOAD PUSH1 0x40 MLOAD PUSH4 0x96F4E9F9 PUSH1 0xE0 SHL DUP2 MSTORE PUSH32 0x0 PUSH1 0x1 PUSH1 0x1 PUSH1 0xA0 SHL SUB AND SWAP2 PUSH4 0x96F4E9F9 SWAP2 PUSH2 0xA5D SWAP2 PUSH1 0x1 PUSH1 0xA0 SHL SWAP1 DIV PUSH8 0xFFFFFFFFFFFFFFFF AND SWAP1 DUP7 SWAP1 PUSH1 0x4 ADD PUSH2 0xEFD JUMP JUMPDEST PUSH1 0x20 PUSH1 0x40 MLOAD DUP1 DUP4 SUB DUP2 PUSH1 0x0 DUP8 GAS CALL ISZERO DUP1 ISZERO PUSH2 0xA7C JUMPI RETURNDATASIZE PUSH1 0x0 DUP1 RETURNDATACOPY RETURNDATASIZE PUSH1 0x0 REVERT JUMPDEST POP POP POP POP PUSH1 0x40 MLOAD RETURNDATASIZE PUSH1 0x1F NOT PUSH1 0x1F DUP3 ADD AND DUP3 ADD DUP1 PUSH1 0x40 MSTORE POP DUP2 ADD SWAP1 PUSH2 0xAA0 SWAP2 SWAP1 PUSH2 0xE5C JUMP JUMPDEST PUSH1 0x3 SLOAD PUSH1 0x40 DUP1 MLOAD DUP4 DUP2 MSTORE PUSH1 0x1 PUSH1 0xA0 SHL SWAP1 SWAP3 DIV PUSH8 0xFFFFFFFFFFFFFFFF AND PUSH1 0x20 DUP4 ADD MSTORE PUSH1 0x1 PUSH1 0x1 PUSH1 0xA0 SHL SUB DUP11 AND SWAP1 DUP3 ADD MSTORE PUSH1 0x60 DUP2 ADD DUP9 SWAP1 MSTORE PUSH1 0x80 DUP2 ADD DUP4 SWAP1 MSTORE SWAP1 SWAP6 POP PUSH32 0xB55A3D3F1CCD1C10F00AFF03AD884028D98FA1D478FAE03ACECBF884CE8E8FBC SWAP1 PUSH1 0xA0 ADD PUSH1 0x40 MLOAD DUP1 SWAP2 SUB SWAP1 LOG1 POP POP POP POP SWAP3 SWAP2 POP POP JUMP JUMPDEST PUSH1 0x40 DUP1 MLOAD PUSH1 0x1 PUSH1 0x1 PUSH1 0xA0 SHL SUB DUP6 DUP2 AND PUSH1 0x24 DUP4 ADD MSTORE DUP5 DUP2 AND PUSH1 0x44 DUP4 ADD MSTORE PUSH1 0x64 DUP1 DUP4 ADD DUP6 SWAP1 MSTORE DUP4 MLOAD DUP1 DUP5 SUB SWAP1 SWAP2 ADD DUP2 MSTORE PUSH1 0x84 SWAP1 SWAP3 ADD DUP4 MSTORE PUSH1 0x20 DUP1 DUP4 ADD DUP1 MLOAD PUSH1 0x1 PUSH1 0x1 PUSH1 0xE0 SHL SUB AND PUSH4 0x23B872DD PUSH1 0xE0 SHL OR SWAP1 MSTORE DUP4 MLOAD DUP1 DUP6 ADD SWAP1 SWAP5 MSTORE DUP1 DUP5 MSTORE PUSH32 0x5361666545524332303A206C6F772D6C6576656C2063616C6C206661696C6564 SWAP1 DUP5 ADD MSTORE PUSH2 0x20A SWAP3 DUP8 SWAP3 SWAP2 PUSH1 0x0 SWAP2 PUSH2 0xBAF SWAP2 DUP6 AND SWAP1 DUP5 SWAP1 PUSH2 0xC31 JUMP JUMPDEST DUP1 MLOAD SWAP1 SWAP2 POP ISZERO PUSH2 0xC2C JUMPI DUP1 DUP1 PUSH1 0x20 ADD SWAP1 MLOAD DUP2 ADD SWAP1 PUSH2 0xBCD SWAP2 SWAP1 PUSH2 0xE75 JUMP JUMPDEST PUSH2 0xC2C JUMPI PUSH1 0x40 MLOAD PUSH3 0x461BCD PUSH1 0xE5 SHL DUP2 MSTORE PUSH1 0x20 PUSH1 0x4 DUP3 ADD MSTORE PUSH1 0x2A PUSH1 0x24 DUP3 ADD MSTORE PUSH32 0x5361666545524332303A204552433230206F7065726174696F6E20646964206E PUSH1 0x44 DUP3 ADD MSTORE PUSH10 0x1BDD081CDD58D8D95959 PUSH1 0xB2 SHL PUSH1 0x64 DUP3 ADD MSTORE PUSH1 0x84 ADD PUSH2 0x723 JUMP JUMPDEST POP POP POP JUMP JUMPDEST PUSH1 0x60 PUSH2 0xC40 DUP5 DUP5 PUSH1 0x0 DUP6 PUSH2 0xC48 JUMP JUMPDEST SWAP5 SWAP4 POP POP POP POP JUMP JUMPDEST PUSH1 0x60 DUP3 SELFBALANCE LT ISZERO PUSH2 0xCA9 JUMPI PUSH1 0x40 MLOAD PUSH3 0x461BCD PUSH1 0xE5 SHL DUP2 MSTORE PUSH1 0x20 PUSH1 0x4 DUP3 ADD MSTORE PUSH1 0x26 PUSH1 0x24 DUP3 ADD MSTORE PUSH32 0x416464726573733A20696E73756666696369656E742062616C616E636520666F PUSH1 0x44 DUP3 ADD MSTORE PUSH6 0x1C8818D85B1B PUSH1 0xD2 SHL PUSH1 0x64 DUP3 ADD MSTORE PUSH1 0x84 ADD PUSH2 0x723 JUMP JUMPDEST PUSH1 0x0 DUP1 DUP7 PUSH1 0x1 PUSH1 0x1 PUSH1 0xA0 SHL SUB AND DUP6 DUP8 PUSH1 0x40 MLOAD PUSH2 0xCC5 SWAP2 SWAP1 PUSH2 0xFD7 JUMP JUMPDEST PUSH1 0x0 PUSH1 0x40 MLOAD DUP1 DUP4 SUB DUP2 DUP6 DUP8 GAS CALL SWAP3 POP POP POP RETURNDATASIZE DUP1 PUSH1 0x0 DUP2 EQ PUSH2 0xD02 JUMPI PUSH1 0x40 MLOAD SWAP2 POP PUSH1 0x1F NOT PUSH1 0x3F RETURNDATASIZE ADD AND DUP3 ADD PUSH1 0x40 MSTORE RETURNDATASIZE DUP3 MSTORE RETURNDATASIZE PUSH1 0x0 PUSH1 0x20 DUP5 ADD RETURNDATACOPY PUSH2 0xD07 JUMP JUMPDEST PUSH1 0x60 SWAP2 POP JUMPDEST POP SWAP2 POP SWAP2 POP PUSH2 0xD18 DUP8 DUP4 DUP4 DUP8 PUSH2 0xD23 JUMP JUMPDEST SWAP8 SWAP7 POP POP POP POP POP POP POP JUMP JUMPDEST PUSH1 0x60 DUP4 ISZERO PUSH2 0xD92 JUMPI DUP3 MLOAD PUSH1 0x0 SUB PUSH2 0xD8B JUMPI PUSH1 0x1 PUSH1 0x1 PUSH1 0xA0 SHL SUB DUP6 AND EXTCODESIZE PUSH2 0xD8B JUMPI PUSH1 0x40 MLOAD PUSH3 0x461BCD PUSH1 0xE5 SHL DUP2 MSTORE PUSH1 0x20 PUSH1 0x4 DUP3 ADD MSTORE PUSH1 0x1D PUSH1 0x24 DUP3 ADD MSTORE PUSH32 0x416464726573733A2063616C6C20746F206E6F6E2D636F6E7472616374000000 PUSH1 0x44 DUP3 ADD MSTORE PUSH1 0x64 ADD PUSH2 0x723 JUMP JUMPDEST POP DUP2 PUSH2 0xC40 JUMP JUMPDEST PUSH2 0xC40 DUP4 DUP4 DUP2 MLOAD ISZERO PUSH2 0xDA7 JUMPI DUP2 MLOAD DUP1 DUP4 PUSH1 0x20 ADD REVERT JUMPDEST DUP1 PUSH1 0x40 MLOAD PUSH3 0x461BCD PUSH1 0xE5 SHL DUP2 MSTORE PUSH1 0x4 ADD PUSH2 0x723 SWAP2 SWAP1 PUSH2 0xFF3 JUMP JUMPDEST DUP1 CALLDATALOAD PUSH1 0x1 PUSH1 0x1 PUSH1 0xA0 SHL SUB DUP2 AND DUP2 EQ PUSH2 0xDD8 JUMPI PUSH1 0x0 DUP1 REVERT JUMPDEST SWAP2 SWAP1 POP JUMP JUMPDEST PUSH1 0x0 DUP1 PUSH1 0x40 DUP4 DUP6 SUB SLT ISZERO PUSH2 0xDF0 JUMPI PUSH1 0x0 DUP1 REVERT JUMPDEST PUSH2 0xDF9 DUP4 PUSH2 0xDC1 JUMP JUMPDEST SWAP2 POP PUSH2 0xE07 PUSH1 0x20 DUP5 ADD PUSH2 0xDC1 JUMP JUMPDEST SWAP1 POP SWAP3 POP SWAP3 SWAP1 POP JUMP JUMPDEST PUSH1 0x0 PUSH1 0x20 DUP3 DUP5 SUB SLT ISZERO PUSH2 0xE22 JUMPI PUSH1 0x0 DUP1 REVERT JUMPDEST PUSH2 0xE2B DUP3 PUSH2 0xDC1 JUMP JUMPDEST SWAP4 SWAP3 POP POP POP JUMP JUMPDEST PUSH1 0x0 DUP1 PUSH1 0x40 DUP4 DUP6 SUB SLT ISZERO PUSH2 0xE45 JUMPI PUSH1 0x0 DUP1 REVERT JUMPDEST PUSH2 0xE4E DUP4 PUSH2 0xDC1 JUMP JUMPDEST SWAP5 PUSH1 0x20 SWAP4 SWAP1 SWAP4 ADD CALLDATALOAD SWAP4 POP POP POP JUMP JUMPDEST PUSH1 0x0 PUSH1 0x20 DUP3 DUP5 SUB SLT ISZERO PUSH2 0xE6E JUMPI PUSH1 0x0 DUP1 REVERT JUMPDEST POP MLOAD SWAP2 SWAP1 POP JUMP JUMPDEST PUSH1 0x0 PUSH1 0x20 DUP3 DUP5 SUB SLT ISZERO PUSH2 0xE87 JUMPI PUSH1 0x0 DUP1 REVERT JUMPDEST DUP2 MLOAD DUP1 ISZERO ISZERO DUP2 EQ PUSH2 0xE2B JUMPI PUSH1 0x0 DUP1 REVERT JUMPDEST PUSH4 0x4E487B71 PUSH1 0xE0 SHL PUSH1 0x0 MSTORE PUSH1 0x32 PUSH1 0x4 MSTORE PUSH1 0x24 PUSH1 0x0 REVERT JUMPDEST PUSH1 0x0 JUMPDEST DUP4 DUP2 LT ISZERO PUSH2 0xEC8 JUMPI DUP2 DUP2 ADD MLOAD DUP4 DUP3 ADD MSTORE PUSH1 0x20 ADD PUSH2 0xEB0 JUMP JUMPDEST POP POP PUSH1 0x0 SWAP2 ADD MSTORE JUMP JUMPDEST PUSH1 0x0 DUP2 MLOAD DUP1 DUP5 MSTORE PUSH2 0xEE9 DUP2 PUSH1 0x20 DUP7 ADD PUSH1 0x20 DUP7 ADD PUSH2 0xEAD JUMP JUMPDEST PUSH1 0x1F ADD PUSH1 0x1F NOT AND SWAP3 SWAP1 SWAP3 ADD PUSH1 0x20 ADD SWAP3 SWAP2 POP POP JUMP JUMPDEST PUSH1 0x0 PUSH1 0x40 PUSH8 0xFFFFFFFFFFFFFFFF DUP6 AND DUP4 MSTORE PUSH1 0x20 DUP2 DUP2 DUP6 ADD MSTORE DUP5 MLOAD PUSH1 0xA0 DUP4 DUP7 ADD MSTORE PUSH2 0xF2A PUSH1 0xE0 DUP7 ADD DUP3 PUSH2 0xED1 JUMP JUMPDEST SWAP1 POP DUP2 DUP7 ADD MLOAD PUSH1 0x3F NOT DUP1 DUP8 DUP5 SUB ADD PUSH1 0x60 DUP9 ADD MSTORE PUSH2 0xF47 DUP4 DUP4 PUSH2 0xED1 JUMP JUMPDEST DUP9 DUP7 ADD MLOAD DUP9 DUP3 SUB DUP4 ADD PUSH1 0x80 DUP11 ADD MSTORE DUP1 MLOAD DUP1 DUP4 MSTORE SWAP1 DUP7 ADD SWAP5 POP PUSH1 0x0 SWAP4 POP SWAP1 DUP6 ADD SWAP1 JUMPDEST DUP1 DUP5 LT ISZERO PUSH2 0xF9A JUMPI DUP5 MLOAD DUP1 MLOAD PUSH1 0x1 PUSH1 0x1 PUSH1 0xA0 SHL SUB AND DUP4 MSTORE DUP7 ADD MLOAD DUP7 DUP4 ADD MSTORE SWAP4 DUP6 ADD SWAP4 PUSH1 0x1 SWAP4 SWAP1 SWAP4 ADD SWAP3 SWAP1 DUP7 ADD SWAP1 PUSH2 0xF68 JUMP JUMPDEST POP PUSH1 0x60 DUP10 ADD MLOAD PUSH1 0x1 PUSH1 0x1 PUSH1 0xA0 SHL SUB AND PUSH1 0xA0 DUP10 ADD MSTORE PUSH1 0x80 DUP10 ADD MLOAD DUP9 DUP3 SUB DUP4 ADD PUSH1 0xC0 DUP11 ADD MSTORE SWAP6 POP PUSH2 0xFC9 DUP2 DUP8 PUSH2 0xED1 JUMP JUMPDEST SWAP11 SWAP10 POP POP POP POP POP POP POP POP POP POP JUMP JUMPDEST PUSH1 0x0 DUP3 MLOAD PUSH2 0xFE9 DUP2 DUP5 PUSH1 0x20 DUP8 ADD PUSH2 0xEAD JUMP JUMPDEST SWAP2 SWAP1 SWAP2 ADD SWAP3 SWAP2 POP POP JUMP JUMPDEST PUSH1 0x20 DUP2 MSTORE PUSH1 0x0 PUSH2 0xE2B PUSH1 0x20 DUP4 ADD DUP5 PUSH2 0xED1 JUMP INVALID LOG2 PUSH5 0x6970667358 0x22 SLT KECCAK256 PUSH18 0x44D716101E2CBE9484AA00A67484E9EC1917 SWAP16 SDIV 0xEE 0xD3 EQ 0xCD PUSH17 0x4E43DA03962964736F6C63430008130033 "
				},
				"gasEstimates": {
					"creation": {
						"codeDepositCost": "831200",
						"executionCost": "infinite",
						"totalCost": "infinite"
					},
					"external": {
						"allowanceUsdc()": "infinite",
						"balancesOf(address)": "infinite",
						"owner()": "2359",
						"transferUsdcToSepolia(address,uint256)": "infinite",
						"withdrawToken(address,address)": "infinite"
					}
				},
				"methodIdentifiers": {
					"allowanceUsdc()": "ed3bd5bc",
					"balancesOf(address)": "6392a51f",
					"owner()": "8da5cb5b",
					"transferUsdcToSepolia(address,uint256)": "fe2c5d36",
					"withdrawToken(address,address)": "3aeac4e1"
				}
			},
			"storageLayout": {
				"storage": [
					{
						"astId": 874,
						"contract": "TransferUSDCBasic.sol:TransferUSDCBasic",
						"label": "owner",
						"offset": 0,
						"slot": "0",
						"type": "t_address"
					},
					{
						"astId": 886,
						"contract": "TransferUSDCBasic.sol:TransferUSDCBasic",
						"label": "ccipRouterAddress",
						"offset": 0,
						"slot": "1",
						"type": "t_address"
					},
					{
						"astId": 889,
						"contract": "TransferUSDCBasic.sol:TransferUSDCBasic",
						"label": "linkAddress",
						"offset": 0,
						"slot": "2",
						"type": "t_address"
					},
					{
						"astId": 892,
						"contract": "TransferUSDCBasic.sol:TransferUSDCBasic",
						"label": "usdcAddress",
						"offset": 0,
						"slot": "3",
						"type": "t_address"
					},
					{
						"astId": 895,
						"contract": "TransferUSDCBasic.sol:TransferUSDCBasic",
						"label": "destinationChainSelector",
						"offset": 20,
						"slot": "3",
						"type": "t_uint64"
					}
				],
				"types": {
					"t_address": {
						"encoding": "inplace",
						"label": "address",
						"numberOfBytes": "20"
					},
					"t_uint64": {
						"encoding": "inplace",
						"label": "uint64",
						"numberOfBytes": "8"
					}
				}
			},
			"userdoc": {
				"kind": "user",
				"methods": {},
				"notice": "THIS IS AN EXAMPLE CONTRACT THAT USES HARDCODED VALUES FOR CLARITY. THIS IS AN EXAMPLE CONTRACT THAT USES UN-AUDITED CODE. DO NOT USE THIS CODE IN PRODUCTION.",
				"version": 1
			}
		}
	}
}