{
	"WeatherFunctions.sol": {
		"WeatherFunctions": {
			"abi": [
				{
					"inputs": [
						{
							"internalType": "uint64",
							"name": "functionsSubscriptionId",
							"type": "uint64"
						}
					],
					"stateMutability": "nonpayable",
					"type": "constructor"
				},
				{
					"inputs": [],
					"name": "EmptyArgs",
					"type": "error"
				},
				{
					"inputs": [],
					"name": "EmptySource",
					"type": "error"
				},
				{
					"inputs": [],
					"name": "NoInlineSecrets",
					"type": "error"
				},
				{
					"inputs": [],
					"name": "OnlyRouterCanFulfill",
					"type": "error"
				},
				{
					"anonymous": false,
					"inputs": [
						{
							"indexed": true,
							"internalType": "bytes32",
							"name": "id",
							"type": "bytes32"
						}
					],
					"name": "RequestFulfilled",
					"type": "event"
				},
				{
					"anonymous": false,
					"inputs": [
						{
							"indexed": true,
							"internalType": "bytes32",
							"name": "id",
							"type": "bytes32"
						}
					],
					"name": "RequestSent",
					"type": "event"
				},
				{
					"anonymous": false,
					"inputs": [
						{
							"indexed": true,
							"internalType": "bytes32",
							"name": "requestId",
							"type": "bytes32"
						},
						{
							"indexed": false,
							"internalType": "string",
							"name": "temperature",
							"type": "string"
						},
						{
							"indexed": false,
							"internalType": "bytes",
							"name": "response",
							"type": "bytes"
						},
						{
							"indexed": false,
							"internalType": "bytes",
							"name": "err",
							"type": "bytes"
						}
					],
					"name": "Response",
					"type": "event"
				},
				{
					"inputs": [
						{
							"internalType": "uint256",
							"name": "",
							"type": "uint256"
						}
					],
					"name": "cities",
					"outputs": [
						{
							"internalType": "address",
							"name": "sender",
							"type": "address"
						},
						{
							"internalType": "uint256",
							"name": "timestamp",
							"type": "uint256"
						},
						{
							"internalType": "string",
							"name": "name",
							"type": "string"
						},
						{
							"internalType": "string",
							"name": "temperature",
							"type": "string"
						}
					],
					"stateMutability": "view",
					"type": "function"
				},
				{
					"inputs": [
						{
							"internalType": "string",
							"name": "",
							"type": "string"
						}
					],
					"name": "cityIndex",
					"outputs": [
						{
							"internalType": "uint256",
							"name": "",
							"type": "uint256"
						}
					],
					"stateMutability": "view",
					"type": "function"
				},
				{
					"inputs": [
						{
							"internalType": "string",
							"name": "city",
							"type": "string"
						}
					],
					"name": "getCity",
					"outputs": [
						{
							"components": [
								{
									"internalType": "address",
									"name": "sender",
									"type": "address"
								},
								{
									"internalType": "uint256",
									"name": "timestamp",
									"type": "uint256"
								},
								{
									"internalType": "string",
									"name": "name",
									"type": "string"
								},
								{
									"internalType": "string",
									"name": "temperature",
									"type": "string"
								}
							],
							"internalType": "struct WeatherFunctions.CityStruct",
							"name": "",
							"type": "tuple"
						}
					],
					"stateMutability": "view",
					"type": "function"
				},
				{
					"inputs": [
						{
							"internalType": "string",
							"name": "_city",
							"type": "string"
						}
					],
					"name": "getTemperature",
					"outputs": [
						{
							"internalType": "bytes32",
							"name": "requestId",
							"type": "bytes32"
						}
					],
					"stateMutability": "nonpayable",
					"type": "function"
				},
				{
					"inputs": [
						{
							"internalType": "bytes32",
							"name": "requestId",
							"type": "bytes32"
						},
						{
							"internalType": "bytes",
							"name": "response",
							"type": "bytes"
						},
						{
							"internalType": "bytes",
							"name": "err",
							"type": "bytes"
						}
					],
					"name": "handleOracleFulfillment",
					"outputs": [],
					"stateMutability": "nonpayable",
					"type": "function"
				},
				{
					"inputs": [],
					"name": "lastCity",
					"outputs": [
						{
							"internalType": "string",
							"name": "",
							"type": "string"
						}
					],
					"stateMutability": "view",
					"type": "function"
				},
				{
					"inputs": [],
					"name": "lastError",
					"outputs": [
						{
							"internalType": "bytes",
							"name": "",
							"type": "bytes"
						}
					],
					"stateMutability": "view",
					"type": "function"
				},
				{
					"inputs": [],
					"name": "lastRequestId",
					"outputs": [
						{
							"internalType": "bytes32",
							"name": "",
							"type": "bytes32"
						}
					],
					"stateMutability": "view",
					"type": "function"
				},
				{
					"inputs": [],
					"name": "lastResponse",
					"outputs": [
						{
							"internalType": "bytes",
							"name": "",
							"type": "bytes"
						}
					],
					"stateMutability": "view",
					"type": "function"
				},
				{
					"inputs": [],
					"name": "lastSender",
					"outputs": [
						{
							"internalType": "address",
							"name": "",
							"type": "address"
						}
					],
					"stateMutability": "view",
					"type": "function"
				},
				{
					"inputs": [],
					"name": "lastTemperature",
					"outputs": [
						{
							"internalType": "string",
							"name": "",
							"type": "string"
						}
					],
					"stateMutability": "view",
					"type": "function"
				},
				{
					"inputs": [],
					"name": "listAllCities",
					"outputs": [
						{
							"components": [
								{
									"internalType": "address",
									"name": "sender",
									"type": "address"
								},
								{
									"internalType": "uint256",
									"name": "timestamp",
									"type": "uint256"
								},
								{
									"internalType": "string",
									"name": "name",
									"type": "string"
								},
								{
									"internalType": "string",
									"name": "temperature",
									"type": "string"
								}
							],
							"internalType": "struct WeatherFunctions.CityStruct[]",
							"name": "",
							"type": "tuple[]"
						}
					],
					"stateMutability": "view",
					"type": "function"
				},
				{
					"inputs": [
						{
							"internalType": "uint256",
							"name": "start",
							"type": "uint256"
						},
						{
							"internalType": "uint256",
							"name": "end",
							"type": "uint256"
						}
					],
					"name": "listCities",
					"outputs": [
						{
							"components": [
								{
									"internalType": "address",
									"name": "sender",
									"type": "address"
								},
								{
									"internalType": "uint256",
									"name": "timestamp",
									"type": "uint256"
								},
								{
									"internalType": "string",
									"name": "name",
									"type": "string"
								},
								{
									"internalType": "string",
									"name": "temperature",
									"type": "string"
								}
							],
							"internalType": "struct WeatherFunctions.CityStruct[]",
							"name": "",
							"type": "tuple[]"
						}
					],
					"stateMutability": "view",
					"type": "function"
				},
				{
					"inputs": [
						{
							"internalType": "uint256",
							"name": "",
							"type": "uint256"
						}
					],
					"name": "requestIds",
					"outputs": [
						{
							"internalType": "bytes32",
							"name": "",
							"type": "bytes32"
						}
					],
					"stateMutability": "view",
					"type": "function"
				},
				{
					"inputs": [
						{
							"internalType": "bytes32",
							"name": "",
							"type": "bytes32"
						}
					],
					"name": "request_city",
					"outputs": [
						{
							"internalType": "string",
							"name": "",
							"type": "string"
						}
					],
					"stateMutability": "view",
					"type": "function"
				},
				{
					"inputs": [
						{
							"internalType": "bytes32",
							"name": "",
							"type": "bytes32"
						}
					],
					"name": "requests",
					"outputs": [
						{
							"internalType": "bool",
							"name": "fulfilled",
							"type": "bool"
						},
						{
							"internalType": "bool",
							"name": "exists",
							"type": "bool"
						},
						{
							"internalType": "bytes",
							"name": "response",
							"type": "bytes"
						},
						{
							"internalType": "bytes",
							"name": "err",
							"type": "bytes"
						}
					],
					"stateMutability": "view",
					"type": "function"
				},
				{
					"inputs": [],
					"name": "source",
					"outputs": [
						{
							"internalType": "string",
							"name": "",
							"type": "string"
						}
					],
					"stateMutability": "view",
					"type": "function"
				},
				{
					"inputs": [],
					"name": "subscriptionId",
					"outputs": [
						{
							"internalType": "uint64",
							"name": "",
							"type": "uint64"
						}
					],
					"stateMutability": "view",
					"type": "function"
				}
			],
			"devdoc": {
				"kind": "dev",
				"methods": {
					"handleOracleFulfillment(bytes32,bytes,bytes)": {
						"details": "Either response or error parameter will be set, but never both.",
						"params": {
							"err": "Aggregated error either from the request's source code or from the execution pipeline.",
							"requestId": "The requestId returned by FunctionsClient.sendRequest().",
							"response": "Aggregated response from the request's source code."
						}
					}
				},
				"version": 1
			},
			"evm": {
				"assembly": "    /* \"WeatherFunctions.sol\":1196:1255  address router = 0xb83E47C2bC239B3bf370bc41e1459A34b41238D0 */\n  0x05\n  dup1\n  sload\n  not(sub(shl(0xa0, 0x01), 0x01))\n  and\n    /* \"WeatherFunctions.sol\":1213:1255  0xb83E47C2bC239B3bf370bc41e1459A34b41238D0 */\n  0xb83e47c2bc239b3bf370bc41e1459a34b41238d0\n    /* \"WeatherFunctions.sol\":1196:1255  address router = 0xb83E47C2bC239B3bf370bc41e1459A34b41238D0 */\n  or\n  swap1\n  sstore\n    /* \"WeatherFunctions.sol\":1285:1351  0x66756e2d657468657265756d2d7365706f6c69612d3100000000000000000000 */\n  0x66756e2d657468657265756d2d7365706f6c69612d3100000000000000000000\n    /* \"WeatherFunctions.sol\":1261:1351  bytes32 donID =... */\n  0x06\n  sstore\n    /* \"WeatherFunctions.sol\":1383:1407  uint32 gasLimit = 300000 */\n  0x07\n  dup1\n  sload\n  not(0xffffffff)\n  and\n    /* \"WeatherFunctions.sol\":1401:1407  300000 */\n  0x0493e0\n    /* \"WeatherFunctions.sol\":1383:1407  uint32 gasLimit = 300000 */\n  or\n  swap1\n  sstore\n    /* \"WeatherFunctions.sol\":1508:1899  string public source =... */\n  0x01e0\n    /* \"WeatherFunctions.sol\":300:5115  contract WeatherFunctions is FunctionsClient {... */\n  0x40\n    /* \"WeatherFunctions.sol\":1508:1899  string public source =... */\n  mstore\n  0x0103\n    /* \"WeatherFunctions.sol\":300:5115  contract WeatherFunctions is FunctionsClient {... */\n  0xa0\n    /* \"WeatherFunctions.sol\":1508:1899  string public source =... */\n  dup2\n  dup2\n  mstore\n    /* \"WeatherFunctions.sol\":300:5115  contract WeatherFunctions is FunctionsClient {... */\n  swap1\n    /* \"WeatherFunctions.sol\":1508:1899  string public source =... */\n  data_6ed21e9c87a8dfef6fdf85f2f7bdf69a9b42c764c66081ff64c14457b3f6fcc6\n  0xc0\n  codecopy\n  0x08\n  swap1\n  tag_1\n  swap1\n  dup3\n  tag_2\n  jump\t// in\ntag_1:\n  pop\n    /* \"WeatherFunctions.sol\":2289:2420  constructor(uint64 functionsSubscriptionId) FunctionsClient(router) {... */\n  callvalue\n  dup1\n  iszero\n  tag_3\n  jumpi\n  0x00\n  dup1\n  revert\ntag_3:\n  pop\n  mload(0x40)\n  sub(codesize, bytecodeSize)\n  dup1\n  bytecodeSize\n  dup4\n  codecopy\n  dup2\n  add\n  0x40\n  dup2\n  swap1\n  mstore\n  tag_4\n  swap2\n  tag_5\n  jump\t// in\ntag_4:\n    /* \"WeatherFunctions.sol\":2349:2355  router */\n  and(sub(shl(0xa0, 0x01), 0x01), sload(0x05))\n    /* \"@chainlink/contracts/src/v0.8/functions/dev/v1_0_0/FunctionsClient.sol\":736:771  i_router = IFunctionsRouter(router) */\n  0x80\n  mstore\n    /* \"WeatherFunctions.sol\":2367:2381  subscriptionId */\n  0x07\n    /* \"WeatherFunctions.sol\":2367:2407  subscriptionId = functionsSubscriptionId */\n  dup1\n  sload\n  sub(shl(0x40, 0x01), 0x01)\n  swap1\n  swap3\n  and\n  0x0100000000\n  mul\n  not(sub(shl(0x60, 0x01), shl(0x20, 0x01)))\n  swap1\n  swap3\n  and\n  swap2\n  swap1\n  swap2\n  or\n  swap1\n  sstore\n    /* \"WeatherFunctions.sol\":300:5115  contract WeatherFunctions is FunctionsClient {... */\n  jump(tag_16)\n    /* \"#utility.yul\":14:141   */\ntag_11:\n    /* \"#utility.yul\":75:85   */\n  0x4e487b71\n    /* \"#utility.yul\":70:73   */\n  0xe0\n    /* \"#utility.yul\":66:86   */\n  shl\n    /* \"#utility.yul\":63:64   */\n  0x00\n    /* \"#utility.yul\":56:87   */\n  mstore\n    /* \"#utility.yul\":106:110   */\n  0x41\n    /* \"#utility.yul\":103:104   */\n  0x04\n    /* \"#utility.yul\":96:111   */\n  mstore\n    /* \"#utility.yul\":130:134   */\n  0x24\n    /* \"#utility.yul\":127:128   */\n  0x00\n    /* \"#utility.yul\":120:135   */\n  revert\n    /* \"#utility.yul\":146:526   */\ntag_12:\n    /* \"#utility.yul\":225:226   */\n  0x01\n    /* \"#utility.yul\":221:233   */\n  dup2\n  dup2\n  shr\n  swap1\n    /* \"#utility.yul\":268:280   */\n  dup3\n  and\n  dup1\n    /* \"#utility.yul\":289:350   */\n  tag_19\n  jumpi\n    /* \"#utility.yul\":343:347   */\n  0x7f\n    /* \"#utility.yul\":335:341   */\n  dup3\n    /* \"#utility.yul\":331:348   */\n  and\n    /* \"#utility.yul\":321:348   */\n  swap2\n  pop\n    /* \"#utility.yul\":289:350   */\ntag_19:\n    /* \"#utility.yul\":396:398   */\n  0x20\n    /* \"#utility.yul\":388:394   */\n  dup3\n    /* \"#utility.yul\":385:399   */\n  lt\n    /* \"#utility.yul\":365:383   */\n  dup2\n    /* \"#utility.yul\":362:400   */\n  sub\n    /* \"#utility.yul\":359:520   */\n  tag_20\n  jumpi\n    /* \"#utility.yul\":442:452   */\n  0x4e487b71\n    /* \"#utility.yul\":437:440   */\n  0xe0\n    /* \"#utility.yul\":433:453   */\n  shl\n    /* \"#utility.yul\":430:431   */\n  0x00\n    /* \"#utility.yul\":423:454   */\n  mstore\n    /* \"#utility.yul\":477:481   */\n  0x22\n    /* \"#utility.yul\":474:475   */\n  0x04\n    /* \"#utility.yul\":467:482   */\n  mstore\n    /* \"#utility.yul\":505:509   */\n  0x24\n    /* \"#utility.yul\":502:503   */\n  0x00\n    /* \"#utility.yul\":495:510   */\n  revert\n    /* \"#utility.yul\":359:520   */\ntag_20:\n  pop\n    /* \"#utility.yul\":146:526   */\n  swap2\n  swap1\n  pop\n  jump\t// out\n    /* \"#utility.yul\":657:1202   */\ntag_14:\n    /* \"#utility.yul\":759:761   */\n  0x1f\n    /* \"#utility.yul\":754:757   */\n  dup3\n    /* \"#utility.yul\":751:762   */\n  gt\n    /* \"#utility.yul\":748:1196   */\n  iszero\n  tag_23\n  jumpi\n    /* \"#utility.yul\":795:796   */\n  0x00\n    /* \"#utility.yul\":820:825   */\n  dup2\n    /* \"#utility.yul\":816:818   */\n  dup2\n    /* \"#utility.yul\":809:826   */\n  mstore\n    /* \"#utility.yul\":865:869   */\n  0x20\n    /* \"#utility.yul\":861:863   */\n  dup2\n    /* \"#utility.yul\":851:870   */\n  keccak256\n    /* \"#utility.yul\":935:937   */\n  0x1f\n    /* \"#utility.yul\":923:933   */\n  dup6\n    /* \"#utility.yul\":919:938   */\n  add\n    /* \"#utility.yul\":916:917   */\n  0x05\n    /* \"#utility.yul\":912:939   */\n  shr\n    /* \"#utility.yul\":906:910   */\n  dup2\n    /* \"#utility.yul\":902:940   */\n  add\n    /* \"#utility.yul\":971:975   */\n  0x20\n    /* \"#utility.yul\":959:969   */\n  dup7\n    /* \"#utility.yul\":956:976   */\n  lt\n    /* \"#utility.yul\":953:1000   */\n  iszero\n  tag_24\n  jumpi\n  pop\n    /* \"#utility.yul\":994:998   */\n  dup1\n    /* \"#utility.yul\":953:1000   */\ntag_24:\n    /* \"#utility.yul\":1049:1051   */\n  0x1f\n    /* \"#utility.yul\":1044:1047   */\n  dup6\n    /* \"#utility.yul\":1040:1052   */\n  add\n    /* \"#utility.yul\":1037:1038   */\n  0x05\n    /* \"#utility.yul\":1033:1053   */\n  shr\n    /* \"#utility.yul\":1027:1031   */\n  dup3\n    /* \"#utility.yul\":1023:1054   */\n  add\n    /* \"#utility.yul\":1013:1054   */\n  swap2\n  pop\n    /* \"#utility.yul\":1104:1186   */\ntag_25:\n    /* \"#utility.yul\":1122:1124   */\n  dup2\n    /* \"#utility.yul\":1115:1120   */\n  dup2\n    /* \"#utility.yul\":1112:1125   */\n  lt\n    /* \"#utility.yul\":1104:1186   */\n  iszero\n  tag_27\n  jumpi\n    /* \"#utility.yul\":1167:1184   */\n  dup3\n  dup2\n  sstore\n    /* \"#utility.yul\":1148:1149   */\n  0x01\n    /* \"#utility.yul\":1137:1150   */\n  add\n    /* \"#utility.yul\":1104:1186   */\n  jump(tag_25)\ntag_27:\n    /* \"#utility.yul\":1108:1111   */\n  pop\n  pop\n  pop\n    /* \"#utility.yul\":748:1196   */\ntag_23:\n    /* \"#utility.yul\":657:1202   */\n  pop\n  pop\n  pop\n  jump\t// out\n    /* \"#utility.yul\":1378:2730   */\ntag_2:\n    /* \"#utility.yul\":1498:1508   */\n  dup2\n  mload\n  sub(shl(0x40, 0x01), 0x01)\n    /* \"#utility.yul\":1520:1550   */\n  dup2\n  gt\n    /* \"#utility.yul\":1517:1573   */\n  iszero\n  tag_31\n  jumpi\n    /* \"#utility.yul\":1553:1571   */\n  tag_31\n  tag_11\n  jump\t// in\ntag_31:\n    /* \"#utility.yul\":1582:1679   */\n  tag_32\n    /* \"#utility.yul\":1672:1678   */\n  dup2\n    /* \"#utility.yul\":1632:1670   */\n  tag_33\n    /* \"#utility.yul\":1664:1668   */\n  dup5\n    /* \"#utility.yul\":1658:1669   */\n  sload\n    /* \"#utility.yul\":1632:1670   */\n  tag_12\n  jump\t// in\ntag_33:\n    /* \"#utility.yul\":1626:1630   */\n  dup5\n    /* \"#utility.yul\":1582:1679   */\n  tag_14\n  jump\t// in\ntag_32:\n    /* \"#utility.yul\":1734:1738   */\n  0x20\n  dup1\n    /* \"#utility.yul\":1798:1800   */\n  0x1f\n    /* \"#utility.yul\":1787:1801   */\n  dup4\n  gt\n    /* \"#utility.yul\":1815:1816   */\n  0x01\n    /* \"#utility.yul\":1810:2473   */\n  dup2\n  eq\n  tag_35\n  jumpi\n    /* \"#utility.yul\":2517:2518   */\n  0x00\n    /* \"#utility.yul\":2534:2540   */\n  dup5\n    /* \"#utility.yul\":2531:2620   */\n  iszero\n  tag_36\n  jumpi\n  pop\n    /* \"#utility.yul\":2586:2605   */\n  dup6\n  dup4\n  add\n    /* \"#utility.yul\":2580:2606   */\n  mload\n    /* \"#utility.yul\":2531:2620   */\ntag_36:\n  not(0x00)\n    /* \"#utility.yul\":1335:1336   */\n  0x03\n    /* \"#utility.yul\":1331:1342   */\n  dup7\n  swap1\n  shl\n    /* \"#utility.yul\":1327:1351   */\n  shr\n    /* \"#utility.yul\":1323:1352   */\n  not\n    /* \"#utility.yul\":1313:1353   */\n  and\n    /* \"#utility.yul\":1359:1360   */\n  0x01\n    /* \"#utility.yul\":1355:1366   */\n  dup6\n  swap1\n  shl\n    /* \"#utility.yul\":1310:1367   */\n  or\n    /* \"#utility.yul\":2633:2714   */\n  dup6\n  sstore\n    /* \"#utility.yul\":1780:2724   */\n  jump(tag_27)\n    /* \"#utility.yul\":1810:2473   */\ntag_35:\n    /* \"#utility.yul\":604:605   */\n  0x00\n    /* \"#utility.yul\":597:611   */\n  dup6\n  dup2\n  mstore\n    /* \"#utility.yul\":641:645   */\n  0x20\n    /* \"#utility.yul\":628:646   */\n  dup2\n  keccak256\n  not(0x1f)\n    /* \"#utility.yul\":1846:1866   */\n  dup7\n  and\n  swap2\n    /* \"#utility.yul\":1964:2200   */\ntag_39:\n    /* \"#utility.yul\":1978:1985   */\n  dup3\n    /* \"#utility.yul\":1975:1976   */\n  dup2\n    /* \"#utility.yul\":1972:1986   */\n  lt\n    /* \"#utility.yul\":1964:2200   */\n  iszero\n  tag_41\n  jumpi\n    /* \"#utility.yul\":2067:2086   */\n  dup9\n  dup7\n  add\n    /* \"#utility.yul\":2061:2087   */\n  mload\n    /* \"#utility.yul\":2046:2088   */\n  dup3\n  sstore\n    /* \"#utility.yul\":2159:2186   */\n  swap5\n  dup5\n  add\n  swap5\n    /* \"#utility.yul\":2127:2128   */\n  0x01\n    /* \"#utility.yul\":2115:2129   */\n  swap1\n  swap2\n  add\n  swap1\n    /* \"#utility.yul\":1994:2013   */\n  dup5\n  add\n    /* \"#utility.yul\":1964:2200   */\n  jump(tag_39)\ntag_41:\n    /* \"#utility.yul\":1968:1971   */\n  pop\n    /* \"#utility.yul\":2228:2234   */\n  dup6\n    /* \"#utility.yul\":2219:2226   */\n  dup3\n    /* \"#utility.yul\":2216:2235   */\n  lt\n    /* \"#utility.yul\":2213:2414   */\n  iszero\n  tag_42\n  jumpi\n    /* \"#utility.yul\":2289:2308   */\n  dup8\n  dup6\n  add\n    /* \"#utility.yul\":2283:2309   */\n  mload\n  not(0x00)\n    /* \"#utility.yul\":2372:2373   */\n  0x03\n    /* \"#utility.yul\":2368:2382   */\n  dup9\n  swap1\n  shl\n    /* \"#utility.yul\":2384:2387   */\n  0xf8\n    /* \"#utility.yul\":2364:2388   */\n  and\n    /* \"#utility.yul\":2360:2397   */\n  shr\n    /* \"#utility.yul\":2356:2398   */\n  not\n    /* \"#utility.yul\":2341:2399   */\n  and\n    /* \"#utility.yul\":2326:2400   */\n  dup2\n  sstore\n    /* \"#utility.yul\":2213:2414   */\ntag_42:\n  pop\n  pop\n  pop\n  pop\n  pop\n    /* \"#utility.yul\":2460:2461   */\n  0x01\n    /* \"#utility.yul\":2444:2458   */\n  swap1\n  dup2\n  shl\n    /* \"#utility.yul\":2440:2462   */\n  add\n    /* \"#utility.yul\":2427:2463   */\n  swap1\n  sstore\n  pop\n    /* \"#utility.yul\":1378:2730   */\n  jump\t// out\n    /* \"#utility.yul\":2735:3023   */\ntag_5:\n    /* \"#utility.yul\":2804:2810   */\n  0x00\n    /* \"#utility.yul\":2857:2859   */\n  0x20\n    /* \"#utility.yul\":2845:2854   */\n  dup3\n    /* \"#utility.yul\":2836:2843   */\n  dup5\n    /* \"#utility.yul\":2832:2855   */\n  sub\n    /* \"#utility.yul\":2828:2860   */\n  slt\n    /* \"#utility.yul\":2825:2877   */\n  iszero\n  tag_44\n  jumpi\n    /* \"#utility.yul\":2873:2874   */\n  0x00\n    /* \"#utility.yul\":2870:2871   */\n  dup1\n    /* \"#utility.yul\":2863:2875   */\n  revert\n    /* \"#utility.yul\":2825:2877   */\ntag_44:\n    /* \"#utility.yul\":2899:2915   */\n  dup2\n  mload\n  sub(shl(0x40, 0x01), 0x01)\n    /* \"#utility.yul\":2944:2974   */\n  dup2\n  and\n    /* \"#utility.yul\":2934:2975   */\n  dup2\n  eq\n    /* \"#utility.yul\":2924:2993   */\n  tag_45\n  jumpi\n    /* \"#utility.yul\":2989:2990   */\n  0x00\n    /* \"#utility.yul\":2986:2987   */\n  dup1\n    /* \"#utility.yul\":2979:2991   */\n  revert\n    /* \"#utility.yul\":2924:2993   */\ntag_45:\n    /* \"#utility.yul\":3012:3017   */\n  swap4\n    /* \"#utility.yul\":2735:3023   */\n  swap3\n  pop\n  pop\n  pop\n  jump\t// out\ntag_16:\n    /* \"WeatherFunctions.sol\":300:5115  contract WeatherFunctions is FunctionsClient {... */\n  mload(0x80)\n  codecopy(0x00, dataOffset(sub_0), dataSize(sub_0))\n  0x00\n  assignImmutable(\"0x8e8fab5f003314da8d1873ea7720e8d9f47650136d916064d1edb8a11d682624\")\n  return(0x00, dataSize(sub_0))\nstop\ndata_6ed21e9c87a8dfef6fdf85f2f7bdf69a9b42c764c66081ff64c14457b3f6fcc6 636f6e73742063697479203d20617267735b305d3b636f6e737420617069526573706f6e7365203d2061776169742046756e6374696f6e732e6d616b654874747052657175657374287b75726c3a206068747470733a2f2f777474722e696e2f247b636974797d3f666f726d61743d33266d602c726573706f6e7365547970653a202774657874277d293b69662028617069526573706f6e73652e6572726f7229207b7468726f77204572726f72282752657175657374206661696c656427293b7d636f6e7374207b2064617461207d203d20617069526573706f6e73653b72657475726e2046756e6374696f6e732e656e636f6465537472696e672864617461293b\n\nsub_0: assembly {\n        /* \"WeatherFunctions.sol\":300:5115  contract WeatherFunctions is FunctionsClient {... */\n      mstore(0x40, 0x80)\n      callvalue\n      dup1\n      iszero\n      tag_1\n      jumpi\n      0x00\n      dup1\n      revert\n    tag_1:\n      pop\n      jumpi(tag_2, lt(calldatasize, 0x04))\n      shr(0xe0, calldataload(0x00))\n      dup1\n      0x8b8267cf\n      gt\n      tag_21\n      jumpi\n      dup1\n      0x9fb51771\n      gt\n      tag_22\n      jumpi\n      dup1\n      0x9fb51771\n      eq\n      tag_16\n      jumpi\n      dup1\n      0xbc6f09c9\n      eq\n      tag_17\n      jumpi\n      dup1\n      0xc69c5bb8\n      eq\n      tag_18\n      jumpi\n      dup1\n      0xcd2b8d11\n      eq\n      tag_19\n      jumpi\n      dup1\n      0xfc2a88c3\n      eq\n      tag_20\n      jumpi\n      0x00\n      dup1\n      revert\n    tag_22:\n      dup1\n      0x8b8267cf\n      eq\n      tag_12\n      jumpi\n      dup1\n      0x8fcabccb\n      eq\n      tag_13\n      jumpi\n      dup1\n      0x94d02941\n      eq\n      tag_14\n      jumpi\n      dup1\n      0x9d866985\n      eq\n      tag_15\n      jumpi\n      0x00\n      dup1\n      revert\n    tag_21:\n      dup1\n      0x29f0de3f\n      gt\n      tag_23\n      jumpi\n      dup1\n      0x29f0de3f\n      eq\n      tag_7\n      jumpi\n      dup1\n      0x62747e42\n      eq\n      tag_8\n      jumpi\n      dup1\n      0x67e828bf\n      eq\n      tag_9\n      jumpi\n      dup1\n      0x6a51b918\n      eq\n      tag_10\n      jumpi\n      dup1\n      0x8796ba8c\n      eq\n      tag_11\n      jumpi\n      0x00\n      dup1\n      revert\n    tag_23:\n      dup1\n      0x0650e971\n      eq\n      tag_3\n      jumpi\n      dup1\n      0x09c1ba2e\n      eq\n      tag_4\n      jumpi\n      dup1\n      0x0ca76175\n      eq\n      tag_5\n      jumpi\n      dup1\n      0x256fec88\n      eq\n      tag_6\n      jumpi\n    tag_2:\n      0x00\n      dup1\n      revert\n        /* \"WeatherFunctions.sol\":4424:4548  function getCity(string memory city) public view returns (CityStruct memory) {... */\n    tag_3:\n      tag_24\n      tag_25\n      calldatasize\n      0x04\n      tag_26\n      jump\t// in\n    tag_25:\n      tag_27\n      jump\t// in\n    tag_24:\n      mload(0x40)\n      tag_28\n      swap2\n      swap1\n      tag_29\n      jump\t// in\n    tag_28:\n      mload(0x40)\n      dup1\n      swap2\n      sub\n      swap1\n      return\n        /* \"WeatherFunctions.sol\":1443:1471  uint64 public subscriptionId */\n    tag_4:\n      sload(0x07)\n      tag_30\n      swap1\n      0x0100000000\n      swap1\n      div\n      sub(shl(0x40, 0x01), 0x01)\n      and\n      dup2\n      jump\n    tag_30:\n      mload(0x40)\n      sub(shl(0x40, 0x01), 0x01)\n        /* \"#utility.yul\":2706:2737   */\n      swap1\n      swap2\n      and\n        /* \"#utility.yul\":2688:2738   */\n      dup2\n      mstore\n        /* \"#utility.yul\":2676:2678   */\n      0x20\n        /* \"#utility.yul\":2661:2679   */\n      add\n        /* \"WeatherFunctions.sol\":1443:1471  uint64 public subscriptionId */\n      tag_28\n        /* \"#utility.yul\":2544:2744   */\n      jump\n        /* \"@chainlink/contracts/src/v0.8/functions/dev/v1_0_0/FunctionsClient.sol\":2078:2364  function handleOracleFulfillment(bytes32 requestId, bytes memory response, bytes memory err) external override {... */\n    tag_5:\n      tag_34\n      tag_35\n      calldatasize\n      0x04\n      tag_36\n      jump\t// in\n    tag_35:\n      tag_37\n      jump\t// in\n    tag_34:\n      stop\n        /* \"WeatherFunctions.sol\":1972:1997  address public lastSender */\n    tag_6:\n      sload(0x0b)\n      tag_38\n      swap1\n      sub(shl(0xa0, 0x01), 0x01)\n      and\n      dup2\n      jump\n    tag_38:\n      mload(0x40)\n      sub(shl(0xa0, 0x01), 0x01)\n        /* \"#utility.yul\":3751:3783   */\n      swap1\n      swap2\n      and\n        /* \"#utility.yul\":3733:3784   */\n      dup2\n      mstore\n        /* \"#utility.yul\":3721:3723   */\n      0x20\n        /* \"#utility.yul\":3706:3724   */\n      add\n        /* \"WeatherFunctions.sol\":1972:1997  address public lastSender */\n      tag_28\n        /* \"#utility.yul\":3587:3790   */\n      jump\n        /* \"WeatherFunctions.sol\":547:569  bytes public lastError */\n    tag_7:\n      tag_42\n      tag_43\n      jump\t// in\n    tag_42:\n      mload(0x40)\n      tag_28\n      swap2\n      swap1\n      tag_45\n      jump\t// in\n        /* \"WeatherFunctions.sol\":516:541  bytes public lastResponse */\n    tag_8:\n      tag_42\n      tag_47\n      jump\t// in\n        /* \"WeatherFunctions.sol\":1508:1899  string public source =... */\n    tag_9:\n      tag_42\n      tag_50\n      jump\t// in\n        /* \"WeatherFunctions.sol\":2131:2157  CityStruct[] public cities */\n    tag_10:\n      tag_53\n      tag_54\n      calldatasize\n      0x04\n      tag_55\n      jump\t// in\n    tag_54:\n      tag_56\n      jump\t// in\n    tag_53:\n      mload(0x40)\n      tag_28\n      swap5\n      swap4\n      swap3\n      swap2\n      swap1\n      tag_58\n      jump\t// in\n        /* \"WeatherFunctions.sol\":881:908  bytes32[] public requestIds */\n    tag_11:\n      tag_59\n      tag_60\n      calldatasize\n      0x04\n      tag_55\n      jump\t// in\n    tag_60:\n      tag_61\n      jump\t// in\n    tag_59:\n      mload(0x40)\n        /* \"#utility.yul\":5132:5157   */\n      swap1\n      dup2\n      mstore\n        /* \"#utility.yul\":5120:5122   */\n      0x20\n        /* \"#utility.yul\":5105:5123   */\n      add\n        /* \"WeatherFunctions.sol\":881:908  bytes32[] public requestIds */\n      tag_28\n        /* \"#utility.yul\":4986:5163   */\n      jump\n        /* \"WeatherFunctions.sol\":4657:5112  function listCities(uint start, uint end) public view returns (CityStruct[] memory) {... */\n    tag_12:\n      tag_64\n      tag_65\n      calldatasize\n      0x04\n      tag_66\n      jump\t// in\n    tag_65:\n      tag_67\n      jump\t// in\n    tag_64:\n      mload(0x40)\n      tag_28\n      swap2\n      swap1\n      tag_69\n      jump\t// in\n        /* \"WeatherFunctions.sol\":2212:2258  mapping(bytes32 => string) public request_city */\n    tag_13:\n      tag_42\n      tag_71\n      calldatasize\n      0x04\n      tag_55\n      jump\t// in\n    tag_71:\n      tag_73\n      jump\t// in\n        /* \"WeatherFunctions.sol\":2426:3610  function getTemperature(... */\n    tag_14:\n      tag_59\n      tag_76\n      calldatasize\n      0x04\n      tag_26\n      jump\t// in\n    tag_76:\n      tag_77\n      jump\t// in\n        /* \"WeatherFunctions.sol\":782:831  mapping(bytes32 => RequestStatus) public requests */\n    tag_15:\n      tag_79\n      tag_80\n      calldatasize\n      0x04\n      tag_55\n      jump\t// in\n    tag_80:\n      tag_81\n      jump\t// in\n    tag_79:\n      mload(0x40)\n      tag_28\n      swap5\n      swap4\n      swap3\n      swap2\n      swap1\n      tag_83\n      jump\t// in\n        /* \"WeatherFunctions.sol\":1937:1966  string public lastTemperature */\n    tag_16:\n      tag_42\n      tag_85\n      jump\t// in\n        /* \"WeatherFunctions.sol\":4554:4651  function listAllCities() public view returns (CityStruct[] memory) {... */\n    tag_17:\n      tag_64\n      tag_88\n      jump\t// in\n        /* \"WeatherFunctions.sol\":2163:2206  mapping(string => uint256) public cityIndex */\n    tag_18:\n      tag_59\n      tag_91\n      calldatasize\n      0x04\n      tag_26\n      jump\t// in\n    tag_91:\n      dup1\n      mload\n      0x20\n      dup2\n      dup4\n      add\n      dup2\n      add\n      dup1\n      mload\n      0x0d\n      dup3\n      mstore\n      swap3\n      dup3\n      add\n      swap2\n      swap1\n      swap4\n      add\n      keccak256\n      swap2\n      mstore\n      sload\n      dup2\n      jump\n        /* \"WeatherFunctions.sol\":1905:1927  string public lastCity */\n    tag_19:\n      tag_42\n      tag_96\n      jump\t// in\n        /* \"WeatherFunctions.sol\":482:510  bytes32 public lastRequestId */\n    tag_20:\n      tag_59\n      sload(0x00)\n      dup2\n      jump\n        /* \"WeatherFunctions.sol\":4424:4548  function getCity(string memory city) public view returns (CityStruct memory) {... */\n    tag_27:\n        /* \"WeatherFunctions.sol\":4482:4499  CityStruct memory */\n      tag_101\n      mload(0x40)\n      dup1\n      0x80\n      add\n      0x40\n      mstore\n      dup1\n      and(sub(shl(0xa0, 0x01), 0x01), 0x00)\n      dup2\n      mstore\n      0x20\n      add\n      0x00\n      dup2\n      mstore\n      0x20\n      add\n      0x60\n      dup2\n      mstore\n      0x20\n      add\n      0x60\n      dup2\n      mstore\n      pop\n      swap1\n      jump\n    tag_101:\n        /* \"WeatherFunctions.sol\":4518:4524  cities */\n      0x0c\n        /* \"WeatherFunctions.sol\":4525:4534  cityIndex */\n      0x0d\n        /* \"WeatherFunctions.sol\":4535:4539  city */\n      dup4\n        /* \"WeatherFunctions.sol\":4525:4540  cityIndex[city] */\n      mload(0x40)\n      tag_104\n      swap2\n      swap1\n      tag_105\n      jump\t// in\n    tag_104:\n      swap1\n      dup2\n      mstore\n      0x20\n      add\n      mload(0x40)\n      dup1\n      swap2\n      sub\n      swap1\n      keccak256\n      sload\n        /* \"WeatherFunctions.sol\":4518:4541  cities[cityIndex[city]] */\n      dup2\n      sload\n      dup2\n      lt\n      tag_107\n      jumpi\n      tag_107\n      tag_108\n      jump\t// in\n    tag_107:\n      swap1\n      0x00\n      mstore\n      keccak256(0x00, 0x20)\n      swap1\n      0x04\n      mul\n      add\n        /* \"WeatherFunctions.sol\":4511:4541  return cities[cityIndex[city]] */\n      mload(0x40)\n      dup1\n      0x80\n      add\n      0x40\n      mstore\n      swap1\n      dup2\n      0x00\n      dup3\n      add\n      0x00\n      swap1\n      sload\n      swap1\n      0x0100\n      exp\n      swap1\n      div\n      sub(shl(0xa0, 0x01), 0x01)\n      and\n      sub(shl(0xa0, 0x01), 0x01)\n      and\n      sub(shl(0xa0, 0x01), 0x01)\n      and\n      dup2\n      mstore\n      0x20\n      add\n      0x01\n      dup3\n      add\n      sload\n      dup2\n      mstore\n      0x20\n      add\n      0x02\n      dup3\n      add\n      dup1\n      sload\n      tag_110\n      swap1\n      tag_111\n      jump\t// in\n    tag_110:\n      dup1\n      0x1f\n      add\n      0x20\n      dup1\n      swap2\n      div\n      mul\n      0x20\n      add\n      mload(0x40)\n      swap1\n      dup2\n      add\n      0x40\n      mstore\n      dup1\n      swap3\n      swap2\n      swap1\n      dup2\n      dup2\n      mstore\n      0x20\n      add\n      dup3\n      dup1\n      sload\n      tag_112\n      swap1\n      tag_111\n      jump\t// in\n    tag_112:\n      dup1\n      iszero\n      tag_113\n      jumpi\n      dup1\n      0x1f\n      lt\n      tag_114\n      jumpi\n      0x0100\n      dup1\n      dup4\n      sload\n      div\n      mul\n      dup4\n      mstore\n      swap2\n      0x20\n      add\n      swap2\n      jump(tag_113)\n    tag_114:\n      dup3\n      add\n      swap2\n      swap1\n      0x00\n      mstore\n      keccak256(0x00, 0x20)\n      swap1\n    tag_115:\n      dup2\n      sload\n      dup2\n      mstore\n      swap1\n      0x01\n      add\n      swap1\n      0x20\n      add\n      dup1\n      dup4\n      gt\n      tag_115\n      jumpi\n      dup3\n      swap1\n      sub\n      0x1f\n      and\n      dup3\n      add\n      swap2\n    tag_113:\n      pop\n      pop\n      pop\n      pop\n      pop\n      dup2\n      mstore\n      0x20\n      add\n      0x03\n      dup3\n      add\n      dup1\n      sload\n      tag_116\n      swap1\n      tag_111\n      jump\t// in\n    tag_116:\n      dup1\n      0x1f\n      add\n      0x20\n      dup1\n      swap2\n      div\n      mul\n      0x20\n      add\n      mload(0x40)\n      swap1\n      dup2\n      add\n      0x40\n      mstore\n      dup1\n      swap3\n      swap2\n      swap1\n      dup2\n      dup2\n      mstore\n      0x20\n      add\n      dup3\n      dup1\n      sload\n      tag_117\n      swap1\n      tag_111\n      jump\t// in\n    tag_117:\n      dup1\n      iszero\n      tag_118\n      jumpi\n      dup1\n      0x1f\n      lt\n      tag_119\n      jumpi\n      0x0100\n      dup1\n      dup4\n      sload\n      div\n      mul\n      dup4\n      mstore\n      swap2\n      0x20\n      add\n      swap2\n      jump(tag_118)\n    tag_119:\n      dup3\n      add\n      swap2\n      swap1\n      0x00\n      mstore\n      keccak256(0x00, 0x20)\n      swap1\n    tag_120:\n      dup2\n      sload\n      dup2\n      mstore\n      swap1\n      0x01\n      add\n      swap1\n      0x20\n      add\n      dup1\n      dup4\n      gt\n      tag_120\n      jumpi\n      dup3\n      swap1\n      sub\n      0x1f\n      and\n      dup3\n      add\n      swap2\n    tag_118:\n      pop\n      pop\n      pop\n      pop\n      pop\n      dup2\n      mstore\n      pop\n      pop\n      swap1\n      pop\n        /* \"WeatherFunctions.sol\":4424:4548  function getCity(string memory city) public view returns (CityStruct memory) {... */\n      swap2\n      swap1\n      pop\n      jump\t// out\n        /* \"@chainlink/contracts/src/v0.8/functions/dev/v1_0_0/FunctionsClient.sol\":2078:2364  function handleOracleFulfillment(bytes32 requestId, bytes memory response, bytes memory err) external override {... */\n    tag_37:\n        /* \"@chainlink/contracts/src/v0.8/functions/dev/v1_0_0/FunctionsClient.sol\":2199:2209  msg.sender */\n      caller\n      sub(shl(0xa0, 0x01), 0x01)\n        /* \"@chainlink/contracts/src/v0.8/functions/dev/v1_0_0/FunctionsClient.sol\":2221:2229  i_router */\n      immutable(\"0x8e8fab5f003314da8d1873ea7720e8d9f47650136d916064d1edb8a11d682624\")\n        /* \"@chainlink/contracts/src/v0.8/functions/dev/v1_0_0/FunctionsClient.sol\":2199:2230  msg.sender != address(i_router) */\n      and\n      eq\n        /* \"@chainlink/contracts/src/v0.8/functions/dev/v1_0_0/FunctionsClient.sol\":2195:2276  if (msg.sender != address(i_router)) {... */\n      tag_122\n      jumpi\n        /* \"@chainlink/contracts/src/v0.8/functions/dev/v1_0_0/FunctionsClient.sol\":2247:2269  OnlyRouterCanFulfill() */\n      mload(0x40)\n      shl(0xe0, 0xc6829f83)\n      dup2\n      mstore\n      0x04\n      add\n      mload(0x40)\n      dup1\n      swap2\n      sub\n      swap1\n      revert\n        /* \"@chainlink/contracts/src/v0.8/functions/dev/v1_0_0/FunctionsClient.sol\":2195:2276  if (msg.sender != address(i_router)) {... */\n    tag_122:\n        /* \"@chainlink/contracts/src/v0.8/functions/dev/v1_0_0/FunctionsClient.sol\":2281:2321  fulfillRequest(requestId, response, err) */\n      tag_123\n        /* \"@chainlink/contracts/src/v0.8/functions/dev/v1_0_0/FunctionsClient.sol\":2296:2305  requestId */\n      dup4\n        /* \"@chainlink/contracts/src/v0.8/functions/dev/v1_0_0/FunctionsClient.sol\":2307:2315  response */\n      dup4\n        /* \"@chainlink/contracts/src/v0.8/functions/dev/v1_0_0/FunctionsClient.sol\":2317:2320  err */\n      dup4\n        /* \"@chainlink/contracts/src/v0.8/functions/dev/v1_0_0/FunctionsClient.sol\":2281:2295  fulfillRequest */\n      tag_124\n        /* \"@chainlink/contracts/src/v0.8/functions/dev/v1_0_0/FunctionsClient.sol\":2281:2321  fulfillRequest(requestId, response, err) */\n      jump\t// in\n    tag_123:\n        /* \"@chainlink/contracts/src/v0.8/functions/dev/v1_0_0/FunctionsClient.sol\":2332:2359  RequestFulfilled(requestId) */\n      mload(0x40)\n        /* \"@chainlink/contracts/src/v0.8/functions/dev/v1_0_0/FunctionsClient.sol\":2349:2358  requestId */\n      dup4\n      swap1\n        /* \"@chainlink/contracts/src/v0.8/functions/dev/v1_0_0/FunctionsClient.sol\":2332:2359  RequestFulfilled(requestId) */\n      0x85e1543bf2f84fe80c6badbce3648c8539ad1df4d2b3d822938ca0538be727e6\n      swap1\n      0x00\n      swap1\n      log2\n        /* \"@chainlink/contracts/src/v0.8/functions/dev/v1_0_0/FunctionsClient.sol\":2078:2364  function handleOracleFulfillment(bytes32 requestId, bytes memory response, bytes memory err) external override {... */\n      pop\n      pop\n      pop\n      jump\t// out\n        /* \"WeatherFunctions.sol\":547:569  bytes public lastError */\n    tag_43:\n      0x02\n      dup1\n      sload\n      tag_125\n      swap1\n      tag_111\n      jump\t// in\n    tag_125:\n      dup1\n      0x1f\n      add\n      0x20\n      dup1\n      swap2\n      div\n      mul\n      0x20\n      add\n      mload(0x40)\n      swap1\n      dup2\n      add\n      0x40\n      mstore\n      dup1\n      swap3\n      swap2\n      swap1\n      dup2\n      dup2\n      mstore\n      0x20\n      add\n      dup3\n      dup1\n      sload\n      tag_126\n      swap1\n      tag_111\n      jump\t// in\n    tag_126:\n      dup1\n      iszero\n      tag_127\n      jumpi\n      dup1\n      0x1f\n      lt\n      tag_128\n      jumpi\n      0x0100\n      dup1\n      dup4\n      sload\n      div\n      mul\n      dup4\n      mstore\n      swap2\n      0x20\n      add\n      swap2\n      jump(tag_127)\n    tag_128:\n      dup3\n      add\n      swap2\n      swap1\n      0x00\n      mstore\n      keccak256(0x00, 0x20)\n      swap1\n    tag_129:\n      dup2\n      sload\n      dup2\n      mstore\n      swap1\n      0x01\n      add\n      swap1\n      0x20\n      add\n      dup1\n      dup4\n      gt\n      tag_129\n      jumpi\n      dup3\n      swap1\n      sub\n      0x1f\n      and\n      dup3\n      add\n      swap2\n    tag_127:\n      pop\n      pop\n      pop\n      pop\n      pop\n      dup2\n      jump\t// out\n        /* \"WeatherFunctions.sol\":516:541  bytes public lastResponse */\n    tag_47:\n      0x01\n      dup1\n      sload\n      tag_125\n      swap1\n      tag_111\n      jump\t// in\n        /* \"WeatherFunctions.sol\":1508:1899  string public source =... */\n    tag_50:\n      0x08\n      dup1\n      sload\n      tag_125\n      swap1\n      tag_111\n      jump\t// in\n        /* \"WeatherFunctions.sol\":2131:2157  CityStruct[] public cities */\n    tag_56:\n      0x0c\n      dup2\n      dup2\n      sload\n      dup2\n      lt\n      tag_140\n      jumpi\n      0x00\n      dup1\n      revert\n    tag_140:\n      0x00\n      swap2\n      dup3\n      mstore\n      0x20\n      swap1\n      swap2\n      keccak256\n      0x04\n      swap1\n      swap2\n      mul\n      add\n      dup1\n      sload\n      0x01\n      dup3\n      add\n      sload\n      0x02\n      dup4\n      add\n      dup1\n      sload\n      sub(shl(0xa0, 0x01), 0x01)\n      swap1\n      swap4\n      and\n      swap5\n      pop\n      swap1\n      swap3\n      swap2\n      tag_142\n      swap1\n      tag_111\n      jump\t// in\n    tag_142:\n      dup1\n      0x1f\n      add\n      0x20\n      dup1\n      swap2\n      div\n      mul\n      0x20\n      add\n      mload(0x40)\n      swap1\n      dup2\n      add\n      0x40\n      mstore\n      dup1\n      swap3\n      swap2\n      swap1\n      dup2\n      dup2\n      mstore\n      0x20\n      add\n      dup3\n      dup1\n      sload\n      tag_143\n      swap1\n      tag_111\n      jump\t// in\n    tag_143:\n      dup1\n      iszero\n      tag_144\n      jumpi\n      dup1\n      0x1f\n      lt\n      tag_145\n      jumpi\n      0x0100\n      dup1\n      dup4\n      sload\n      div\n      mul\n      dup4\n      mstore\n      swap2\n      0x20\n      add\n      swap2\n      jump(tag_144)\n    tag_145:\n      dup3\n      add\n      swap2\n      swap1\n      0x00\n      mstore\n      keccak256(0x00, 0x20)\n      swap1\n    tag_146:\n      dup2\n      sload\n      dup2\n      mstore\n      swap1\n      0x01\n      add\n      swap1\n      0x20\n      add\n      dup1\n      dup4\n      gt\n      tag_146\n      jumpi\n      dup3\n      swap1\n      sub\n      0x1f\n      and\n      dup3\n      add\n      swap2\n    tag_144:\n      pop\n      pop\n      pop\n      pop\n      pop\n      swap1\n      dup1\n      0x03\n      add\n      dup1\n      sload\n      tag_147\n      swap1\n      tag_111\n      jump\t// in\n    tag_147:\n      dup1\n      0x1f\n      add\n      0x20\n      dup1\n      swap2\n      div\n      mul\n      0x20\n      add\n      mload(0x40)\n      swap1\n      dup2\n      add\n      0x40\n      mstore\n      dup1\n      swap3\n      swap2\n      swap1\n      dup2\n      dup2\n      mstore\n      0x20\n      add\n      dup3\n      dup1\n      sload\n      tag_148\n      swap1\n      tag_111\n      jump\t// in\n    tag_148:\n      dup1\n      iszero\n      tag_149\n      jumpi\n      dup1\n      0x1f\n      lt\n      tag_150\n      jumpi\n      0x0100\n      dup1\n      dup4\n      sload\n      div\n      mul\n      dup4\n      mstore\n      swap2\n      0x20\n      add\n      swap2\n      jump(tag_149)\n    tag_150:\n      dup3\n      add\n      swap2\n      swap1\n      0x00\n      mstore\n      keccak256(0x00, 0x20)\n      swap1\n    tag_151:\n      dup2\n      sload\n      dup2\n      mstore\n      swap1\n      0x01\n      add\n      swap1\n      0x20\n      add\n      dup1\n      dup4\n      gt\n      tag_151\n      jumpi\n      dup3\n      swap1\n      sub\n      0x1f\n      and\n      dup3\n      add\n      swap2\n    tag_149:\n      pop\n      pop\n      pop\n      pop\n      pop\n      swap1\n      pop\n      dup5\n      jump\t// out\n        /* \"WeatherFunctions.sol\":881:908  bytes32[] public requestIds */\n    tag_61:\n      0x04\n      dup2\n      dup2\n      sload\n      dup2\n      lt\n      tag_152\n      jumpi\n      0x00\n      dup1\n      revert\n    tag_152:\n      0x00\n      swap2\n      dup3\n      mstore\n      0x20\n      swap1\n      swap2\n      keccak256\n      add\n      sload\n      swap1\n      pop\n      dup2\n      jump\t// out\n        /* \"WeatherFunctions.sol\":4657:5112  function listCities(uint start, uint end) public view returns (CityStruct[] memory) {... */\n    tag_67:\n        /* \"WeatherFunctions.sol\":4761:4767  cities */\n      0x0c\n        /* \"WeatherFunctions.sol\":4761:4774  cities.length */\n      sload\n        /* \"WeatherFunctions.sol\":4720:4739  CityStruct[] memory */\n      0x60\n      swap1\n        /* \"WeatherFunctions.sol\":4755:4774  end > cities.length */\n      dup3\n      gt\n        /* \"WeatherFunctions.sol\":4751:4809  if (end > cities.length)... */\n      iszero\n      tag_155\n      jumpi\n        /* \"WeatherFunctions.sol\":4794:4800  cities */\n      0x0c\n        /* \"WeatherFunctions.sol\":4794:4807  cities.length */\n      sload\n        /* \"WeatherFunctions.sol\":4794:4809  cities.length-1 */\n      tag_156\n      swap1\n        /* \"WeatherFunctions.sol\":4808:4809  1 */\n      0x01\n      swap1\n        /* \"WeatherFunctions.sol\":4794:4809  cities.length-1 */\n      tag_157\n      jump\t// in\n    tag_156:\n        /* \"WeatherFunctions.sol\":4788:4809  end = cities.length-1 */\n      swap2\n      pop\n        /* \"WeatherFunctions.sol\":4751:4809  if (end > cities.length)... */\n    tag_155:\n        /* \"WeatherFunctions.sol\":4837:4840  end */\n      dup2\n        /* \"WeatherFunctions.sol\":4828:4833  start */\n      dup4\n        /* \"WeatherFunctions.sol\":4828:4840  start <= end */\n      gt\n      iszero\n        /* \"WeatherFunctions.sol\":4819:4862  require (start <= end, \"start must <= end\") */\n      tag_158\n      jumpi\n      mload(0x40)\n      shl(0xe5, 0x461bcd)\n      dup2\n      mstore\n        /* \"#utility.yul\":8469:8471   */\n      0x20\n        /* \"WeatherFunctions.sol\":4819:4862  require (start <= end, \"start must <= end\") */\n      0x04\n      dup3\n      add\n        /* \"#utility.yul\":8451:8472   */\n      mstore\n        /* \"#utility.yul\":8508:8510   */\n      0x11\n        /* \"#utility.yul\":8488:8506   */\n      0x24\n      dup3\n      add\n        /* \"#utility.yul\":8481:8511   */\n      mstore\n      shl(0x7a, 0x1cdd185c9d081b5d5cdd080f0f48195b99)\n        /* \"#utility.yul\":8527:8545   */\n      0x44\n      dup3\n      add\n        /* \"#utility.yul\":8520:8567   */\n      mstore\n        /* \"#utility.yul\":8584:8602   */\n      0x64\n      add\n        /* \"WeatherFunctions.sol\":4819:4862  require (start <= end, \"start must <= end\") */\n    tag_159:\n      mload(0x40)\n      dup1\n      swap2\n      sub\n      swap1\n      revert\n    tag_158:\n        /* \"WeatherFunctions.sol\":4872:4886  uint cityCount */\n      0x00\n        /* \"WeatherFunctions.sol\":4889:4900  end - start */\n      tag_161\n        /* \"WeatherFunctions.sol\":4895:4900  start */\n      dup5\n        /* \"WeatherFunctions.sol\":4889:4892  end */\n      dup5\n        /* \"WeatherFunctions.sol\":4889:4900  end - start */\n      tag_157\n      jump\t// in\n    tag_161:\n        /* \"WeatherFunctions.sol\":4889:4904  end - start + 1 */\n      tag_162\n      swap1\n        /* \"WeatherFunctions.sol\":4903:4904  1 */\n      0x01\n        /* \"WeatherFunctions.sol\":4889:4904  end - start + 1 */\n      tag_163\n      jump\t// in\n    tag_162:\n        /* \"WeatherFunctions.sol\":4872:4904  uint cityCount = end - start + 1 */\n      swap1\n      pop\n        /* \"WeatherFunctions.sol\":4914:4943  CityStruct[] memory citiesAux */\n      0x00\n        /* \"WeatherFunctions.sol\":4963:4972  cityCount */\n      dup2\n      sub(shl(0x40, 0x01), 0x01)\n        /* \"WeatherFunctions.sol\":4946:4973  new CityStruct[](cityCount) */\n      dup2\n      gt\n      iszero\n      tag_165\n      jumpi\n      tag_165\n      tag_166\n      jump\t// in\n    tag_165:\n      mload(0x40)\n      swap1\n      dup1\n      dup3\n      mstore\n      dup1\n      0x20\n      mul\n      0x20\n      add\n      dup3\n      add\n      0x40\n      mstore\n      dup1\n      iszero\n      tag_167\n      jumpi\n      dup2\n      0x20\n      add\n    tag_168:\n      tag_169\n      mload(0x40)\n      dup1\n      0x80\n      add\n      0x40\n      mstore\n      dup1\n      and(sub(shl(0xa0, 0x01), 0x01), 0x00)\n      dup2\n      mstore\n      0x20\n      add\n      0x00\n      dup2\n      mstore\n      0x20\n      add\n      0x60\n      dup2\n      mstore\n      0x20\n      add\n      0x60\n      dup2\n      mstore\n      pop\n      swap1\n      jump\n    tag_169:\n      dup2\n      mstore\n      0x20\n      add\n      swap1\n      0x01\n      swap1\n      sub\n      swap1\n      dup2\n      tag_168\n      jumpi\n      swap1\n      pop\n    tag_167:\n      pop\n        /* \"WeatherFunctions.sol\":4914:4973  CityStruct[] memory citiesAux = new CityStruct[](cityCount) */\n      swap1\n      pop\n        /* \"WeatherFunctions.sol\":4998:5003  start */\n      dup5\n        /* \"WeatherFunctions.sol\":4984:5080  for (uint i = start; i < (end + 1); i++) {... */\n    tag_170:\n        /* \"WeatherFunctions.sol\":5010:5017  end + 1 */\n      tag_173\n        /* \"WeatherFunctions.sol\":5010:5013  end */\n      dup6\n        /* \"WeatherFunctions.sol\":5016:5017  1 */\n      0x01\n        /* \"WeatherFunctions.sol\":5010:5017  end + 1 */\n      tag_163\n      jump\t// in\n    tag_173:\n        /* \"WeatherFunctions.sol\":5005:5006  i */\n      dup2\n        /* \"WeatherFunctions.sol\":5005:5018  i < (end + 1) */\n      lt\n        /* \"WeatherFunctions.sol\":4984:5080  for (uint i = start; i < (end + 1); i++) {... */\n      iszero\n      tag_171\n      jumpi\n        /* \"WeatherFunctions.sol\":5060:5066  cities */\n      0x0c\n        /* \"WeatherFunctions.sol\":5067:5068  i */\n      dup2\n        /* \"WeatherFunctions.sol\":5060:5069  cities[i] */\n      dup2\n      sload\n      dup2\n      lt\n      tag_175\n      jumpi\n      tag_175\n      tag_108\n      jump\t// in\n    tag_175:\n      swap1\n      0x00\n      mstore\n      keccak256(0x00, 0x20)\n      swap1\n      0x04\n      mul\n      add\n        /* \"WeatherFunctions.sol\":5039:5069  citiesAux[i-start] = cities[i] */\n      mload(0x40)\n      dup1\n      0x80\n      add\n      0x40\n      mstore\n      swap1\n      dup2\n      0x00\n      dup3\n      add\n      0x00\n      swap1\n      sload\n      swap1\n      0x0100\n      exp\n      swap1\n      div\n      sub(shl(0xa0, 0x01), 0x01)\n      and\n      sub(shl(0xa0, 0x01), 0x01)\n      and\n      sub(shl(0xa0, 0x01), 0x01)\n      and\n      dup2\n      mstore\n      0x20\n      add\n      0x01\n      dup3\n      add\n      sload\n      dup2\n      mstore\n      0x20\n      add\n      0x02\n      dup3\n      add\n      dup1\n      sload\n      tag_177\n      swap1\n      tag_111\n      jump\t// in\n    tag_177:\n      dup1\n      0x1f\n      add\n      0x20\n      dup1\n      swap2\n      div\n      mul\n      0x20\n      add\n      mload(0x40)\n      swap1\n      dup2\n      add\n      0x40\n      mstore\n      dup1\n      swap3\n      swap2\n      swap1\n      dup2\n      dup2\n      mstore\n      0x20\n      add\n      dup3\n      dup1\n      sload\n      tag_178\n      swap1\n      tag_111\n      jump\t// in\n    tag_178:\n      dup1\n      iszero\n      tag_179\n      jumpi\n      dup1\n      0x1f\n      lt\n      tag_180\n      jumpi\n      0x0100\n      dup1\n      dup4\n      sload\n      div\n      mul\n      dup4\n      mstore\n      swap2\n      0x20\n      add\n      swap2\n      jump(tag_179)\n    tag_180:\n      dup3\n      add\n      swap2\n      swap1\n      0x00\n      mstore\n      keccak256(0x00, 0x20)\n      swap1\n    tag_181:\n      dup2\n      sload\n      dup2\n      mstore\n      swap1\n      0x01\n      add\n      swap1\n      0x20\n      add\n      dup1\n      dup4\n      gt\n      tag_181\n      jumpi\n      dup3\n      swap1\n      sub\n      0x1f\n      and\n      dup3\n      add\n      swap2\n    tag_179:\n      pop\n      pop\n      pop\n      pop\n      pop\n      dup2\n      mstore\n      0x20\n      add\n      0x03\n      dup3\n      add\n      dup1\n      sload\n      tag_182\n      swap1\n      tag_111\n      jump\t// in\n    tag_182:\n      dup1\n      0x1f\n      add\n      0x20\n      dup1\n      swap2\n      div\n      mul\n      0x20\n      add\n      mload(0x40)\n      swap1\n      dup2\n      add\n      0x40\n      mstore\n      dup1\n      swap3\n      swap2\n      swap1\n      dup2\n      dup2\n      mstore\n      0x20\n      add\n      dup3\n      dup1\n      sload\n      tag_183\n      swap1\n      tag_111\n      jump\t// in\n    tag_183:\n      dup1\n      iszero\n      tag_184\n      jumpi\n      dup1\n      0x1f\n      lt\n      tag_185\n      jumpi\n      0x0100\n      dup1\n      dup4\n      sload\n      div\n      mul\n      dup4\n      mstore\n      swap2\n      0x20\n      add\n      swap2\n      jump(tag_184)\n    tag_185:\n      dup3\n      add\n      swap2\n      swap1\n      0x00\n      mstore\n      keccak256(0x00, 0x20)\n      swap1\n    tag_186:\n      dup2\n      sload\n      dup2\n      mstore\n      swap1\n      0x01\n      add\n      swap1\n      0x20\n      add\n      dup1\n      dup4\n      gt\n      tag_186\n      jumpi\n      dup3\n      swap1\n      sub\n      0x1f\n      and\n      dup3\n      add\n      swap2\n    tag_184:\n      pop\n      pop\n      pop\n      pop\n      pop\n      dup2\n      mstore\n      pop\n      pop\n        /* \"WeatherFunctions.sol\":5039:5048  citiesAux */\n      dup3\n        /* \"WeatherFunctions.sol\":5051:5056  start */\n      dup8\n        /* \"WeatherFunctions.sol\":5049:5050  i */\n      dup4\n        /* \"WeatherFunctions.sol\":5049:5056  i-start */\n      tag_187\n      swap2\n      swap1\n      tag_157\n      jump\t// in\n    tag_187:\n        /* \"WeatherFunctions.sol\":5039:5057  citiesAux[i-start] */\n      dup2\n      mload\n      dup2\n      lt\n      tag_189\n      jumpi\n      tag_189\n      tag_108\n      jump\t// in\n    tag_189:\n      0x20\n      mul\n      0x20\n      add\n      add\n        /* \"WeatherFunctions.sol\":5039:5069  citiesAux[i-start] = cities[i] */\n      dup2\n      swap1\n      mstore\n      pop\n        /* \"WeatherFunctions.sol\":5020:5023  i++ */\n      dup1\n      dup1\n      tag_190\n      swap1\n      tag_191\n      jump\t// in\n    tag_190:\n      swap2\n      pop\n      pop\n        /* \"WeatherFunctions.sol\":4984:5080  for (uint i = start; i < (end + 1); i++) {... */\n      jump(tag_170)\n    tag_171:\n      pop\n        /* \"WeatherFunctions.sol\":5096:5105  citiesAux */\n      swap2\n      pop\n      pop\n        /* \"WeatherFunctions.sol\":4657:5112  function listCities(uint start, uint end) public view returns (CityStruct[] memory) {... */\n    tag_154:\n      swap3\n      swap2\n      pop\n      pop\n      jump\t// out\n        /* \"WeatherFunctions.sol\":2212:2258  mapping(bytes32 => string) public request_city */\n    tag_73:\n      mstore(0x20, 0x0e)\n      0x00\n      swap1\n      dup2\n      mstore\n      0x40\n      swap1\n      keccak256\n      dup1\n      sload\n      tag_125\n      swap1\n      tag_111\n      jump\t// in\n        /* \"WeatherFunctions.sol\":2426:3610  function getTemperature(... */\n    tag_77:\n        /* \"WeatherFunctions.sol\":2556:2571  new string[](1) */\n      0x40\n      dup1\n      mload\n        /* \"WeatherFunctions.sol\":2569:2570  1 */\n      0x01\n        /* \"WeatherFunctions.sol\":2556:2571  new string[](1) */\n      dup1\n      dup3\n      mstore\n      dup2\n      dup4\n      add\n      swap1\n      swap3\n      mstore\n        /* \"WeatherFunctions.sol\":2503:2520  bytes32 requestId */\n      0x00\n      swap2\n      dup3\n      swap2\n        /* \"WeatherFunctions.sol\":2556:2571  new string[](1) */\n      swap1\n      dup2\n      0x20\n      add\n    tag_201:\n      0x60\n      dup2\n      mstore\n      0x20\n      add\n      swap1\n      0x01\n      swap1\n      sub\n      swap1\n      dup2\n      tag_201\n      jumpi\n      swap1\n      pop\n      pop\n        /* \"WeatherFunctions.sol\":2533:2571  string[] memory args = new string[](1) */\n      swap1\n      pop\n        /* \"WeatherFunctions.sol\":2591:2596  _city */\n      dup3\n        /* \"WeatherFunctions.sol\":2581:2585  args */\n      dup2\n        /* \"WeatherFunctions.sol\":2586:2587  0 */\n      0x00\n        /* \"WeatherFunctions.sol\":2581:2588  args[0] */\n      dup2\n      mload\n      dup2\n      lt\n      tag_203\n      jumpi\n      tag_203\n      tag_108\n      jump\t// in\n    tag_203:\n      0x20\n      mul\n      0x20\n      add\n      add\n        /* \"WeatherFunctions.sol\":2581:2596  args[0] = _city */\n      dup2\n      swap1\n      mstore\n      pop\n        /* \"WeatherFunctions.sol\":2607:2642  FunctionsRequest.Request memory req */\n      tag_204\n      0x40\n      dup1\n      mload\n      0xe0\n      dup2\n      add\n      swap1\n      swap2\n      mstore\n      dup1\n      0x00\n      dup2\n      mstore\n      0x20\n      add\n      0x00\n      dup2\n      mstore\n      0x20\n      add\n      0x00\n      dup2\n      mstore\n      0x20\n      add\n      0x60\n      dup2\n      mstore\n      0x20\n      add\n      0x60\n      dup2\n      mstore\n      0x20\n      add\n      0x60\n      dup2\n      mstore\n      0x20\n      add\n      0x60\n      dup2\n      mstore\n      pop\n      swap1\n      jump\n    tag_204:\n        /* \"WeatherFunctions.sol\":2652:2700  req.initializeRequestForInlineJavaScript(source) */\n      tag_206\n        /* \"WeatherFunctions.sol\":2693:2699  source */\n      0x08\n        /* \"WeatherFunctions.sol\":2652:2700  req.initializeRequestForInlineJavaScript(source) */\n      dup1\n      sload\n      tag_207\n      swap1\n      tag_111\n      jump\t// in\n    tag_207:\n      dup1\n      0x1f\n      add\n      0x20\n      dup1\n      swap2\n      div\n      mul\n      0x20\n      add\n      mload(0x40)\n      swap1\n      dup2\n      add\n      0x40\n      mstore\n      dup1\n      swap3\n      swap2\n      swap1\n      dup2\n      dup2\n      mstore\n      0x20\n      add\n      dup3\n      dup1\n      sload\n      tag_208\n      swap1\n      tag_111\n      jump\t// in\n    tag_208:\n      dup1\n      iszero\n      tag_209\n      jumpi\n      dup1\n      0x1f\n      lt\n      tag_210\n      jumpi\n      0x0100\n      dup1\n      dup4\n      sload\n      div\n      mul\n      dup4\n      mstore\n      swap2\n      0x20\n      add\n      swap2\n      jump(tag_209)\n    tag_210:\n      dup3\n      add\n      swap2\n      swap1\n      0x00\n      mstore\n      keccak256(0x00, 0x20)\n      swap1\n    tag_211:\n      dup2\n      sload\n      dup2\n      mstore\n      swap1\n      0x01\n      add\n      swap1\n      0x20\n      add\n      dup1\n      dup4\n      gt\n      tag_211\n      jumpi\n      dup3\n      swap1\n      sub\n      0x1f\n      and\n      dup3\n      add\n      swap2\n    tag_209:\n      pop\n      pop\n      pop\n      pop\n      pop\n        /* \"WeatherFunctions.sol\":2652:2655  req */\n      dup3\n        /* \"WeatherFunctions.sol\":2652:2692  req.initializeRequestForInlineJavaScript */\n      tag_212\n      swap1\n        /* \"WeatherFunctions.sol\":2652:2700  req.initializeRequestForInlineJavaScript(source) */\n      swap2\n      swap1\n      0xffffffff\n      and\n      jump\t// in\n    tag_206:\n        /* \"WeatherFunctions.sol\":2753:2764  args.length */\n      dup2\n      mload\n        /* \"WeatherFunctions.sol\":2753:2768  args.length > 0 */\n      iszero\n        /* \"WeatherFunctions.sol\":2749:2787  if (args.length > 0) req.setArgs(args) */\n      tag_214\n      jumpi\n        /* \"WeatherFunctions.sol\":2770:2787  req.setArgs(args) */\n      tag_214\n        /* \"WeatherFunctions.sol\":2770:2773  req */\n      dup2\n        /* \"WeatherFunctions.sol\":2782:2786  args */\n      dup4\n        /* \"WeatherFunctions.sol\":2770:2781  req.setArgs */\n      tag_215\n        /* \"WeatherFunctions.sol\":2770:2787  req.setArgs(args) */\n      jump\t// in\n    tag_214:\n        /* \"WeatherFunctions.sol\":2904:3025  _sendRequest(... */\n      tag_216\n        /* \"WeatherFunctions.sol\":2930:2946  req.encodeCBOR() */\n      tag_217\n        /* \"WeatherFunctions.sol\":2930:2933  req */\n      dup3\n        /* \"WeatherFunctions.sol\":2930:2944  req.encodeCBOR */\n      tag_218\n        /* \"WeatherFunctions.sol\":2930:2946  req.encodeCBOR() */\n      jump\t// in\n    tag_217:\n        /* \"WeatherFunctions.sol\":2960:2974  subscriptionId */\n      sload(0x07)\n        /* \"WeatherFunctions.sol\":3010:3015  donID */\n      sload(0x06)\n      sub(shl(0x40, 0x01), 0x01)\n        /* \"WeatherFunctions.sol\":2960:2974  subscriptionId */\n      0x0100000000\n      dup4\n      div\n      and\n      swap2\n        /* \"WeatherFunctions.sol\":2988:2996  gasLimit */\n      0xffffffff\n      and\n      swap1\n        /* \"WeatherFunctions.sol\":2904:2916  _sendRequest */\n      tag_219\n        /* \"WeatherFunctions.sol\":2904:3025  _sendRequest(... */\n      jump\t// in\n    tag_216:\n        /* \"WeatherFunctions.sol\":2888:2901  lastRequestId */\n      0x00\n        /* \"WeatherFunctions.sol\":2888:3025  lastRequestId = _sendRequest(... */\n      sstore\n        /* \"WeatherFunctions.sol\":3035:3043  lastCity */\n      0x09\n        /* \"WeatherFunctions.sol\":3035:3051  lastCity = _city */\n      tag_220\n        /* \"WeatherFunctions.sol\":3046:3051  _city */\n      dup6\n        /* \"WeatherFunctions.sol\":3035:3043  lastCity */\n      dup3\n        /* \"WeatherFunctions.sol\":3035:3051  lastCity = _city */\n      tag_221\n      jump\t// in\n    tag_220:\n      pop\n        /* \"WeatherFunctions.sol\":3061:3088  request_city[lastRequestId] */\n      0x00\n        /* \"WeatherFunctions.sol\":3074:3087  lastRequestId */\n      dup1\n      sload\n        /* \"WeatherFunctions.sol\":3061:3088  request_city[lastRequestId] */\n      dup2\n      mstore\n        /* \"WeatherFunctions.sol\":3061:3073  request_city */\n      0x0e\n        /* \"WeatherFunctions.sol\":3061:3088  request_city[lastRequestId] */\n      0x20\n      mstore\n      0x40\n      swap1\n      keccak256\n        /* \"WeatherFunctions.sol\":3061:3096  request_city[lastRequestId] = _city */\n      tag_222\n        /* \"WeatherFunctions.sol\":3091:3096  _city */\n      dup6\n        /* \"WeatherFunctions.sol\":3061:3088  request_city[lastRequestId] */\n      dup3\n        /* \"WeatherFunctions.sol\":3061:3096  request_city[lastRequestId] = _city */\n      tag_221\n      jump\t// in\n    tag_222:\n      pop\n        /* \"WeatherFunctions.sol\":3141:3287  CityStruct({... */\n      0x40\n      dup1\n      mload\n      0x80\n      dup2\n      add\n      dup3\n      mstore\n        /* \"WeatherFunctions.sol\":3174:3184  msg.sender */\n      caller\n        /* \"WeatherFunctions.sol\":3141:3287  CityStruct({... */\n      dup2\n      mstore\n      0x00\n      0x20\n      dup1\n      dup4\n      add\n      dup3\n      dup2\n      mstore\n      dup4\n      dup6\n      add\n      dup10\n      dup2\n      mstore\n      dup6\n      mload\n      swap3\n      dup4\n      add\n      swap1\n      swap6\n      mstore\n      dup3\n      dup3\n      mstore\n      0x60\n      dup5\n      add\n      swap2\n      swap1\n      swap2\n      mstore\n        /* \"WeatherFunctions.sol\":3297:3303  cities */\n      0x0c\n        /* \"WeatherFunctions.sol\":3297:3323  cities.push(auxCityStruct) */\n      dup1\n      sload\n      0x01\n      dup2\n      add\n      dup3\n      sstore\n      swap3\n      mstore\n      dup3\n      mload\n      0xdf6966c971051c3d54ec59162606531493a51404a002842f56009d7e5cf4a8c7\n      0x04\n      swap1\n      swap4\n      mul\n      swap3\n      dup4\n      add\n      dup1\n      sload\n      not(sub(shl(0xa0, 0x01), 0x01))\n      and\n      sub(shl(0xa0, 0x01), 0x01)\n      swap1\n      swap3\n      and\n      swap2\n      swap1\n      swap2\n      or\n      dup2\n      sstore\n      swap1\n      mload\n      0xdf6966c971051c3d54ec59162606531493a51404a002842f56009d7e5cf4a8c8\n      dup4\n      add\n      sstore\n      swap3\n      mload\n        /* \"WeatherFunctions.sol\":3141:3287  CityStruct({... */\n      swap2\n      swap3\n      dup4\n      swap3\n        /* \"WeatherFunctions.sol\":3297:3323  cities.push(auxCityStruct) */\n      swap1\n      swap2\n      0xdf6966c971051c3d54ec59162606531493a51404a002842f56009d7e5cf4a8c9\n      add\n      swap1\n      tag_224\n      swap1\n      dup3\n      tag_221\n      jump\t// in\n    tag_224:\n      pop\n      0x60\n      dup3\n      add\n      mload\n      0x03\n      dup3\n      add\n      swap1\n      tag_225\n      swap1\n      dup3\n      tag_221\n      jump\t// in\n    tag_225:\n      pop\n      pop\n        /* \"WeatherFunctions.sol\":3352:3358  cities */\n      0x0c\n        /* \"WeatherFunctions.sol\":3352:3365  cities.length */\n      sload\n        /* \"WeatherFunctions.sol\":3352:3367  cities.length-1 */\n      tag_226\n      swap2\n      pop\n        /* \"WeatherFunctions.sol\":3366:3367  1 */\n      0x01\n      swap1\n        /* \"WeatherFunctions.sol\":3352:3367  cities.length-1 */\n      tag_157\n      jump\t// in\n    tag_226:\n        /* \"WeatherFunctions.sol\":3333:3342  cityIndex */\n      0x0d\n        /* \"WeatherFunctions.sol\":3343:3348  _city */\n      dup7\n        /* \"WeatherFunctions.sol\":3333:3349  cityIndex[_city] */\n      mload(0x40)\n      tag_227\n      swap2\n      swap1\n      tag_105\n      jump\t// in\n    tag_227:\n      swap1\n      dup2\n      mstore\n      0x40\n      dup1\n      mload\n      0x20\n      swap3\n      dup2\n      swap1\n      sub\n      dup4\n      add\n      dup2\n      keccak256\n        /* \"WeatherFunctions.sol\":3333:3367  cityIndex[_city] = cities.length-1 */\n      swap4\n      swap1\n      swap4\n      sstore\n        /* \"WeatherFunctions.sol\":3404:3532  RequestStatus({... */\n      0x80\n      dup4\n      add\n      dup2\n      mstore\n      0x00\n      dup1\n      dup5\n      mstore\n      0x01\n      dup4\n      dup6\n      add\n      dup2\n      dup2\n      mstore\n      dup4\n      mload\n      dup1\n      dup7\n      add\n      dup6\n      mstore\n      dup4\n      dup2\n      mstore\n      dup7\n      dup6\n      add\n      swap1\n      dup2\n      mstore\n      dup5\n      mload\n      dup1\n      dup8\n      add\n      dup7\n      mstore\n      dup5\n      dup2\n      mstore\n      0x60\n      dup9\n      add\n      mstore\n        /* \"WeatherFunctions.sol\":3387:3400  lastRequestId */\n      dup4\n      sload\n        /* \"WeatherFunctions.sol\":3378:3401  requests[lastRequestId] */\n      dup5\n      mstore\n        /* \"WeatherFunctions.sol\":3378:3386  requests */\n      0x03\n        /* \"WeatherFunctions.sol\":3378:3401  requests[lastRequestId] */\n      swap1\n      swap6\n      mstore\n      swap3\n      swap1\n      swap2\n      keccak256\n        /* \"WeatherFunctions.sol\":3378:3532  requests[lastRequestId] = RequestStatus({... */\n      dup5\n      mload\n      dup2\n      sload\n      swap4\n      mload\n      not(0xffff)\n      swap1\n      swap5\n      and\n      swap1\n      iszero\n      iszero\n      not(0xff00)\n      and\n      or\n      0x0100\n      swap4\n      iszero\n      iszero\n      swap4\n      swap1\n      swap4\n      mul\n      swap3\n      swap1\n      swap3\n      or\n      dup3\n      sstore\n      swap2\n      mload\n        /* \"WeatherFunctions.sol\":3378:3401  requests[lastRequestId] */\n      swap1\n      swap2\n        /* \"WeatherFunctions.sol\":3378:3532  requests[lastRequestId] = RequestStatus({... */\n      dup3\n      add\n      swap1\n      tag_228\n      swap1\n      dup3\n      tag_221\n      jump\t// in\n    tag_228:\n      pop\n      0x60\n      dup3\n      add\n      mload\n      0x02\n      dup3\n      add\n      swap1\n      tag_230\n      swap1\n      dup3\n      tag_221\n      jump\t// in\n    tag_230:\n      pop\n      pop\n        /* \"WeatherFunctions.sol\":3558:3571  lastRequestId */\n      0x00\n      dup1\n      sload\n        /* \"WeatherFunctions.sol\":3542:3552  requestIds */\n      0x04\n        /* \"WeatherFunctions.sol\":3542:3572  requestIds.push(lastRequestId) */\n      dup1\n      sload\n      0x01\n      dup2\n      add\n      dup3\n      sstore\n      swap3\n      mstore\n      0x8a35acfbc15ff81a39ae7d344fd709f28e8600b4aa8c65c6b64bfe7fe36bd19b\n      swap1\n      swap2\n      add\n      dup2\n      swap1\n      sstore\n        /* \"WeatherFunctions.sol\":3558:3571  lastRequestId */\n      swap7\n        /* \"WeatherFunctions.sol\":2426:3610  function getTemperature(... */\n      swap6\n      pop\n      pop\n      pop\n      pop\n      pop\n      pop\n      jump\t// out\n        /* \"WeatherFunctions.sol\":782:831  mapping(bytes32 => RequestStatus) public requests */\n    tag_81:\n      mstore(0x20, 0x03)\n      0x00\n      swap1\n      dup2\n      mstore\n      0x40\n      swap1\n      keccak256\n      dup1\n      sload\n      0x01\n      dup3\n      add\n      dup1\n      sload\n      0xff\n      dup1\n      dup5\n      and\n      swap5\n      0x0100\n      swap1\n      swap5\n      div\n      and\n      swap3\n      swap2\n      swap1\n      tag_232\n      swap1\n      tag_111\n      jump\t// in\n    tag_232:\n      dup1\n      0x1f\n      add\n      0x20\n      dup1\n      swap2\n      div\n      mul\n      0x20\n      add\n      mload(0x40)\n      swap1\n      dup2\n      add\n      0x40\n      mstore\n      dup1\n      swap3\n      swap2\n      swap1\n      dup2\n      dup2\n      mstore\n      0x20\n      add\n      dup3\n      dup1\n      sload\n      tag_233\n      swap1\n      tag_111\n      jump\t// in\n    tag_233:\n      dup1\n      iszero\n      tag_234\n      jumpi\n      dup1\n      0x1f\n      lt\n      tag_235\n      jumpi\n      0x0100\n      dup1\n      dup4\n      sload\n      div\n      mul\n      dup4\n      mstore\n      swap2\n      0x20\n      add\n      swap2\n      jump(tag_234)\n    tag_235:\n      dup3\n      add\n      swap2\n      swap1\n      0x00\n      mstore\n      keccak256(0x00, 0x20)\n      swap1\n    tag_236:\n      dup2\n      sload\n      dup2\n      mstore\n      swap1\n      0x01\n      add\n      swap1\n      0x20\n      add\n      dup1\n      dup4\n      gt\n      tag_236\n      jumpi\n      dup3\n      swap1\n      sub\n      0x1f\n      and\n      dup3\n      add\n      swap2\n    tag_234:\n      pop\n      pop\n      pop\n      pop\n      pop\n      swap1\n      dup1\n      0x02\n      add\n      dup1\n      sload\n      tag_147\n      swap1\n      tag_111\n      jump\t// in\n        /* \"WeatherFunctions.sol\":1937:1966  string public lastTemperature */\n    tag_85:\n      0x0a\n      dup1\n      sload\n      tag_125\n      swap1\n      tag_111\n      jump\t// in\n        /* \"WeatherFunctions.sol\":4554:4651  function listAllCities() public view returns (CityStruct[] memory) {... */\n    tag_88:\n        /* \"WeatherFunctions.sol\":4600:4619  CityStruct[] memory */\n      0x60\n        /* \"WeatherFunctions.sol\":4638:4644  cities */\n      0x0c\n        /* \"WeatherFunctions.sol\":4631:4644  return cities */\n      dup1\n      sload\n      dup1\n      0x20\n      mul\n      0x20\n      add\n      mload(0x40)\n      swap1\n      dup2\n      add\n      0x40\n      mstore\n      dup1\n      swap3\n      swap2\n      swap1\n      dup2\n      dup2\n      mstore\n      0x20\n      add\n      0x00\n      swap1\n    tag_248:\n      dup3\n      dup3\n      lt\n      iszero\n      tag_249\n      jumpi\n      0x00\n      dup5\n      dup2\n      mstore\n      0x20\n      swap1\n      dup2\n      swap1\n      keccak256\n      0x40\n      dup1\n      mload\n      0x80\n      dup2\n      add\n      dup3\n      mstore\n      0x04\n      dup7\n      mul\n      swap1\n      swap3\n      add\n      dup1\n      sload\n      sub(shl(0xa0, 0x01), 0x01)\n      and\n      dup4\n      mstore\n      0x01\n      dup2\n      add\n      sload\n      swap4\n      dup4\n      add\n      swap4\n      swap1\n      swap4\n      mstore\n      0x02\n      dup4\n      add\n      dup1\n      sload\n      swap3\n      swap4\n      swap3\n      swap2\n      dup5\n      add\n      swap2\n      tag_251\n      swap1\n      tag_111\n      jump\t// in\n    tag_251:\n      dup1\n      0x1f\n      add\n      0x20\n      dup1\n      swap2\n      div\n      mul\n      0x20\n      add\n      mload(0x40)\n      swap1\n      dup2\n      add\n      0x40\n      mstore\n      dup1\n      swap3\n      swap2\n      swap1\n      dup2\n      dup2\n      mstore\n      0x20\n      add\n      dup3\n      dup1\n      sload\n      tag_252\n      swap1\n      tag_111\n      jump\t// in\n    tag_252:\n      dup1\n      iszero\n      tag_253\n      jumpi\n      dup1\n      0x1f\n      lt\n      tag_254\n      jumpi\n      0x0100\n      dup1\n      dup4\n      sload\n      div\n      mul\n      dup4\n      mstore\n      swap2\n      0x20\n      add\n      swap2\n      jump(tag_253)\n    tag_254:\n      dup3\n      add\n      swap2\n      swap1\n      0x00\n      mstore\n      keccak256(0x00, 0x20)\n      swap1\n    tag_255:\n      dup2\n      sload\n      dup2\n      mstore\n      swap1\n      0x01\n      add\n      swap1\n      0x20\n      add\n      dup1\n      dup4\n      gt\n      tag_255\n      jumpi\n      dup3\n      swap1\n      sub\n      0x1f\n      and\n      dup3\n      add\n      swap2\n    tag_253:\n      pop\n      pop\n      pop\n      pop\n      pop\n      dup2\n      mstore\n      0x20\n      add\n      0x03\n      dup3\n      add\n      dup1\n      sload\n      tag_256\n      swap1\n      tag_111\n      jump\t// in\n    tag_256:\n      dup1\n      0x1f\n      add\n      0x20\n      dup1\n      swap2\n      div\n      mul\n      0x20\n      add\n      mload(0x40)\n      swap1\n      dup2\n      add\n      0x40\n      mstore\n      dup1\n      swap3\n      swap2\n      swap1\n      dup2\n      dup2\n      mstore\n      0x20\n      add\n      dup3\n      dup1\n      sload\n      tag_257\n      swap1\n      tag_111\n      jump\t// in\n    tag_257:\n      dup1\n      iszero\n      tag_258\n      jumpi\n      dup1\n      0x1f\n      lt\n      tag_259\n      jumpi\n      0x0100\n      dup1\n      dup4\n      sload\n      div\n      mul\n      dup4\n      mstore\n      swap2\n      0x20\n      add\n      swap2\n      jump(tag_258)\n    tag_259:\n      dup3\n      add\n      swap2\n      swap1\n      0x00\n      mstore\n      keccak256(0x00, 0x20)\n      swap1\n    tag_260:\n      dup2\n      sload\n      dup2\n      mstore\n      swap1\n      0x01\n      add\n      swap1\n      0x20\n      add\n      dup1\n      dup4\n      gt\n      tag_260\n      jumpi\n      dup3\n      swap1\n      sub\n      0x1f\n      and\n      dup3\n      add\n      swap2\n    tag_258:\n      pop\n      pop\n      pop\n      pop\n      pop\n      dup2\n      mstore\n      pop\n      pop\n      dup2\n      mstore\n      0x20\n      add\n      swap1\n      0x01\n      add\n      swap1\n      jump(tag_248)\n    tag_249:\n      pop\n      pop\n      pop\n      pop\n      swap1\n      pop\n        /* \"WeatherFunctions.sol\":4554:4651  function listAllCities() public view returns (CityStruct[] memory) {... */\n      swap1\n      jump\t// out\n        /* \"WeatherFunctions.sol\":1905:1927  string public lastCity */\n    tag_96:\n      0x09\n      dup1\n      sload\n      tag_125\n      swap1\n      tag_111\n      jump\t// in\n        /* \"WeatherFunctions.sol\":3665:4418  function fulfillRequest(... */\n    tag_124:\n        /* \"WeatherFunctions.sol\":3815:3834  requests[requestId] */\n      0x00\n      dup4\n      dup2\n      mstore\n        /* \"WeatherFunctions.sol\":3815:3823  requests */\n      0x03\n        /* \"WeatherFunctions.sol\":3815:3834  requests[requestId] */\n      0x20\n      mstore\n      0x40\n      swap1\n      keccak256\n        /* \"WeatherFunctions.sol\":3815:3841  requests[requestId].exists */\n      sload\n      0x0100\n      swap1\n      div\n      0xff\n      and\n        /* \"WeatherFunctions.sol\":3807:3863  require(requests[requestId].exists, \"request not found\") */\n      tag_267\n      jumpi\n      mload(0x40)\n      shl(0xe5, 0x461bcd)\n      dup2\n      mstore\n        /* \"#utility.yul\":12644:12646   */\n      0x20\n        /* \"WeatherFunctions.sol\":3807:3863  require(requests[requestId].exists, \"request not found\") */\n      0x04\n      dup3\n      add\n        /* \"#utility.yul\":12626:12647   */\n      mstore\n        /* \"#utility.yul\":12683:12685   */\n      0x11\n        /* \"#utility.yul\":12663:12681   */\n      0x24\n      dup3\n      add\n        /* \"#utility.yul\":12656:12686   */\n      mstore\n      shl(0x7a, 0x1c995c5d595cdd081b9bdd08199bdd5b99)\n        /* \"#utility.yul\":12702:12720   */\n      0x44\n      dup3\n      add\n        /* \"#utility.yul\":12695:12742   */\n      mstore\n        /* \"#utility.yul\":12759:12777   */\n      0x64\n      add\n        /* \"WeatherFunctions.sol\":3807:3863  require(requests[requestId].exists, \"request not found\") */\n      tag_159\n        /* \"#utility.yul\":12442:12783   */\n      jump\n        /* \"WeatherFunctions.sol\":3807:3863  require(requests[requestId].exists, \"request not found\") */\n    tag_267:\n        /* \"WeatherFunctions.sol\":3874:3883  lastError */\n      0x02\n        /* \"WeatherFunctions.sol\":3874:3889  lastError = err */\n      tag_270\n        /* \"WeatherFunctions.sol\":3886:3889  err */\n      dup3\n        /* \"WeatherFunctions.sol\":3874:3883  lastError */\n      dup3\n        /* \"WeatherFunctions.sol\":3874:3889  lastError = err */\n      tag_221\n      jump\t// in\n    tag_270:\n      pop\n        /* \"WeatherFunctions.sol\":3899:3911  lastResponse */\n      0x01\n        /* \"WeatherFunctions.sol\":3899:3922  lastResponse = response */\n      tag_271\n        /* \"WeatherFunctions.sol\":3914:3922  response */\n      dup4\n        /* \"WeatherFunctions.sol\":3899:3911  lastResponse */\n      dup3\n        /* \"WeatherFunctions.sol\":3899:3922  lastResponse = response */\n      tag_221\n      jump\t// in\n    tag_271:\n      pop\n        /* \"WeatherFunctions.sol\":3933:3952  requests[requestId] */\n      0x00\n      dup4\n      dup2\n      mstore\n        /* \"WeatherFunctions.sol\":3933:3941  requests */\n      0x03\n        /* \"WeatherFunctions.sol\":3933:3952  requests[requestId] */\n      0x20\n      mstore\n      0x40\n      swap1\n      keccak256\n        /* \"WeatherFunctions.sol\":3933:3969  requests[requestId].fulfilled = true */\n      dup1\n      sload\n      not(0xff)\n      and\n        /* \"WeatherFunctions.sol\":3965:3969  true */\n      0x01\n        /* \"WeatherFunctions.sol\":3933:3969  requests[requestId].fulfilled = true */\n      swap1\n      dup2\n      or\n      dup3\n      sstore\n        /* \"WeatherFunctions.sol\":3979:4007  requests[requestId].response */\n      add\n        /* \"WeatherFunctions.sol\":3979:4018  requests[requestId].response = response */\n      tag_272\n        /* \"WeatherFunctions.sol\":4010:4018  response */\n      dup4\n        /* \"WeatherFunctions.sol\":3979:4007  requests[requestId].response */\n      dup3\n        /* \"WeatherFunctions.sol\":3979:4018  requests[requestId].response = response */\n      tag_221\n      jump\t// in\n    tag_272:\n      pop\n        /* \"WeatherFunctions.sol\":4028:4047  requests[requestId] */\n      0x00\n      dup4\n      dup2\n      mstore\n        /* \"WeatherFunctions.sol\":4028:4036  requests */\n      0x03\n        /* \"WeatherFunctions.sol\":4028:4047  requests[requestId] */\n      0x20\n      mstore\n      0x40\n      swap1\n      keccak256\n        /* \"WeatherFunctions.sol\":4028:4051  requests[requestId].err */\n      0x02\n      add\n        /* \"WeatherFunctions.sol\":4028:4057  requests[requestId].err = err */\n      tag_273\n        /* \"WeatherFunctions.sol\":4054:4057  err */\n      dup3\n        /* \"WeatherFunctions.sol\":4028:4051  requests[requestId].err */\n      dup3\n        /* \"WeatherFunctions.sol\":4028:4057  requests[requestId].err = err */\n      tag_221\n      jump\t// in\n    tag_273:\n      pop\n        /* \"WeatherFunctions.sol\":4068:4089  string memory auxCity */\n      0x00\n        /* \"WeatherFunctions.sol\":4092:4115  request_city[requestId] */\n      dup4\n      dup2\n      mstore\n        /* \"WeatherFunctions.sol\":4092:4104  request_city */\n      0x0e\n        /* \"WeatherFunctions.sol\":4092:4115  request_city[requestId] */\n      0x20\n      mstore\n      0x40\n      dup2\n      keccak256\n        /* \"WeatherFunctions.sol\":4068:4115  string memory auxCity = request_city[requestId] */\n      dup1\n      sload\n      tag_274\n      swap1\n      tag_111\n      jump\t// in\n    tag_274:\n      dup1\n      0x1f\n      add\n      0x20\n      dup1\n      swap2\n      div\n      mul\n      0x20\n      add\n      mload(0x40)\n      swap1\n      dup2\n      add\n      0x40\n      mstore\n      dup1\n      swap3\n      swap2\n      swap1\n      dup2\n      dup2\n      mstore\n      0x20\n      add\n      dup3\n      dup1\n      sload\n      tag_275\n      swap1\n      tag_111\n      jump\t// in\n    tag_275:\n      dup1\n      iszero\n      tag_276\n      jumpi\n      dup1\n      0x1f\n      lt\n      tag_277\n      jumpi\n      0x0100\n      dup1\n      dup4\n      sload\n      div\n      mul\n      dup4\n      mstore\n      swap2\n      0x20\n      add\n      swap2\n      jump(tag_276)\n    tag_277:\n      dup3\n      add\n      swap2\n      swap1\n      0x00\n      mstore\n      keccak256(0x00, 0x20)\n      swap1\n    tag_278:\n      dup2\n      sload\n      dup2\n      mstore\n      swap1\n      0x01\n      add\n      swap1\n      0x20\n      add\n      dup1\n      dup4\n      gt\n      tag_278\n      jumpi\n      dup3\n      swap1\n      sub\n      0x1f\n      and\n      dup3\n      add\n      swap2\n    tag_276:\n      pop\n      pop\n      pop\n      pop\n      pop\n      swap1\n      pop\n        /* \"WeatherFunctions.sol\":4150:4158  response */\n      dup3\n        /* \"WeatherFunctions.sol\":4125:4140  lastTemperature */\n      0x0a\n        /* \"WeatherFunctions.sol\":4125:4159  lastTemperature = string(response) */\n      swap1\n      dup2\n      tag_279\n      swap2\n      swap1\n      tag_221\n      jump\t// in\n    tag_279:\n      pop\n        /* \"WeatherFunctions.sol\":4210:4225  lastTemperature */\n      0x0a\n        /* \"WeatherFunctions.sol\":4169:4175  cities */\n      0x0c\n        /* \"WeatherFunctions.sol\":4176:4185  cityIndex */\n      0x0d\n        /* \"WeatherFunctions.sol\":4186:4193  auxCity */\n      dup4\n        /* \"WeatherFunctions.sol\":4176:4194  cityIndex[auxCity] */\n      mload(0x40)\n      tag_280\n      swap2\n      swap1\n      tag_105\n      jump\t// in\n    tag_280:\n      swap1\n      dup2\n      mstore\n      0x20\n      add\n      mload(0x40)\n      dup1\n      swap2\n      sub\n      swap1\n      keccak256\n      sload\n        /* \"WeatherFunctions.sol\":4169:4195  cities[cityIndex[auxCity]] */\n      dup2\n      sload\n      dup2\n      lt\n      tag_282\n      jumpi\n      tag_282\n      tag_108\n      jump\t// in\n    tag_282:\n      swap1\n      0x00\n      mstore\n      keccak256(0x00, 0x20)\n      swap1\n      0x04\n      mul\n      add\n        /* \"WeatherFunctions.sol\":4169:4207  cities[cityIndex[auxCity]].temperature */\n      0x03\n      add\n        /* \"WeatherFunctions.sol\":4169:4225  cities[cityIndex[auxCity]].temperature = lastTemperature */\n      swap1\n      dup2\n      tag_284\n      swap2\n      swap1\n      tag_285\n      jump\t// in\n    tag_284:\n      pop\n        /* \"WeatherFunctions.sol\":4274:4289  block.timestamp */\n      timestamp\n        /* \"WeatherFunctions.sol\":4235:4241  cities */\n      0x0c\n        /* \"WeatherFunctions.sol\":4242:4251  cityIndex */\n      0x0d\n        /* \"WeatherFunctions.sol\":4252:4259  auxCity */\n      dup4\n        /* \"WeatherFunctions.sol\":4242:4260  cityIndex[auxCity] */\n      mload(0x40)\n      tag_286\n      swap2\n      swap1\n      tag_105\n      jump\t// in\n    tag_286:\n      swap1\n      dup2\n      mstore\n      0x20\n      add\n      mload(0x40)\n      dup1\n      swap2\n      sub\n      swap1\n      keccak256\n      sload\n        /* \"WeatherFunctions.sol\":4235:4261  cities[cityIndex[auxCity]] */\n      dup2\n      sload\n      dup2\n      lt\n      tag_288\n      jumpi\n      tag_288\n      tag_108\n      jump\t// in\n    tag_288:\n      swap1\n      0x00\n      mstore\n      keccak256(0x00, 0x20)\n      swap1\n      0x04\n      mul\n      add\n        /* \"WeatherFunctions.sol\":4235:4271  cities[cityIndex[auxCity]].timestamp */\n      0x01\n      add\n        /* \"WeatherFunctions.sol\":4235:4289  cities[cityIndex[auxCity]].timestamp = block.timestamp */\n      dup2\n      swap1\n      sstore\n      pop\n        /* \"WeatherFunctions.sol\":4359:4368  requestId */\n      dup4\n        /* \"WeatherFunctions.sol\":4350:4411  Response(requestId, lastTemperature, lastResponse, lastError) */\n      0x160ed0aaffbef6885155188b91459cb5a97d5daadccf7561d8c46deea6641b50\n        /* \"WeatherFunctions.sol\":4370:4385  lastTemperature */\n      0x0a\n        /* \"WeatherFunctions.sol\":4387:4399  lastResponse */\n      0x01\n        /* \"WeatherFunctions.sol\":4401:4410  lastError */\n      0x02\n        /* \"WeatherFunctions.sol\":4350:4411  Response(requestId, lastTemperature, lastResponse, lastError) */\n      mload(0x40)\n      tag_290\n      swap4\n      swap3\n      swap2\n      swap1\n      tag_291\n      jump\t// in\n    tag_290:\n      mload(0x40)\n      dup1\n      swap2\n      sub\n      swap1\n      log2\n        /* \"WeatherFunctions.sol\":3797:4418  {... */\n      pop\n        /* \"WeatherFunctions.sol\":3665:4418  function fulfillRequest(... */\n      pop\n      pop\n      pop\n      jump\t// out\n        /* \"@chainlink/contracts/src/v0.8/functions/dev/v1_0_0/libraries/FunctionsRequest.sol\":4326:4533  function initializeRequestForInlineJavaScript(Request memory self, string memory javaScriptSource) internal pure {... */\n    tag_212:\n        /* \"@chainlink/contracts/src/v0.8/functions/dev/v1_0_0/libraries/FunctionsRequest.sol\":4445:4528  initializeRequest(self, Location.Inline, CodeLanguage.JavaScript, javaScriptSource) */\n      tag_293\n        /* \"@chainlink/contracts/src/v0.8/functions/dev/v1_0_0/libraries/FunctionsRequest.sol\":4463:4467  self */\n      dup3\n        /* \"@chainlink/contracts/src/v0.8/functions/dev/v1_0_0/libraries/FunctionsRequest.sol\":4469:4484  Location.Inline */\n      0x00\n        /* \"@chainlink/contracts/src/v0.8/functions/dev/v1_0_0/libraries/FunctionsRequest.sol\":4486:4509  CodeLanguage.JavaScript */\n      dup1\n        /* \"@chainlink/contracts/src/v0.8/functions/dev/v1_0_0/libraries/FunctionsRequest.sol\":4511:4527  javaScriptSource */\n      dup5\n        /* \"@chainlink/contracts/src/v0.8/functions/dev/v1_0_0/libraries/FunctionsRequest.sol\":4445:4462  initializeRequest */\n      tag_294\n        /* \"@chainlink/contracts/src/v0.8/functions/dev/v1_0_0/libraries/FunctionsRequest.sol\":4445:4528  initializeRequest(self, Location.Inline, CodeLanguage.JavaScript, javaScriptSource) */\n      jump\t// in\n    tag_293:\n        /* \"@chainlink/contracts/src/v0.8/functions/dev/v1_0_0/libraries/FunctionsRequest.sol\":4326:4533  function initializeRequestForInlineJavaScript(Request memory self, string memory javaScriptSource) internal pure {... */\n      pop\n      pop\n      jump\t// out\n        /* \"@chainlink/contracts/src/v0.8/functions/dev/v1_0_0/libraries/FunctionsRequest.sol\":5830:5978  function setArgs(Request memory self, string[] memory args) internal pure {... */\n    tag_215:\n        /* \"@chainlink/contracts/src/v0.8/functions/dev/v1_0_0/libraries/FunctionsRequest.sol\":5914:5918  args */\n      dup1\n        /* \"@chainlink/contracts/src/v0.8/functions/dev/v1_0_0/libraries/FunctionsRequest.sol\":5914:5925  args.length */\n      mload\n        /* \"@chainlink/contracts/src/v0.8/functions/dev/v1_0_0/libraries/FunctionsRequest.sol\":5929:5930  0 */\n      0x00\n        /* \"@chainlink/contracts/src/v0.8/functions/dev/v1_0_0/libraries/FunctionsRequest.sol\":5914:5930  args.length == 0 */\n      sub\n        /* \"@chainlink/contracts/src/v0.8/functions/dev/v1_0_0/libraries/FunctionsRequest.sol\":5910:5950  if (args.length == 0) revert EmptyArgs() */\n      tag_296\n      jumpi\n        /* \"@chainlink/contracts/src/v0.8/functions/dev/v1_0_0/libraries/FunctionsRequest.sol\":5939:5950  EmptyArgs() */\n      mload(0x40)\n      shl(0xe0, 0xfe936cb7)\n      dup2\n      mstore\n      0x04\n      add\n      mload(0x40)\n      dup1\n      swap2\n      sub\n      swap1\n      revert\n        /* \"@chainlink/contracts/src/v0.8/functions/dev/v1_0_0/libraries/FunctionsRequest.sol\":5910:5950  if (args.length == 0) revert EmptyArgs() */\n    tag_296:\n        /* \"@chainlink/contracts/src/v0.8/functions/dev/v1_0_0/libraries/FunctionsRequest.sol\":5957:5966  self.args */\n      0xa0\n      swap1\n      swap2\n      add\n        /* \"@chainlink/contracts/src/v0.8/functions/dev/v1_0_0/libraries/FunctionsRequest.sol\":5957:5973  self.args = args */\n      mstore\n        /* \"@chainlink/contracts/src/v0.8/functions/dev/v1_0_0/libraries/FunctionsRequest.sol\":5830:5978  function setArgs(Request memory self, string[] memory args) internal pure {... */\n      jump\t// out\n        /* \"@chainlink/contracts/src/v0.8/functions/dev/v1_0_0/libraries/FunctionsRequest.sol\":2161:3431  function encodeCBOR(Request memory self) internal pure returns (bytes memory) {... */\n    tag_218:\n        /* \"@chainlink/contracts/src/v0.8/functions/dev/v1_0_0/libraries/FunctionsRequest.sol\":2225:2237  bytes memory */\n      0x60\n        /* \"@chainlink/contracts/src/v0.8/functions/dev/v1_0_0/libraries/FunctionsRequest.sol\":2245:2274  CBOR.CBORBuffer memory buffer */\n      0x00\n        /* \"@chainlink/contracts/src/v0.8/functions/dev/v1_0_0/libraries/FunctionsRequest.sol\":2277:2309  CBOR.create(DEFAULT_BUFFER_SIZE) */\n      tag_298\n        /* \"@chainlink/contracts/src/v0.8/functions/dev/v1_0_0/libraries/FunctionsRequest.sol\":378:381  256 */\n      0x0100\n        /* \"@chainlink/contracts/src/v0.8/functions/dev/v1_0_0/libraries/FunctionsRequest.sol\":2277:2288  CBOR.create */\n      tag_299\n        /* \"@chainlink/contracts/src/v0.8/functions/dev/v1_0_0/libraries/FunctionsRequest.sol\":2277:2309  CBOR.create(DEFAULT_BUFFER_SIZE) */\n      jump\t// in\n    tag_298:\n        /* \"@chainlink/contracts/src/v0.8/functions/dev/v1_0_0/libraries/FunctionsRequest.sol\":2245:2309  CBOR.CBORBuffer memory buffer = CBOR.create(DEFAULT_BUFFER_SIZE) */\n      swap1\n      pop\n        /* \"@chainlink/contracts/src/v0.8/functions/dev/v1_0_0/libraries/FunctionsRequest.sol\":2316:2350  buffer.writeString(\"codeLocation\") */\n      tag_300\n      mload(0x40)\n      dup1\n      0x40\n      add\n      0x40\n      mstore\n      dup1\n      0x0c\n      dup2\n      mstore\n      0x20\n      add\n      shl(0xa1, 0x31b7b232a637b1b0ba34b7b7)\n      dup2\n      mstore\n      pop\n        /* \"@chainlink/contracts/src/v0.8/functions/dev/v1_0_0/libraries/FunctionsRequest.sol\":2316:2322  buffer */\n      dup3\n        /* \"@chainlink/contracts/src/v0.8/functions/dev/v1_0_0/libraries/FunctionsRequest.sol\":2316:2334  buffer.writeString */\n      tag_301\n      swap1\n        /* \"@chainlink/contracts/src/v0.8/functions/dev/v1_0_0/libraries/FunctionsRequest.sol\":2316:2350  buffer.writeString(\"codeLocation\") */\n      swap2\n      swap1\n      0xffffffff\n      and\n      jump\t// in\n    tag_300:\n        /* \"@chainlink/contracts/src/v0.8/functions/dev/v1_0_0/libraries/FunctionsRequest.sol\":2384:2401  self.codeLocation */\n      dup3\n      mload\n        /* \"@chainlink/contracts/src/v0.8/functions/dev/v1_0_0/libraries/FunctionsRequest.sol\":2356:2403  buffer.writeUInt256(uint256(self.codeLocation)) */\n      tag_302\n      swap1\n        /* \"@chainlink/contracts/src/v0.8/functions/dev/v1_0_0/libraries/FunctionsRequest.sol\":2376:2402  uint256(self.codeLocation) */\n      0x02\n      dup2\n      gt\n      iszero\n      tag_304\n      jumpi\n      tag_304\n      tag_305\n      jump\t// in\n    tag_304:\n        /* \"@chainlink/contracts/src/v0.8/functions/dev/v1_0_0/libraries/FunctionsRequest.sol\":2356:2362  buffer */\n      dup3\n      swap1\n        /* \"@chainlink/contracts/src/v0.8/functions/dev/v1_0_0/libraries/FunctionsRequest.sol\":2356:2375  buffer.writeUInt256 */\n      tag_306\n        /* \"@chainlink/contracts/src/v0.8/functions/dev/v1_0_0/libraries/FunctionsRequest.sol\":2356:2403  buffer.writeUInt256(uint256(self.codeLocation)) */\n      jump\t// in\n    tag_302:\n        /* \"@chainlink/contracts/src/v0.8/functions/dev/v1_0_0/libraries/FunctionsRequest.sol\":2410:2440  buffer.writeString(\"language\") */\n      0x40\n      dup1\n      mload\n      dup1\n      dup3\n      add\n      swap1\n      swap2\n      mstore\n      0x08\n      dup2\n      mstore\n      shl(0xc0, 0x6c616e6775616765)\n      0x20\n      dup3\n      add\n      mstore\n      tag_307\n      swap1\n        /* \"@chainlink/contracts/src/v0.8/functions/dev/v1_0_0/libraries/FunctionsRequest.sol\":2410:2416  buffer */\n      dup3\n      swap1\n        /* \"@chainlink/contracts/src/v0.8/functions/dev/v1_0_0/libraries/FunctionsRequest.sol\":2410:2428  buffer.writeString */\n      tag_301\n        /* \"@chainlink/contracts/src/v0.8/functions/dev/v1_0_0/libraries/FunctionsRequest.sol\":2410:2440  buffer.writeString(\"language\") */\n      jump\t// in\n    tag_307:\n        /* \"@chainlink/contracts/src/v0.8/functions/dev/v1_0_0/libraries/FunctionsRequest.sol\":2474:2487  self.language */\n      0x40\n      dup4\n      add\n      mload\n        /* \"@chainlink/contracts/src/v0.8/functions/dev/v1_0_0/libraries/FunctionsRequest.sol\":2446:2489  buffer.writeUInt256(uint256(self.language)) */\n      tag_308\n      swap1\n        /* \"@chainlink/contracts/src/v0.8/functions/dev/v1_0_0/libraries/FunctionsRequest.sol\":2466:2488  uint256(self.language) */\n      dup1\n      iszero\n      tag_304\n      jumpi\n      tag_304\n      tag_305\n      jump\t// in\n        /* \"@chainlink/contracts/src/v0.8/functions/dev/v1_0_0/libraries/FunctionsRequest.sol\":2446:2489  buffer.writeUInt256(uint256(self.language)) */\n    tag_308:\n        /* \"@chainlink/contracts/src/v0.8/functions/dev/v1_0_0/libraries/FunctionsRequest.sol\":2496:2524  buffer.writeString(\"source\") */\n      0x40\n      dup1\n      mload\n      dup1\n      dup3\n      add\n      swap1\n      swap2\n      mstore\n      0x06\n      dup2\n      mstore\n      shl(0xd0, 0x736f75726365)\n      0x20\n      dup3\n      add\n      mstore\n      tag_311\n      swap1\n        /* \"@chainlink/contracts/src/v0.8/functions/dev/v1_0_0/libraries/FunctionsRequest.sol\":2496:2502  buffer */\n      dup3\n      swap1\n        /* \"@chainlink/contracts/src/v0.8/functions/dev/v1_0_0/libraries/FunctionsRequest.sol\":2496:2514  buffer.writeString */\n      tag_301\n        /* \"@chainlink/contracts/src/v0.8/functions/dev/v1_0_0/libraries/FunctionsRequest.sol\":2496:2524  buffer.writeString(\"source\") */\n      jump\t// in\n    tag_311:\n        /* \"@chainlink/contracts/src/v0.8/functions/dev/v1_0_0/libraries/FunctionsRequest.sol\":2549:2560  self.source */\n      0x60\n      dup4\n      add\n      mload\n        /* \"@chainlink/contracts/src/v0.8/functions/dev/v1_0_0/libraries/FunctionsRequest.sol\":2530:2561  buffer.writeString(self.source) */\n      tag_312\n      swap1\n        /* \"@chainlink/contracts/src/v0.8/functions/dev/v1_0_0/libraries/FunctionsRequest.sol\":2530:2536  buffer */\n      dup3\n      swap1\n        /* \"@chainlink/contracts/src/v0.8/functions/dev/v1_0_0/libraries/FunctionsRequest.sol\":2530:2548  buffer.writeString */\n      tag_301\n        /* \"@chainlink/contracts/src/v0.8/functions/dev/v1_0_0/libraries/FunctionsRequest.sol\":2530:2561  buffer.writeString(self.source) */\n      jump\t// in\n    tag_312:\n        /* \"@chainlink/contracts/src/v0.8/functions/dev/v1_0_0/libraries/FunctionsRequest.sol\":2572:2581  self.args */\n      0xa0\n      dup4\n      add\n      mload\n        /* \"@chainlink/contracts/src/v0.8/functions/dev/v1_0_0/libraries/FunctionsRequest.sol\":2572:2588  self.args.length */\n      mload\n        /* \"@chainlink/contracts/src/v0.8/functions/dev/v1_0_0/libraries/FunctionsRequest.sol\":2572:2592  self.args.length > 0 */\n      iszero\n        /* \"@chainlink/contracts/src/v0.8/functions/dev/v1_0_0/libraries/FunctionsRequest.sol\":2568:2795  if (self.args.length > 0) {... */\n      tag_324\n      jumpi\n        /* \"@chainlink/contracts/src/v0.8/functions/dev/v1_0_0/libraries/FunctionsRequest.sol\":2602:2628  buffer.writeString(\"args\") */\n      0x40\n      dup1\n      mload\n      dup1\n      dup3\n      add\n      swap1\n      swap2\n      mstore\n      0x04\n      dup2\n      mstore\n      shl(0xe0, 0x61726773)\n      0x20\n      dup3\n      add\n      mstore\n      tag_314\n      swap1\n        /* \"@chainlink/contracts/src/v0.8/functions/dev/v1_0_0/libraries/FunctionsRequest.sol\":2602:2608  buffer */\n      dup3\n      swap1\n        /* \"@chainlink/contracts/src/v0.8/functions/dev/v1_0_0/libraries/FunctionsRequest.sol\":2602:2620  buffer.writeString */\n      tag_301\n        /* \"@chainlink/contracts/src/v0.8/functions/dev/v1_0_0/libraries/FunctionsRequest.sol\":2602:2628  buffer.writeString(\"args\") */\n      jump\t// in\n    tag_314:\n        /* \"@chainlink/contracts/src/v0.8/functions/dev/v1_0_0/libraries/FunctionsRequest.sol\":2636:2655  buffer.startArray() */\n      tag_315\n        /* \"@chainlink/contracts/src/v0.8/functions/dev/v1_0_0/libraries/FunctionsRequest.sol\":2636:2642  buffer */\n      dup2\n        /* \"@chainlink/contracts/src/v0.8/functions/dev/v1_0_0/libraries/FunctionsRequest.sol\":2636:2653  buffer.startArray */\n      tag_316\n        /* \"@chainlink/contracts/src/v0.8/functions/dev/v1_0_0/libraries/FunctionsRequest.sol\":2636:2655  buffer.startArray() */\n      jump\t// in\n    tag_315:\n        /* \"@chainlink/contracts/src/v0.8/functions/dev/v1_0_0/libraries/FunctionsRequest.sol\":2668:2677  uint256 i */\n      0x00\n        /* \"@chainlink/contracts/src/v0.8/functions/dev/v1_0_0/libraries/FunctionsRequest.sol\":2663:2761  for (uint256 i = 0; i < self.args.length; ++i) {... */\n    tag_317:\n        /* \"@chainlink/contracts/src/v0.8/functions/dev/v1_0_0/libraries/FunctionsRequest.sol\":2687:2691  self */\n      dup4\n        /* \"@chainlink/contracts/src/v0.8/functions/dev/v1_0_0/libraries/FunctionsRequest.sol\":2687:2696  self.args */\n      0xa0\n      add\n      mload\n        /* \"@chainlink/contracts/src/v0.8/functions/dev/v1_0_0/libraries/FunctionsRequest.sol\":2687:2703  self.args.length */\n      mload\n        /* \"@chainlink/contracts/src/v0.8/functions/dev/v1_0_0/libraries/FunctionsRequest.sol\":2683:2684  i */\n      dup2\n        /* \"@chainlink/contracts/src/v0.8/functions/dev/v1_0_0/libraries/FunctionsRequest.sol\":2683:2703  i < self.args.length */\n      lt\n        /* \"@chainlink/contracts/src/v0.8/functions/dev/v1_0_0/libraries/FunctionsRequest.sol\":2663:2761  for (uint256 i = 0; i < self.args.length; ++i) {... */\n      iszero\n      tag_318\n      jumpi\n        /* \"@chainlink/contracts/src/v0.8/functions/dev/v1_0_0/libraries/FunctionsRequest.sol\":2720:2752  buffer.writeString(self.args[i]) */\n      tag_320\n        /* \"@chainlink/contracts/src/v0.8/functions/dev/v1_0_0/libraries/FunctionsRequest.sol\":2739:2743  self */\n      dup5\n        /* \"@chainlink/contracts/src/v0.8/functions/dev/v1_0_0/libraries/FunctionsRequest.sol\":2739:2748  self.args */\n      0xa0\n      add\n      mload\n        /* \"@chainlink/contracts/src/v0.8/functions/dev/v1_0_0/libraries/FunctionsRequest.sol\":2749:2750  i */\n      dup3\n        /* \"@chainlink/contracts/src/v0.8/functions/dev/v1_0_0/libraries/FunctionsRequest.sol\":2739:2751  self.args[i] */\n      dup2\n      mload\n      dup2\n      lt\n      tag_322\n      jumpi\n      tag_322\n      tag_108\n      jump\t// in\n    tag_322:\n      0x20\n      mul\n      0x20\n      add\n      add\n      mload\n        /* \"@chainlink/contracts/src/v0.8/functions/dev/v1_0_0/libraries/FunctionsRequest.sol\":2720:2726  buffer */\n      dup4\n        /* \"@chainlink/contracts/src/v0.8/functions/dev/v1_0_0/libraries/FunctionsRequest.sol\":2720:2738  buffer.writeString */\n      tag_301\n      swap1\n        /* \"@chainlink/contracts/src/v0.8/functions/dev/v1_0_0/libraries/FunctionsRequest.sol\":2720:2752  buffer.writeString(self.args[i]) */\n      swap2\n      swap1\n      0xffffffff\n      and\n      jump\t// in\n    tag_320:\n        /* \"@chainlink/contracts/src/v0.8/functions/dev/v1_0_0/libraries/FunctionsRequest.sol\":2705:2708  ++i */\n      tag_323\n      dup2\n      tag_191\n      jump\t// in\n    tag_323:\n      swap1\n      pop\n        /* \"@chainlink/contracts/src/v0.8/functions/dev/v1_0_0/libraries/FunctionsRequest.sol\":2663:2761  for (uint256 i = 0; i < self.args.length; ++i) {... */\n      jump(tag_317)\n    tag_318:\n      pop\n        /* \"@chainlink/contracts/src/v0.8/functions/dev/v1_0_0/libraries/FunctionsRequest.sol\":2768:2788  buffer.endSequence() */\n      tag_324\n        /* \"@chainlink/contracts/src/v0.8/functions/dev/v1_0_0/libraries/FunctionsRequest.sol\":2768:2774  buffer */\n      dup2\n        /* \"@chainlink/contracts/src/v0.8/functions/dev/v1_0_0/libraries/FunctionsRequest.sol\":2768:2786  buffer.endSequence */\n      tag_325\n        /* \"@chainlink/contracts/src/v0.8/functions/dev/v1_0_0/libraries/FunctionsRequest.sol\":2768:2788  buffer.endSequence() */\n      jump\t// in\n    tag_324:\n        /* \"@chainlink/contracts/src/v0.8/functions/dev/v1_0_0/libraries/FunctionsRequest.sol\":2805:2835  self.encryptedSecretsReference */\n      0x80\n      dup4\n      add\n      mload\n        /* \"@chainlink/contracts/src/v0.8/functions/dev/v1_0_0/libraries/FunctionsRequest.sol\":2805:2842  self.encryptedSecretsReference.length */\n      mload\n        /* \"@chainlink/contracts/src/v0.8/functions/dev/v1_0_0/libraries/FunctionsRequest.sol\":2805:2846  self.encryptedSecretsReference.length > 0 */\n      iszero\n        /* \"@chainlink/contracts/src/v0.8/functions/dev/v1_0_0/libraries/FunctionsRequest.sol\":2801:3147  if (self.encryptedSecretsReference.length > 0) {... */\n      tag_337\n      jumpi\n        /* \"@chainlink/contracts/src/v0.8/functions/dev/v1_0_0/libraries/FunctionsRequest.sol\":2884:2899  Location.Inline */\n      0x00\n        /* \"@chainlink/contracts/src/v0.8/functions/dev/v1_0_0/libraries/FunctionsRequest.sol\":2860:2864  self */\n      dup4\n        /* \"@chainlink/contracts/src/v0.8/functions/dev/v1_0_0/libraries/FunctionsRequest.sol\":2860:2880  self.secretsLocation */\n      0x20\n      add\n      mload\n        /* \"@chainlink/contracts/src/v0.8/functions/dev/v1_0_0/libraries/FunctionsRequest.sol\":2860:2899  self.secretsLocation == Location.Inline */\n      0x02\n      dup2\n      gt\n      iszero\n      tag_330\n      jumpi\n      tag_330\n      tag_305\n      jump\t// in\n    tag_330:\n      sub\n        /* \"@chainlink/contracts/src/v0.8/functions/dev/v1_0_0/libraries/FunctionsRequest.sol\":2856:2944  if (self.secretsLocation == Location.Inline) {... */\n      tag_331\n      jumpi\n        /* \"@chainlink/contracts/src/v0.8/functions/dev/v1_0_0/libraries/FunctionsRequest.sol\":2918:2935  NoInlineSecrets() */\n      mload(0x40)\n      shl(0xe0, 0xa80d31f7)\n      dup2\n      mstore\n      0x04\n      add\n      mload(0x40)\n      dup1\n      swap2\n      sub\n      swap1\n      revert\n        /* \"@chainlink/contracts/src/v0.8/functions/dev/v1_0_0/libraries/FunctionsRequest.sol\":2856:2944  if (self.secretsLocation == Location.Inline) {... */\n    tag_331:\n        /* \"@chainlink/contracts/src/v0.8/functions/dev/v1_0_0/libraries/FunctionsRequest.sol\":2951:2988  buffer.writeString(\"secretsLocation\") */\n      0x40\n      dup1\n      mload\n      dup1\n      dup3\n      add\n      swap1\n      swap2\n      mstore\n      0x0f\n      dup2\n      mstore\n      shl(0x89, 0x39b2b1b932ba39a637b1b0ba34b7b7)\n      0x20\n      dup3\n      add\n      mstore\n      tag_332\n      swap1\n        /* \"@chainlink/contracts/src/v0.8/functions/dev/v1_0_0/libraries/FunctionsRequest.sol\":2951:2957  buffer */\n      dup3\n      swap1\n        /* \"@chainlink/contracts/src/v0.8/functions/dev/v1_0_0/libraries/FunctionsRequest.sol\":2951:2969  buffer.writeString */\n      tag_301\n        /* \"@chainlink/contracts/src/v0.8/functions/dev/v1_0_0/libraries/FunctionsRequest.sol\":2951:2988  buffer.writeString(\"secretsLocation\") */\n      jump\t// in\n    tag_332:\n        /* \"@chainlink/contracts/src/v0.8/functions/dev/v1_0_0/libraries/FunctionsRequest.sol\":2996:3046  buffer.writeUInt256(uint256(self.secretsLocation)) */\n      tag_333\n        /* \"@chainlink/contracts/src/v0.8/functions/dev/v1_0_0/libraries/FunctionsRequest.sol\":3024:3028  self */\n      dup4\n        /* \"@chainlink/contracts/src/v0.8/functions/dev/v1_0_0/libraries/FunctionsRequest.sol\":3024:3044  self.secretsLocation */\n      0x20\n      add\n      mload\n        /* \"@chainlink/contracts/src/v0.8/functions/dev/v1_0_0/libraries/FunctionsRequest.sol\":3016:3045  uint256(self.secretsLocation) */\n      0x02\n      dup2\n      gt\n      iszero\n      tag_304\n      jumpi\n      tag_304\n      tag_305\n      jump\t// in\n        /* \"@chainlink/contracts/src/v0.8/functions/dev/v1_0_0/libraries/FunctionsRequest.sol\":2996:3046  buffer.writeUInt256(uint256(self.secretsLocation)) */\n    tag_333:\n        /* \"@chainlink/contracts/src/v0.8/functions/dev/v1_0_0/libraries/FunctionsRequest.sol\":3054:3083  buffer.writeString(\"secrets\") */\n      0x40\n      dup1\n      mload\n      dup1\n      dup3\n      add\n      swap1\n      swap2\n      mstore\n      0x07\n      dup2\n      mstore\n      shl(0xc8, 0x73656372657473)\n      0x20\n      dup3\n      add\n      mstore\n      tag_336\n      swap1\n        /* \"@chainlink/contracts/src/v0.8/functions/dev/v1_0_0/libraries/FunctionsRequest.sol\":3054:3060  buffer */\n      dup3\n      swap1\n        /* \"@chainlink/contracts/src/v0.8/functions/dev/v1_0_0/libraries/FunctionsRequest.sol\":3054:3072  buffer.writeString */\n      tag_301\n        /* \"@chainlink/contracts/src/v0.8/functions/dev/v1_0_0/libraries/FunctionsRequest.sol\":3054:3083  buffer.writeString(\"secrets\") */\n      jump\t// in\n    tag_336:\n        /* \"@chainlink/contracts/src/v0.8/functions/dev/v1_0_0/libraries/FunctionsRequest.sol\":3109:3139  self.encryptedSecretsReference */\n      0x80\n      dup4\n      add\n      mload\n        /* \"@chainlink/contracts/src/v0.8/functions/dev/v1_0_0/libraries/FunctionsRequest.sol\":3091:3140  buffer.writeBytes(self.encryptedSecretsReference) */\n      tag_337\n      swap1\n        /* \"@chainlink/contracts/src/v0.8/functions/dev/v1_0_0/libraries/FunctionsRequest.sol\":3091:3097  buffer */\n      dup3\n      swap1\n        /* \"@chainlink/contracts/src/v0.8/functions/dev/v1_0_0/libraries/FunctionsRequest.sol\":3091:3108  buffer.writeBytes */\n      tag_338\n        /* \"@chainlink/contracts/src/v0.8/functions/dev/v1_0_0/libraries/FunctionsRequest.sol\":3091:3140  buffer.writeBytes(self.encryptedSecretsReference) */\n      jump\t// in\n    tag_337:\n        /* \"@chainlink/contracts/src/v0.8/functions/dev/v1_0_0/libraries/FunctionsRequest.sol\":3157:3171  self.bytesArgs */\n      0xc0\n      dup4\n      add\n      mload\n        /* \"@chainlink/contracts/src/v0.8/functions/dev/v1_0_0/libraries/FunctionsRequest.sol\":3157:3178  self.bytesArgs.length */\n      mload\n        /* \"@chainlink/contracts/src/v0.8/functions/dev/v1_0_0/libraries/FunctionsRequest.sol\":3157:3182  self.bytesArgs.length > 0 */\n      iszero\n        /* \"@chainlink/contracts/src/v0.8/functions/dev/v1_0_0/libraries/FunctionsRequest.sol\":3153:3399  if (self.bytesArgs.length > 0) {... */\n      tag_349\n      jumpi\n        /* \"@chainlink/contracts/src/v0.8/functions/dev/v1_0_0/libraries/FunctionsRequest.sol\":3192:3223  buffer.writeString(\"bytesArgs\") */\n      0x40\n      dup1\n      mload\n      dup1\n      dup3\n      add\n      swap1\n      swap2\n      mstore\n      0x09\n      dup2\n      mstore\n      shl(0xb8, 0x627974657341726773)\n      0x20\n      dup3\n      add\n      mstore\n      tag_340\n      swap1\n        /* \"@chainlink/contracts/src/v0.8/functions/dev/v1_0_0/libraries/FunctionsRequest.sol\":3192:3198  buffer */\n      dup3\n      swap1\n        /* \"@chainlink/contracts/src/v0.8/functions/dev/v1_0_0/libraries/FunctionsRequest.sol\":3192:3210  buffer.writeString */\n      tag_301\n        /* \"@chainlink/contracts/src/v0.8/functions/dev/v1_0_0/libraries/FunctionsRequest.sol\":3192:3223  buffer.writeString(\"bytesArgs\") */\n      jump\t// in\n    tag_340:\n        /* \"@chainlink/contracts/src/v0.8/functions/dev/v1_0_0/libraries/FunctionsRequest.sol\":3231:3250  buffer.startArray() */\n      tag_341\n        /* \"@chainlink/contracts/src/v0.8/functions/dev/v1_0_0/libraries/FunctionsRequest.sol\":3231:3237  buffer */\n      dup2\n        /* \"@chainlink/contracts/src/v0.8/functions/dev/v1_0_0/libraries/FunctionsRequest.sol\":3231:3248  buffer.startArray */\n      tag_316\n        /* \"@chainlink/contracts/src/v0.8/functions/dev/v1_0_0/libraries/FunctionsRequest.sol\":3231:3250  buffer.startArray() */\n      jump\t// in\n    tag_341:\n        /* \"@chainlink/contracts/src/v0.8/functions/dev/v1_0_0/libraries/FunctionsRequest.sol\":3263:3272  uint256 i */\n      0x00\n        /* \"@chainlink/contracts/src/v0.8/functions/dev/v1_0_0/libraries/FunctionsRequest.sol\":3258:3365  for (uint256 i = 0; i < self.bytesArgs.length; ++i) {... */\n    tag_342:\n        /* \"@chainlink/contracts/src/v0.8/functions/dev/v1_0_0/libraries/FunctionsRequest.sol\":3282:3286  self */\n      dup4\n        /* \"@chainlink/contracts/src/v0.8/functions/dev/v1_0_0/libraries/FunctionsRequest.sol\":3282:3296  self.bytesArgs */\n      0xc0\n      add\n      mload\n        /* \"@chainlink/contracts/src/v0.8/functions/dev/v1_0_0/libraries/FunctionsRequest.sol\":3282:3303  self.bytesArgs.length */\n      mload\n        /* \"@chainlink/contracts/src/v0.8/functions/dev/v1_0_0/libraries/FunctionsRequest.sol\":3278:3279  i */\n      dup2\n        /* \"@chainlink/contracts/src/v0.8/functions/dev/v1_0_0/libraries/FunctionsRequest.sol\":3278:3303  i < self.bytesArgs.length */\n      lt\n        /* \"@chainlink/contracts/src/v0.8/functions/dev/v1_0_0/libraries/FunctionsRequest.sol\":3258:3365  for (uint256 i = 0; i < self.bytesArgs.length; ++i) {... */\n      iszero\n      tag_343\n      jumpi\n        /* \"@chainlink/contracts/src/v0.8/functions/dev/v1_0_0/libraries/FunctionsRequest.sol\":3320:3356  buffer.writeBytes(self.bytesArgs[i]) */\n      tag_345\n        /* \"@chainlink/contracts/src/v0.8/functions/dev/v1_0_0/libraries/FunctionsRequest.sol\":3338:3342  self */\n      dup5\n        /* \"@chainlink/contracts/src/v0.8/functions/dev/v1_0_0/libraries/FunctionsRequest.sol\":3338:3352  self.bytesArgs */\n      0xc0\n      add\n      mload\n        /* \"@chainlink/contracts/src/v0.8/functions/dev/v1_0_0/libraries/FunctionsRequest.sol\":3353:3354  i */\n      dup3\n        /* \"@chainlink/contracts/src/v0.8/functions/dev/v1_0_0/libraries/FunctionsRequest.sol\":3338:3355  self.bytesArgs[i] */\n      dup2\n      mload\n      dup2\n      lt\n      tag_347\n      jumpi\n      tag_347\n      tag_108\n      jump\t// in\n    tag_347:\n      0x20\n      mul\n      0x20\n      add\n      add\n      mload\n        /* \"@chainlink/contracts/src/v0.8/functions/dev/v1_0_0/libraries/FunctionsRequest.sol\":3320:3326  buffer */\n      dup4\n        /* \"@chainlink/contracts/src/v0.8/functions/dev/v1_0_0/libraries/FunctionsRequest.sol\":3320:3337  buffer.writeBytes */\n      tag_338\n      swap1\n        /* \"@chainlink/contracts/src/v0.8/functions/dev/v1_0_0/libraries/FunctionsRequest.sol\":3320:3356  buffer.writeBytes(self.bytesArgs[i]) */\n      swap2\n      swap1\n      0xffffffff\n      and\n      jump\t// in\n    tag_345:\n        /* \"@chainlink/contracts/src/v0.8/functions/dev/v1_0_0/libraries/FunctionsRequest.sol\":3305:3308  ++i */\n      tag_348\n      dup2\n      tag_191\n      jump\t// in\n    tag_348:\n      swap1\n      pop\n        /* \"@chainlink/contracts/src/v0.8/functions/dev/v1_0_0/libraries/FunctionsRequest.sol\":3258:3365  for (uint256 i = 0; i < self.bytesArgs.length; ++i) {... */\n      jump(tag_342)\n    tag_343:\n      pop\n        /* \"@chainlink/contracts/src/v0.8/functions/dev/v1_0_0/libraries/FunctionsRequest.sol\":3372:3392  buffer.endSequence() */\n      tag_349\n        /* \"@chainlink/contracts/src/v0.8/functions/dev/v1_0_0/libraries/FunctionsRequest.sol\":3372:3378  buffer */\n      dup2\n        /* \"@chainlink/contracts/src/v0.8/functions/dev/v1_0_0/libraries/FunctionsRequest.sol\":3372:3390  buffer.endSequence */\n      tag_325\n        /* \"@chainlink/contracts/src/v0.8/functions/dev/v1_0_0/libraries/FunctionsRequest.sol\":3372:3392  buffer.endSequence() */\n      jump\t// in\n    tag_349:\n        /* \"@chainlink/contracts/src/v0.8/functions/dev/v1_0_0/libraries/FunctionsRequest.sol\":3412:3422  buffer.buf */\n      mload\n        /* \"@chainlink/contracts/src/v0.8/functions/dev/v1_0_0/libraries/FunctionsRequest.sol\":3412:3426  buffer.buf.buf */\n      mload\n      swap3\n        /* \"@chainlink/contracts/src/v0.8/functions/dev/v1_0_0/libraries/FunctionsRequest.sol\":2161:3431  function encodeCBOR(Request memory self) internal pure returns (bytes memory) {... */\n      swap2\n      pop\n      pop\n      jump\t// out\n        /* \"@chainlink/contracts/src/v0.8/functions/dev/v1_0_0/FunctionsClient.sol\":1158:1537  function _sendRequest(... */\n    tag_219:\n        /* \"@chainlink/contracts/src/v0.8/functions/dev/v1_0_0/FunctionsClient.sol\":1300:1307  bytes32 */\n      0x00\n        /* \"@chainlink/contracts/src/v0.8/functions/dev/v1_0_0/FunctionsClient.sol\":1315:1332  bytes32 requestId */\n      dup1\n        /* \"@chainlink/contracts/src/v0.8/functions/dev/v1_0_0/FunctionsClient.sol\":1335:1343  i_router */\n      immutable(\"0x8e8fab5f003314da8d1873ea7720e8d9f47650136d916064d1edb8a11d682624\")\n      sub(shl(0xa0, 0x01), 0x01)\n        /* \"@chainlink/contracts/src/v0.8/functions/dev/v1_0_0/FunctionsClient.sol\":1335:1355  i_router.sendRequest */\n      and\n      0x461d2762\n        /* \"@chainlink/contracts/src/v0.8/functions/dev/v1_0_0/FunctionsClient.sol\":1363:1377  subscriptionId */\n      dup7\n        /* \"@chainlink/contracts/src/v0.8/functions/dev/v1_0_0/FunctionsClient.sol\":1385:1389  data */\n      dup9\n        /* \"@chainlink/contracts/src/v0.8/functions/dev/v1_0_0/libraries/FunctionsRequest.sol\":325:326  1 */\n      0x01\n        /* \"@chainlink/contracts/src/v0.8/functions/dev/v1_0_0/FunctionsClient.sol\":1442:1458  callbackGasLimit */\n      dup9\n        /* \"@chainlink/contracts/src/v0.8/functions/dev/v1_0_0/FunctionsClient.sol\":1466:1471  donId */\n      dup9\n        /* \"@chainlink/contracts/src/v0.8/functions/dev/v1_0_0/FunctionsClient.sol\":1335:1477  i_router.sendRequest(... */\n      mload(0x40)\n      dup7\n      0xffffffff\n      and\n      0xe0\n      shl\n      dup2\n      mstore\n      0x04\n      add\n      tag_351\n      swap6\n      swap5\n      swap4\n      swap3\n      swap2\n      swap1\n      tag_352\n      jump\t// in\n    tag_351:\n      0x20\n      mload(0x40)\n      dup1\n      dup4\n      sub\n      dup2\n      0x00\n      dup8\n      gas\n      call\n      iszero\n      dup1\n      iszero\n      tag_354\n      jumpi\n      returndatasize\n      0x00\n      dup1\n      returndatacopy\n      revert(0x00, returndatasize)\n    tag_354:\n      pop\n      pop\n      pop\n      pop\n      mload(0x40)\n      returndatasize\n      not(0x1f)\n      0x1f\n      dup3\n      add\n      and\n      dup3\n      add\n      dup1\n      0x40\n      mstore\n      pop\n      dup2\n      add\n      swap1\n      tag_355\n      swap2\n      swap1\n      tag_356\n      jump\t// in\n    tag_355:\n        /* \"@chainlink/contracts/src/v0.8/functions/dev/v1_0_0/FunctionsClient.sol\":1488:1510  RequestSent(requestId) */\n      mload(0x40)\n        /* \"@chainlink/contracts/src/v0.8/functions/dev/v1_0_0/FunctionsClient.sol\":1315:1477  bytes32 requestId = i_router.sendRequest(... */\n      swap1\n      swap2\n      pop\n      dup2\n      swap1\n        /* \"@chainlink/contracts/src/v0.8/functions/dev/v1_0_0/FunctionsClient.sol\":1488:1510  RequestSent(requestId) */\n      0x1131472297a800fee664d1d89cfa8f7676ff07189ecc53f80bbb5f4969099db8\n      swap1\n      0x00\n      swap1\n      log2\n        /* \"@chainlink/contracts/src/v0.8/functions/dev/v1_0_0/FunctionsClient.sol\":1523:1532  requestId */\n      swap6\n        /* \"@chainlink/contracts/src/v0.8/functions/dev/v1_0_0/FunctionsClient.sol\":1158:1537  function _sendRequest(... */\n      swap5\n      pop\n      pop\n      pop\n      pop\n      pop\n      jump\t// out\n        /* \"@chainlink/contracts/src/v0.8/functions/dev/v1_0_0/libraries/FunctionsRequest.sol\":3780:4087  function initializeRequest(... */\n    tag_294:\n        /* \"@chainlink/contracts/src/v0.8/functions/dev/v1_0_0/libraries/FunctionsRequest.sol\":3946:3952  source */\n      dup1\n        /* \"@chainlink/contracts/src/v0.8/functions/dev/v1_0_0/libraries/FunctionsRequest.sol\":3940:3960  bytes(source).length */\n      mload\n        /* \"@chainlink/contracts/src/v0.8/functions/dev/v1_0_0/libraries/FunctionsRequest.sol\":3964:3965  0 */\n      0x00\n        /* \"@chainlink/contracts/src/v0.8/functions/dev/v1_0_0/libraries/FunctionsRequest.sol\":3940:3965  bytes(source).length == 0 */\n      sub\n        /* \"@chainlink/contracts/src/v0.8/functions/dev/v1_0_0/libraries/FunctionsRequest.sol\":3936:3987  if (bytes(source).length == 0) revert EmptySource() */\n      tag_358\n      jumpi\n        /* \"@chainlink/contracts/src/v0.8/functions/dev/v1_0_0/libraries/FunctionsRequest.sol\":3974:3987  EmptySource() */\n      mload(0x40)\n      shl(0xe0, 0x22ce3edd)\n      dup2\n      mstore\n      0x04\n      add\n      mload(0x40)\n      dup1\n      swap2\n      sub\n      swap1\n      revert\n        /* \"@chainlink/contracts/src/v0.8/functions/dev/v1_0_0/libraries/FunctionsRequest.sol\":3936:3987  if (bytes(source).length == 0) revert EmptySource() */\n    tag_358:\n        /* \"@chainlink/contracts/src/v0.8/functions/dev/v1_0_0/libraries/FunctionsRequest.sol\":3994:3998  self */\n      dup4\n        /* \"@chainlink/contracts/src/v0.8/functions/dev/v1_0_0/libraries/FunctionsRequest.sol\":4014:4026  codeLocation */\n      dup4\n        /* \"@chainlink/contracts/src/v0.8/functions/dev/v1_0_0/libraries/FunctionsRequest.sol\":3994:4026  self.codeLocation = codeLocation */\n      0x02\n      dup2\n      gt\n      iszero\n      tag_360\n      jumpi\n      tag_360\n      tag_305\n      jump\t// in\n    tag_360:\n      swap1\n      dup2\n      0x02\n      dup2\n      gt\n      iszero\n      tag_362\n      jumpi\n      tag_362\n      tag_305\n      jump\t// in\n    tag_362:\n      swap1\n      mstore\n      pop\n        /* \"@chainlink/contracts/src/v0.8/functions/dev/v1_0_0/libraries/FunctionsRequest.sol\":4032:4045  self.language */\n      0x40\n      dup5\n      add\n        /* \"@chainlink/contracts/src/v0.8/functions/dev/v1_0_0/libraries/FunctionsRequest.sol\":4048:4056  language */\n      dup3\n        /* \"@chainlink/contracts/src/v0.8/functions/dev/v1_0_0/libraries/FunctionsRequest.sol\":4032:4056  self.language = language */\n      dup1\n      iszero\n      tag_364\n      jumpi\n      tag_364\n      tag_305\n      jump\t// in\n    tag_364:\n      swap1\n      dup2\n      dup1\n      iszero\n      tag_366\n      jumpi\n      tag_366\n      tag_305\n      jump\t// in\n    tag_366:\n      swap1\n      mstore\n      pop\n        /* \"@chainlink/contracts/src/v0.8/functions/dev/v1_0_0/libraries/FunctionsRequest.sol\":4062:4073  self.source */\n      0x60\n      swap1\n      swap4\n      add\n        /* \"@chainlink/contracts/src/v0.8/functions/dev/v1_0_0/libraries/FunctionsRequest.sol\":4062:4082  self.source = source */\n      swap3\n      swap1\n      swap3\n      mstore\n      pop\n      pop\n        /* \"@chainlink/contracts/src/v0.8/functions/dev/v1_0_0/libraries/FunctionsRequest.sol\":3780:4087  function initializeRequest(... */\n      jump\t// out\n        /* \"@chainlink/contracts/src/v0.8/vendor/solidity-cborutils/v2.0.0/CBOR.sol\":1490:1663  function create(uint256 capacity) internal pure returns(CBORBuffer memory cbor) {... */\n    tag_299:\n        /* \"@chainlink/contracts/src/v0.8/vendor/solidity-cborutils/v2.0.0/CBOR.sol\":1546:1568  CBORBuffer memory cbor */\n      tag_367\n      tag_368\n      jump\t// in\n    tag_367:\n        /* \"@chainlink/contracts/src/v0.8/vendor/solidity-cborutils/v2.0.0/CBOR.sol\":1592:1600  cbor.buf */\n      dup1\n      mload\n        /* \"@chainlink/contracts/src/v0.8/vendor/solidity-cborutils/v2.0.0/CBOR.sol\":1580:1611  Buffer.init(cbor.buf, capacity) */\n      tag_370\n      swap1\n        /* \"@chainlink/contracts/src/v0.8/vendor/solidity-cborutils/v2.0.0/CBOR.sol\":1602:1610  capacity */\n      dup4\n        /* \"@chainlink/contracts/src/v0.8/vendor/solidity-cborutils/v2.0.0/CBOR.sol\":1580:1591  Buffer.init */\n      tag_371\n        /* \"@chainlink/contracts/src/v0.8/vendor/solidity-cborutils/v2.0.0/CBOR.sol\":1580:1611  Buffer.init(cbor.buf, capacity) */\n      jump\t// in\n    tag_370:\n      pop\n        /* \"@chainlink/contracts/src/v0.8/vendor/solidity-cborutils/v2.0.0/CBOR.sol\":1634:1635  0 */\n      0x00\n        /* \"@chainlink/contracts/src/v0.8/vendor/solidity-cborutils/v2.0.0/CBOR.sol\":1621:1631  cbor.depth */\n      0x20\n      dup3\n      add\n        /* \"@chainlink/contracts/src/v0.8/vendor/solidity-cborutils/v2.0.0/CBOR.sol\":1621:1635  cbor.depth = 0 */\n      mstore\n        /* \"@chainlink/contracts/src/v0.8/vendor/solidity-cborutils/v2.0.0/CBOR.sol\":1621:1625  cbor */\n      swap2\n        /* \"@chainlink/contracts/src/v0.8/vendor/solidity-cborutils/v2.0.0/CBOR.sol\":1490:1663  function create(uint256 capacity) internal pure returns(CBORBuffer memory cbor) {... */\n      swap1\n      pop\n      jump\t// out\n        /* \"@chainlink/contracts/src/v0.8/vendor/solidity-cborutils/v2.0.0/CBOR.sol\":3021:3225  function writeString(CBORBuffer memory buf, string memory value) internal pure {... */\n    tag_301:\n        /* \"@chainlink/contracts/src/v0.8/vendor/solidity-cborutils/v2.0.0/CBOR.sol\":3110:3180  writeFixedNumeric(buf, MAJOR_TYPE_STRING, uint64(bytes(value).length)) */\n      tag_373\n        /* \"@chainlink/contracts/src/v0.8/vendor/solidity-cborutils/v2.0.0/CBOR.sol\":3128:3131  buf */\n      dup3\n        /* \"@chainlink/contracts/src/v0.8/vendor/solidity-cborutils/v2.0.0/CBOR.sol\":998:999  3 */\n      0x03\n        /* \"@chainlink/contracts/src/v0.8/vendor/solidity-cborutils/v2.0.0/CBOR.sol\":3165:3170  value */\n      dup4\n        /* \"@chainlink/contracts/src/v0.8/vendor/solidity-cborutils/v2.0.0/CBOR.sol\":3159:3178  bytes(value).length */\n      mload\n        /* \"@chainlink/contracts/src/v0.8/vendor/solidity-cborutils/v2.0.0/CBOR.sol\":3110:3127  writeFixedNumeric */\n      tag_374\n        /* \"@chainlink/contracts/src/v0.8/vendor/solidity-cborutils/v2.0.0/CBOR.sol\":3110:3180  writeFixedNumeric(buf, MAJOR_TYPE_STRING, uint64(bytes(value).length)) */\n      jump\t// in\n    tag_373:\n        /* \"@chainlink/contracts/src/v0.8/vendor/solidity-cborutils/v2.0.0/CBOR.sol\":3190:3197  buf.buf */\n      dup2\n      mload\n        /* \"@chainlink/contracts/src/v0.8/vendor/solidity-cborutils/v2.0.0/CBOR.sol\":3190:3218  buf.buf.append(bytes(value)) */\n      tag_375\n      swap1\n        /* \"@chainlink/contracts/src/v0.8/vendor/solidity-cborutils/v2.0.0/CBOR.sol\":3211:3216  value */\n      dup3\n        /* \"@chainlink/contracts/src/v0.8/vendor/solidity-cborutils/v2.0.0/CBOR.sol\":3190:3204  buf.buf.append */\n      tag_376\n        /* \"@chainlink/contracts/src/v0.8/vendor/solidity-cborutils/v2.0.0/CBOR.sol\":3190:3218  buf.buf.append(bytes(value)) */\n      jump\t// in\n    tag_375:\n      pop\n        /* \"@chainlink/contracts/src/v0.8/vendor/solidity-cborutils/v2.0.0/CBOR.sol\":3021:3225  function writeString(CBORBuffer memory buf, string memory value) internal pure {... */\n      pop\n      pop\n      jump\t// out\n        /* \"@chainlink/contracts/src/v0.8/vendor/solidity-cborutils/v2.0.0/CBOR.sol\":1832:2034  function writeUInt256(CBORBuffer memory buf, uint256 value) internal pure {... */\n    tag_306:\n        /* \"@chainlink/contracts/src/v0.8/vendor/solidity-cborutils/v2.0.0/CBOR.sol\":1916:1923  buf.buf */\n      dup2\n      mload\n        /* \"@chainlink/contracts/src/v0.8/vendor/solidity-cborutils/v2.0.0/CBOR.sol\":1916:1983  buf.buf.appendUint8(uint8((MAJOR_TYPE_TAG << 5) | TAG_TYPE_BIGNUM)) */\n      tag_378\n      swap1\n        /* \"@chainlink/contracts/src/v0.8/vendor/solidity-cborutils/v2.0.0/CBOR.sol\":1942:1981  (MAJOR_TYPE_TAG << 5) | TAG_TYPE_BIGNUM */\n      0xc2\n        /* \"@chainlink/contracts/src/v0.8/vendor/solidity-cborutils/v2.0.0/CBOR.sol\":1916:1935  buf.buf.appendUint8 */\n      tag_379\n        /* \"@chainlink/contracts/src/v0.8/vendor/solidity-cborutils/v2.0.0/CBOR.sol\":1916:1983  buf.buf.appendUint8(uint8((MAJOR_TYPE_TAG << 5) | TAG_TYPE_BIGNUM)) */\n      jump\t// in\n    tag_378:\n      pop\n        /* \"@chainlink/contracts/src/v0.8/vendor/solidity-cborutils/v2.0.0/CBOR.sol\":1993:2027  writeBytes(buf, abi.encode(value)) */\n      tag_293\n        /* \"@chainlink/contracts/src/v0.8/vendor/solidity-cborutils/v2.0.0/CBOR.sol\":2004:2007  buf */\n      dup3\n        /* \"@chainlink/contracts/src/v0.8/vendor/solidity-cborutils/v2.0.0/CBOR.sol\":2020:2025  value */\n      dup3\n        /* \"@chainlink/contracts/src/v0.8/vendor/solidity-cborutils/v2.0.0/CBOR.sol\":2009:2026  abi.encode(value) */\n      add(0x20, mload(0x40))\n      tag_381\n      swap2\n        /* \"#utility.yul\":5132:5157   */\n      dup2\n      mstore\n        /* \"#utility.yul\":5120:5122   */\n      0x20\n        /* \"#utility.yul\":5105:5123   */\n      add\n      swap1\n        /* \"#utility.yul\":4986:5163   */\n      jump\n        /* \"@chainlink/contracts/src/v0.8/vendor/solidity-cborutils/v2.0.0/CBOR.sol\":2009:2026  abi.encode(value) */\n    tag_381:\n      mload(0x40)\n      0x20\n      dup2\n      dup4\n      sub\n      sub\n      dup2\n      mstore\n      swap1\n      0x40\n      mstore\n        /* \"@chainlink/contracts/src/v0.8/vendor/solidity-cborutils/v2.0.0/CBOR.sol\":1993:2003  writeBytes */\n      tag_338\n        /* \"@chainlink/contracts/src/v0.8/vendor/solidity-cborutils/v2.0.0/CBOR.sol\":1993:2027  writeBytes(buf, abi.encode(value)) */\n      jump\t// in\n        /* \"@chainlink/contracts/src/v0.8/vendor/solidity-cborutils/v2.0.0/CBOR.sol\":3607:3753  function startArray(CBORBuffer memory buf) internal pure {... */\n    tag_316:\n        /* \"@chainlink/contracts/src/v0.8/vendor/solidity-cborutils/v2.0.0/CBOR.sol\":3674:3722  writeIndefiniteLengthType(buf, MAJOR_TYPE_ARRAY) */\n      tag_383\n        /* \"@chainlink/contracts/src/v0.8/vendor/solidity-cborutils/v2.0.0/CBOR.sol\":3700:3703  buf */\n      dup2\n        /* \"@chainlink/contracts/src/v0.8/vendor/solidity-cborutils/v2.0.0/CBOR.sol\":1047:1048  4 */\n      0x04\n        /* \"@chainlink/contracts/src/v0.8/vendor/solidity-cborutils/v2.0.0/CBOR.sol\":3674:3699  writeIndefiniteLengthType */\n      tag_384\n        /* \"@chainlink/contracts/src/v0.8/vendor/solidity-cborutils/v2.0.0/CBOR.sol\":3674:3722  writeIndefiniteLengthType(buf, MAJOR_TYPE_ARRAY) */\n      jump\t// in\n    tag_383:\n        /* \"@chainlink/contracts/src/v0.8/vendor/solidity-cborutils/v2.0.0/CBOR.sol\":3745:3746  1 */\n      0x01\n        /* \"@chainlink/contracts/src/v0.8/vendor/solidity-cborutils/v2.0.0/CBOR.sol\":3732:3735  buf */\n      dup2\n        /* \"@chainlink/contracts/src/v0.8/vendor/solidity-cborutils/v2.0.0/CBOR.sol\":3732:3741  buf.depth */\n      0x20\n      add\n        /* \"@chainlink/contracts/src/v0.8/vendor/solidity-cborutils/v2.0.0/CBOR.sol\":3732:3746  buf.depth += 1 */\n      dup2\n      dup2\n      mload\n      tag_385\n      swap2\n      swap1\n      tag_163\n      jump\t// in\n    tag_385:\n      swap1\n      mstore\n      pop\n      pop\n        /* \"@chainlink/contracts/src/v0.8/vendor/solidity-cborutils/v2.0.0/CBOR.sol\":3607:3753  function startArray(CBORBuffer memory buf) internal pure {... */\n      jump\t// out\n        /* \"@chainlink/contracts/src/v0.8/vendor/solidity-cborutils/v2.0.0/CBOR.sol\":4211:4365  function endSequence(CBORBuffer memory buf) internal pure {... */\n    tag_325:\n        /* \"@chainlink/contracts/src/v0.8/vendor/solidity-cborutils/v2.0.0/CBOR.sol\":4279:4334  writeIndefiniteLengthType(buf, MAJOR_TYPE_CONTENT_FREE) */\n      tag_387\n        /* \"@chainlink/contracts/src/v0.8/vendor/solidity-cborutils/v2.0.0/CBOR.sol\":4305:4308  buf */\n      dup2\n        /* \"@chainlink/contracts/src/v0.8/vendor/solidity-cborutils/v2.0.0/CBOR.sol\":1197:1198  7 */\n      0x07\n        /* \"@chainlink/contracts/src/v0.8/vendor/solidity-cborutils/v2.0.0/CBOR.sol\":4279:4304  writeIndefiniteLengthType */\n      tag_384\n        /* \"@chainlink/contracts/src/v0.8/vendor/solidity-cborutils/v2.0.0/CBOR.sol\":4279:4334  writeIndefiniteLengthType(buf, MAJOR_TYPE_CONTENT_FREE) */\n      jump\t// in\n    tag_387:\n        /* \"@chainlink/contracts/src/v0.8/vendor/solidity-cborutils/v2.0.0/CBOR.sol\":4357:4358  1 */\n      0x01\n        /* \"@chainlink/contracts/src/v0.8/vendor/solidity-cborutils/v2.0.0/CBOR.sol\":4344:4347  buf */\n      dup2\n        /* \"@chainlink/contracts/src/v0.8/vendor/solidity-cborutils/v2.0.0/CBOR.sol\":4344:4353  buf.depth */\n      0x20\n      add\n        /* \"@chainlink/contracts/src/v0.8/vendor/solidity-cborutils/v2.0.0/CBOR.sol\":4344:4358  buf.depth -= 1 */\n      dup2\n      dup2\n      mload\n      tag_385\n      swap2\n      swap1\n      tag_157\n      jump\t// in\n        /* \"@chainlink/contracts/src/v0.8/vendor/solidity-cborutils/v2.0.0/CBOR.sol\":2828:3015  function writeBytes(CBORBuffer memory buf, bytes memory value) internal pure {... */\n    tag_338:\n        /* \"@chainlink/contracts/src/v0.8/vendor/solidity-cborutils/v2.0.0/CBOR.sol\":2915:2977  writeFixedNumeric(buf, MAJOR_TYPE_BYTES, uint64(value.length)) */\n      tag_373\n        /* \"@chainlink/contracts/src/v0.8/vendor/solidity-cborutils/v2.0.0/CBOR.sol\":2933:2936  buf */\n      dup3\n        /* \"@chainlink/contracts/src/v0.8/vendor/solidity-cborutils/v2.0.0/CBOR.sol\":948:949  2 */\n      0x02\n        /* \"@chainlink/contracts/src/v0.8/vendor/solidity-cborutils/v2.0.0/CBOR.sol\":2963:2968  value */\n      dup4\n        /* \"@chainlink/contracts/src/v0.8/vendor/solidity-cborutils/v2.0.0/CBOR.sol\":2963:2975  value.length */\n      mload\n        /* \"@chainlink/contracts/src/v0.8/vendor/solidity-cborutils/v2.0.0/CBOR.sol\":2915:2932  writeFixedNumeric */\n      tag_374\n        /* \"@chainlink/contracts/src/v0.8/vendor/solidity-cborutils/v2.0.0/CBOR.sol\":2915:2977  writeFixedNumeric(buf, MAJOR_TYPE_BYTES, uint64(value.length)) */\n      jump\t// in\n        /* \"@chainlink/contracts/src/v0.8/vendor/@ensdomains/buffer/v0.1.0/Buffer.sol\":1020:1575  function init(buffer memory buf, uint capacity) internal pure returns(buffer memory) {... */\n    tag_371:\n      0x40\n      dup1\n      mload\n      dup1\n      dup3\n      add\n      swap1\n      swap2\n      mstore\n      0x60\n      dup2\n      mstore\n      0x00\n      0x20\n      dup3\n      add\n      mstore\n        /* \"@chainlink/contracts/src/v0.8/vendor/@ensdomains/buffer/v0.1.0/Buffer.sol\":1119:1132  capacity % 32 */\n      tag_395\n        /* \"@chainlink/contracts/src/v0.8/vendor/@ensdomains/buffer/v0.1.0/Buffer.sol\":1130:1132  32 */\n      0x20\n        /* \"@chainlink/contracts/src/v0.8/vendor/@ensdomains/buffer/v0.1.0/Buffer.sol\":1119:1127  capacity */\n      dup4\n        /* \"@chainlink/contracts/src/v0.8/vendor/@ensdomains/buffer/v0.1.0/Buffer.sol\":1119:1132  capacity % 32 */\n      tag_396\n      jump\t// in\n    tag_395:\n        /* \"@chainlink/contracts/src/v0.8/vendor/@ensdomains/buffer/v0.1.0/Buffer.sol\":1119:1137  capacity % 32 != 0 */\n      iszero\n        /* \"@chainlink/contracts/src/v0.8/vendor/@ensdomains/buffer/v0.1.0/Buffer.sol\":1115:1196  if (capacity % 32 != 0) {... */\n      tag_397\n      jumpi\n        /* \"@chainlink/contracts/src/v0.8/vendor/@ensdomains/buffer/v0.1.0/Buffer.sol\":1171:1184  capacity % 32 */\n      tag_398\n        /* \"@chainlink/contracts/src/v0.8/vendor/@ensdomains/buffer/v0.1.0/Buffer.sol\":1182:1184  32 */\n      0x20\n        /* \"@chainlink/contracts/src/v0.8/vendor/@ensdomains/buffer/v0.1.0/Buffer.sol\":1171:1179  capacity */\n      dup4\n        /* \"@chainlink/contracts/src/v0.8/vendor/@ensdomains/buffer/v0.1.0/Buffer.sol\":1171:1184  capacity % 32 */\n      tag_396\n      jump\t// in\n    tag_398:\n        /* \"@chainlink/contracts/src/v0.8/vendor/@ensdomains/buffer/v0.1.0/Buffer.sol\":1165:1185  32 - (capacity % 32) */\n      tag_399\n      swap1\n        /* \"@chainlink/contracts/src/v0.8/vendor/@ensdomains/buffer/v0.1.0/Buffer.sol\":1165:1167  32 */\n      0x20\n        /* \"@chainlink/contracts/src/v0.8/vendor/@ensdomains/buffer/v0.1.0/Buffer.sol\":1165:1185  32 - (capacity % 32) */\n      tag_157\n      jump\t// in\n    tag_399:\n        /* \"@chainlink/contracts/src/v0.8/vendor/@ensdomains/buffer/v0.1.0/Buffer.sol\":1153:1185  capacity += 32 - (capacity % 32) */\n      tag_400\n      swap1\n      dup4\n      tag_163\n      jump\t// in\n    tag_400:\n      swap2\n      pop\n        /* \"@chainlink/contracts/src/v0.8/vendor/@ensdomains/buffer/v0.1.0/Buffer.sol\":1115:1196  if (capacity % 32 != 0) {... */\n    tag_397:\n        /* \"@chainlink/contracts/src/v0.8/vendor/@ensdomains/buffer/v0.1.0/Buffer.sol\":1251:1263  buf.capacity */\n      0x20\n      dup1\n      dup5\n      add\n        /* \"@chainlink/contracts/src/v0.8/vendor/@ensdomains/buffer/v0.1.0/Buffer.sol\":1251:1274  buf.capacity = capacity */\n      dup4\n      swap1\n      mstore\n        /* \"@chainlink/contracts/src/v0.8/vendor/@ensdomains/buffer/v0.1.0/Buffer.sol\":1324:1328  0x40 */\n      0x40\n        /* \"@chainlink/contracts/src/v0.8/vendor/@ensdomains/buffer/v0.1.0/Buffer.sol\":1318:1329  mload(0x40) */\n      mload\n        /* \"@chainlink/contracts/src/v0.8/vendor/@ensdomains/buffer/v0.1.0/Buffer.sol\":1342:1358  mstore(buf, ptr) */\n      dup1\n      dup6\n      mstore\n      0x00\n        /* \"@chainlink/contracts/src/v0.8/vendor/@ensdomains/buffer/v0.1.0/Buffer.sol\":1371:1385  mstore(ptr, 0) */\n      dup2\n      mstore\n        /* \"@chainlink/contracts/src/v0.8/vendor/@ensdomains/buffer/v0.1.0/Buffer.sol\":1318:1329  mload(0x40) */\n      swap1\n        /* \"@chainlink/contracts/src/v0.8/vendor/@ensdomains/buffer/v0.1.0/Buffer.sol\":1417:1435  add(ptr, capacity) */\n      dup2\n      dup5\n      add\n        /* \"@chainlink/contracts/src/v0.8/vendor/@ensdomains/buffer/v0.1.0/Buffer.sol\":1409:1436  add(32, add(ptr, capacity)) */\n      add\n        /* \"@chainlink/contracts/src/v0.8/vendor/@ensdomains/buffer/v0.1.0/Buffer.sol\":1452:1464  lt(fpm, ptr) */\n      dup2\n      dup2\n      lt\n        /* \"@chainlink/contracts/src/v0.8/vendor/@ensdomains/buffer/v0.1.0/Buffer.sol\":1449:1509  if lt(fpm, ptr) {... */\n      iszero\n      tag_401\n      jumpi\n        /* \"@chainlink/contracts/src/v0.8/vendor/@ensdomains/buffer/v0.1.0/Buffer.sol\":1493:1494  0 */\n      0x00\n        /* \"@chainlink/contracts/src/v0.8/vendor/@ensdomains/buffer/v0.1.0/Buffer.sol\":1490:1491  0 */\n      dup1\n        /* \"@chainlink/contracts/src/v0.8/vendor/@ensdomains/buffer/v0.1.0/Buffer.sol\":1483:1495  revert(0, 0) */\n      revert\n        /* \"@chainlink/contracts/src/v0.8/vendor/@ensdomains/buffer/v0.1.0/Buffer.sol\":1449:1509  if lt(fpm, ptr) {... */\n    tag_401:\n        /* \"@chainlink/contracts/src/v0.8/vendor/@ensdomains/buffer/v0.1.0/Buffer.sol\":1529:1533  0x40 */\n      0x40\n        /* \"@chainlink/contracts/src/v0.8/vendor/@ensdomains/buffer/v0.1.0/Buffer.sol\":1522:1539  mstore(0x40, fpm) */\n      mstore\n      pop\n        /* \"@chainlink/contracts/src/v0.8/vendor/@ensdomains/buffer/v0.1.0/Buffer.sol\":1565:1568  buf */\n      swap2\n      swap3\n        /* \"@chainlink/contracts/src/v0.8/vendor/@ensdomains/buffer/v0.1.0/Buffer.sol\":1020:1575  function init(buffer memory buf, uint capacity) internal pure returns(buffer memory) {... */\n      swap2\n      pop\n      pop\n      jump\t// out\n        /* \"@chainlink/contracts/src/v0.8/vendor/solidity-cborutils/v2.0.0/CBOR.sol\":6156:6915  function writeFixedNumeric(... */\n    tag_374:\n        /* \"@chainlink/contracts/src/v0.8/vendor/solidity-cborutils/v2.0.0/CBOR.sol\":6299:6301  23 */\n      0x17\n        /* \"@chainlink/contracts/src/v0.8/vendor/solidity-cborutils/v2.0.0/CBOR.sol\":6290:6295  value */\n      dup2\n      sub(shl(0x40, 0x01), 0x01)\n        /* \"@chainlink/contracts/src/v0.8/vendor/solidity-cborutils/v2.0.0/CBOR.sol\":6290:6301  value <= 23 */\n      and\n      gt\n        /* \"@chainlink/contracts/src/v0.8/vendor/solidity-cborutils/v2.0.0/CBOR.sol\":6286:6909  if (value <= 23) {... */\n      tag_403\n      jumpi\n        /* \"@chainlink/contracts/src/v0.8/vendor/solidity-cborutils/v2.0.0/CBOR.sol\":6317:6324  buf.buf */\n      dup3\n      mload\n        /* \"@chainlink/contracts/src/v0.8/vendor/solidity-cborutils/v2.0.0/CBOR.sol\":6317:6365  buf.buf.appendUint8(uint8((major << 5) | value)) */\n      tag_404\n      swap1\n        /* \"@chainlink/contracts/src/v0.8/vendor/solidity-cborutils/v2.0.0/CBOR.sol\":6343:6363  (major << 5) | value */\n      0xe0\n        /* \"@chainlink/contracts/src/v0.8/vendor/solidity-cborutils/v2.0.0/CBOR.sol\":6353:6354  5 */\n      0x05\n        /* \"@chainlink/contracts/src/v0.8/vendor/solidity-cborutils/v2.0.0/CBOR.sol\":6344:6354  major << 5 */\n      dup6\n      swap1\n      shl\n        /* \"@chainlink/contracts/src/v0.8/vendor/solidity-cborutils/v2.0.0/CBOR.sol\":6343:6363  (major << 5) | value */\n      and\n      dup4\n      or\n        /* \"@chainlink/contracts/src/v0.8/vendor/solidity-cborutils/v2.0.0/CBOR.sol\":6317:6336  buf.buf.appendUint8 */\n      tag_379\n        /* \"@chainlink/contracts/src/v0.8/vendor/solidity-cborutils/v2.0.0/CBOR.sol\":6317:6365  buf.buf.appendUint8(uint8((major << 5) | value)) */\n      jump\t// in\n    tag_404:\n      pop\n        /* \"@chainlink/contracts/src/v0.8/vendor/solidity-cborutils/v2.0.0/CBOR.sol\":3190:3218  buf.buf.append(bytes(value)) */\n      pop\n        /* \"@chainlink/contracts/src/v0.8/vendor/solidity-cborutils/v2.0.0/CBOR.sol\":3021:3225  function writeString(CBORBuffer memory buf, string memory value) internal pure {... */\n      pop\n      pop\n      jump\t// out\n        /* \"@chainlink/contracts/src/v0.8/vendor/solidity-cborutils/v2.0.0/CBOR.sol\":6286:6909  if (value <= 23) {... */\n    tag_403:\n        /* \"@chainlink/contracts/src/v0.8/vendor/solidity-cborutils/v2.0.0/CBOR.sol\":6395:6399  0xFF */\n      0xff\n        /* \"@chainlink/contracts/src/v0.8/vendor/solidity-cborutils/v2.0.0/CBOR.sol\":6386:6391  value */\n      dup2\n      sub(shl(0x40, 0x01), 0x01)\n        /* \"@chainlink/contracts/src/v0.8/vendor/solidity-cborutils/v2.0.0/CBOR.sol\":6386:6399  value <= 0xFF */\n      and\n      gt\n        /* \"@chainlink/contracts/src/v0.8/vendor/solidity-cborutils/v2.0.0/CBOR.sol\":6382:6909  if (value <= 0xFF) {... */\n      tag_406\n      jumpi\n        /* \"@chainlink/contracts/src/v0.8/vendor/solidity-cborutils/v2.0.0/CBOR.sol\":6415:6422  buf.buf */\n      dup3\n      mload\n        /* \"@chainlink/contracts/src/v0.8/vendor/solidity-cborutils/v2.0.0/CBOR.sol\":6415:6460  buf.buf.appendUint8(uint8((major << 5) | 24)) */\n      tag_407\n      swap1\n        /* \"@chainlink/contracts/src/v0.8/vendor/solidity-cborutils/v2.0.0/CBOR.sol\":6456:6458  24 */\n      0x18\n        /* \"@chainlink/contracts/src/v0.8/vendor/solidity-cborutils/v2.0.0/CBOR.sol\":6442:6452  major << 5 */\n      0x1fe0\n        /* \"@chainlink/contracts/src/v0.8/vendor/solidity-cborutils/v2.0.0/CBOR.sol\":6451:6452  5 */\n      0x05\n        /* \"@chainlink/contracts/src/v0.8/vendor/solidity-cborutils/v2.0.0/CBOR.sol\":6442:6452  major << 5 */\n      dup7\n      swap1\n      shl\n      and\n        /* \"@chainlink/contracts/src/v0.8/vendor/solidity-cborutils/v2.0.0/CBOR.sol\":6441:6458  (major << 5) | 24 */\n      or\n        /* \"@chainlink/contracts/src/v0.8/vendor/solidity-cborutils/v2.0.0/CBOR.sol\":6415:6434  buf.buf.appendUint8 */\n      tag_379\n        /* \"@chainlink/contracts/src/v0.8/vendor/solidity-cborutils/v2.0.0/CBOR.sol\":6415:6460  buf.buf.appendUint8(uint8((major << 5) | 24)) */\n      jump\t// in\n    tag_407:\n      pop\n        /* \"@chainlink/contracts/src/v0.8/vendor/solidity-cborutils/v2.0.0/CBOR.sol\":6474:6481  buf.buf */\n      dup3\n      mload\n        /* \"@chainlink/contracts/src/v0.8/vendor/solidity-cborutils/v2.0.0/CBOR.sol\":6474:6501  buf.buf.appendInt(value, 1) */\n      tag_404\n      swap1\n      sub(shl(0x40, 0x01), 0x01)\n      dup4\n      and\n        /* \"@chainlink/contracts/src/v0.8/vendor/solidity-cborutils/v2.0.0/CBOR.sol\":6499:6500  1 */\n      0x01\n        /* \"@chainlink/contracts/src/v0.8/vendor/solidity-cborutils/v2.0.0/CBOR.sol\":6474:6491  buf.buf.appendInt */\n      tag_409\n        /* \"@chainlink/contracts/src/v0.8/vendor/solidity-cborutils/v2.0.0/CBOR.sol\":6474:6501  buf.buf.appendInt(value, 1) */\n      jump\t// in\n        /* \"@chainlink/contracts/src/v0.8/vendor/solidity-cborutils/v2.0.0/CBOR.sol\":6382:6909  if (value <= 0xFF) {... */\n    tag_406:\n        /* \"@chainlink/contracts/src/v0.8/vendor/solidity-cborutils/v2.0.0/CBOR.sol\":6531:6537  0xFFFF */\n      0xffff\n        /* \"@chainlink/contracts/src/v0.8/vendor/solidity-cborutils/v2.0.0/CBOR.sol\":6522:6527  value */\n      dup2\n      sub(shl(0x40, 0x01), 0x01)\n        /* \"@chainlink/contracts/src/v0.8/vendor/solidity-cborutils/v2.0.0/CBOR.sol\":6522:6537  value <= 0xFFFF */\n      and\n      gt\n        /* \"@chainlink/contracts/src/v0.8/vendor/solidity-cborutils/v2.0.0/CBOR.sol\":6518:6909  if (value <= 0xFFFF) {... */\n      tag_411\n      jumpi\n        /* \"@chainlink/contracts/src/v0.8/vendor/solidity-cborutils/v2.0.0/CBOR.sol\":6553:6560  buf.buf */\n      dup3\n      mload\n        /* \"@chainlink/contracts/src/v0.8/vendor/solidity-cborutils/v2.0.0/CBOR.sol\":6553:6598  buf.buf.appendUint8(uint8((major << 5) | 25)) */\n      tag_412\n      swap1\n        /* \"@chainlink/contracts/src/v0.8/vendor/solidity-cborutils/v2.0.0/CBOR.sol\":6594:6596  25 */\n      0x19\n        /* \"@chainlink/contracts/src/v0.8/vendor/solidity-cborutils/v2.0.0/CBOR.sol\":6580:6590  major << 5 */\n      0x1fe0\n        /* \"@chainlink/contracts/src/v0.8/vendor/solidity-cborutils/v2.0.0/CBOR.sol\":6589:6590  5 */\n      0x05\n        /* \"@chainlink/contracts/src/v0.8/vendor/solidity-cborutils/v2.0.0/CBOR.sol\":6580:6590  major << 5 */\n      dup7\n      swap1\n      shl\n      and\n        /* \"@chainlink/contracts/src/v0.8/vendor/solidity-cborutils/v2.0.0/CBOR.sol\":6579:6596  (major << 5) | 25 */\n      or\n        /* \"@chainlink/contracts/src/v0.8/vendor/solidity-cborutils/v2.0.0/CBOR.sol\":6553:6572  buf.buf.appendUint8 */\n      tag_379\n        /* \"@chainlink/contracts/src/v0.8/vendor/solidity-cborutils/v2.0.0/CBOR.sol\":6553:6598  buf.buf.appendUint8(uint8((major << 5) | 25)) */\n      jump\t// in\n    tag_412:\n      pop\n        /* \"@chainlink/contracts/src/v0.8/vendor/solidity-cborutils/v2.0.0/CBOR.sol\":6612:6619  buf.buf */\n      dup3\n      mload\n        /* \"@chainlink/contracts/src/v0.8/vendor/solidity-cborutils/v2.0.0/CBOR.sol\":6612:6639  buf.buf.appendInt(value, 2) */\n      tag_404\n      swap1\n      sub(shl(0x40, 0x01), 0x01)\n      dup4\n      and\n        /* \"@chainlink/contracts/src/v0.8/vendor/solidity-cborutils/v2.0.0/CBOR.sol\":6637:6638  2 */\n      0x02\n        /* \"@chainlink/contracts/src/v0.8/vendor/solidity-cborutils/v2.0.0/CBOR.sol\":6612:6629  buf.buf.appendInt */\n      tag_409\n        /* \"@chainlink/contracts/src/v0.8/vendor/solidity-cborutils/v2.0.0/CBOR.sol\":6612:6639  buf.buf.appendInt(value, 2) */\n      jump\t// in\n        /* \"@chainlink/contracts/src/v0.8/vendor/solidity-cborutils/v2.0.0/CBOR.sol\":6518:6909  if (value <= 0xFFFF) {... */\n    tag_411:\n        /* \"@chainlink/contracts/src/v0.8/vendor/solidity-cborutils/v2.0.0/CBOR.sol\":6669:6679  0xFFFFFFFF */\n      0xffffffff\n        /* \"@chainlink/contracts/src/v0.8/vendor/solidity-cborutils/v2.0.0/CBOR.sol\":6660:6665  value */\n      dup2\n      sub(shl(0x40, 0x01), 0x01)\n        /* \"@chainlink/contracts/src/v0.8/vendor/solidity-cborutils/v2.0.0/CBOR.sol\":6660:6679  value <= 0xFFFFFFFF */\n      and\n      gt\n        /* \"@chainlink/contracts/src/v0.8/vendor/solidity-cborutils/v2.0.0/CBOR.sol\":6656:6909  if (value <= 0xFFFFFFFF) {... */\n      tag_415\n      jumpi\n        /* \"@chainlink/contracts/src/v0.8/vendor/solidity-cborutils/v2.0.0/CBOR.sol\":6695:6702  buf.buf */\n      dup3\n      mload\n        /* \"@chainlink/contracts/src/v0.8/vendor/solidity-cborutils/v2.0.0/CBOR.sol\":6695:6740  buf.buf.appendUint8(uint8((major << 5) | 26)) */\n      tag_416\n      swap1\n        /* \"@chainlink/contracts/src/v0.8/vendor/solidity-cborutils/v2.0.0/CBOR.sol\":6736:6738  26 */\n      0x1a\n        /* \"@chainlink/contracts/src/v0.8/vendor/solidity-cborutils/v2.0.0/CBOR.sol\":6722:6732  major << 5 */\n      0x1fe0\n        /* \"@chainlink/contracts/src/v0.8/vendor/solidity-cborutils/v2.0.0/CBOR.sol\":6731:6732  5 */\n      0x05\n        /* \"@chainlink/contracts/src/v0.8/vendor/solidity-cborutils/v2.0.0/CBOR.sol\":6722:6732  major << 5 */\n      dup7\n      swap1\n      shl\n      and\n        /* \"@chainlink/contracts/src/v0.8/vendor/solidity-cborutils/v2.0.0/CBOR.sol\":6721:6738  (major << 5) | 26 */\n      or\n        /* \"@chainlink/contracts/src/v0.8/vendor/solidity-cborutils/v2.0.0/CBOR.sol\":6695:6714  buf.buf.appendUint8 */\n      tag_379\n        /* \"@chainlink/contracts/src/v0.8/vendor/solidity-cborutils/v2.0.0/CBOR.sol\":6695:6740  buf.buf.appendUint8(uint8((major << 5) | 26)) */\n      jump\t// in\n    tag_416:\n      pop\n        /* \"@chainlink/contracts/src/v0.8/vendor/solidity-cborutils/v2.0.0/CBOR.sol\":6754:6761  buf.buf */\n      dup3\n      mload\n        /* \"@chainlink/contracts/src/v0.8/vendor/solidity-cborutils/v2.0.0/CBOR.sol\":6754:6781  buf.buf.appendInt(value, 4) */\n      tag_404\n      swap1\n      sub(shl(0x40, 0x01), 0x01)\n      dup4\n      and\n        /* \"@chainlink/contracts/src/v0.8/vendor/solidity-cborutils/v2.0.0/CBOR.sol\":6779:6780  4 */\n      0x04\n        /* \"@chainlink/contracts/src/v0.8/vendor/solidity-cborutils/v2.0.0/CBOR.sol\":6754:6771  buf.buf.appendInt */\n      tag_409\n        /* \"@chainlink/contracts/src/v0.8/vendor/solidity-cborutils/v2.0.0/CBOR.sol\":6754:6781  buf.buf.appendInt(value, 4) */\n      jump\t// in\n        /* \"@chainlink/contracts/src/v0.8/vendor/solidity-cborutils/v2.0.0/CBOR.sol\":6656:6909  if (value <= 0xFFFFFFFF) {... */\n    tag_415:\n        /* \"@chainlink/contracts/src/v0.8/vendor/solidity-cborutils/v2.0.0/CBOR.sol\":6812:6819  buf.buf */\n      dup3\n      mload\n        /* \"@chainlink/contracts/src/v0.8/vendor/solidity-cborutils/v2.0.0/CBOR.sol\":6812:6857  buf.buf.appendUint8(uint8((major << 5) | 27)) */\n      tag_419\n      swap1\n        /* \"@chainlink/contracts/src/v0.8/vendor/solidity-cborutils/v2.0.0/CBOR.sol\":6853:6855  27 */\n      0x1b\n        /* \"@chainlink/contracts/src/v0.8/vendor/solidity-cborutils/v2.0.0/CBOR.sol\":6839:6849  major << 5 */\n      0x1fe0\n        /* \"@chainlink/contracts/src/v0.8/vendor/solidity-cborutils/v2.0.0/CBOR.sol\":6848:6849  5 */\n      0x05\n        /* \"@chainlink/contracts/src/v0.8/vendor/solidity-cborutils/v2.0.0/CBOR.sol\":6839:6849  major << 5 */\n      dup7\n      swap1\n      shl\n      and\n        /* \"@chainlink/contracts/src/v0.8/vendor/solidity-cborutils/v2.0.0/CBOR.sol\":6838:6855  (major << 5) | 27 */\n      or\n        /* \"@chainlink/contracts/src/v0.8/vendor/solidity-cborutils/v2.0.0/CBOR.sol\":6812:6831  buf.buf.appendUint8 */\n      tag_379\n        /* \"@chainlink/contracts/src/v0.8/vendor/solidity-cborutils/v2.0.0/CBOR.sol\":6812:6857  buf.buf.appendUint8(uint8((major << 5) | 27)) */\n      jump\t// in\n    tag_419:\n      pop\n        /* \"@chainlink/contracts/src/v0.8/vendor/solidity-cborutils/v2.0.0/CBOR.sol\":6871:6878  buf.buf */\n      dup3\n      mload\n        /* \"@chainlink/contracts/src/v0.8/vendor/solidity-cborutils/v2.0.0/CBOR.sol\":6871:6898  buf.buf.appendInt(value, 8) */\n      tag_404\n      swap1\n      sub(shl(0x40, 0x01), 0x01)\n      dup4\n      and\n        /* \"@chainlink/contracts/src/v0.8/vendor/solidity-cborutils/v2.0.0/CBOR.sol\":6896:6897  8 */\n      0x08\n        /* \"@chainlink/contracts/src/v0.8/vendor/solidity-cborutils/v2.0.0/CBOR.sol\":6871:6888  buf.buf.appendInt */\n      tag_409\n        /* \"@chainlink/contracts/src/v0.8/vendor/solidity-cborutils/v2.0.0/CBOR.sol\":6871:6898  buf.buf.appendInt(value, 8) */\n      jump\t// in\n        /* \"@chainlink/contracts/src/v0.8/vendor/@ensdomains/buffer/v0.1.0/Buffer.sol\":4539:4685  function append(buffer memory buf, bytes memory data) internal pure returns (buffer memory) {... */\n    tag_376:\n      0x40\n      dup1\n      mload\n      dup1\n      dup3\n      add\n      swap1\n      swap2\n      mstore\n      0x60\n      dup2\n      mstore\n      0x00\n      0x20\n      dup3\n      add\n      mstore\n        /* \"@chainlink/contracts/src/v0.8/vendor/@ensdomains/buffer/v0.1.0/Buffer.sol\":4648:4678  append(buf, data, data.length) */\n      tag_423\n        /* \"@chainlink/contracts/src/v0.8/vendor/@ensdomains/buffer/v0.1.0/Buffer.sol\":4655:4658  buf */\n      dup4\n        /* \"@chainlink/contracts/src/v0.8/vendor/@ensdomains/buffer/v0.1.0/Buffer.sol\":4660:4664  data */\n      dup4\n        /* \"@chainlink/contracts/src/v0.8/vendor/@ensdomains/buffer/v0.1.0/Buffer.sol\":4666:4670  data */\n      dup5\n        /* \"@chainlink/contracts/src/v0.8/vendor/@ensdomains/buffer/v0.1.0/Buffer.sol\":4666:4677  data.length */\n      mload\n        /* \"@chainlink/contracts/src/v0.8/vendor/@ensdomains/buffer/v0.1.0/Buffer.sol\":4648:4654  append */\n      tag_424\n        /* \"@chainlink/contracts/src/v0.8/vendor/@ensdomains/buffer/v0.1.0/Buffer.sol\":4648:4678  append(buf, data, data.length) */\n      jump\t// in\n    tag_423:\n        /* \"@chainlink/contracts/src/v0.8/vendor/@ensdomains/buffer/v0.1.0/Buffer.sol\":4641:4678  return append(buf, data, data.length) */\n      swap4\n        /* \"@chainlink/contracts/src/v0.8/vendor/@ensdomains/buffer/v0.1.0/Buffer.sol\":4539:4685  function append(buffer memory buf, bytes memory data) internal pure returns (buffer memory) {... */\n      swap3\n      pop\n      pop\n      pop\n      jump\t// out\n        /* \"@chainlink/contracts/src/v0.8/vendor/@ensdomains/buffer/v0.1.0/Buffer.sol\":4948:5647  function appendUint8(buffer memory buf, uint8 data) internal pure returns(buffer memory) {... */\n    tag_379:\n      0x40\n      dup1\n      mload\n      dup1\n      dup3\n      add\n      swap1\n      swap2\n      mstore\n      0x60\n      dup2\n      mstore\n      0x00\n      0x20\n      dup3\n      add\n      mstore\n        /* \"@chainlink/contracts/src/v0.8/vendor/@ensdomains/buffer/v0.1.0/Buffer.sol\":5058:5065  buf.buf */\n      dup3\n      mload\n        /* \"@chainlink/contracts/src/v0.8/vendor/@ensdomains/buffer/v0.1.0/Buffer.sol\":5058:5072  buf.buf.length */\n      mload\n        /* \"@chainlink/contracts/src/v0.8/vendor/@ensdomains/buffer/v0.1.0/Buffer.sol\":5047:5055  uint off */\n      0x00\n        /* \"@chainlink/contracts/src/v0.8/vendor/@ensdomains/buffer/v0.1.0/Buffer.sol\":5100:5107  off + 1 */\n      tag_427\n        /* \"@chainlink/contracts/src/v0.8/vendor/@ensdomains/buffer/v0.1.0/Buffer.sol\":5058:5072  buf.buf.length */\n      dup3\n        /* \"@chainlink/contracts/src/v0.8/vendor/@ensdomains/buffer/v0.1.0/Buffer.sol\":5106:5107  1 */\n      0x01\n        /* \"@chainlink/contracts/src/v0.8/vendor/@ensdomains/buffer/v0.1.0/Buffer.sol\":5100:5107  off + 1 */\n      tag_163\n      jump\t// in\n    tag_427:\n        /* \"@chainlink/contracts/src/v0.8/vendor/@ensdomains/buffer/v0.1.0/Buffer.sol\":5082:5107  uint offPlusOne = off + 1 */\n      swap1\n      pop\n        /* \"@chainlink/contracts/src/v0.8/vendor/@ensdomains/buffer/v0.1.0/Buffer.sol\":5128:5131  buf */\n      dup5\n        /* \"@chainlink/contracts/src/v0.8/vendor/@ensdomains/buffer/v0.1.0/Buffer.sol\":5128:5140  buf.capacity */\n      0x20\n      add\n      mload\n        /* \"@chainlink/contracts/src/v0.8/vendor/@ensdomains/buffer/v0.1.0/Buffer.sol\":5121:5124  off */\n      dup3\n        /* \"@chainlink/contracts/src/v0.8/vendor/@ensdomains/buffer/v0.1.0/Buffer.sol\":5121:5140  off >= buf.capacity */\n      lt\n        /* \"@chainlink/contracts/src/v0.8/vendor/@ensdomains/buffer/v0.1.0/Buffer.sol\":5117:5194  if (off >= buf.capacity) {... */\n      tag_429\n      jumpi\n        /* \"@chainlink/contracts/src/v0.8/vendor/@ensdomains/buffer/v0.1.0/Buffer.sol\":5156:5183  resize(buf, offPlusOne * 2) */\n      tag_429\n        /* \"@chainlink/contracts/src/v0.8/vendor/@ensdomains/buffer/v0.1.0/Buffer.sol\":5163:5166  buf */\n      dup6\n        /* \"@chainlink/contracts/src/v0.8/vendor/@ensdomains/buffer/v0.1.0/Buffer.sol\":5168:5182  offPlusOne * 2 */\n      tag_430\n        /* \"@chainlink/contracts/src/v0.8/vendor/@ensdomains/buffer/v0.1.0/Buffer.sol\":5168:5178  offPlusOne */\n      dup4\n        /* \"@chainlink/contracts/src/v0.8/vendor/@ensdomains/buffer/v0.1.0/Buffer.sol\":5181:5182  2 */\n      0x02\n        /* \"@chainlink/contracts/src/v0.8/vendor/@ensdomains/buffer/v0.1.0/Buffer.sol\":5168:5182  offPlusOne * 2 */\n      tag_431\n      jump\t// in\n    tag_430:\n        /* \"@chainlink/contracts/src/v0.8/vendor/@ensdomains/buffer/v0.1.0/Buffer.sol\":5156:5162  resize */\n      tag_432\n        /* \"@chainlink/contracts/src/v0.8/vendor/@ensdomains/buffer/v0.1.0/Buffer.sol\":5156:5183  resize(buf, offPlusOne * 2) */\n      jump\t// in\n    tag_429:\n        /* \"@chainlink/contracts/src/v0.8/vendor/@ensdomains/buffer/v0.1.0/Buffer.sol\":5296:5299  buf */\n      dup5\n        /* \"@chainlink/contracts/src/v0.8/vendor/@ensdomains/buffer/v0.1.0/Buffer.sol\":5290:5300  mload(buf) */\n      mload\n        /* \"@chainlink/contracts/src/v0.8/vendor/@ensdomains/buffer/v0.1.0/Buffer.sol\":5417:5419  32 */\n      0x20\n        /* \"@chainlink/contracts/src/v0.8/vendor/@ensdomains/buffer/v0.1.0/Buffer.sol\":5411:5414  off */\n      dup4\n        /* \"@chainlink/contracts/src/v0.8/vendor/@ensdomains/buffer/v0.1.0/Buffer.sol\":5403:5409  bufptr */\n      dup3\n        /* \"@chainlink/contracts/src/v0.8/vendor/@ensdomains/buffer/v0.1.0/Buffer.sol\":5399:5415  add(bufptr, off) */\n      add\n        /* \"@chainlink/contracts/src/v0.8/vendor/@ensdomains/buffer/v0.1.0/Buffer.sol\":5395:5420  add(add(bufptr, off), 32) */\n      add\n        /* \"@chainlink/contracts/src/v0.8/vendor/@ensdomains/buffer/v0.1.0/Buffer.sol\":5447:5451  data */\n      dup6\n        /* \"@chainlink/contracts/src/v0.8/vendor/@ensdomains/buffer/v0.1.0/Buffer.sol\":5441:5445  dest */\n      dup2\n        /* \"@chainlink/contracts/src/v0.8/vendor/@ensdomains/buffer/v0.1.0/Buffer.sol\":5433:5452  mstore8(dest, data) */\n      mstore8\n      pop\n        /* \"@chainlink/contracts/src/v0.8/vendor/@ensdomains/buffer/v0.1.0/Buffer.sol\":5543:5549  bufptr */\n      dup1\n        /* \"@chainlink/contracts/src/v0.8/vendor/@ensdomains/buffer/v0.1.0/Buffer.sol\":5537:5550  mload(bufptr) */\n      mload\n        /* \"@chainlink/contracts/src/v0.8/vendor/@ensdomains/buffer/v0.1.0/Buffer.sol\":5525:5535  offPlusOne */\n      dup3\n        /* \"@chainlink/contracts/src/v0.8/vendor/@ensdomains/buffer/v0.1.0/Buffer.sol\":5522:5551  gt(offPlusOne, mload(bufptr)) */\n      gt\n        /* \"@chainlink/contracts/src/v0.8/vendor/@ensdomains/buffer/v0.1.0/Buffer.sol\":5519:5610  if gt(offPlusOne, mload(bufptr)) {... */\n      iszero\n      tag_433\n      jumpi\n        /* \"@chainlink/contracts/src/v0.8/vendor/@ensdomains/buffer/v0.1.0/Buffer.sol\":5585:5595  offPlusOne */\n      dup2\n        /* \"@chainlink/contracts/src/v0.8/vendor/@ensdomains/buffer/v0.1.0/Buffer.sol\":5577:5583  bufptr */\n      dup2\n        /* \"@chainlink/contracts/src/v0.8/vendor/@ensdomains/buffer/v0.1.0/Buffer.sol\":5570:5596  mstore(bufptr, offPlusOne) */\n      mstore\n        /* \"@chainlink/contracts/src/v0.8/vendor/@ensdomains/buffer/v0.1.0/Buffer.sol\":5519:5610  if gt(offPlusOne, mload(bufptr)) {... */\n    tag_433:\n      pop\n        /* \"@chainlink/contracts/src/v0.8/vendor/@ensdomains/buffer/v0.1.0/Buffer.sol\":5637:5640  buf */\n      swap4\n      swap5\n        /* \"@chainlink/contracts/src/v0.8/vendor/@ensdomains/buffer/v0.1.0/Buffer.sol\":4948:5647  function appendUint8(buffer memory buf, uint8 data) internal pure returns(buffer memory) {... */\n      swap4\n      pop\n      pop\n      pop\n      pop\n      jump\t// out\n        /* \"@chainlink/contracts/src/v0.8/vendor/solidity-cborutils/v2.0.0/CBOR.sol\":6921:7087  function writeIndefiniteLengthType(CBORBuffer memory buf, uint8 major)... */\n    tag_384:\n        /* \"@chainlink/contracts/src/v0.8/vendor/solidity-cborutils/v2.0.0/CBOR.sol\":7035:7042  buf.buf */\n      dup2\n      mload\n        /* \"@chainlink/contracts/src/v0.8/vendor/solidity-cborutils/v2.0.0/CBOR.sol\":7035:7080  buf.buf.appendUint8(uint8((major << 5) | 31)) */\n      tag_375\n      swap1\n        /* \"@chainlink/contracts/src/v0.8/vendor/solidity-cborutils/v2.0.0/CBOR.sol\":7076:7078  31 */\n      0x1f\n        /* \"@chainlink/contracts/src/v0.8/vendor/solidity-cborutils/v2.0.0/CBOR.sol\":7062:7072  major << 5 */\n      0x1fe0\n        /* \"@chainlink/contracts/src/v0.8/vendor/solidity-cborutils/v2.0.0/CBOR.sol\":7071:7072  5 */\n      0x05\n        /* \"@chainlink/contracts/src/v0.8/vendor/solidity-cborutils/v2.0.0/CBOR.sol\":7062:7072  major << 5 */\n      dup6\n      swap1\n      shl\n      and\n        /* \"@chainlink/contracts/src/v0.8/vendor/solidity-cborutils/v2.0.0/CBOR.sol\":7061:7078  (major << 5) | 31 */\n      or\n        /* \"@chainlink/contracts/src/v0.8/vendor/solidity-cborutils/v2.0.0/CBOR.sol\":7035:7054  buf.buf.appendUint8 */\n      tag_379\n        /* \"@chainlink/contracts/src/v0.8/vendor/solidity-cborutils/v2.0.0/CBOR.sol\":7035:7080  buf.buf.appendUint8(uint8((major << 5) | 31)) */\n      jump\t// in\n        /* \"@chainlink/contracts/src/v0.8/vendor/@ensdomains/buffer/v0.1.0/Buffer.sol\":8083:8878  function appendInt(buffer memory buf, uint data, uint len) internal pure returns(buffer memory) {... */\n    tag_409:\n      0x40\n      dup1\n      mload\n      dup1\n      dup3\n      add\n      swap1\n      swap2\n      mstore\n      0x60\n      dup2\n      mstore\n      0x00\n      0x20\n      dup3\n      add\n      mstore\n        /* \"@chainlink/contracts/src/v0.8/vendor/@ensdomains/buffer/v0.1.0/Buffer.sol\":8200:8207  buf.buf */\n      dup4\n      mload\n        /* \"@chainlink/contracts/src/v0.8/vendor/@ensdomains/buffer/v0.1.0/Buffer.sol\":8200:8214  buf.buf.length */\n      mload\n        /* \"@chainlink/contracts/src/v0.8/vendor/@ensdomains/buffer/v0.1.0/Buffer.sol\":8189:8197  uint off */\n      0x00\n        /* \"@chainlink/contracts/src/v0.8/vendor/@ensdomains/buffer/v0.1.0/Buffer.sol\":8243:8252  len + off */\n      tag_438\n        /* \"@chainlink/contracts/src/v0.8/vendor/@ensdomains/buffer/v0.1.0/Buffer.sol\":8200:8214  buf.buf.length */\n      dup3\n        /* \"@chainlink/contracts/src/v0.8/vendor/@ensdomains/buffer/v0.1.0/Buffer.sol\":8243:8246  len */\n      dup6\n        /* \"@chainlink/contracts/src/v0.8/vendor/@ensdomains/buffer/v0.1.0/Buffer.sol\":8243:8252  len + off */\n      tag_163\n      jump\t// in\n    tag_438:\n        /* \"@chainlink/contracts/src/v0.8/vendor/@ensdomains/buffer/v0.1.0/Buffer.sol\":8224:8252  uint newCapacity = len + off */\n      swap1\n      pop\n        /* \"@chainlink/contracts/src/v0.8/vendor/@ensdomains/buffer/v0.1.0/Buffer.sol\":8280:8283  buf */\n      dup6\n        /* \"@chainlink/contracts/src/v0.8/vendor/@ensdomains/buffer/v0.1.0/Buffer.sol\":8280:8292  buf.capacity */\n      0x20\n      add\n      mload\n        /* \"@chainlink/contracts/src/v0.8/vendor/@ensdomains/buffer/v0.1.0/Buffer.sol\":8266:8277  newCapacity */\n      dup2\n        /* \"@chainlink/contracts/src/v0.8/vendor/@ensdomains/buffer/v0.1.0/Buffer.sol\":8266:8292  newCapacity > buf.capacity */\n      gt\n        /* \"@chainlink/contracts/src/v0.8/vendor/@ensdomains/buffer/v0.1.0/Buffer.sol\":8262:8347  if (newCapacity > buf.capacity) {... */\n      iszero\n      tag_440\n      jumpi\n        /* \"@chainlink/contracts/src/v0.8/vendor/@ensdomains/buffer/v0.1.0/Buffer.sol\":8308:8336  resize(buf, newCapacity * 2) */\n      tag_440\n        /* \"@chainlink/contracts/src/v0.8/vendor/@ensdomains/buffer/v0.1.0/Buffer.sol\":8315:8318  buf */\n      dup7\n        /* \"@chainlink/contracts/src/v0.8/vendor/@ensdomains/buffer/v0.1.0/Buffer.sol\":8320:8335  newCapacity * 2 */\n      tag_430\n        /* \"@chainlink/contracts/src/v0.8/vendor/@ensdomains/buffer/v0.1.0/Buffer.sol\":8320:8331  newCapacity */\n      dup4\n        /* \"@chainlink/contracts/src/v0.8/vendor/@ensdomains/buffer/v0.1.0/Buffer.sol\":8334:8335  2 */\n      0x02\n        /* \"@chainlink/contracts/src/v0.8/vendor/@ensdomains/buffer/v0.1.0/Buffer.sol\":8320:8335  newCapacity * 2 */\n      tag_431\n      jump\t// in\n        /* \"@chainlink/contracts/src/v0.8/vendor/@ensdomains/buffer/v0.1.0/Buffer.sol\":8308:8336  resize(buf, newCapacity * 2) */\n    tag_440:\n        /* \"@chainlink/contracts/src/v0.8/vendor/@ensdomains/buffer/v0.1.0/Buffer.sol\":8357:8366  uint mask */\n      0x00\n        /* \"@chainlink/contracts/src/v0.8/vendor/@ensdomains/buffer/v0.1.0/Buffer.sol\":8384:8385  1 */\n      0x01\n        /* \"@chainlink/contracts/src/v0.8/vendor/@ensdomains/buffer/v0.1.0/Buffer.sol\":8370:8380  256 ** len */\n      tag_442\n        /* \"@chainlink/contracts/src/v0.8/vendor/@ensdomains/buffer/v0.1.0/Buffer.sol\":8377:8380  len */\n      dup7\n        /* \"@chainlink/contracts/src/v0.8/vendor/@ensdomains/buffer/v0.1.0/Buffer.sol\":8370:8373  256 */\n      0x0100\n        /* \"@chainlink/contracts/src/v0.8/vendor/@ensdomains/buffer/v0.1.0/Buffer.sol\":8370:8380  256 ** len */\n      tag_443\n      jump\t// in\n    tag_442:\n        /* \"@chainlink/contracts/src/v0.8/vendor/@ensdomains/buffer/v0.1.0/Buffer.sol\":8369:8385  (256 ** len) - 1 */\n      tag_444\n      swap2\n      swap1\n      tag_157\n      jump\t// in\n    tag_444:\n        /* \"@chainlink/contracts/src/v0.8/vendor/@ensdomains/buffer/v0.1.0/Buffer.sol\":8357:8385  uint mask = (256 ** len) - 1 */\n      swap1\n      pop\n        /* \"@chainlink/contracts/src/v0.8/vendor/@ensdomains/buffer/v0.1.0/Buffer.sol\":8487:8490  buf */\n      dup7\n        /* \"@chainlink/contracts/src/v0.8/vendor/@ensdomains/buffer/v0.1.0/Buffer.sol\":8481:8491  mload(buf) */\n      mload\n        /* \"@chainlink/contracts/src/v0.8/vendor/@ensdomains/buffer/v0.1.0/Buffer.sol\":8606:8617  newCapacity */\n      dup3\n        /* \"@chainlink/contracts/src/v0.8/vendor/@ensdomains/buffer/v0.1.0/Buffer.sol\":8598:8604  bufptr */\n      dup2\n        /* \"@chainlink/contracts/src/v0.8/vendor/@ensdomains/buffer/v0.1.0/Buffer.sol\":8594:8618  add(bufptr, newCapacity) */\n      add\n        /* \"@chainlink/contracts/src/v0.8/vendor/@ensdomains/buffer/v0.1.0/Buffer.sol\":8676:8680  data */\n      dup8\n        /* \"@chainlink/contracts/src/v0.8/vendor/@ensdomains/buffer/v0.1.0/Buffer.sol\":8668:8672  mask */\n      dup4\n        /* \"@chainlink/contracts/src/v0.8/vendor/@ensdomains/buffer/v0.1.0/Buffer.sol\":8664:8673  not(mask) */\n      not\n        /* \"@chainlink/contracts/src/v0.8/vendor/@ensdomains/buffer/v0.1.0/Buffer.sol\":8657:8661  dest */\n      dup3\n        /* \"@chainlink/contracts/src/v0.8/vendor/@ensdomains/buffer/v0.1.0/Buffer.sol\":8651:8662  mload(dest) */\n      mload\n        /* \"@chainlink/contracts/src/v0.8/vendor/@ensdomains/buffer/v0.1.0/Buffer.sol\":8647:8674  and(mload(dest), not(mask)) */\n      and\n        /* \"@chainlink/contracts/src/v0.8/vendor/@ensdomains/buffer/v0.1.0/Buffer.sol\":8644:8681  or(and(mload(dest), not(mask)), data) */\n      or\n        /* \"@chainlink/contracts/src/v0.8/vendor/@ensdomains/buffer/v0.1.0/Buffer.sol\":8638:8642  dest */\n      dup2\n        /* \"@chainlink/contracts/src/v0.8/vendor/@ensdomains/buffer/v0.1.0/Buffer.sol\":8631:8682  mstore(dest, or(and(mload(dest), not(mask)), data)) */\n      mstore\n      pop\n        /* \"@chainlink/contracts/src/v0.8/vendor/@ensdomains/buffer/v0.1.0/Buffer.sol\":8774:8780  bufptr */\n      dup1\n        /* \"@chainlink/contracts/src/v0.8/vendor/@ensdomains/buffer/v0.1.0/Buffer.sol\":8768:8781  mload(bufptr) */\n      mload\n        /* \"@chainlink/contracts/src/v0.8/vendor/@ensdomains/buffer/v0.1.0/Buffer.sol\":8755:8766  newCapacity */\n      dup4\n        /* \"@chainlink/contracts/src/v0.8/vendor/@ensdomains/buffer/v0.1.0/Buffer.sol\":8752:8782  gt(newCapacity, mload(bufptr)) */\n      gt\n        /* \"@chainlink/contracts/src/v0.8/vendor/@ensdomains/buffer/v0.1.0/Buffer.sol\":8749:8842  if gt(newCapacity, mload(bufptr)) {... */\n      iszero\n      tag_445\n      jumpi\n        /* \"@chainlink/contracts/src/v0.8/vendor/@ensdomains/buffer/v0.1.0/Buffer.sol\":8816:8827  newCapacity */\n      dup3\n        /* \"@chainlink/contracts/src/v0.8/vendor/@ensdomains/buffer/v0.1.0/Buffer.sol\":8808:8814  bufptr */\n      dup2\n        /* \"@chainlink/contracts/src/v0.8/vendor/@ensdomains/buffer/v0.1.0/Buffer.sol\":8801:8828  mstore(bufptr, newCapacity) */\n      mstore\n        /* \"@chainlink/contracts/src/v0.8/vendor/@ensdomains/buffer/v0.1.0/Buffer.sol\":8749:8842  if gt(newCapacity, mload(bufptr)) {... */\n    tag_445:\n      pop\n        /* \"@chainlink/contracts/src/v0.8/vendor/@ensdomains/buffer/v0.1.0/Buffer.sol\":8868:8871  buf */\n      swap6\n      swap7\n        /* \"@chainlink/contracts/src/v0.8/vendor/@ensdomains/buffer/v0.1.0/Buffer.sol\":8083:8878  function appendInt(buffer memory buf, uint data, uint len) internal pure returns(buffer memory) {... */\n      swap6\n      pop\n      pop\n      pop\n      pop\n      pop\n      pop\n      jump\t// out\n        /* \"@chainlink/contracts/src/v0.8/vendor/@ensdomains/buffer/v0.1.0/Buffer.sol\":2844:4271  function append(buffer memory buf, bytes memory data, uint len) internal pure returns(buffer memory) {... */\n    tag_424:\n      0x40\n      dup1\n      mload\n      dup1\n      dup3\n      add\n      swap1\n      swap2\n      mstore\n      0x60\n      dup2\n      mstore\n      0x00\n      0x20\n      dup3\n      add\n      mstore\n        /* \"@chainlink/contracts/src/v0.8/vendor/@ensdomains/buffer/v0.1.0/Buffer.sol\":2970:2974  data */\n      dup3\n        /* \"@chainlink/contracts/src/v0.8/vendor/@ensdomains/buffer/v0.1.0/Buffer.sol\":2970:2981  data.length */\n      mload\n        /* \"@chainlink/contracts/src/v0.8/vendor/@ensdomains/buffer/v0.1.0/Buffer.sol\":2963:2966  len */\n      dup3\n        /* \"@chainlink/contracts/src/v0.8/vendor/@ensdomains/buffer/v0.1.0/Buffer.sol\":2963:2981  len <= data.length */\n      gt\n      iszero\n        /* \"@chainlink/contracts/src/v0.8/vendor/@ensdomains/buffer/v0.1.0/Buffer.sol\":2955:2982  require(len <= data.length) */\n      tag_448\n      jumpi\n      0x00\n      dup1\n      revert\n    tag_448:\n        /* \"@chainlink/contracts/src/v0.8/vendor/@ensdomains/buffer/v0.1.0/Buffer.sol\":3004:3011  buf.buf */\n      dup4\n      mload\n        /* \"@chainlink/contracts/src/v0.8/vendor/@ensdomains/buffer/v0.1.0/Buffer.sol\":3004:3018  buf.buf.length */\n      mload\n        /* \"@chainlink/contracts/src/v0.8/vendor/@ensdomains/buffer/v0.1.0/Buffer.sol\":2993:3001  uint off */\n      0x00\n        /* \"@chainlink/contracts/src/v0.8/vendor/@ensdomains/buffer/v0.1.0/Buffer.sol\":3047:3056  off + len */\n      tag_449\n        /* \"@chainlink/contracts/src/v0.8/vendor/@ensdomains/buffer/v0.1.0/Buffer.sol\":3053:3056  len */\n      dup5\n        /* \"@chainlink/contracts/src/v0.8/vendor/@ensdomains/buffer/v0.1.0/Buffer.sol\":3004:3018  buf.buf.length */\n      dup4\n        /* \"@chainlink/contracts/src/v0.8/vendor/@ensdomains/buffer/v0.1.0/Buffer.sol\":3047:3056  off + len */\n      tag_163\n      jump\t// in\n    tag_449:\n        /* \"@chainlink/contracts/src/v0.8/vendor/@ensdomains/buffer/v0.1.0/Buffer.sol\":3028:3056  uint newCapacity = off + len */\n      swap1\n      pop\n        /* \"@chainlink/contracts/src/v0.8/vendor/@ensdomains/buffer/v0.1.0/Buffer.sol\":3084:3087  buf */\n      dup6\n        /* \"@chainlink/contracts/src/v0.8/vendor/@ensdomains/buffer/v0.1.0/Buffer.sol\":3084:3096  buf.capacity */\n      0x20\n      add\n      mload\n        /* \"@chainlink/contracts/src/v0.8/vendor/@ensdomains/buffer/v0.1.0/Buffer.sol\":3070:3081  newCapacity */\n      dup2\n        /* \"@chainlink/contracts/src/v0.8/vendor/@ensdomains/buffer/v0.1.0/Buffer.sol\":3070:3096  newCapacity > buf.capacity */\n      gt\n        /* \"@chainlink/contracts/src/v0.8/vendor/@ensdomains/buffer/v0.1.0/Buffer.sol\":3066:3151  if (newCapacity > buf.capacity) {... */\n      iszero\n      tag_451\n      jumpi\n        /* \"@chainlink/contracts/src/v0.8/vendor/@ensdomains/buffer/v0.1.0/Buffer.sol\":3112:3140  resize(buf, newCapacity * 2) */\n      tag_451\n        /* \"@chainlink/contracts/src/v0.8/vendor/@ensdomains/buffer/v0.1.0/Buffer.sol\":3119:3122  buf */\n      dup7\n        /* \"@chainlink/contracts/src/v0.8/vendor/@ensdomains/buffer/v0.1.0/Buffer.sol\":3124:3139  newCapacity * 2 */\n      tag_430\n        /* \"@chainlink/contracts/src/v0.8/vendor/@ensdomains/buffer/v0.1.0/Buffer.sol\":3124:3135  newCapacity */\n      dup4\n        /* \"@chainlink/contracts/src/v0.8/vendor/@ensdomains/buffer/v0.1.0/Buffer.sol\":3138:3139  2 */\n      0x02\n        /* \"@chainlink/contracts/src/v0.8/vendor/@ensdomains/buffer/v0.1.0/Buffer.sol\":3124:3139  newCapacity * 2 */\n      tag_431\n      jump\t// in\n        /* \"@chainlink/contracts/src/v0.8/vendor/@ensdomains/buffer/v0.1.0/Buffer.sol\":3112:3140  resize(buf, newCapacity * 2) */\n    tag_451:\n        /* \"@chainlink/contracts/src/v0.8/vendor/@ensdomains/buffer/v0.1.0/Buffer.sol\":3284:3294  mload(buf) */\n      dup6\n      mload\n        /* \"@chainlink/contracts/src/v0.8/vendor/@ensdomains/buffer/v0.1.0/Buffer.sol\":3367:3380  mload(bufptr) */\n      dup1\n      mload\n        /* \"@chainlink/contracts/src/v0.8/vendor/@ensdomains/buffer/v0.1.0/Buffer.sol\":3480:3505  add(add(bufptr, 32), off) */\n      dup4\n      dup3\n      add\n        /* \"@chainlink/contracts/src/v0.8/vendor/@ensdomains/buffer/v0.1.0/Buffer.sol\":3496:3498  32 */\n      0x20\n        /* \"@chainlink/contracts/src/v0.8/vendor/@ensdomains/buffer/v0.1.0/Buffer.sol\":3480:3505  add(add(bufptr, 32), off) */\n      add\n      swap2\n        /* \"@chainlink/contracts/src/v0.8/vendor/@ensdomains/buffer/v0.1.0/Buffer.sol\":3161:3170  uint dest */\n      0x00\n      swap2\n        /* \"@chainlink/contracts/src/v0.8/vendor/@ensdomains/buffer/v0.1.0/Buffer.sol\":3579:3602  gt(newCapacity, buflen) */\n      dup1\n      dup6\n      gt\n        /* \"@chainlink/contracts/src/v0.8/vendor/@ensdomains/buffer/v0.1.0/Buffer.sol\":3576:3662  if gt(newCapacity, buflen) {... */\n      iszero\n      tag_453\n      jumpi\n        /* \"@chainlink/contracts/src/v0.8/vendor/@ensdomains/buffer/v0.1.0/Buffer.sol\":3636:3647  newCapacity */\n      dup5\n        /* \"@chainlink/contracts/src/v0.8/vendor/@ensdomains/buffer/v0.1.0/Buffer.sol\":3628:3634  bufptr */\n      dup3\n        /* \"@chainlink/contracts/src/v0.8/vendor/@ensdomains/buffer/v0.1.0/Buffer.sol\":3621:3648  mstore(bufptr, newCapacity) */\n      mstore\n        /* \"@chainlink/contracts/src/v0.8/vendor/@ensdomains/buffer/v0.1.0/Buffer.sol\":3576:3662  if gt(newCapacity, buflen) {... */\n    tag_453:\n      pop\n      pop\n      pop\n        /* \"@chainlink/contracts/src/v0.8/vendor/@ensdomains/buffer/v0.1.0/Buffer.sol\":3692:3694  32 */\n      0x20\n        /* \"@chainlink/contracts/src/v0.8/vendor/@ensdomains/buffer/v0.1.0/Buffer.sol\":3682:3695  add(data, 32) */\n      dup7\n      add\n        /* \"@chainlink/contracts/src/v0.8/vendor/@ensdomains/buffer/v0.1.0/Buffer.sol\":3765:3930  for (; len >= 32; len -= 32) {... */\n    tag_454:\n        /* \"@chainlink/contracts/src/v0.8/vendor/@ensdomains/buffer/v0.1.0/Buffer.sol\":3779:3781  32 */\n      0x20\n        /* \"@chainlink/contracts/src/v0.8/vendor/@ensdomains/buffer/v0.1.0/Buffer.sol\":3772:3775  len */\n      dup7\n        /* \"@chainlink/contracts/src/v0.8/vendor/@ensdomains/buffer/v0.1.0/Buffer.sol\":3772:3781  len >= 32 */\n      lt\n        /* \"@chainlink/contracts/src/v0.8/vendor/@ensdomains/buffer/v0.1.0/Buffer.sol\":3765:3930  for (; len >= 32; len -= 32) {... */\n      tag_455\n      jumpi\n        /* \"@chainlink/contracts/src/v0.8/vendor/@ensdomains/buffer/v0.1.0/Buffer.sol\":3848:3858  mload(src) */\n      dup1\n      mload\n        /* \"@chainlink/contracts/src/v0.8/vendor/@ensdomains/buffer/v0.1.0/Buffer.sol\":3835:3859  mstore(dest, mload(src)) */\n      dup3\n      mstore\n        /* \"@chainlink/contracts/src/v0.8/vendor/@ensdomains/buffer/v0.1.0/Buffer.sol\":3886:3896  dest += 32 */\n      tag_457\n        /* \"@chainlink/contracts/src/v0.8/vendor/@ensdomains/buffer/v0.1.0/Buffer.sol\":3894:3896  32 */\n      0x20\n        /* \"@chainlink/contracts/src/v0.8/vendor/@ensdomains/buffer/v0.1.0/Buffer.sol\":3842:3846  dest */\n      dup4\n        /* \"@chainlink/contracts/src/v0.8/vendor/@ensdomains/buffer/v0.1.0/Buffer.sol\":3886:3896  dest += 32 */\n      tag_163\n      jump\t// in\n    tag_457:\n      swap2\n      pop\n        /* \"@chainlink/contracts/src/v0.8/vendor/@ensdomains/buffer/v0.1.0/Buffer.sol\":3910:3919  src += 32 */\n      tag_458\n        /* \"@chainlink/contracts/src/v0.8/vendor/@ensdomains/buffer/v0.1.0/Buffer.sol\":3917:3919  32 */\n      0x20\n        /* \"@chainlink/contracts/src/v0.8/vendor/@ensdomains/buffer/v0.1.0/Buffer.sol\":3910:3919  src += 32 */\n      dup3\n      tag_163\n      jump\t// in\n    tag_458:\n      swap1\n      pop\n        /* \"@chainlink/contracts/src/v0.8/vendor/@ensdomains/buffer/v0.1.0/Buffer.sol\":3783:3792  len -= 32 */\n      tag_459\n        /* \"@chainlink/contracts/src/v0.8/vendor/@ensdomains/buffer/v0.1.0/Buffer.sol\":3790:3792  32 */\n      0x20\n        /* \"@chainlink/contracts/src/v0.8/vendor/@ensdomains/buffer/v0.1.0/Buffer.sol\":3783:3792  len -= 32 */\n      dup8\n      tag_157\n      jump\t// in\n    tag_459:\n      swap6\n      pop\n        /* \"@chainlink/contracts/src/v0.8/vendor/@ensdomains/buffer/v0.1.0/Buffer.sol\":3765:3930  for (; len >= 32; len -= 32) {... */\n      jump(tag_454)\n    tag_455:\n        /* \"@chainlink/contracts/src/v0.8/vendor/@ensdomains/buffer/v0.1.0/Buffer.sol\":4091:4101  mload(src) */\n      mload\n        /* \"@chainlink/contracts/src/v0.8/vendor/@ensdomains/buffer/v0.1.0/Buffer.sol\":4150:4161  mload(dest) */\n      dup2\n      mload\n      not(0x00)\n        /* \"@chainlink/contracts/src/v0.8/vendor/@ensdomains/buffer/v0.1.0/Buffer.sol\":4017:4019  32 */\n      0x20\n        /* \"@chainlink/contracts/src/v0.8/vendor/@ensdomains/buffer/v0.1.0/Buffer.sol\":4017:4025  32 - len */\n      dup9\n      swap1\n      sub\n        /* \"@chainlink/contracts/src/v0.8/vendor/@ensdomains/buffer/v0.1.0/Buffer.sol\":4009:4012  256 */\n      0x0100\n        /* \"@chainlink/contracts/src/v0.8/vendor/@ensdomains/buffer/v0.1.0/Buffer.sol\":4009:4026  256 ** (32 - len) */\n      exp\n        /* \"@chainlink/contracts/src/v0.8/vendor/@ensdomains/buffer/v0.1.0/Buffer.sol\":4008:4031  (256 ** (32 - len)) - 1 */\n      add\n        /* \"@chainlink/contracts/src/v0.8/vendor/@ensdomains/buffer/v0.1.0/Buffer.sol\":4146:4168  and(mload(dest), mask) */\n      swap1\n      dup2\n      and\n        /* \"@chainlink/contracts/src/v0.8/vendor/@ensdomains/buffer/v0.1.0/Buffer.sol\":4103:4112  not(mask) */\n      swap1\n      not\n        /* \"@chainlink/contracts/src/v0.8/vendor/@ensdomains/buffer/v0.1.0/Buffer.sol\":4087:4113  and(mload(src), not(mask)) */\n      swap2\n      swap1\n      swap2\n      and\n        /* \"@chainlink/contracts/src/v0.8/vendor/@ensdomains/buffer/v0.1.0/Buffer.sol\":4198:4219  or(destpart, srcpart) */\n      or\n        /* \"@chainlink/contracts/src/v0.8/vendor/@ensdomains/buffer/v0.1.0/Buffer.sol\":4185:4220  mstore(dest, or(destpart, srcpart)) */\n      swap1\n      mstore\n      pop\n        /* \"@chainlink/contracts/src/v0.8/vendor/@ensdomains/buffer/v0.1.0/Buffer.sol\":4261:4264  buf */\n      dup5\n      swap2\n      pop\n      pop\n        /* \"@chainlink/contracts/src/v0.8/vendor/@ensdomains/buffer/v0.1.0/Buffer.sol\":2844:4271  function append(buffer memory buf, bytes memory data, uint len) internal pure returns(buffer memory) {... */\n      swap4\n      swap3\n      pop\n      pop\n      pop\n      jump\t// out\n        /* \"@chainlink/contracts/src/v0.8/vendor/@ensdomains/buffer/v0.1.0/Buffer.sol\":2004:2171  function resize(buffer memory buf, uint capacity) private pure {... */\n    tag_432:\n        /* \"@chainlink/contracts/src/v0.8/vendor/@ensdomains/buffer/v0.1.0/Buffer.sol\":2099:2106  buf.buf */\n      dup2\n      mload\n        /* \"@chainlink/contracts/src/v0.8/vendor/@ensdomains/buffer/v0.1.0/Buffer.sol\":2116:2135  init(buf, capacity) */\n      tag_461\n        /* \"@chainlink/contracts/src/v0.8/vendor/@ensdomains/buffer/v0.1.0/Buffer.sol\":2099:2102  buf */\n      dup4\n        /* \"@chainlink/contracts/src/v0.8/vendor/@ensdomains/buffer/v0.1.0/Buffer.sol\":2126:2134  capacity */\n      dup4\n        /* \"@chainlink/contracts/src/v0.8/vendor/@ensdomains/buffer/v0.1.0/Buffer.sol\":2116:2120  init */\n      tag_371\n        /* \"@chainlink/contracts/src/v0.8/vendor/@ensdomains/buffer/v0.1.0/Buffer.sol\":2116:2135  init(buf, capacity) */\n      jump\t// in\n    tag_461:\n      pop\n        /* \"@chainlink/contracts/src/v0.8/vendor/@ensdomains/buffer/v0.1.0/Buffer.sol\":2145:2164  append(buf, oldbuf) */\n      tag_404\n        /* \"@chainlink/contracts/src/v0.8/vendor/@ensdomains/buffer/v0.1.0/Buffer.sol\":2152:2155  buf */\n      dup4\n        /* \"@chainlink/contracts/src/v0.8/vendor/@ensdomains/buffer/v0.1.0/Buffer.sol\":2157:2163  oldbuf */\n      dup3\n        /* \"@chainlink/contracts/src/v0.8/vendor/@ensdomains/buffer/v0.1.0/Buffer.sol\":2145:2151  append */\n      tag_376\n        /* \"@chainlink/contracts/src/v0.8/vendor/@ensdomains/buffer/v0.1.0/Buffer.sol\":2145:2164  append(buf, oldbuf) */\n      jump\t// in\n    tag_368:\n      mload(0x40)\n      dup1\n      0x40\n      add\n      0x40\n      mstore\n      dup1\n      tag_469\n      mload(0x40)\n      dup1\n      0x40\n      add\n      0x40\n      mstore\n      dup1\n      0x60\n      dup2\n      mstore\n      0x20\n      add\n      0x00\n      dup2\n      mstore\n      pop\n      swap1\n      jump\n    tag_469:\n      dup2\n      mstore\n      0x20\n      add\n      0x00\n      dup2\n      mstore\n      pop\n      swap1\n      jump\t// out\n        /* \"#utility.yul\":14:141   */\n    tag_166:\n        /* \"#utility.yul\":75:85   */\n      0x4e487b71\n        /* \"#utility.yul\":70:73   */\n      0xe0\n        /* \"#utility.yul\":66:86   */\n      shl\n        /* \"#utility.yul\":63:64   */\n      0x00\n        /* \"#utility.yul\":56:87   */\n      mstore\n        /* \"#utility.yul\":106:110   */\n      0x41\n        /* \"#utility.yul\":103:104   */\n      0x04\n        /* \"#utility.yul\":96:111   */\n      mstore\n        /* \"#utility.yul\":130:134   */\n      0x24\n        /* \"#utility.yul\":127:128   */\n      0x00\n        /* \"#utility.yul\":120:135   */\n      revert\n        /* \"#utility.yul\":146:778   */\n    tag_470:\n        /* \"#utility.yul\":211:216   */\n      0x00\n      sub(shl(0x40, 0x01), 0x01)\n        /* \"#utility.yul\":282:284   */\n      dup1\n        /* \"#utility.yul\":274:280   */\n      dup5\n        /* \"#utility.yul\":271:285   */\n      gt\n        /* \"#utility.yul\":268:308   */\n      iszero\n      tag_486\n      jumpi\n        /* \"#utility.yul\":288:306   */\n      tag_486\n      tag_166\n      jump\t// in\n    tag_486:\n        /* \"#utility.yul\":363:365   */\n      0x40\n        /* \"#utility.yul\":357:366   */\n      mload\n        /* \"#utility.yul\":331:333   */\n      0x1f\n        /* \"#utility.yul\":417:432   */\n      dup6\n      add\n      not(0x1f)\n        /* \"#utility.yul\":413:437   */\n      swap1\n      dup2\n      and\n        /* \"#utility.yul\":439:441   */\n      0x3f\n        /* \"#utility.yul\":409:442   */\n      add\n        /* \"#utility.yul\":405:447   */\n      and\n        /* \"#utility.yul\":393:448   */\n      dup2\n      add\n      swap1\n        /* \"#utility.yul\":463:481   */\n      dup3\n      dup3\n      gt\n        /* \"#utility.yul\":483:505   */\n      dup2\n      dup4\n      lt\n        /* \"#utility.yul\":460:506   */\n      or\n        /* \"#utility.yul\":457:529   */\n      iszero\n      tag_488\n      jumpi\n        /* \"#utility.yul\":509:527   */\n      tag_488\n      tag_166\n      jump\t// in\n    tag_488:\n        /* \"#utility.yul\":549:559   */\n      dup2\n        /* \"#utility.yul\":545:547   */\n      0x40\n        /* \"#utility.yul\":538:560   */\n      mstore\n        /* \"#utility.yul\":578:584   */\n      dup1\n        /* \"#utility.yul\":569:584   */\n      swap4\n      pop\n        /* \"#utility.yul\":608:614   */\n      dup6\n        /* \"#utility.yul\":600:606   */\n      dup2\n        /* \"#utility.yul\":593:615   */\n      mstore\n        /* \"#utility.yul\":648:651   */\n      dup7\n        /* \"#utility.yul\":639:645   */\n      dup7\n        /* \"#utility.yul\":634:637   */\n      dup7\n        /* \"#utility.yul\":630:646   */\n      add\n        /* \"#utility.yul\":627:652   */\n      gt\n        /* \"#utility.yul\":624:669   */\n      iszero\n      tag_489\n      jumpi\n        /* \"#utility.yul\":665:666   */\n      0x00\n        /* \"#utility.yul\":662:663   */\n      dup1\n        /* \"#utility.yul\":655:667   */\n      revert\n        /* \"#utility.yul\":624:669   */\n    tag_489:\n        /* \"#utility.yul\":715:721   */\n      dup6\n        /* \"#utility.yul\":710:713   */\n      dup6\n        /* \"#utility.yul\":703:707   */\n      0x20\n        /* \"#utility.yul\":695:701   */\n      dup4\n        /* \"#utility.yul\":691:708   */\n      add\n        /* \"#utility.yul\":678:722   */\n      calldatacopy\n        /* \"#utility.yul\":770:771   */\n      0x00\n        /* \"#utility.yul\":763:767   */\n      0x20\n        /* \"#utility.yul\":754:760   */\n      dup8\n        /* \"#utility.yul\":746:752   */\n      dup4\n        /* \"#utility.yul\":742:761   */\n      add\n        /* \"#utility.yul\":738:768   */\n      add\n        /* \"#utility.yul\":731:772   */\n      mstore\n      pop\n      pop\n      pop\n        /* \"#utility.yul\":146:778   */\n      swap4\n      swap3\n      pop\n      pop\n      pop\n      jump\t// out\n        /* \"#utility.yul\":783:1234   */\n    tag_26:\n        /* \"#utility.yul\":852:858   */\n      0x00\n        /* \"#utility.yul\":905:907   */\n      0x20\n        /* \"#utility.yul\":893:902   */\n      dup3\n        /* \"#utility.yul\":884:891   */\n      dup5\n        /* \"#utility.yul\":880:903   */\n      sub\n        /* \"#utility.yul\":876:908   */\n      slt\n        /* \"#utility.yul\":873:925   */\n      iszero\n      tag_491\n      jumpi\n        /* \"#utility.yul\":921:922   */\n      0x00\n        /* \"#utility.yul\":918:919   */\n      dup1\n        /* \"#utility.yul\":911:923   */\n      revert\n        /* \"#utility.yul\":873:925   */\n    tag_491:\n        /* \"#utility.yul\":961:970   */\n      dup2\n        /* \"#utility.yul\":948:971   */\n      calldataload\n      sub(shl(0x40, 0x01), 0x01)\n        /* \"#utility.yul\":986:992   */\n      dup2\n        /* \"#utility.yul\":983:1013   */\n      gt\n        /* \"#utility.yul\":980:1030   */\n      iszero\n      tag_492\n      jumpi\n        /* \"#utility.yul\":1026:1027   */\n      0x00\n        /* \"#utility.yul\":1023:1024   */\n      dup1\n        /* \"#utility.yul\":1016:1028   */\n      revert\n        /* \"#utility.yul\":980:1030   */\n    tag_492:\n        /* \"#utility.yul\":1049:1071   */\n      dup3\n      add\n        /* \"#utility.yul\":1102:1106   */\n      0x1f\n        /* \"#utility.yul\":1094:1107   */\n      dup2\n      add\n        /* \"#utility.yul\":1090:1117   */\n      dup5\n      sgt\n        /* \"#utility.yul\":1080:1135   */\n      tag_493\n      jumpi\n        /* \"#utility.yul\":1131:1132   */\n      0x00\n        /* \"#utility.yul\":1128:1129   */\n      dup1\n        /* \"#utility.yul\":1121:1133   */\n      revert\n        /* \"#utility.yul\":1080:1135   */\n    tag_493:\n        /* \"#utility.yul\":1154:1228   */\n      tag_494\n        /* \"#utility.yul\":1220:1227   */\n      dup5\n        /* \"#utility.yul\":1215:1217   */\n      dup3\n        /* \"#utility.yul\":1202:1218   */\n      calldataload\n        /* \"#utility.yul\":1197:1199   */\n      0x20\n        /* \"#utility.yul\":1193:1195   */\n      dup5\n        /* \"#utility.yul\":1189:1200   */\n      add\n        /* \"#utility.yul\":1154:1228   */\n      tag_470\n      jump\t// in\n    tag_494:\n        /* \"#utility.yul\":1144:1228   */\n      swap5\n        /* \"#utility.yul\":783:1234   */\n      swap4\n      pop\n      pop\n      pop\n      pop\n      jump\t// out\n        /* \"#utility.yul\":1239:1489   */\n    tag_471:\n        /* \"#utility.yul\":1324:1325   */\n      0x00\n        /* \"#utility.yul\":1334:1447   */\n    tag_496:\n        /* \"#utility.yul\":1348:1354   */\n      dup4\n        /* \"#utility.yul\":1345:1346   */\n      dup2\n        /* \"#utility.yul\":1342:1355   */\n      lt\n        /* \"#utility.yul\":1334:1447   */\n      iszero\n      tag_498\n      jumpi\n        /* \"#utility.yul\":1424:1435   */\n      dup2\n      dup2\n      add\n        /* \"#utility.yul\":1418:1436   */\n      mload\n        /* \"#utility.yul\":1405:1416   */\n      dup4\n      dup3\n      add\n        /* \"#utility.yul\":1398:1437   */\n      mstore\n        /* \"#utility.yul\":1370:1372   */\n      0x20\n        /* \"#utility.yul\":1363:1373   */\n      add\n        /* \"#utility.yul\":1334:1447   */\n      jump(tag_496)\n    tag_498:\n      pop\n      pop\n        /* \"#utility.yul\":1481:1482   */\n      0x00\n        /* \"#utility.yul\":1463:1479   */\n      swap2\n      add\n        /* \"#utility.yul\":1456:1483   */\n      mstore\n        /* \"#utility.yul\":1239:1489   */\n      jump\t// out\n        /* \"#utility.yul\":1494:1765   */\n    tag_472:\n        /* \"#utility.yul\":1536:1539   */\n      0x00\n        /* \"#utility.yul\":1574:1579   */\n      dup2\n        /* \"#utility.yul\":1568:1580   */\n      mload\n        /* \"#utility.yul\":1601:1607   */\n      dup1\n        /* \"#utility.yul\":1596:1599   */\n      dup5\n        /* \"#utility.yul\":1589:1608   */\n      mstore\n        /* \"#utility.yul\":1617:1693   */\n      tag_500\n        /* \"#utility.yul\":1686:1692   */\n      dup2\n        /* \"#utility.yul\":1679:1683   */\n      0x20\n        /* \"#utility.yul\":1674:1677   */\n      dup7\n        /* \"#utility.yul\":1670:1684   */\n      add\n        /* \"#utility.yul\":1663:1667   */\n      0x20\n        /* \"#utility.yul\":1656:1661   */\n      dup7\n        /* \"#utility.yul\":1652:1668   */\n      add\n        /* \"#utility.yul\":1617:1693   */\n      tag_471\n      jump\t// in\n    tag_500:\n        /* \"#utility.yul\":1747:1749   */\n      0x1f\n        /* \"#utility.yul\":1726:1741   */\n      add\n      not(0x1f)\n        /* \"#utility.yul\":1722:1751   */\n      and\n        /* \"#utility.yul\":1713:1752   */\n      swap3\n      swap1\n      swap3\n      add\n        /* \"#utility.yul\":1754:1758   */\n      0x20\n        /* \"#utility.yul\":1709:1759   */\n      add\n      swap3\n        /* \"#utility.yul\":1494:1765   */\n      swap2\n      pop\n      pop\n      jump\t// out\n        /* \"#utility.yul\":1770:2267   */\n    tag_473:\n        /* \"#utility.yul\":1888:1889   */\n      0x01\n        /* \"#utility.yul\":1884:1885   */\n      dup1\n        /* \"#utility.yul\":1879:1882   */\n      0xa0\n        /* \"#utility.yul\":1875:1886   */\n      shl\n        /* \"#utility.yul\":1871:1890   */\n      sub\n        /* \"#utility.yul\":1863:1868   */\n      dup2\n        /* \"#utility.yul\":1857:1869   */\n      mload\n        /* \"#utility.yul\":1853:1891   */\n      and\n        /* \"#utility.yul\":1848:1851   */\n      dup3\n        /* \"#utility.yul\":1841:1892   */\n      mstore\n        /* \"#utility.yul\":1941:1945   */\n      0x20\n        /* \"#utility.yul\":1934:1939   */\n      dup2\n        /* \"#utility.yul\":1930:1946   */\n      add\n        /* \"#utility.yul\":1924:1947   */\n      mload\n        /* \"#utility.yul\":1917:1921   */\n      0x20\n        /* \"#utility.yul\":1912:1915   */\n      dup4\n        /* \"#utility.yul\":1908:1922   */\n      add\n        /* \"#utility.yul\":1901:1948   */\n      mstore\n        /* \"#utility.yul\":1823:1826   */\n      0x00\n        /* \"#utility.yul\":1994:1998   */\n      0x40\n        /* \"#utility.yul\":1987:1992   */\n      dup3\n        /* \"#utility.yul\":1983:1999   */\n      add\n        /* \"#utility.yul\":1977:2000   */\n      mload\n        /* \"#utility.yul\":2032:2036   */\n      0x80\n        /* \"#utility.yul\":2025:2029   */\n      0x40\n        /* \"#utility.yul\":2020:2023   */\n      dup6\n        /* \"#utility.yul\":2016:2030   */\n      add\n        /* \"#utility.yul\":2009:2037   */\n      mstore\n        /* \"#utility.yul\":2058:2105   */\n      tag_502\n        /* \"#utility.yul\":2099:2103   */\n      0x80\n        /* \"#utility.yul\":2094:2097   */\n      dup6\n        /* \"#utility.yul\":2090:2104   */\n      add\n        /* \"#utility.yul\":2076:2088   */\n      dup3\n        /* \"#utility.yul\":2058:2105   */\n      tag_472\n      jump\t// in\n    tag_502:\n        /* \"#utility.yul\":2046:2105   */\n      swap1\n      pop\n        /* \"#utility.yul\":2153:2157   */\n      0x60\n        /* \"#utility.yul\":2146:2151   */\n      dup4\n        /* \"#utility.yul\":2142:2158   */\n      add\n        /* \"#utility.yul\":2136:2159   */\n      mload\n        /* \"#utility.yul\":2201:2204   */\n      dup5\n        /* \"#utility.yul\":2195:2199   */\n      dup3\n        /* \"#utility.yul\":2191:2205   */\n      sub\n        /* \"#utility.yul\":2184:2188   */\n      0x60\n        /* \"#utility.yul\":2179:2182   */\n      dup7\n        /* \"#utility.yul\":2175:2189   */\n      add\n        /* \"#utility.yul\":2168:2206   */\n      mstore\n        /* \"#utility.yul\":2222:2261   */\n      tag_503\n        /* \"#utility.yul\":2256:2260   */\n      dup3\n        /* \"#utility.yul\":2240:2254   */\n      dup3\n        /* \"#utility.yul\":2222:2261   */\n      tag_472\n      jump\t// in\n    tag_503:\n        /* \"#utility.yul\":2215:2261   */\n      swap6\n        /* \"#utility.yul\":1770:2267   */\n      swap5\n      pop\n      pop\n      pop\n      pop\n      pop\n      jump\t// out\n        /* \"#utility.yul\":2272:2539   */\n    tag_29:\n        /* \"#utility.yul\":2457:2459   */\n      0x20\n        /* \"#utility.yul\":2446:2455   */\n      dup2\n        /* \"#utility.yul\":2439:2460   */\n      mstore\n        /* \"#utility.yul\":2420:2424   */\n      0x00\n        /* \"#utility.yul\":2477:2533   */\n      tag_423\n        /* \"#utility.yul\":2529:2531   */\n      0x20\n        /* \"#utility.yul\":2518:2527   */\n      dup4\n        /* \"#utility.yul\":2514:2532   */\n      add\n        /* \"#utility.yul\":2506:2512   */\n      dup5\n        /* \"#utility.yul\":2477:2533   */\n      tag_473\n      jump\t// in\n        /* \"#utility.yul\":2749:2970   */\n    tag_474:\n        /* \"#utility.yul\":2791:2796   */\n      0x00\n        /* \"#utility.yul\":2844:2847   */\n      dup3\n        /* \"#utility.yul\":2837:2841   */\n      0x1f\n        /* \"#utility.yul\":2829:2835   */\n      dup4\n        /* \"#utility.yul\":2825:2842   */\n      add\n        /* \"#utility.yul\":2821:2848   */\n      slt\n        /* \"#utility.yul\":2811:2866   */\n      tag_508\n      jumpi\n        /* \"#utility.yul\":2862:2863   */\n      0x00\n        /* \"#utility.yul\":2859:2860   */\n      dup1\n        /* \"#utility.yul\":2852:2864   */\n      revert\n        /* \"#utility.yul\":2811:2866   */\n    tag_508:\n        /* \"#utility.yul\":2884:2964   */\n      tag_423\n        /* \"#utility.yul\":2960:2963   */\n      dup4\n        /* \"#utility.yul\":2951:2957   */\n      dup4\n        /* \"#utility.yul\":2938:2958   */\n      calldataload\n        /* \"#utility.yul\":2931:2935   */\n      0x20\n        /* \"#utility.yul\":2923:2929   */\n      dup6\n        /* \"#utility.yul\":2919:2936   */\n      add\n        /* \"#utility.yul\":2884:2964   */\n      tag_470\n      jump\t// in\n        /* \"#utility.yul\":2975:3582   */\n    tag_36:\n        /* \"#utility.yul\":3070:3076   */\n      0x00\n        /* \"#utility.yul\":3078:3084   */\n      dup1\n        /* \"#utility.yul\":3086:3092   */\n      0x00\n        /* \"#utility.yul\":3139:3141   */\n      0x60\n        /* \"#utility.yul\":3127:3136   */\n      dup5\n        /* \"#utility.yul\":3118:3125   */\n      dup7\n        /* \"#utility.yul\":3114:3137   */\n      sub\n        /* \"#utility.yul\":3110:3142   */\n      slt\n        /* \"#utility.yul\":3107:3159   */\n      iszero\n      tag_511\n      jumpi\n        /* \"#utility.yul\":3155:3156   */\n      0x00\n        /* \"#utility.yul\":3152:3153   */\n      dup1\n        /* \"#utility.yul\":3145:3157   */\n      revert\n        /* \"#utility.yul\":3107:3159   */\n    tag_511:\n        /* \"#utility.yul\":3191:3200   */\n      dup4\n        /* \"#utility.yul\":3178:3201   */\n      calldataload\n        /* \"#utility.yul\":3168:3201   */\n      swap3\n      pop\n        /* \"#utility.yul\":3252:3254   */\n      0x20\n        /* \"#utility.yul\":3241:3250   */\n      dup5\n        /* \"#utility.yul\":3237:3255   */\n      add\n        /* \"#utility.yul\":3224:3256   */\n      calldataload\n      sub(shl(0x40, 0x01), 0x01)\n        /* \"#utility.yul\":3316:3318   */\n      dup1\n        /* \"#utility.yul\":3308:3314   */\n      dup3\n        /* \"#utility.yul\":3305:3319   */\n      gt\n        /* \"#utility.yul\":3302:3336   */\n      iszero\n      tag_512\n      jumpi\n        /* \"#utility.yul\":3332:3333   */\n      0x00\n        /* \"#utility.yul\":3329:3330   */\n      dup1\n        /* \"#utility.yul\":3322:3334   */\n      revert\n        /* \"#utility.yul\":3302:3336   */\n    tag_512:\n        /* \"#utility.yul\":3355:3404   */\n      tag_513\n        /* \"#utility.yul\":3396:3403   */\n      dup8\n        /* \"#utility.yul\":3387:3393   */\n      dup4\n        /* \"#utility.yul\":3376:3385   */\n      dup9\n        /* \"#utility.yul\":3372:3394   */\n      add\n        /* \"#utility.yul\":3355:3404   */\n      tag_474\n      jump\t// in\n    tag_513:\n        /* \"#utility.yul\":3345:3404   */\n      swap4\n      pop\n        /* \"#utility.yul\":3457:3459   */\n      0x40\n        /* \"#utility.yul\":3446:3455   */\n      dup7\n        /* \"#utility.yul\":3442:3460   */\n      add\n        /* \"#utility.yul\":3429:3461   */\n      calldataload\n        /* \"#utility.yul\":3413:3461   */\n      swap2\n      pop\n        /* \"#utility.yul\":3486:3488   */\n      dup1\n        /* \"#utility.yul\":3476:3484   */\n      dup3\n        /* \"#utility.yul\":3473:3489   */\n      gt\n        /* \"#utility.yul\":3470:3506   */\n      iszero\n      tag_514\n      jumpi\n        /* \"#utility.yul\":3502:3503   */\n      0x00\n        /* \"#utility.yul\":3499:3500   */\n      dup1\n        /* \"#utility.yul\":3492:3504   */\n      revert\n        /* \"#utility.yul\":3470:3506   */\n    tag_514:\n      pop\n        /* \"#utility.yul\":3525:3576   */\n      tag_515\n        /* \"#utility.yul\":3568:3575   */\n      dup7\n        /* \"#utility.yul\":3557:3565   */\n      dup3\n        /* \"#utility.yul\":3546:3555   */\n      dup8\n        /* \"#utility.yul\":3542:3566   */\n      add\n        /* \"#utility.yul\":3525:3576   */\n      tag_474\n      jump\t// in\n    tag_515:\n        /* \"#utility.yul\":3515:3576   */\n      swap2\n      pop\n      pop\n        /* \"#utility.yul\":2975:3582   */\n      swap3\n      pop\n      swap3\n      pop\n      swap3\n      jump\t// out\n        /* \"#utility.yul\":3795:4013   */\n    tag_45:\n        /* \"#utility.yul\":3942:3944   */\n      0x20\n        /* \"#utility.yul\":3931:3940   */\n      dup2\n        /* \"#utility.yul\":3924:3945   */\n      mstore\n        /* \"#utility.yul\":3905:3909   */\n      0x00\n        /* \"#utility.yul\":3962:4007   */\n      tag_423\n        /* \"#utility.yul\":4003:4005   */\n      0x20\n        /* \"#utility.yul\":3992:4001   */\n      dup4\n        /* \"#utility.yul\":3988:4006   */\n      add\n        /* \"#utility.yul\":3980:3986   */\n      dup5\n        /* \"#utility.yul\":3962:4007   */\n      tag_472\n      jump\t// in\n        /* \"#utility.yul\":4243:4423   */\n    tag_55:\n        /* \"#utility.yul\":4302:4308   */\n      0x00\n        /* \"#utility.yul\":4355:4357   */\n      0x20\n        /* \"#utility.yul\":4343:4352   */\n      dup3\n        /* \"#utility.yul\":4334:4341   */\n      dup5\n        /* \"#utility.yul\":4330:4353   */\n      sub\n        /* \"#utility.yul\":4326:4358   */\n      slt\n        /* \"#utility.yul\":4323:4375   */\n      iszero\n      tag_522\n      jumpi\n        /* \"#utility.yul\":4371:4372   */\n      0x00\n        /* \"#utility.yul\":4368:4369   */\n      dup1\n        /* \"#utility.yul\":4361:4373   */\n      revert\n        /* \"#utility.yul\":4323:4375   */\n    tag_522:\n      pop\n        /* \"#utility.yul\":4394:4417   */\n      calldataload\n      swap2\n        /* \"#utility.yul\":4243:4423   */\n      swap1\n      pop\n      jump\t// out\n        /* \"#utility.yul\":4428:4981   */\n    tag_58:\n        /* \"#utility.yul\":4710:4711   */\n      0x01\n        /* \"#utility.yul\":4706:4707   */\n      dup1\n        /* \"#utility.yul\":4701:4704   */\n      0xa0\n        /* \"#utility.yul\":4697:4708   */\n      shl\n        /* \"#utility.yul\":4693:4712   */\n      sub\n        /* \"#utility.yul\":4685:4691   */\n      dup6\n        /* \"#utility.yul\":4681:4713   */\n      and\n        /* \"#utility.yul\":4670:4679   */\n      dup2\n        /* \"#utility.yul\":4663:4714   */\n      mstore\n        /* \"#utility.yul\":4750:4756   */\n      dup4\n        /* \"#utility.yul\":4745:4747   */\n      0x20\n        /* \"#utility.yul\":4734:4743   */\n      dup3\n        /* \"#utility.yul\":4730:4748   */\n      add\n        /* \"#utility.yul\":4723:4757   */\n      mstore\n        /* \"#utility.yul\":4793:4796   */\n      0x80\n        /* \"#utility.yul\":4788:4790   */\n      0x40\n        /* \"#utility.yul\":4777:4786   */\n      dup3\n        /* \"#utility.yul\":4773:4791   */\n      add\n        /* \"#utility.yul\":4766:4797   */\n      mstore\n        /* \"#utility.yul\":4644:4648   */\n      0x00\n        /* \"#utility.yul\":4820:4866   */\n      tag_524\n        /* \"#utility.yul\":4861:4864   */\n      0x80\n        /* \"#utility.yul\":4850:4859   */\n      dup4\n        /* \"#utility.yul\":4846:4865   */\n      add\n        /* \"#utility.yul\":4838:4844   */\n      dup6\n        /* \"#utility.yul\":4820:4866   */\n      tag_472\n      jump\t// in\n    tag_524:\n        /* \"#utility.yul\":4914:4923   */\n      dup3\n        /* \"#utility.yul\":4906:4912   */\n      dup2\n        /* \"#utility.yul\":4902:4924   */\n      sub\n        /* \"#utility.yul\":4897:4899   */\n      0x60\n        /* \"#utility.yul\":4886:4895   */\n      dup5\n        /* \"#utility.yul\":4882:4900   */\n      add\n        /* \"#utility.yul\":4875:4925   */\n      mstore\n        /* \"#utility.yul\":4942:4975   */\n      tag_525\n        /* \"#utility.yul\":4968:4974   */\n      dup2\n        /* \"#utility.yul\":4960:4966   */\n      dup6\n        /* \"#utility.yul\":4942:4975   */\n      tag_472\n      jump\t// in\n    tag_525:\n        /* \"#utility.yul\":4934:4975   */\n      swap8\n        /* \"#utility.yul\":4428:4981   */\n      swap7\n      pop\n      pop\n      pop\n      pop\n      pop\n      pop\n      pop\n      jump\t// out\n        /* \"#utility.yul\":5168:5416   */\n    tag_66:\n        /* \"#utility.yul\":5236:5242   */\n      0x00\n        /* \"#utility.yul\":5244:5250   */\n      dup1\n        /* \"#utility.yul\":5297:5299   */\n      0x40\n        /* \"#utility.yul\":5285:5294   */\n      dup4\n        /* \"#utility.yul\":5276:5283   */\n      dup6\n        /* \"#utility.yul\":5272:5295   */\n      sub\n        /* \"#utility.yul\":5268:5300   */\n      slt\n        /* \"#utility.yul\":5265:5317   */\n      iszero\n      tag_528\n      jumpi\n        /* \"#utility.yul\":5313:5314   */\n      0x00\n        /* \"#utility.yul\":5310:5311   */\n      dup1\n        /* \"#utility.yul\":5303:5315   */\n      revert\n        /* \"#utility.yul\":5265:5317   */\n    tag_528:\n      pop\n      pop\n        /* \"#utility.yul\":5336:5359   */\n      dup1\n      calldataload\n      swap3\n        /* \"#utility.yul\":5406:5408   */\n      0x20\n        /* \"#utility.yul\":5391:5409   */\n      swap1\n      swap2\n      add\n        /* \"#utility.yul\":5378:5410   */\n      calldataload\n      swap2\n      pop\n        /* \"#utility.yul\":5168:5416   */\n      jump\t// out\n        /* \"#utility.yul\":5421:6271   */\n    tag_69:\n        /* \"#utility.yul\":5619:5623   */\n      0x00\n        /* \"#utility.yul\":5648:5650   */\n      0x20\n        /* \"#utility.yul\":5688:5690   */\n      dup1\n        /* \"#utility.yul\":5677:5686   */\n      dup4\n        /* \"#utility.yul\":5673:5691   */\n      add\n        /* \"#utility.yul\":5718:5720   */\n      dup2\n        /* \"#utility.yul\":5707:5716   */\n      dup5\n        /* \"#utility.yul\":5700:5721   */\n      mstore\n        /* \"#utility.yul\":5741:5747   */\n      dup1\n        /* \"#utility.yul\":5776:5782   */\n      dup6\n        /* \"#utility.yul\":5770:5783   */\n      mload\n        /* \"#utility.yul\":5807:5813   */\n      dup1\n        /* \"#utility.yul\":5799:5805   */\n      dup4\n        /* \"#utility.yul\":5792:5814   */\n      mstore\n        /* \"#utility.yul\":5845:5847   */\n      0x40\n        /* \"#utility.yul\":5834:5843   */\n      dup7\n        /* \"#utility.yul\":5830:5848   */\n      add\n        /* \"#utility.yul\":5823:5848   */\n      swap2\n      pop\n        /* \"#utility.yul\":5907:5909   */\n      0x40\n        /* \"#utility.yul\":5897:5903   */\n      dup2\n        /* \"#utility.yul\":5894:5895   */\n      0x05\n        /* \"#utility.yul\":5890:5904   */\n      shl\n        /* \"#utility.yul\":5879:5888   */\n      dup8\n        /* \"#utility.yul\":5875:5905   */\n      add\n        /* \"#utility.yul\":5871:5910   */\n      add\n        /* \"#utility.yul\":5857:5910   */\n      swap3\n      pop\n        /* \"#utility.yul\":5945:5947   */\n      dup4\n        /* \"#utility.yul\":5937:5943   */\n      dup8\n        /* \"#utility.yul\":5933:5948   */\n      add\n        /* \"#utility.yul\":5966:5967   */\n      0x00\n        /* \"#utility.yul\":5976:6242   */\n    tag_530:\n        /* \"#utility.yul\":5990:5996   */\n      dup3\n        /* \"#utility.yul\":5987:5988   */\n      dup2\n        /* \"#utility.yul\":5984:5997   */\n      lt\n        /* \"#utility.yul\":5976:6242   */\n      iszero\n      tag_532\n      jumpi\n        /* \"#utility.yul\":6083:6085   */\n      0x3f\n        /* \"#utility.yul\":6079:6086   */\n      not\n        /* \"#utility.yul\":6067:6076   */\n      dup9\n        /* \"#utility.yul\":6059:6065   */\n      dup7\n        /* \"#utility.yul\":6055:6077   */\n      sub\n        /* \"#utility.yul\":6051:6087   */\n      add\n        /* \"#utility.yul\":6046:6049   */\n      dup5\n        /* \"#utility.yul\":6039:6088   */\n      mstore\n        /* \"#utility.yul\":6111:6162   */\n      tag_533\n        /* \"#utility.yul\":6155:6161   */\n      dup6\n        /* \"#utility.yul\":6146:6152   */\n      dup4\n        /* \"#utility.yul\":6140:6153   */\n      mload\n        /* \"#utility.yul\":6111:6162   */\n      tag_473\n      jump\t// in\n    tag_533:\n        /* \"#utility.yul\":6101:6162   */\n      swap5\n      pop\n        /* \"#utility.yul\":6220:6232   */\n      swap3\n      dup6\n      add\n      swap3\n        /* \"#utility.yul\":6185:6200   */\n      swap1\n      dup6\n      add\n      swap1\n        /* \"#utility.yul\":6012:6013   */\n      0x01\n        /* \"#utility.yul\":6005:6014   */\n      add\n        /* \"#utility.yul\":5976:6242   */\n      jump(tag_530)\n    tag_532:\n      pop\n        /* \"#utility.yul\":6259:6265   */\n      swap3\n      swap8\n        /* \"#utility.yul\":5421:6271   */\n      swap7\n      pop\n      pop\n      pop\n      pop\n      pop\n      pop\n      pop\n      jump\t// out\n        /* \"#utility.yul\":6461:7004   */\n    tag_83:\n        /* \"#utility.yul\":6712:6718   */\n      dup5\n        /* \"#utility.yul\":6705:6719   */\n      iszero\n        /* \"#utility.yul\":6698:6720   */\n      iszero\n        /* \"#utility.yul\":6687:6696   */\n      dup2\n        /* \"#utility.yul\":6680:6721   */\n      mstore\n        /* \"#utility.yul\":6771:6777   */\n      dup4\n        /* \"#utility.yul\":6764:6778   */\n      iszero\n        /* \"#utility.yul\":6757:6779   */\n      iszero\n        /* \"#utility.yul\":6752:6754   */\n      0x20\n        /* \"#utility.yul\":6741:6750   */\n      dup3\n        /* \"#utility.yul\":6737:6755   */\n      add\n        /* \"#utility.yul\":6730:6780   */\n      mstore\n        /* \"#utility.yul\":6816:6819   */\n      0x80\n        /* \"#utility.yul\":6811:6813   */\n      0x40\n        /* \"#utility.yul\":6800:6809   */\n      dup3\n        /* \"#utility.yul\":6796:6814   */\n      add\n        /* \"#utility.yul\":6789:6820   */\n      mstore\n        /* \"#utility.yul\":6661:6665   */\n      0x00\n        /* \"#utility.yul\":6843:6889   */\n      tag_524\n        /* \"#utility.yul\":6884:6887   */\n      0x80\n        /* \"#utility.yul\":6873:6882   */\n      dup4\n        /* \"#utility.yul\":6869:6888   */\n      add\n        /* \"#utility.yul\":6861:6867   */\n      dup6\n        /* \"#utility.yul\":6843:6889   */\n      tag_472\n      jump\t// in\n        /* \"#utility.yul\":7191:7480   */\n    tag_105:\n        /* \"#utility.yul\":7322:7325   */\n      0x00\n        /* \"#utility.yul\":7360:7366   */\n      dup3\n        /* \"#utility.yul\":7354:7367   */\n      mload\n        /* \"#utility.yul\":7376:7442   */\n      tag_541\n        /* \"#utility.yul\":7435:7441   */\n      dup2\n        /* \"#utility.yul\":7430:7433   */\n      dup5\n        /* \"#utility.yul\":7423:7427   */\n      0x20\n        /* \"#utility.yul\":7415:7421   */\n      dup8\n        /* \"#utility.yul\":7411:7428   */\n      add\n        /* \"#utility.yul\":7376:7442   */\n      tag_471\n      jump\t// in\n    tag_541:\n        /* \"#utility.yul\":7458:7474   */\n      swap2\n      swap1\n      swap2\n      add\n      swap3\n        /* \"#utility.yul\":7191:7480   */\n      swap2\n      pop\n      pop\n      jump\t// out\n        /* \"#utility.yul\":7485:7612   */\n    tag_108:\n        /* \"#utility.yul\":7546:7556   */\n      0x4e487b71\n        /* \"#utility.yul\":7541:7544   */\n      0xe0\n        /* \"#utility.yul\":7537:7557   */\n      shl\n        /* \"#utility.yul\":7534:7535   */\n      0x00\n        /* \"#utility.yul\":7527:7558   */\n      mstore\n        /* \"#utility.yul\":7577:7581   */\n      0x32\n        /* \"#utility.yul\":7574:7575   */\n      0x04\n        /* \"#utility.yul\":7567:7582   */\n      mstore\n        /* \"#utility.yul\":7601:7605   */\n      0x24\n        /* \"#utility.yul\":7598:7599   */\n      0x00\n        /* \"#utility.yul\":7591:7606   */\n      revert\n        /* \"#utility.yul\":7617:7997   */\n    tag_111:\n        /* \"#utility.yul\":7696:7697   */\n      0x01\n        /* \"#utility.yul\":7692:7704   */\n      dup2\n      dup2\n      shr\n      swap1\n        /* \"#utility.yul\":7739:7751   */\n      dup3\n      and\n      dup1\n        /* \"#utility.yul\":7760:7821   */\n      tag_544\n      jumpi\n        /* \"#utility.yul\":7814:7818   */\n      0x7f\n        /* \"#utility.yul\":7806:7812   */\n      dup3\n        /* \"#utility.yul\":7802:7819   */\n      and\n        /* \"#utility.yul\":7792:7819   */\n      swap2\n      pop\n        /* \"#utility.yul\":7760:7821   */\n    tag_544:\n        /* \"#utility.yul\":7867:7869   */\n      0x20\n        /* \"#utility.yul\":7859:7865   */\n      dup3\n        /* \"#utility.yul\":7856:7870   */\n      lt\n        /* \"#utility.yul\":7836:7854   */\n      dup2\n        /* \"#utility.yul\":7833:7871   */\n      sub\n        /* \"#utility.yul\":7830:7991   */\n      tag_545\n      jumpi\n        /* \"#utility.yul\":7913:7923   */\n      0x4e487b71\n        /* \"#utility.yul\":7908:7911   */\n      0xe0\n        /* \"#utility.yul\":7904:7924   */\n      shl\n        /* \"#utility.yul\":7901:7902   */\n      0x00\n        /* \"#utility.yul\":7894:7925   */\n      mstore\n        /* \"#utility.yul\":7948:7952   */\n      0x22\n        /* \"#utility.yul\":7945:7946   */\n      0x04\n        /* \"#utility.yul\":7938:7953   */\n      mstore\n        /* \"#utility.yul\":7976:7980   */\n      0x24\n        /* \"#utility.yul\":7973:7974   */\n      0x00\n        /* \"#utility.yul\":7966:7981   */\n      revert\n        /* \"#utility.yul\":7830:7991   */\n    tag_545:\n      pop\n        /* \"#utility.yul\":7617:7997   */\n      swap2\n      swap1\n      pop\n      jump\t// out\n        /* \"#utility.yul\":8002:8129   */\n    tag_475:\n        /* \"#utility.yul\":8063:8073   */\n      0x4e487b71\n        /* \"#utility.yul\":8058:8061   */\n      0xe0\n        /* \"#utility.yul\":8054:8074   */\n      shl\n        /* \"#utility.yul\":8051:8052   */\n      0x00\n        /* \"#utility.yul\":8044:8075   */\n      mstore\n        /* \"#utility.yul\":8094:8098   */\n      0x11\n        /* \"#utility.yul\":8091:8092   */\n      0x04\n        /* \"#utility.yul\":8084:8099   */\n      mstore\n        /* \"#utility.yul\":8118:8122   */\n      0x24\n        /* \"#utility.yul\":8115:8116   */\n      0x00\n        /* \"#utility.yul\":8108:8123   */\n      revert\n        /* \"#utility.yul\":8134:8262   */\n    tag_157:\n        /* \"#utility.yul\":8201:8210   */\n      dup2\n      dup2\n      sub\n        /* \"#utility.yul\":8222:8233   */\n      dup2\n      dup2\n      gt\n        /* \"#utility.yul\":8219:8256   */\n      iszero\n      tag_154\n      jumpi\n        /* \"#utility.yul\":8236:8254   */\n      tag_154\n      tag_475\n      jump\t// in\n        /* \"#utility.yul\":8613:8738   */\n    tag_163:\n        /* \"#utility.yul\":8678:8687   */\n      dup1\n      dup3\n      add\n        /* \"#utility.yul\":8699:8709   */\n      dup1\n      dup3\n      gt\n        /* \"#utility.yul\":8696:8732   */\n      iszero\n      tag_154\n      jumpi\n        /* \"#utility.yul\":8712:8730   */\n      tag_154\n      tag_475\n      jump\t// in\n        /* \"#utility.yul\":8743:8878   */\n    tag_191:\n        /* \"#utility.yul\":8782:8785   */\n      0x00\n        /* \"#utility.yul\":8803:8820   */\n      0x01\n      dup3\n      add\n        /* \"#utility.yul\":8800:8843   */\n      tag_556\n      jumpi\n        /* \"#utility.yul\":8823:8841   */\n      tag_556\n      tag_475\n      jump\t// in\n    tag_556:\n      pop\n        /* \"#utility.yul\":8870:8871   */\n      0x01\n        /* \"#utility.yul\":8859:8872   */\n      add\n      swap1\n        /* \"#utility.yul\":8743:8878   */\n      jump\t// out\n        /* \"#utility.yul\":9009:9554   */\n    tag_477:\n        /* \"#utility.yul\":9111:9113   */\n      0x1f\n        /* \"#utility.yul\":9106:9109   */\n      dup3\n        /* \"#utility.yul\":9103:9114   */\n      gt\n        /* \"#utility.yul\":9100:9548   */\n      iszero\n      tag_375\n      jumpi\n        /* \"#utility.yul\":9147:9148   */\n      0x00\n        /* \"#utility.yul\":9172:9177   */\n      dup2\n        /* \"#utility.yul\":9168:9170   */\n      dup2\n        /* \"#utility.yul\":9161:9178   */\n      mstore\n        /* \"#utility.yul\":9217:9221   */\n      0x20\n        /* \"#utility.yul\":9213:9215   */\n      dup2\n        /* \"#utility.yul\":9203:9222   */\n      keccak256\n        /* \"#utility.yul\":9287:9289   */\n      0x1f\n        /* \"#utility.yul\":9275:9285   */\n      dup6\n        /* \"#utility.yul\":9271:9290   */\n      add\n        /* \"#utility.yul\":9268:9269   */\n      0x05\n        /* \"#utility.yul\":9264:9291   */\n      shr\n        /* \"#utility.yul\":9258:9262   */\n      dup2\n        /* \"#utility.yul\":9254:9292   */\n      add\n        /* \"#utility.yul\":9323:9327   */\n      0x20\n        /* \"#utility.yul\":9311:9321   */\n      dup7\n        /* \"#utility.yul\":9308:9328   */\n      lt\n        /* \"#utility.yul\":9305:9352   */\n      iszero\n      tag_560\n      jumpi\n      pop\n        /* \"#utility.yul\":9346:9350   */\n      dup1\n        /* \"#utility.yul\":9305:9352   */\n    tag_560:\n        /* \"#utility.yul\":9401:9403   */\n      0x1f\n        /* \"#utility.yul\":9396:9399   */\n      dup6\n        /* \"#utility.yul\":9392:9404   */\n      add\n        /* \"#utility.yul\":9389:9390   */\n      0x05\n        /* \"#utility.yul\":9385:9405   */\n      shr\n        /* \"#utility.yul\":9379:9383   */\n      dup3\n        /* \"#utility.yul\":9375:9406   */\n      add\n        /* \"#utility.yul\":9365:9406   */\n      swap2\n      pop\n        /* \"#utility.yul\":9456:9538   */\n    tag_561:\n        /* \"#utility.yul\":9474:9476   */\n      dup2\n        /* \"#utility.yul\":9467:9472   */\n      dup2\n        /* \"#utility.yul\":9464:9477   */\n      lt\n        /* \"#utility.yul\":9456:9538   */\n      iszero\n      tag_563\n      jumpi\n        /* \"#utility.yul\":9519:9536   */\n      dup3\n      dup2\n      sstore\n        /* \"#utility.yul\":9500:9501   */\n      0x01\n        /* \"#utility.yul\":9489:9502   */\n      add\n        /* \"#utility.yul\":9456:9538   */\n      jump(tag_561)\n    tag_563:\n        /* \"#utility.yul\":9460:9463   */\n      pop\n      pop\n      pop\n        /* \"#utility.yul\":9009:9554   */\n      pop\n      pop\n      pop\n      jump\t// out\n        /* \"#utility.yul\":9730:11082   */\n    tag_221:\n        /* \"#utility.yul\":9856:9859   */\n      dup2\n        /* \"#utility.yul\":9850:9860   */\n      mload\n      sub(shl(0x40, 0x01), 0x01)\n        /* \"#utility.yul\":9875:9881   */\n      dup2\n        /* \"#utility.yul\":9872:9902   */\n      gt\n        /* \"#utility.yul\":9869:9925   */\n      iszero\n      tag_567\n      jumpi\n        /* \"#utility.yul\":9905:9923   */\n      tag_567\n      tag_166\n      jump\t// in\n    tag_567:\n        /* \"#utility.yul\":9934:10031   */\n      tag_568\n        /* \"#utility.yul\":10024:10030   */\n      dup2\n        /* \"#utility.yul\":9984:10022   */\n      tag_569\n        /* \"#utility.yul\":10016:10020   */\n      dup5\n        /* \"#utility.yul\":10010:10021   */\n      sload\n        /* \"#utility.yul\":9984:10022   */\n      tag_111\n      jump\t// in\n    tag_569:\n        /* \"#utility.yul\":9978:9982   */\n      dup5\n        /* \"#utility.yul\":9934:10031   */\n      tag_477\n      jump\t// in\n    tag_568:\n        /* \"#utility.yul\":10086:10090   */\n      0x20\n      dup1\n        /* \"#utility.yul\":10150:10152   */\n      0x1f\n        /* \"#utility.yul\":10139:10153   */\n      dup4\n      gt\n        /* \"#utility.yul\":10167:10168   */\n      0x01\n        /* \"#utility.yul\":10162:10825   */\n      dup2\n      eq\n      tag_571\n      jumpi\n        /* \"#utility.yul\":10869:10870   */\n      0x00\n        /* \"#utility.yul\":10886:10892   */\n      dup5\n        /* \"#utility.yul\":10883:10972   */\n      iszero\n      tag_572\n      jumpi\n      pop\n        /* \"#utility.yul\":10938:10957   */\n      dup6\n      dup4\n      add\n        /* \"#utility.yul\":10932:10958   */\n      mload\n        /* \"#utility.yul\":10883:10972   */\n    tag_572:\n      not(0x00)\n        /* \"#utility.yul\":9687:9688   */\n      0x03\n        /* \"#utility.yul\":9683:9694   */\n      dup7\n      swap1\n      shl\n        /* \"#utility.yul\":9679:9703   */\n      shr\n        /* \"#utility.yul\":9675:9704   */\n      not\n        /* \"#utility.yul\":9665:9705   */\n      and\n        /* \"#utility.yul\":9711:9712   */\n      0x01\n        /* \"#utility.yul\":9707:9718   */\n      dup6\n      swap1\n      shl\n        /* \"#utility.yul\":9662:9719   */\n      or\n        /* \"#utility.yul\":10985:11066   */\n      dup6\n      sstore\n        /* \"#utility.yul\":10132:11076   */\n      jump(tag_563)\n        /* \"#utility.yul\":10162:10825   */\n    tag_571:\n        /* \"#utility.yul\":8956:8957   */\n      0x00\n        /* \"#utility.yul\":8949:8963   */\n      dup6\n      dup2\n      mstore\n        /* \"#utility.yul\":8993:8997   */\n      0x20\n        /* \"#utility.yul\":8980:8998   */\n      dup2\n      keccak256\n      not(0x1f)\n        /* \"#utility.yul\":10198:10218   */\n      dup7\n      and\n      swap2\n        /* \"#utility.yul\":10316:10552   */\n    tag_575:\n        /* \"#utility.yul\":10330:10337   */\n      dup3\n        /* \"#utility.yul\":10327:10328   */\n      dup2\n        /* \"#utility.yul\":10324:10338   */\n      lt\n        /* \"#utility.yul\":10316:10552   */\n      iszero\n      tag_577\n      jumpi\n        /* \"#utility.yul\":10419:10438   */\n      dup9\n      dup7\n      add\n        /* \"#utility.yul\":10413:10439   */\n      mload\n        /* \"#utility.yul\":10398:10440   */\n      dup3\n      sstore\n        /* \"#utility.yul\":10511:10538   */\n      swap5\n      dup5\n      add\n      swap5\n        /* \"#utility.yul\":10479:10480   */\n      0x01\n        /* \"#utility.yul\":10467:10481   */\n      swap1\n      swap2\n      add\n      swap1\n        /* \"#utility.yul\":10346:10365   */\n      dup5\n      add\n        /* \"#utility.yul\":10316:10552   */\n      jump(tag_575)\n    tag_577:\n        /* \"#utility.yul\":10320:10323   */\n      pop\n        /* \"#utility.yul\":10580:10586   */\n      dup6\n        /* \"#utility.yul\":10571:10578   */\n      dup3\n        /* \"#utility.yul\":10568:10587   */\n      lt\n        /* \"#utility.yul\":10565:10766   */\n      iszero\n      tag_578\n      jumpi\n        /* \"#utility.yul\":10641:10660   */\n      dup8\n      dup6\n      add\n        /* \"#utility.yul\":10635:10661   */\n      mload\n      not(0x00)\n        /* \"#utility.yul\":10724:10725   */\n      0x03\n        /* \"#utility.yul\":10720:10734   */\n      dup9\n      swap1\n      shl\n        /* \"#utility.yul\":10736:10739   */\n      0xf8\n        /* \"#utility.yul\":10716:10740   */\n      and\n        /* \"#utility.yul\":10712:10749   */\n      shr\n        /* \"#utility.yul\":10708:10750   */\n      not\n        /* \"#utility.yul\":10693:10751   */\n      and\n        /* \"#utility.yul\":10678:10752   */\n      dup2\n      sstore\n        /* \"#utility.yul\":10565:10766   */\n    tag_578:\n      pop\n      pop\n      pop\n      pop\n      pop\n        /* \"#utility.yul\":10812:10813   */\n      0x01\n        /* \"#utility.yul\":10796:10810   */\n      swap1\n      dup2\n      shl\n        /* \"#utility.yul\":10792:10814   */\n      add\n        /* \"#utility.yul\":10779:10815   */\n      swap1\n      sstore\n      pop\n        /* \"#utility.yul\":9730:11082   */\n      jump\t// out\n        /* \"#utility.yul\":12788:14223   */\n    tag_285:\n        /* \"#utility.yul\":12907:12910   */\n      dup2\n        /* \"#utility.yul\":12901:12905   */\n      dup2\n        /* \"#utility.yul\":12898:12911   */\n      sub\n        /* \"#utility.yul\":12895:12921   */\n      tag_595\n      jumpi\n        /* \"#utility.yul\":12914:12919   */\n      pop\n      pop\n        /* \"#utility.yul\":12788:14223   */\n      jump\t// out\n        /* \"#utility.yul\":12895:12921   */\n    tag_595:\n        /* \"#utility.yul\":12944:12981   */\n      tag_596\n        /* \"#utility.yul\":12976:12979   */\n      dup3\n        /* \"#utility.yul\":12970:12980   */\n      sload\n        /* \"#utility.yul\":12944:12981   */\n      tag_111\n      jump\t// in\n    tag_596:\n      sub(shl(0x40, 0x01), 0x01)\n        /* \"#utility.yul\":12996:13002   */\n      dup2\n        /* \"#utility.yul\":12993:13023   */\n      gt\n        /* \"#utility.yul\":12990:13046   */\n      iszero\n      tag_598\n      jumpi\n        /* \"#utility.yul\":13026:13044   */\n      tag_598\n      tag_166\n      jump\t// in\n    tag_598:\n        /* \"#utility.yul\":13055:13152   */\n      tag_599\n        /* \"#utility.yul\":13145:13151   */\n      dup2\n        /* \"#utility.yul\":13105:13143   */\n      tag_569\n        /* \"#utility.yul\":13137:13141   */\n      dup5\n        /* \"#utility.yul\":13131:13142   */\n      sload\n        /* \"#utility.yul\":13105:13143   */\n      tag_111\n      jump\t// in\n        /* \"#utility.yul\":13055:13152   */\n    tag_599:\n        /* \"#utility.yul\":13178:13179   */\n      0x00\n        /* \"#utility.yul\":13206:13208   */\n      0x1f\n        /* \"#utility.yul\":13198:13204   */\n      dup3\n        /* \"#utility.yul\":13195:13209   */\n      gt\n        /* \"#utility.yul\":13223:13224   */\n      0x01\n        /* \"#utility.yul\":13218:13966   */\n      dup2\n      eq\n      tag_602\n      jumpi\n        /* \"#utility.yul\":14010:14011   */\n      0x00\n        /* \"#utility.yul\":14027:14033   */\n      dup4\n        /* \"#utility.yul\":14024:14113   */\n      iszero\n      tag_603\n      jumpi\n      pop\n        /* \"#utility.yul\":14079:14098   */\n      dup5\n      dup3\n      add\n        /* \"#utility.yul\":14073:14099   */\n      sload\n        /* \"#utility.yul\":14024:14113   */\n    tag_603:\n      not(0x00)\n        /* \"#utility.yul\":9687:9688   */\n      0x03\n        /* \"#utility.yul\":9683:9694   */\n      dup6\n      swap1\n      shl\n        /* \"#utility.yul\":9679:9703   */\n      shr\n        /* \"#utility.yul\":9675:9704   */\n      not\n        /* \"#utility.yul\":9665:9705   */\n      and\n        /* \"#utility.yul\":9711:9712   */\n      0x01\n        /* \"#utility.yul\":9707:9718   */\n      dup5\n      swap1\n      shl\n        /* \"#utility.yul\":9662:9719   */\n      or\n        /* \"#utility.yul\":14126:14207   */\n      dup5\n      sstore\n        /* \"#utility.yul\":13188:14217   */\n      jump(tag_601)\n        /* \"#utility.yul\":13218:13966   */\n    tag_602:\n        /* \"#utility.yul\":8956:8957   */\n      0x00\n        /* \"#utility.yul\":8949:8963   */\n      dup6\n      dup2\n      mstore\n        /* \"#utility.yul\":8993:8997   */\n      0x20\n        /* \"#utility.yul\":8980:8998   */\n      swap1\n      keccak256\n      not(0x1f)\n        /* \"#utility.yul\":13254:13274   */\n      dup5\n      and\n      swap1\n        /* \"#utility.yul\":8956:8957   */\n      0x00\n        /* \"#utility.yul\":8949:8963   */\n      dup7\n      dup2\n      mstore\n        /* \"#utility.yul\":8993:8997   */\n      0x20\n        /* \"#utility.yul\":8980:8998   */\n      swap1\n      keccak256\n        /* \"#utility.yul\":13418:13427   */\n      dup5\n        /* \"#utility.yul\":13440:13691   */\n    tag_607:\n        /* \"#utility.yul\":13454:13461   */\n      dup4\n        /* \"#utility.yul\":13451:13452   */\n      dup2\n        /* \"#utility.yul\":13448:13462   */\n      lt\n        /* \"#utility.yul\":13440:13691   */\n      iszero\n      tag_609\n      jumpi\n        /* \"#utility.yul\":13536:13557   */\n      dup3\n      dup7\n      add\n        /* \"#utility.yul\":13530:13558   */\n      sload\n        /* \"#utility.yul\":13515:13559   */\n      dup3\n      sstore\n        /* \"#utility.yul\":13586:13587   */\n      0x01\n        /* \"#utility.yul\":13659:13677   */\n      swap6\n      dup7\n      add\n      swap6\n        /* \"#utility.yul\":13614:13629   */\n      swap1\n      swap2\n      add\n      swap1\n        /* \"#utility.yul\":13477:13481   */\n      0x20\n        /* \"#utility.yul\":13470:13482   */\n      add\n        /* \"#utility.yul\":13440:13691   */\n      jump(tag_607)\n    tag_609:\n        /* \"#utility.yul\":13444:13447   */\n      pop\n        /* \"#utility.yul\":13719:13725   */\n      dup6\n        /* \"#utility.yul\":13710:13717   */\n      dup4\n        /* \"#utility.yul\":13707:13726   */\n      lt\n        /* \"#utility.yul\":13704:13907   */\n      iszero\n      tag_610\n      jumpi\n        /* \"#utility.yul\":13780:13801   */\n      dup2\n      dup6\n      add\n        /* \"#utility.yul\":13774:13802   */\n      sload\n      not(0x00)\n        /* \"#utility.yul\":13865:13866   */\n      0x03\n        /* \"#utility.yul\":13861:13875   */\n      dup9\n      swap1\n      shl\n        /* \"#utility.yul\":13877:13880   */\n      0xf8\n        /* \"#utility.yul\":13857:13881   */\n      and\n        /* \"#utility.yul\":13853:13890   */\n      shr\n        /* \"#utility.yul\":13849:13891   */\n      not\n        /* \"#utility.yul\":13834:13892   */\n      and\n        /* \"#utility.yul\":13819:13893   */\n      dup2\n      sstore\n        /* \"#utility.yul\":13704:13907   */\n    tag_610:\n      pop\n      pop\n      pop\n        /* \"#utility.yul\":13953:13954   */\n      0x01\n        /* \"#utility.yul\":13944:13950   */\n      dup4\n        /* \"#utility.yul\":13941:13942   */\n      0x01\n        /* \"#utility.yul\":13937:13951   */\n      shl\n        /* \"#utility.yul\":13933:13955   */\n      add\n        /* \"#utility.yul\":13927:13931   */\n      dup5\n        /* \"#utility.yul\":13920:13956   */\n      sstore\n        /* \"#utility.yul\":13188:14217   */\n    tag_601:\n      pop\n      pop\n      pop\n        /* \"#utility.yul\":12788:14223   */\n      pop\n      pop\n      jump\t// out\n        /* \"#utility.yul\":14228:15000   */\n    tag_479:\n        /* \"#utility.yul\":14278:14281   */\n      0x00\n        /* \"#utility.yul\":14319:14324   */\n      dup2\n        /* \"#utility.yul\":14313:14325   */\n      sload\n        /* \"#utility.yul\":14348:14384   */\n      tag_612\n        /* \"#utility.yul\":14374:14383   */\n      dup2\n        /* \"#utility.yul\":14348:14384   */\n      tag_111\n      jump\t// in\n    tag_612:\n        /* \"#utility.yul\":14393:14412   */\n      dup1\n      dup6\n      mstore\n        /* \"#utility.yul\":14431:14435   */\n      0x20\n        /* \"#utility.yul\":14454:14455   */\n      0x01\n        /* \"#utility.yul\":14471:14489   */\n      dup4\n      dup2\n      and\n        /* \"#utility.yul\":14498:14644   */\n      dup1\n      iszero\n      tag_614\n      jumpi\n        /* \"#utility.yul\":14658:14659   */\n      0x01\n        /* \"#utility.yul\":14653:14994   */\n      dup2\n      eq\n      tag_615\n      jumpi\n        /* \"#utility.yul\":14464:14994   */\n      jump(tag_613)\n        /* \"#utility.yul\":14498:14644   */\n    tag_614:\n      not(0xff)\n        /* \"#utility.yul\":14540:14564   */\n      dup6\n      and\n        /* \"#utility.yul\":14526:14538   */\n      dup9\n      dup5\n      add\n        /* \"#utility.yul\":14519:14565   */\n      mstore\n        /* \"#utility.yul\":14612:14626   */\n      dup4\n      iszero\n        /* \"#utility.yul\":14605:14627   */\n      iszero\n        /* \"#utility.yul\":14602:14603   */\n      0x05\n        /* \"#utility.yul\":14598:14628   */\n      shl\n        /* \"#utility.yul\":14589:14629   */\n      dup9\n      add\n        /* \"#utility.yul\":14585:14634   */\n      dup4\n      add\n      swap6\n      pop\n        /* \"#utility.yul\":14498:14644   */\n      jump(tag_613)\n        /* \"#utility.yul\":14653:14994   */\n    tag_615:\n        /* \"#utility.yul\":14684:14689   */\n      dup7\n        /* \"#utility.yul\":14681:14682   */\n      0x00\n        /* \"#utility.yul\":14674:14690   */\n      mstore\n        /* \"#utility.yul\":14731:14733   */\n      dup3\n        /* \"#utility.yul\":14728:14729   */\n      0x00\n        /* \"#utility.yul\":14718:14734   */\n      keccak256\n        /* \"#utility.yul\":14756:14757   */\n      0x00\n        /* \"#utility.yul\":14770:14944   */\n    tag_616:\n        /* \"#utility.yul\":14784:14790   */\n      dup6\n        /* \"#utility.yul\":14781:14782   */\n      dup2\n        /* \"#utility.yul\":14778:14791   */\n      lt\n        /* \"#utility.yul\":14770:14944   */\n      iszero\n      tag_618\n      jumpi\n        /* \"#utility.yul\":14871:14885   */\n      dup2\n      sload\n        /* \"#utility.yul\":14853:14864   */\n      dup11\n      dup3\n      add\n        /* \"#utility.yul\":14849:14869   */\n      dup7\n      add\n        /* \"#utility.yul\":14842:14886   */\n      mstore\n        /* \"#utility.yul\":14914:14930   */\n      swap1\n      dup4\n      add\n      swap1\n        /* \"#utility.yul\":14799:14809   */\n      dup5\n      add\n        /* \"#utility.yul\":14770:14944   */\n      jump(tag_616)\n    tag_618:\n        /* \"#utility.yul\":14968:14979   */\n      dup10\n      add\n        /* \"#utility.yul\":14964:14984   */\n      dup5\n      add\n      swap7\n      pop\n      pop\n        /* \"#utility.yul\":14464:14994   */\n    tag_613:\n      pop\n      pop\n      pop\n      pop\n      pop\n        /* \"#utility.yul\":14228:15000   */\n      swap3\n      swap2\n      pop\n      pop\n      jump\t// out\n        /* \"#utility.yul\":15005:15562   */\n    tag_291:\n        /* \"#utility.yul\":15237:15239   */\n      0x60\n        /* \"#utility.yul\":15226:15235   */\n      dup2\n        /* \"#utility.yul\":15219:15240   */\n      mstore\n        /* \"#utility.yul\":15200:15204   */\n      0x00\n        /* \"#utility.yul\":15263:15316   */\n      tag_620\n        /* \"#utility.yul\":15312:15314   */\n      0x60\n        /* \"#utility.yul\":15301:15310   */\n      dup4\n        /* \"#utility.yul\":15297:15315   */\n      add\n        /* \"#utility.yul\":15289:15295   */\n      dup7\n        /* \"#utility.yul\":15263:15316   */\n      tag_479\n      jump\t// in\n    tag_620:\n        /* \"#utility.yul\":15364:15373   */\n      dup3\n        /* \"#utility.yul\":15356:15362   */\n      dup2\n        /* \"#utility.yul\":15352:15374   */\n      sub\n        /* \"#utility.yul\":15347:15349   */\n      0x20\n        /* \"#utility.yul\":15336:15345   */\n      dup5\n        /* \"#utility.yul\":15332:15350   */\n      add\n        /* \"#utility.yul\":15325:15375   */\n      mstore\n        /* \"#utility.yul\":15398:15439   */\n      tag_621\n        /* \"#utility.yul\":15432:15438   */\n      dup2\n        /* \"#utility.yul\":15424:15430   */\n      dup7\n        /* \"#utility.yul\":15398:15439   */\n      tag_479\n      jump\t// in\n    tag_621:\n        /* \"#utility.yul\":15384:15439   */\n      swap1\n      pop\n        /* \"#utility.yul\":15487:15496   */\n      dup3\n        /* \"#utility.yul\":15479:15485   */\n      dup2\n        /* \"#utility.yul\":15475:15497   */\n      sub\n        /* \"#utility.yul\":15470:15472   */\n      0x40\n        /* \"#utility.yul\":15459:15468   */\n      dup5\n        /* \"#utility.yul\":15455:15473   */\n      add\n        /* \"#utility.yul\":15448:15498   */\n      mstore\n        /* \"#utility.yul\":15515:15556   */\n      tag_622\n        /* \"#utility.yul\":15549:15555   */\n      dup2\n        /* \"#utility.yul\":15541:15547   */\n      dup6\n        /* \"#utility.yul\":15515:15556   */\n      tag_479\n      jump\t// in\n    tag_622:\n        /* \"#utility.yul\":15507:15556   */\n      swap7\n        /* \"#utility.yul\":15005:15562   */\n      swap6\n      pop\n      pop\n      pop\n      pop\n      pop\n      pop\n      jump\t// out\n        /* \"#utility.yul\":15567:15694   */\n    tag_305:\n        /* \"#utility.yul\":15628:15638   */\n      0x4e487b71\n        /* \"#utility.yul\":15623:15626   */\n      0xe0\n        /* \"#utility.yul\":15619:15639   */\n      shl\n        /* \"#utility.yul\":15616:15617   */\n      0x00\n        /* \"#utility.yul\":15609:15640   */\n      mstore\n        /* \"#utility.yul\":15659:15663   */\n      0x21\n        /* \"#utility.yul\":15656:15657   */\n      0x04\n        /* \"#utility.yul\":15649:15664   */\n      mstore\n        /* \"#utility.yul\":15683:15687   */\n      0x24\n        /* \"#utility.yul\":15680:15681   */\n      0x00\n        /* \"#utility.yul\":15673:15688   */\n      revert\n        /* \"#utility.yul\":15699:16253   */\n    tag_352:\n      sub(shl(0x40, 0x01), 0x01)\n        /* \"#utility.yul\":15956:15962   */\n      dup7\n        /* \"#utility.yul\":15952:15983   */\n      and\n        /* \"#utility.yul\":15941:15950   */\n      dup2\n        /* \"#utility.yul\":15934:15984   */\n      mstore\n        /* \"#utility.yul\":16020:16023   */\n      0xa0\n        /* \"#utility.yul\":16015:16017   */\n      0x20\n        /* \"#utility.yul\":16004:16013   */\n      dup3\n        /* \"#utility.yul\":16000:16018   */\n      add\n        /* \"#utility.yul\":15993:16024   */\n      mstore\n        /* \"#utility.yul\":15915:15919   */\n      0x00\n        /* \"#utility.yul\":16041:16087   */\n      tag_625\n        /* \"#utility.yul\":16082:16085   */\n      0xa0\n        /* \"#utility.yul\":16071:16080   */\n      dup4\n        /* \"#utility.yul\":16067:16086   */\n      add\n        /* \"#utility.yul\":16059:16065   */\n      dup8\n        /* \"#utility.yul\":16041:16087   */\n      tag_472\n      jump\t// in\n    tag_625:\n        /* \"#utility.yul\":16135:16141   */\n      0xffff\n        /* \"#utility.yul\":16123:16142   */\n      swap6\n      swap1\n      swap6\n      and\n        /* \"#utility.yul\":16118:16120   */\n      0x40\n        /* \"#utility.yul\":16103:16121   */\n      dup4\n      add\n        /* \"#utility.yul\":16096:16143   */\n      mstore\n      pop\n        /* \"#utility.yul\":16191:16201   */\n      0xffffffff\n        /* \"#utility.yul\":16179:16202   */\n      swap3\n      swap1\n      swap3\n      and\n        /* \"#utility.yul\":16174:16176   */\n      0x60\n        /* \"#utility.yul\":16159:16177   */\n      dup4\n      add\n        /* \"#utility.yul\":16152:16203   */\n      mstore\n        /* \"#utility.yul\":16234:16237   */\n      0x80\n        /* \"#utility.yul\":16219:16238   */\n      swap1\n      swap2\n      add\n        /* \"#utility.yul\":16212:16247   */\n      mstore\n        /* \"#utility.yul\":16033:16087   */\n      swap3\n        /* \"#utility.yul\":15699:16253   */\n      swap2\n      pop\n      pop\n      jump\t// out\n        /* \"#utility.yul\":16258:16442   */\n    tag_356:\n        /* \"#utility.yul\":16328:16334   */\n      0x00\n        /* \"#utility.yul\":16381:16383   */\n      0x20\n        /* \"#utility.yul\":16369:16378   */\n      dup3\n        /* \"#utility.yul\":16360:16367   */\n      dup5\n        /* \"#utility.yul\":16356:16379   */\n      sub\n        /* \"#utility.yul\":16352:16384   */\n      slt\n        /* \"#utility.yul\":16349:16401   */\n      iszero\n      tag_627\n      jumpi\n        /* \"#utility.yul\":16397:16398   */\n      0x00\n        /* \"#utility.yul\":16394:16395   */\n      dup1\n        /* \"#utility.yul\":16387:16399   */\n      revert\n        /* \"#utility.yul\":16349:16401   */\n    tag_627:\n      pop\n        /* \"#utility.yul\":16420:16436   */\n      mload\n      swap2\n        /* \"#utility.yul\":16258:16442   */\n      swap1\n      pop\n      jump\t// out\n        /* \"#utility.yul\":16447:16656   */\n    tag_396:\n        /* \"#utility.yul\":16479:16480   */\n      0x00\n        /* \"#utility.yul\":16505:16506   */\n      dup3\n        /* \"#utility.yul\":16495:16627   */\n      tag_629\n      jumpi\n        /* \"#utility.yul\":16549:16559   */\n      0x4e487b71\n        /* \"#utility.yul\":16544:16547   */\n      0xe0\n        /* \"#utility.yul\":16540:16560   */\n      shl\n        /* \"#utility.yul\":16537:16538   */\n      0x00\n        /* \"#utility.yul\":16530:16561   */\n      mstore\n        /* \"#utility.yul\":16584:16588   */\n      0x12\n        /* \"#utility.yul\":16581:16582   */\n      0x04\n        /* \"#utility.yul\":16574:16589   */\n      mstore\n        /* \"#utility.yul\":16612:16616   */\n      0x24\n        /* \"#utility.yul\":16609:16610   */\n      0x00\n        /* \"#utility.yul\":16602:16617   */\n      revert\n        /* \"#utility.yul\":16495:16627   */\n    tag_629:\n      pop\n        /* \"#utility.yul\":16641:16650   */\n      mod\n      swap1\n        /* \"#utility.yul\":16447:16656   */\n      jump\t// out\n        /* \"#utility.yul\":16661:16829   */\n    tag_431:\n        /* \"#utility.yul\":16734:16743   */\n      dup1\n      dup3\n      mul\n        /* \"#utility.yul\":16765:16774   */\n      dup2\n      iszero\n        /* \"#utility.yul\":16782:16797   */\n      dup3\n      dup3\n      div\n        /* \"#utility.yul\":16776:16798   */\n      dup5\n      eq\n        /* \"#utility.yul\":16762:16799   */\n      or\n        /* \"#utility.yul\":16752:16823   */\n      tag_154\n      jumpi\n        /* \"#utility.yul\":16803:16821   */\n      tag_154\n      tag_475\n      jump\t// in\n        /* \"#utility.yul\":16834:17256   */\n    tag_480:\n        /* \"#utility.yul\":16923:16924   */\n      0x01\n        /* \"#utility.yul\":16966:16971   */\n      dup2\n        /* \"#utility.yul\":16923:16924   */\n      dup2\n        /* \"#utility.yul\":16980:17250   */\n    tag_634:\n        /* \"#utility.yul\":17001:17008   */\n      dup1\n        /* \"#utility.yul\":16991:16999   */\n      dup6\n        /* \"#utility.yul\":16988:17009   */\n      gt\n        /* \"#utility.yul\":16980:17250   */\n      iszero\n      tag_636\n      jumpi\n        /* \"#utility.yul\":17060:17064   */\n      dup2\n        /* \"#utility.yul\":17056:17057   */\n      0x00\n        /* \"#utility.yul\":17052:17058   */\n      not\n        /* \"#utility.yul\":17048:17065   */\n      div\n        /* \"#utility.yul\":17042:17046   */\n      dup3\n        /* \"#utility.yul\":17039:17066   */\n      gt\n        /* \"#utility.yul\":17036:17089   */\n      iszero\n      tag_638\n      jumpi\n        /* \"#utility.yul\":17069:17087   */\n      tag_638\n      tag_475\n      jump\t// in\n    tag_638:\n        /* \"#utility.yul\":17119:17126   */\n      dup1\n        /* \"#utility.yul\":17109:17117   */\n      dup6\n        /* \"#utility.yul\":17105:17127   */\n      and\n        /* \"#utility.yul\":17102:17157   */\n      iszero\n      tag_639\n      jumpi\n        /* \"#utility.yul\":17139:17155   */\n      swap2\n      dup2\n      mul\n      swap2\n        /* \"#utility.yul\":17102:17157   */\n    tag_639:\n        /* \"#utility.yul\":17218:17240   */\n      swap4\n      dup5\n      shr\n      swap4\n        /* \"#utility.yul\":17178:17193   */\n      swap1\n      dup1\n      mul\n      swap1\n        /* \"#utility.yul\":16980:17250   */\n      jump(tag_634)\n    tag_636:\n        /* \"#utility.yul\":16984:16987   */\n      pop\n        /* \"#utility.yul\":16834:17256   */\n      swap3\n      pop\n      swap3\n      swap1\n      pop\n      jump\t// out\n        /* \"#utility.yul\":17261:18067   */\n    tag_481:\n        /* \"#utility.yul\":17310:17315   */\n      0x00\n        /* \"#utility.yul\":17340:17348   */\n      dup3\n        /* \"#utility.yul\":17330:17410   */\n      tag_641\n      jumpi\n      pop\n        /* \"#utility.yul\":17381:17382   */\n      0x01\n        /* \"#utility.yul\":17395:17400   */\n      jump(tag_154)\n        /* \"#utility.yul\":17330:17410   */\n    tag_641:\n        /* \"#utility.yul\":17429:17433   */\n      dup2\n        /* \"#utility.yul\":17419:17495   */\n      tag_642\n      jumpi\n      pop\n        /* \"#utility.yul\":17466:17467   */\n      0x00\n        /* \"#utility.yul\":17480:17485   */\n      jump(tag_154)\n        /* \"#utility.yul\":17419:17495   */\n    tag_642:\n        /* \"#utility.yul\":17511:17515   */\n      dup2\n        /* \"#utility.yul\":17529:17530   */\n      0x01\n        /* \"#utility.yul\":17524:17583   */\n      dup2\n      eq\n      tag_644\n      jumpi\n        /* \"#utility.yul\":17597:17598   */\n      0x02\n        /* \"#utility.yul\":17592:17722   */\n      dup2\n      eq\n      tag_645\n      jumpi\n        /* \"#utility.yul\":17504:17722   */\n      jump(tag_643)\n        /* \"#utility.yul\":17524:17583   */\n    tag_644:\n        /* \"#utility.yul\":17554:17555   */\n      0x01\n        /* \"#utility.yul\":17545:17555   */\n      swap2\n      pop\n        /* \"#utility.yul\":17568:17573   */\n      pop\n      jump(tag_154)\n        /* \"#utility.yul\":17592:17722   */\n    tag_645:\n        /* \"#utility.yul\":17629:17632   */\n      0xff\n        /* \"#utility.yul\":17619:17627   */\n      dup5\n        /* \"#utility.yul\":17616:17633   */\n      gt\n        /* \"#utility.yul\":17613:17656   */\n      iszero\n      tag_647\n      jumpi\n        /* \"#utility.yul\":17636:17654   */\n      tag_647\n      tag_475\n      jump\t// in\n    tag_647:\n      pop\n      pop\n        /* \"#utility.yul\":17692:17693   */\n      0x01\n        /* \"#utility.yul\":17678:17694   */\n      dup3\n      shl\n        /* \"#utility.yul\":17707:17712   */\n      jump(tag_154)\n        /* \"#utility.yul\":17504:17722   */\n    tag_643:\n      pop\n        /* \"#utility.yul\":17806:17808   */\n      0x20\n        /* \"#utility.yul\":17796:17804   */\n      dup4\n        /* \"#utility.yul\":17793:17809   */\n      lt\n        /* \"#utility.yul\":17787:17790   */\n      0x0133\n        /* \"#utility.yul\":17781:17785   */\n      dup4\n        /* \"#utility.yul\":17778:17791   */\n      lt\n        /* \"#utility.yul\":17774:17810   */\n      and\n        /* \"#utility.yul\":17768:17770   */\n      0x4e\n        /* \"#utility.yul\":17758:17766   */\n      dup5\n        /* \"#utility.yul\":17755:17771   */\n      lt\n        /* \"#utility.yul\":17750:17752   */\n      0x0b\n        /* \"#utility.yul\":17744:17748   */\n      dup5\n        /* \"#utility.yul\":17741:17753   */\n      lt\n        /* \"#utility.yul\":17737:17772   */\n      and\n        /* \"#utility.yul\":17734:17811   */\n      or\n        /* \"#utility.yul\":17731:17890   */\n      iszero\n      tag_648\n      jumpi\n      pop\n        /* \"#utility.yul\":17843:17862   */\n      dup2\n      dup2\n      exp\n        /* \"#utility.yul\":17875:17880   */\n      jump(tag_154)\n        /* \"#utility.yul\":17731:17890   */\n    tag_648:\n        /* \"#utility.yul\":17922:17956   */\n      tag_649\n        /* \"#utility.yul\":17947:17955   */\n      dup4\n        /* \"#utility.yul\":17941:17945   */\n      dup4\n        /* \"#utility.yul\":17922:17956   */\n      tag_480\n      jump\t// in\n    tag_649:\n        /* \"#utility.yul\":17992:17998   */\n      dup1\n        /* \"#utility.yul\":17988:17989   */\n      0x00\n        /* \"#utility.yul\":17984:17990   */\n      not\n        /* \"#utility.yul\":17980:17999   */\n      div\n        /* \"#utility.yul\":17971:17978   */\n      dup3\n        /* \"#utility.yul\":17968:18000   */\n      gt\n        /* \"#utility.yul\":17965:18023   */\n      iszero\n      tag_651\n      jumpi\n        /* \"#utility.yul\":18003:18021   */\n      tag_651\n      tag_475\n      jump\t// in\n    tag_651:\n        /* \"#utility.yul\":18041:18061   */\n      mul\n      swap4\n        /* \"#utility.yul\":17261:18067   */\n      swap3\n      pop\n      pop\n      pop\n      jump\t// out\n        /* \"#utility.yul\":18072:18203   */\n    tag_443:\n        /* \"#utility.yul\":18132:18137   */\n      0x00\n        /* \"#utility.yul\":18161:18197   */\n      tag_423\n        /* \"#utility.yul\":18188:18196   */\n      dup4\n        /* \"#utility.yul\":18182:18186   */\n      dup4\n        /* \"#utility.yul\":18161:18197   */\n      tag_481\n      jump\t// in\n\n    auxdata: 0xa2646970667358221220603f253cbedbe8933d5241ae0cd933e4287ba0f2645ec54d752c0bb76f0b917a64736f6c63430008130033\n}\n",
				"bytecode": {
					"linkReferences": {},
					"object": "600580546001600160a01b03191673b83e47c2bc239b3bf370bc41e1459a34b41238d01790557f66756e2d657468657265756d2d7365706f6c69612d31000000000000000000006006556007805463ffffffff1916620493e01790556101e060405261010360a081815290620026d460c03960089062000080908262000196565b503480156200008e57600080fd5b50604051620027d7380380620027d7833981016040819052620000b19162000262565b6005546001600160a01b0316608052600780546001600160401b0390921664010000000002600160201b600160601b031990921691909117905562000294565b634e487b7160e01b600052604160045260246000fd5b600181811c908216806200011c57607f821691505b6020821081036200013d57634e487b7160e01b600052602260045260246000fd5b50919050565b601f8211156200019157600081815260208120601f850160051c810160208610156200016c5750805b601f850160051c820191505b818110156200018d5782815560010162000178565b5050505b505050565b81516001600160401b03811115620001b257620001b2620000f1565b620001ca81620001c3845462000107565b8462000143565b602080601f831160018114620002025760008415620001e95750858301515b600019600386901b1c1916600185901b1785556200018d565b600085815260208120601f198616915b82811015620002335788860151825594840194600190910190840162000212565b5085821015620002525787850151600019600388901b60f8161c191681555b5050505050600190811b01905550565b6000602082840312156200027557600080fd5b81516001600160401b03811681146200028d57600080fd5b9392505050565b60805161241d620002b7600039600081816104c201526115b8015261241d6000f3fe608060405234801561001057600080fd5b50600436106101165760003560e01c80638b8267cf116100a25780639fb51771116100715780639fb5177114610289578063bc6f09c914610291578063c69c5bb814610299578063cd2b8d11146102c4578063fc2a88c3146102cc57600080fd5b80638b8267cf146102205780638fcabccb1461024057806394d02941146102535780639d8669851461026657600080fd5b806329f0de3f116100e957806329f0de3f146101b757806362747e42146101cc57806367e828bf146101d45780636a51b918146101dc5780638796ba8c146101ff57600080fd5b80630650e9711461011b57806309c1ba2e146101445780630ca7617514610177578063256fec881461018c575b600080fd5b61012e610129366004611c35565b6102d5565b60405161013b9190611d28565b60405180910390f35b60075461015f9064010000000090046001600160401b031681565b6040516001600160401b03909116815260200161013b565b61018a610185366004611d5b565b6104b7565b005b600b5461019f906001600160a01b031681565b6040516001600160a01b03909116815260200161013b565b6101bf61053b565b60405161013b9190611dc7565b6101bf6105c9565b6101bf6105d6565b6101ef6101ea366004611dda565b6105e3565b60405161013b9493929190611df3565b61021261020d366004611dda565b61073a565b60405190815260200161013b565b61023361022e366004611e37565b61075b565b60405161013b9190611e59565b6101bf61024e366004611dda565b610a41565b610212610261366004611c35565b610a5a565b610279610274366004611dda565b610dec565b60405161013b9493929190611ebb565b6101bf610ea9565b610233610eb6565b6102126102a7366004611c35565b8051602081830181018051600d8252928201919093012091525481565b6101bf611059565b61021260005481565b610309604051806080016040528060006001600160a01b031681526020016000815260200160608152602001606081525090565b600c600d8360405161031b9190611ede565b9081526020016040518091039020548154811061033a5761033a611efa565b90600052602060002090600402016040518060800160405290816000820160009054906101000a90046001600160a01b03166001600160a01b03166001600160a01b031681526020016001820154815260200160028201805461039c90611f10565b80601f01602080910402602001604051908101604052809291908181526020018280546103c890611f10565b80156104155780601f106103ea57610100808354040283529160200191610415565b820191906000526020600020905b8154815290600101906020018083116103f857829003601f168201915b5050505050815260200160038201805461042e90611f10565b80601f016020809104026020016040519081016040528092919081815260200182805461045a90611f10565b80156104a75780601f1061047c576101008083540402835291602001916104a7565b820191906000526020600020905b81548152906001019060200180831161048a57829003601f168201915b5050505050815250509050919050565b336001600160a01b037f000000000000000000000000000000000000000000000000000000000000000016146105005760405163c6829f8360e01b815260040160405180910390fd5b61050b838383611066565b60405183907f85e1543bf2f84fe80c6badbce3648c8539ad1df4d2b3d822938ca0538be727e690600090a2505050565b6002805461054890611f10565b80601f016020809104026020016040519081016040528092919081815260200182805461057490611f10565b80156105c15780601f10610596576101008083540402835291602001916105c1565b820191906000526020600020905b8154815290600101906020018083116105a457829003601f168201915b505050505081565b6001805461054890611f10565b6008805461054890611f10565b600c81815481106105f357600080fd5b60009182526020909120600490910201805460018201546002830180546001600160a01b03909316945090929161062990611f10565b80601f016020809104026020016040519081016040528092919081815260200182805461065590611f10565b80156106a25780601f10610677576101008083540402835291602001916106a2565b820191906000526020600020905b81548152906001019060200180831161068557829003601f168201915b5050505050908060030180546106b790611f10565b80601f01602080910402602001604051908101604052809291908181526020018280546106e390611f10565b80156107305780601f1061070557610100808354040283529160200191610730565b820191906000526020600020905b81548152906001019060200180831161071357829003601f168201915b5050505050905084565b6004818154811061074a57600080fd5b600091825260209091200154905081565b600c5460609082111561077a57600c5461077790600190611f60565b91505b818311156107c35760405162461bcd60e51b81526020600482015260116024820152701cdd185c9d081b5d5cdd080f0f48195b99607a1b60448201526064015b60405180910390fd5b60006107cf8484611f60565b6107da906001611f73565b90506000816001600160401b038111156107f6576107f6611baa565b60405190808252806020026020018201604052801561085b57816020015b610848604051806080016040528060006001600160a01b031681526020016000815260200160608152602001606081525090565b8152602001906001900390816108145790505b509050845b61086b856001611f73565b811015610a3657600c818154811061088557610885611efa565b90600052602060002090600402016040518060800160405290816000820160009054906101000a90046001600160a01b03166001600160a01b03166001600160a01b03168152602001600182015481526020016002820180546108e790611f10565b80601f016020809104026020016040519081016040528092919081815260200182805461091390611f10565b80156109605780601f1061093557610100808354040283529160200191610960565b820191906000526020600020905b81548152906001019060200180831161094357829003601f168201915b5050505050815260200160038201805461097990611f10565b80601f01602080910402602001604051908101604052809291908181526020018280546109a590611f10565b80156109f25780601f106109c7576101008083540402835291602001916109f2565b820191906000526020600020905b8154815290600101906020018083116109d557829003601f168201915b505050505081525050828783610a089190611f60565b81518110610a1857610a18611efa565b60200260200101819052508080610a2e90611f86565b915050610860565b509150505b92915050565b600e602052600090815260409020805461054890611f10565b604080516001808252818301909252600091829190816020015b6060815260200190600190039081610a745790505090508281600081518110610a9f57610a9f611efa565b6020026020010181905250610aeb6040805160e0810190915280600081526020016000815260200160008152602001606081526020016060815260200160608152602001606081525090565b610b8860088054610afb90611f10565b80601f0160208091040260200160405190810160405280929190818152602001828054610b2790611f10565b8015610b745780601f10610b4957610100808354040283529160200191610b74565b820191906000526020600020905b815481529060010190602001808311610b5757829003601f168201915b5050505050826112a090919063ffffffff16565b815115610b9957610b9981836112b1565b610bc9610ba5826112db565b6007546006546001600160401b036401000000008304169163ffffffff16906115b3565b6000556009610bd88582611fed565b50600080548152600e60205260409020610bf28582611fed565b50604080516080810182523381526000602080830182815283850189815285519283019095528282526060840191909152600c8054600181018255925282517fdf6966c971051c3d54ec59162606531493a51404a002842f56009d7e5cf4a8c7600490930292830180546001600160a01b0319166001600160a01b0390921691909117815590517fdf6966c971051c3d54ec59162606531493a51404a002842f56009d7e5cf4a8c883015592519192839290917fdf6966c971051c3d54ec59162606531493a51404a002842f56009d7e5cf4a8c90190610cd29082611fed565b5060608201516003820190610ce79082611fed565b5050600c54610cf99150600190611f60565b600d86604051610d099190611ede565b90815260408051602092819003830181209390935560808301815260008084526001838501818152835180860185528381528685019081528451808701865284815260608801528354845260039095529290912084518154935161ffff1990941690151561ff001916176101009315159390930292909217825591519091820190610d949082611fed565b5060608201516002820190610da99082611fed565b5050600080546004805460018101825592527f8a35acfbc15ff81a39ae7d344fd709f28e8600b4aa8c65c6b64bfe7fe36bd19b9091018190559695505050505050565b6003602052600090815260409020805460018201805460ff8084169461010090940416929190610e1b90611f10565b80601f0160208091040260200160405190810160405280929190818152602001828054610e4790611f10565b8015610e945780601f10610e6957610100808354040283529160200191610e94565b820191906000526020600020905b815481529060010190602001808311610e7757829003601f168201915b5050505050908060020180546106b790611f10565b600a805461054890611f10565b6060600c805480602002602001604051908101604052809291908181526020016000905b82821015611050576000848152602090819020604080516080810182526004860290920180546001600160a01b0316835260018101549383019390935260028301805492939291840191610f2d90611f10565b80601f0160208091040260200160405190810160405280929190818152602001828054610f5990611f10565b8015610fa65780601f10610f7b57610100808354040283529160200191610fa6565b820191906000526020600020905b815481529060010190602001808311610f8957829003601f168201915b50505050508152602001600382018054610fbf90611f10565b80601f0160208091040260200160405190810160405280929190818152602001828054610feb90611f10565b80156110385780601f1061100d57610100808354040283529160200191611038565b820191906000526020600020905b81548152906001019060200180831161101b57829003601f168201915b50505050508152505081526020019060010190610eda565b50505050905090565b6009805461054890611f10565b600083815260036020526040902054610100900460ff166110bd5760405162461bcd60e51b81526020600482015260116024820152701c995c5d595cdd081b9bdd08199bdd5b99607a1b60448201526064016107ba565b60026110c98282611fed565b5060016110d68382611fed565b506000838152600360205260409020805460ff191660019081178255016110fd8382611fed565b5060008381526003602052604090206002016111198282611fed565b506000838152600e60205260408120805461113390611f10565b80601f016020809104026020016040519081016040528092919081815260200182805461115f90611f10565b80156111ac5780601f10611181576101008083540402835291602001916111ac565b820191906000526020600020905b81548152906001019060200180831161118f57829003601f168201915b5050505050905082600a90816111c29190611fed565b50600a600c600d836040516111d79190611ede565b908152602001604051809103902054815481106111f6576111f6611efa565b9060005260206000209060040201600301908161121391906120ac565b5042600c600d836040516112279190611ede565b9081526020016040518091039020548154811061124657611246611efa565b906000526020600020906004020160010181905550837f160ed0aaffbef6885155188b91459cb5a97d5daadccf7561d8c46deea6641b50600a6001600260405161129293929190612203565b60405180910390a250505050565b6112ad8260008084611685565b5050565b80516000036112d35760405163fe936cb760e01b815260040160405180910390fd5b60a090910152565b606060006112ea610100611703565b90506113236040518060400160405280600c81526020016b31b7b232a637b1b0ba34b7b760a11b8152508261172490919063ffffffff16565b825161134190600281111561133a5761133a612246565b8290611742565b6040805180820190915260088152676c616e677561676560c01b602082015261136b908290611724565b604083015161138290801561133a5761133a612246565b604080518082019091526006815265736f7572636560d01b60208201526113aa908290611724565b60608301516113ba908290611724565b60a0830151511561144e576040805180820190915260048152636172677360e01b60208201526113eb908290611724565b6113f48161177b565b60005b8360a0015151811015611444576114348460a00151828151811061141d5761141d611efa565b60200260200101518361172490919063ffffffff16565b61143d81611f86565b90506113f7565b5061144e8161179f565b608083015151156115125760008360200151600281111561147157611471612246565b0361148f5760405163a80d31f760e01b815260040160405180910390fd5b60408051808201909152600f81526e39b2b1b932ba39a637b1b0ba34b7b760891b60208201526114c0908290611724565b6114d98360200151600281111561133a5761133a612246565b6040805180820190915260078152667365637265747360c81b6020820152611502908290611724565b60808301516115129082906117bd565b60c083015151156115ab5760408051808201909152600981526862797465734172677360b81b6020820152611548908290611724565b6115518161177b565b60005b8360c00151518110156115a1576115918460c00151828151811061157a5761157a611efa565b6020026020010151836117bd90919063ffffffff16565b61159a81611f86565b9050611554565b506115ab8161179f565b515192915050565b6000807f00000000000000000000000000000000000000000000000000000000000000006001600160a01b031663461d27628688600188886040518663ffffffff1660e01b815260040161160b95949392919061225c565b6020604051808303816000875af115801561162a573d6000803e3d6000fd5b505050506040513d601f19601f8201168201806040525081019061164e91906122a5565b60405190915081907f1131472297a800fee664d1d89cfa8f7676ff07189ecc53f80bbb5f4969099db890600090a295945050505050565b80516000036116a7576040516322ce3edd60e01b815260040160405180910390fd5b838360028111156116ba576116ba612246565b908160028111156116cd576116cd612246565b905250604084018280156116e3576116e3612246565b908180156116f3576116f3612246565b9052506060909301929092525050565b61170b611b75565b805161171790836117ca565b5060006020820152919050565b6117318260038351611841565b815161173d9082611960565b505050565b815161174f9060c2611988565b506112ad828260405160200161176791815260200190565b6040516020818303038152906040526117bd565b6117868160046119f1565b6001816020018181516117999190611f73565b90525050565b6117aa8160076119f1565b6001816020018181516117999190611f60565b6117318260028351611841565b6040805180820190915260608152600060208201526117ea6020836122be565b15611812576117fa6020836122be565b611805906020611f60565b61180f9083611f73565b91505b60208084018390526040518085526000815290818401018181101561183657600080fd5b604052509192915050565b6017816001600160401b03161161186d5782516118679060e0600585901b168317611988565b50505050565b60ff816001600160401b0316116118ad578251611895906018611fe0600586901b1617611988565b508251611867906001600160401b0383166001611a08565b61ffff816001600160401b0316116118ee5782516118d6906019611fe0600586901b1617611988565b508251611867906001600160401b0383166002611a08565b63ffffffff816001600160401b03161161193157825161191990601a611fe0600586901b1617611988565b508251611867906001600160401b0383166004611a08565b825161194890601b611fe0600586901b1617611988565b508251611867906001600160401b0383166008611a08565b60408051808201909152606081526000602082015261198183838451611a8d565b9392505050565b60408051808201909152606081526000602082015282515160006119ad826001611f73565b9050846020015182106119ce576119ce856119c98360026122e0565b611b5e565b84516020838201018581535080518211156119e7578181525b5093949350505050565b815161173d90601f611fe0600585901b1617611988565b6040805180820190915260608152600060208201528351516000611a2c8285611f73565b90508560200151811115611a4957611a49866119c98360026122e0565b60006001611a59866101006123db565b611a639190611f60565b90508651828101878319825116178152508051831115611a81578281525b50959695505050505050565b6040805180820190915260608152600060208201528251821115611ab057600080fd5b8351516000611abf8483611f73565b90508560200151811115611adc57611adc866119c98360026122e0565b855180518382016020019160009180851115611af6578482525b505050602086015b60208610611b365780518252611b15602083611f73565b9150611b22602082611f73565b9050611b2f602087611f60565b9550611afe565b51815160001960208890036101000a0190811690199190911617905250849150509392505050565b8151611b6a83836117ca565b506118678382611960565b6040518060400160405280611b9d604051806040016040528060608152602001600081525090565b8152602001600081525090565b634e487b7160e01b600052604160045260246000fd5b60006001600160401b0380841115611bda57611bda611baa565b604051601f8501601f19908116603f01168101908282118183101715611c0257611c02611baa565b81604052809350858152868686011115611c1b57600080fd5b858560208301376000602087830101525050509392505050565b600060208284031215611c4757600080fd5b81356001600160401b03811115611c5d57600080fd5b8201601f81018413611c6e57600080fd5b611c7d84823560208401611bc0565b949350505050565b60005b83811015611ca0578181015183820152602001611c88565b50506000910152565b60008151808452611cc1816020860160208601611c85565b601f01601f19169290920160200192915050565b60018060a01b038151168252602081015160208301526000604082015160806040850152611d066080850182611ca9565b905060608301518482036060860152611d1f8282611ca9565b95945050505050565b6020815260006119816020830184611cd5565b600082601f830112611d4c57600080fd5b61198183833560208501611bc0565b600080600060608486031215611d7057600080fd5b8335925060208401356001600160401b0380821115611d8e57600080fd5b611d9a87838801611d3b565b93506040860135915080821115611db057600080fd5b50611dbd86828701611d3b565b9150509250925092565b6020815260006119816020830184611ca9565b600060208284031215611dec57600080fd5b5035919050565b60018060a01b0385168152836020820152608060408201526000611e1a6080830185611ca9565b8281036060840152611e2c8185611ca9565b979650505050505050565b60008060408385031215611e4a57600080fd5b50508035926020909101359150565b6000602080830181845280855180835260408601915060408160051b870101925083870160005b82811015611eae57603f19888603018452611e9c858351611cd5565b94509285019290850190600101611e80565b5092979650505050505050565b84151581528315156020820152608060408201526000611e1a6080830185611ca9565b60008251611ef0818460208701611c85565b9190910192915050565b634e487b7160e01b600052603260045260246000fd5b600181811c90821680611f2457607f821691505b602082108103611f4457634e487b7160e01b600052602260045260246000fd5b50919050565b634e487b7160e01b600052601160045260246000fd5b81810381811115610a3b57610a3b611f4a565b80820180821115610a3b57610a3b611f4a565b600060018201611f9857611f98611f4a565b5060010190565b601f82111561173d57600081815260208120601f850160051c81016020861015611fc65750805b601f850160051c820191505b81811015611fe557828155600101611fd2565b505050505050565b81516001600160401b0381111561200657612006611baa565b61201a816120148454611f10565b84611f9f565b602080601f83116001811461204f57600084156120375750858301515b600019600386901b1c1916600185901b178555611fe5565b600085815260208120601f198616915b8281101561207e5788860151825594840194600190910190840161205f565b508582101561209c5787850151600019600388901b60f8161c191681555b5050505050600190811b01905550565b8181036120b7575050565b6120c18254611f10565b6001600160401b038111156120d8576120d8611baa565b6120e6816120148454611f10565b6000601f82116001811461211a57600083156121025750848201545b600019600385901b1c1916600184901b17845561217f565b600085815260209020601f19841690600086815260209020845b838110156121545782860154825560019586019590910190602001612134565b50858310156121725781850154600019600388901b60f8161c191681555b50505060018360011b0184555b5050505050565b6000815461219381611f10565b8085526020600183811680156121b057600181146121ca576121f8565b60ff1985168884015283151560051b8801830195506121f8565b866000528260002060005b858110156121f05781548a82018601529083019084016121d5565b890184019650505b505050505092915050565b6060815260006122166060830186612186565b82810360208401526122288186612186565b9050828103604084015261223c8185612186565b9695505050505050565b634e487b7160e01b600052602160045260246000fd5b6001600160401b038616815260a06020820152600061227e60a0830187611ca9565b61ffff9590951660408301525063ffffffff92909216606083015260809091015292915050565b6000602082840312156122b757600080fd5b5051919050565b6000826122db57634e487b7160e01b600052601260045260246000fd5b500690565b8082028115828204841417610a3b57610a3b611f4a565b600181815b8085111561233257816000190482111561231857612318611f4a565b8085161561232557918102915b93841c93908002906122fc565b509250929050565b60008261234957506001610a3b565b8161235657506000610a3b565b816001811461236c576002811461237657612392565b6001915050610a3b565b60ff84111561238757612387611f4a565b50506001821b610a3b565b5060208310610133831016604e8410600b84101617156123b5575081810a610a3b565b6123bf83836122f7565b80600019048211156123d3576123d3611f4a565b029392505050565b6000611981838361233a56fea2646970667358221220603f253cbedbe8933d5241ae0cd933e4287ba0f2645ec54d752c0bb76f0b917a64736f6c63430008130033636f6e73742063697479203d20617267735b305d3b636f6e737420617069526573706f6e7365203d2061776169742046756e6374696f6e732e6d616b654874747052657175657374287b75726c3a206068747470733a2f2f777474722e696e2f247b636974797d3f666f726d61743d33266d602c726573706f6e7365547970653a202774657874277d293b69662028617069526573706f6e73652e6572726f7229207b7468726f77204572726f72282752657175657374206661696c656427293b7d636f6e7374207b2064617461207d203d20617069526573706f6e73653b72657475726e2046756e6374696f6e732e656e636f6465537472696e672864617461293b",
					"opcodes": "PUSH1 0x5 DUP1 SLOAD PUSH1 0x1 PUSH1 0x1 PUSH1 0xA0 SHL SUB NOT AND PUSH20 0xB83E47C2BC239B3BF370BC41E1459A34B41238D0 OR SWAP1 SSTORE PUSH32 0x66756E2D657468657265756D2D7365706F6C69612D3100000000000000000000 PUSH1 0x6 SSTORE PUSH1 0x7 DUP1 SLOAD PUSH4 0xFFFFFFFF NOT AND PUSH3 0x493E0 OR SWAP1 SSTORE PUSH2 0x1E0 PUSH1 0x40 MSTORE PUSH2 0x103 PUSH1 0xA0 DUP2 DUP2 MSTORE SWAP1 PUSH3 0x26D4 PUSH1 0xC0 CODECOPY PUSH1 0x8 SWAP1 PUSH3 0x80 SWAP1 DUP3 PUSH3 0x196 JUMP JUMPDEST POP CALLVALUE DUP1 ISZERO PUSH3 0x8E JUMPI PUSH1 0x0 DUP1 REVERT JUMPDEST POP PUSH1 0x40 MLOAD PUSH3 0x27D7 CODESIZE SUB DUP1 PUSH3 0x27D7 DUP4 CODECOPY DUP2 ADD PUSH1 0x40 DUP2 SWAP1 MSTORE PUSH3 0xB1 SWAP2 PUSH3 0x262 JUMP JUMPDEST PUSH1 0x5 SLOAD PUSH1 0x1 PUSH1 0x1 PUSH1 0xA0 SHL SUB AND PUSH1 0x80 MSTORE PUSH1 0x7 DUP1 SLOAD PUSH1 0x1 PUSH1 0x1 PUSH1 0x40 SHL SUB SWAP1 SWAP3 AND PUSH5 0x100000000 MUL PUSH1 0x1 PUSH1 0x20 SHL PUSH1 0x1 PUSH1 0x60 SHL SUB NOT SWAP1 SWAP3 AND SWAP2 SWAP1 SWAP2 OR SWAP1 SSTORE PUSH3 0x294 JUMP JUMPDEST PUSH4 0x4E487B71 PUSH1 0xE0 SHL PUSH1 0x0 MSTORE PUSH1 0x41 PUSH1 0x4 MSTORE PUSH1 0x24 PUSH1 0x0 REVERT JUMPDEST PUSH1 0x1 DUP2 DUP2 SHR SWAP1 DUP3 AND DUP1 PUSH3 0x11C JUMPI PUSH1 0x7F DUP3 AND SWAP2 POP JUMPDEST PUSH1 0x20 DUP3 LT DUP2 SUB PUSH3 0x13D JUMPI PUSH4 0x4E487B71 PUSH1 0xE0 SHL PUSH1 0x0 MSTORE PUSH1 0x22 PUSH1 0x4 MSTORE PUSH1 0x24 PUSH1 0x0 REVERT JUMPDEST POP SWAP2 SWAP1 POP JUMP JUMPDEST PUSH1 0x1F DUP3 GT ISZERO PUSH3 0x191 JUMPI PUSH1 0x0 DUP2 DUP2 MSTORE PUSH1 0x20 DUP2 KECCAK256 PUSH1 0x1F DUP6 ADD PUSH1 0x5 SHR DUP2 ADD PUSH1 0x20 DUP7 LT ISZERO PUSH3 0x16C JUMPI POP DUP1 JUMPDEST PUSH1 0x1F DUP6 ADD PUSH1 0x5 SHR DUP3 ADD SWAP2 POP JUMPDEST DUP2 DUP2 LT ISZERO PUSH3 0x18D JUMPI DUP3 DUP2 SSTORE PUSH1 0x1 ADD PUSH3 0x178 JUMP JUMPDEST POP POP POP JUMPDEST POP POP POP JUMP JUMPDEST DUP2 MLOAD PUSH1 0x1 PUSH1 0x1 PUSH1 0x40 SHL SUB DUP2 GT ISZERO PUSH3 0x1B2 JUMPI PUSH3 0x1B2 PUSH3 0xF1 JUMP JUMPDEST PUSH3 0x1CA DUP2 PUSH3 0x1C3 DUP5 SLOAD PUSH3 0x107 JUMP JUMPDEST DUP5 PUSH3 0x143 JUMP JUMPDEST PUSH1 0x20 DUP1 PUSH1 0x1F DUP4 GT PUSH1 0x1 DUP2 EQ PUSH3 0x202 JUMPI PUSH1 0x0 DUP5 ISZERO PUSH3 0x1E9 JUMPI POP DUP6 DUP4 ADD MLOAD JUMPDEST PUSH1 0x0 NOT PUSH1 0x3 DUP7 SWAP1 SHL SHR NOT AND PUSH1 0x1 DUP6 SWAP1 SHL OR DUP6 SSTORE PUSH3 0x18D JUMP JUMPDEST PUSH1 0x0 DUP6 DUP2 MSTORE PUSH1 0x20 DUP2 KECCAK256 PUSH1 0x1F NOT DUP7 AND SWAP2 JUMPDEST DUP3 DUP2 LT ISZERO PUSH3 0x233 JUMPI DUP9 DUP7 ADD MLOAD DUP3 SSTORE SWAP5 DUP5 ADD SWAP5 PUSH1 0x1 SWAP1 SWAP2 ADD SWAP1 DUP5 ADD PUSH3 0x212 JUMP JUMPDEST POP DUP6 DUP3 LT ISZERO PUSH3 0x252 JUMPI DUP8 DUP6 ADD MLOAD PUSH1 0x0 NOT PUSH1 0x3 DUP9 SWAP1 SHL PUSH1 0xF8 AND SHR NOT AND DUP2 SSTORE JUMPDEST POP POP POP POP POP PUSH1 0x1 SWAP1 DUP2 SHL ADD SWAP1 SSTORE POP JUMP JUMPDEST PUSH1 0x0 PUSH1 0x20 DUP3 DUP5 SUB SLT ISZERO PUSH3 0x275 JUMPI PUSH1 0x0 DUP1 REVERT JUMPDEST DUP2 MLOAD PUSH1 0x1 PUSH1 0x1 PUSH1 0x40 SHL SUB DUP2 AND DUP2 EQ PUSH3 0x28D JUMPI PUSH1 0x0 DUP1 REVERT JUMPDEST SWAP4 SWAP3 POP POP POP JUMP JUMPDEST PUSH1 0x80 MLOAD PUSH2 0x241D PUSH3 0x2B7 PUSH1 0x0 CODECOPY PUSH1 0x0 DUP2 DUP2 PUSH2 0x4C2 ADD MSTORE PUSH2 0x15B8 ADD MSTORE PUSH2 0x241D PUSH1 0x0 RETURN INVALID PUSH1 0x80 PUSH1 0x40 MSTORE CALLVALUE DUP1 ISZERO PUSH2 0x10 JUMPI PUSH1 0x0 DUP1 REVERT JUMPDEST POP PUSH1 0x4 CALLDATASIZE LT PUSH2 0x116 JUMPI PUSH1 0x0 CALLDATALOAD PUSH1 0xE0 SHR DUP1 PUSH4 0x8B8267CF GT PUSH2 0xA2 JUMPI DUP1 PUSH4 0x9FB51771 GT PUSH2 0x71 JUMPI DUP1 PUSH4 0x9FB51771 EQ PUSH2 0x289 JUMPI DUP1 PUSH4 0xBC6F09C9 EQ PUSH2 0x291 JUMPI DUP1 PUSH4 0xC69C5BB8 EQ PUSH2 0x299 JUMPI DUP1 PUSH4 0xCD2B8D11 EQ PUSH2 0x2C4 JUMPI DUP1 PUSH4 0xFC2A88C3 EQ PUSH2 0x2CC JUMPI PUSH1 0x0 DUP1 REVERT JUMPDEST DUP1 PUSH4 0x8B8267CF EQ PUSH2 0x220 JUMPI DUP1 PUSH4 0x8FCABCCB EQ PUSH2 0x240 JUMPI DUP1 PUSH4 0x94D02941 EQ PUSH2 0x253 JUMPI DUP1 PUSH4 0x9D866985 EQ PUSH2 0x266 JUMPI PUSH1 0x0 DUP1 REVERT JUMPDEST DUP1 PUSH4 0x29F0DE3F GT PUSH2 0xE9 JUMPI DUP1 PUSH4 0x29F0DE3F EQ PUSH2 0x1B7 JUMPI DUP1 PUSH4 0x62747E42 EQ PUSH2 0x1CC JUMPI DUP1 PUSH4 0x67E828BF EQ PUSH2 0x1D4 JUMPI DUP1 PUSH4 0x6A51B918 EQ PUSH2 0x1DC JUMPI DUP1 PUSH4 0x8796BA8C EQ PUSH2 0x1FF JUMPI PUSH1 0x0 DUP1 REVERT JUMPDEST DUP1 PUSH4 0x650E971 EQ PUSH2 0x11B JUMPI DUP1 PUSH4 0x9C1BA2E EQ PUSH2 0x144 JUMPI DUP1 PUSH4 0xCA76175 EQ PUSH2 0x177 JUMPI DUP1 PUSH4 0x256FEC88 EQ PUSH2 0x18C JUMPI JUMPDEST PUSH1 0x0 DUP1 REVERT JUMPDEST PUSH2 0x12E PUSH2 0x129 CALLDATASIZE PUSH1 0x4 PUSH2 0x1C35 JUMP JUMPDEST PUSH2 0x2D5 JUMP JUMPDEST PUSH1 0x40 MLOAD PUSH2 0x13B SWAP2 SWAP1 PUSH2 0x1D28 JUMP JUMPDEST PUSH1 0x40 MLOAD DUP1 SWAP2 SUB SWAP1 RETURN JUMPDEST PUSH1 0x7 SLOAD PUSH2 0x15F SWAP1 PUSH5 0x100000000 SWAP1 DIV PUSH1 0x1 PUSH1 0x1 PUSH1 0x40 SHL SUB AND DUP2 JUMP JUMPDEST PUSH1 0x40 MLOAD PUSH1 0x1 PUSH1 0x1 PUSH1 0x40 SHL SUB SWAP1 SWAP2 AND DUP2 MSTORE PUSH1 0x20 ADD PUSH2 0x13B JUMP JUMPDEST PUSH2 0x18A PUSH2 0x185 CALLDATASIZE PUSH1 0x4 PUSH2 0x1D5B JUMP JUMPDEST PUSH2 0x4B7 JUMP JUMPDEST STOP JUMPDEST PUSH1 0xB SLOAD PUSH2 0x19F SWAP1 PUSH1 0x1 PUSH1 0x1 PUSH1 0xA0 SHL SUB AND DUP2 JUMP JUMPDEST PUSH1 0x40 MLOAD PUSH1 0x1 PUSH1 0x1 PUSH1 0xA0 SHL SUB SWAP1 SWAP2 AND DUP2 MSTORE PUSH1 0x20 ADD PUSH2 0x13B JUMP JUMPDEST PUSH2 0x1BF PUSH2 0x53B JUMP JUMPDEST PUSH1 0x40 MLOAD PUSH2 0x13B SWAP2 SWAP1 PUSH2 0x1DC7 JUMP JUMPDEST PUSH2 0x1BF PUSH2 0x5C9 JUMP JUMPDEST PUSH2 0x1BF PUSH2 0x5D6 JUMP JUMPDEST PUSH2 0x1EF PUSH2 0x1EA CALLDATASIZE PUSH1 0x4 PUSH2 0x1DDA JUMP JUMPDEST PUSH2 0x5E3 JUMP JUMPDEST PUSH1 0x40 MLOAD PUSH2 0x13B SWAP5 SWAP4 SWAP3 SWAP2 SWAP1 PUSH2 0x1DF3 JUMP JUMPDEST PUSH2 0x212 PUSH2 0x20D CALLDATASIZE PUSH1 0x4 PUSH2 0x1DDA JUMP JUMPDEST PUSH2 0x73A JUMP JUMPDEST PUSH1 0x40 MLOAD SWAP1 DUP2 MSTORE PUSH1 0x20 ADD PUSH2 0x13B JUMP JUMPDEST PUSH2 0x233 PUSH2 0x22E CALLDATASIZE PUSH1 0x4 PUSH2 0x1E37 JUMP JUMPDEST PUSH2 0x75B JUMP JUMPDEST PUSH1 0x40 MLOAD PUSH2 0x13B SWAP2 SWAP1 PUSH2 0x1E59 JUMP JUMPDEST PUSH2 0x1BF PUSH2 0x24E CALLDATASIZE PUSH1 0x4 PUSH2 0x1DDA JUMP JUMPDEST PUSH2 0xA41 JUMP JUMPDEST PUSH2 0x212 PUSH2 0x261 CALLDATASIZE PUSH1 0x4 PUSH2 0x1C35 JUMP JUMPDEST PUSH2 0xA5A JUMP JUMPDEST PUSH2 0x279 PUSH2 0x274 CALLDATASIZE PUSH1 0x4 PUSH2 0x1DDA JUMP JUMPDEST PUSH2 0xDEC JUMP JUMPDEST PUSH1 0x40 MLOAD PUSH2 0x13B SWAP5 SWAP4 SWAP3 SWAP2 SWAP1 PUSH2 0x1EBB JUMP JUMPDEST PUSH2 0x1BF PUSH2 0xEA9 JUMP JUMPDEST PUSH2 0x233 PUSH2 0xEB6 JUMP JUMPDEST PUSH2 0x212 PUSH2 0x2A7 CALLDATASIZE PUSH1 0x4 PUSH2 0x1C35 JUMP JUMPDEST DUP1 MLOAD PUSH1 0x20 DUP2 DUP4 ADD DUP2 ADD DUP1 MLOAD PUSH1 0xD DUP3 MSTORE SWAP3 DUP3 ADD SWAP2 SWAP1 SWAP4 ADD KECCAK256 SWAP2 MSTORE SLOAD DUP2 JUMP JUMPDEST PUSH2 0x1BF PUSH2 0x1059 JUMP JUMPDEST PUSH2 0x212 PUSH1 0x0 SLOAD DUP2 JUMP JUMPDEST PUSH2 0x309 PUSH1 0x40 MLOAD DUP1 PUSH1 0x80 ADD PUSH1 0x40 MSTORE DUP1 PUSH1 0x0 PUSH1 0x1 PUSH1 0x1 PUSH1 0xA0 SHL SUB AND DUP2 MSTORE PUSH1 0x20 ADD PUSH1 0x0 DUP2 MSTORE PUSH1 0x20 ADD PUSH1 0x60 DUP2 MSTORE PUSH1 0x20 ADD PUSH1 0x60 DUP2 MSTORE POP SWAP1 JUMP JUMPDEST PUSH1 0xC PUSH1 0xD DUP4 PUSH1 0x40 MLOAD PUSH2 0x31B SWAP2 SWAP1 PUSH2 0x1EDE JUMP JUMPDEST SWAP1 DUP2 MSTORE PUSH1 0x20 ADD PUSH1 0x40 MLOAD DUP1 SWAP2 SUB SWAP1 KECCAK256 SLOAD DUP2 SLOAD DUP2 LT PUSH2 0x33A JUMPI PUSH2 0x33A PUSH2 0x1EFA JUMP JUMPDEST SWAP1 PUSH1 0x0 MSTORE PUSH1 0x20 PUSH1 0x0 KECCAK256 SWAP1 PUSH1 0x4 MUL ADD PUSH1 0x40 MLOAD DUP1 PUSH1 0x80 ADD PUSH1 0x40 MSTORE SWAP1 DUP2 PUSH1 0x0 DUP3 ADD PUSH1 0x0 SWAP1 SLOAD SWAP1 PUSH2 0x100 EXP SWAP1 DIV PUSH1 0x1 PUSH1 0x1 PUSH1 0xA0 SHL SUB AND PUSH1 0x1 PUSH1 0x1 PUSH1 0xA0 SHL SUB AND PUSH1 0x1 PUSH1 0x1 PUSH1 0xA0 SHL SUB AND DUP2 MSTORE PUSH1 0x20 ADD PUSH1 0x1 DUP3 ADD SLOAD DUP2 MSTORE PUSH1 0x20 ADD PUSH1 0x2 DUP3 ADD DUP1 SLOAD PUSH2 0x39C SWAP1 PUSH2 0x1F10 JUMP JUMPDEST DUP1 PUSH1 0x1F ADD PUSH1 0x20 DUP1 SWAP2 DIV MUL PUSH1 0x20 ADD PUSH1 0x40 MLOAD SWAP1 DUP2 ADD PUSH1 0x40 MSTORE DUP1 SWAP3 SWAP2 SWAP1 DUP2 DUP2 MSTORE PUSH1 0x20 ADD DUP3 DUP1 SLOAD PUSH2 0x3C8 SWAP1 PUSH2 0x1F10 JUMP JUMPDEST DUP1 ISZERO PUSH2 0x415 JUMPI DUP1 PUSH1 0x1F LT PUSH2 0x3EA JUMPI PUSH2 0x100 DUP1 DUP4 SLOAD DIV MUL DUP4 MSTORE SWAP2 PUSH1 0x20 ADD SWAP2 PUSH2 0x415 JUMP JUMPDEST DUP3 ADD SWAP2 SWAP1 PUSH1 0x0 MSTORE PUSH1 0x20 PUSH1 0x0 KECCAK256 SWAP1 JUMPDEST DUP2 SLOAD DUP2 MSTORE SWAP1 PUSH1 0x1 ADD SWAP1 PUSH1 0x20 ADD DUP1 DUP4 GT PUSH2 0x3F8 JUMPI DUP3 SWAP1 SUB PUSH1 0x1F AND DUP3 ADD SWAP2 JUMPDEST POP POP POP POP POP DUP2 MSTORE PUSH1 0x20 ADD PUSH1 0x3 DUP3 ADD DUP1 SLOAD PUSH2 0x42E SWAP1 PUSH2 0x1F10 JUMP JUMPDEST DUP1 PUSH1 0x1F ADD PUSH1 0x20 DUP1 SWAP2 DIV MUL PUSH1 0x20 ADD PUSH1 0x40 MLOAD SWAP1 DUP2 ADD PUSH1 0x40 MSTORE DUP1 SWAP3 SWAP2 SWAP1 DUP2 DUP2 MSTORE PUSH1 0x20 ADD DUP3 DUP1 SLOAD PUSH2 0x45A SWAP1 PUSH2 0x1F10 JUMP JUMPDEST DUP1 ISZERO PUSH2 0x4A7 JUMPI DUP1 PUSH1 0x1F LT PUSH2 0x47C JUMPI PUSH2 0x100 DUP1 DUP4 SLOAD DIV MUL DUP4 MSTORE SWAP2 PUSH1 0x20 ADD SWAP2 PUSH2 0x4A7 JUMP JUMPDEST DUP3 ADD SWAP2 SWAP1 PUSH1 0x0 MSTORE PUSH1 0x20 PUSH1 0x0 KECCAK256 SWAP1 JUMPDEST DUP2 SLOAD DUP2 MSTORE SWAP1 PUSH1 0x1 ADD SWAP1 PUSH1 0x20 ADD DUP1 DUP4 GT PUSH2 0x48A JUMPI DUP3 SWAP1 SUB PUSH1 0x1F AND DUP3 ADD SWAP2 JUMPDEST POP POP POP POP POP DUP2 MSTORE POP POP SWAP1 POP SWAP2 SWAP1 POP JUMP JUMPDEST CALLER PUSH1 0x1 PUSH1 0x1 PUSH1 0xA0 SHL SUB PUSH32 0x0 AND EQ PUSH2 0x500 JUMPI PUSH1 0x40 MLOAD PUSH4 0xC6829F83 PUSH1 0xE0 SHL DUP2 MSTORE PUSH1 0x4 ADD PUSH1 0x40 MLOAD DUP1 SWAP2 SUB SWAP1 REVERT JUMPDEST PUSH2 0x50B DUP4 DUP4 DUP4 PUSH2 0x1066 JUMP JUMPDEST PUSH1 0x40 MLOAD DUP4 SWAP1 PUSH32 0x85E1543BF2F84FE80C6BADBCE3648C8539AD1DF4D2B3D822938CA0538BE727E6 SWAP1 PUSH1 0x0 SWAP1 LOG2 POP POP POP JUMP JUMPDEST PUSH1 0x2 DUP1 SLOAD PUSH2 0x548 SWAP1 PUSH2 0x1F10 JUMP JUMPDEST DUP1 PUSH1 0x1F ADD PUSH1 0x20 DUP1 SWAP2 DIV MUL PUSH1 0x20 ADD PUSH1 0x40 MLOAD SWAP1 DUP2 ADD PUSH1 0x40 MSTORE DUP1 SWAP3 SWAP2 SWAP1 DUP2 DUP2 MSTORE PUSH1 0x20 ADD DUP3 DUP1 SLOAD PUSH2 0x574 SWAP1 PUSH2 0x1F10 JUMP JUMPDEST DUP1 ISZERO PUSH2 0x5C1 JUMPI DUP1 PUSH1 0x1F LT PUSH2 0x596 JUMPI PUSH2 0x100 DUP1 DUP4 SLOAD DIV MUL DUP4 MSTORE SWAP2 PUSH1 0x20 ADD SWAP2 PUSH2 0x5C1 JUMP JUMPDEST DUP3 ADD SWAP2 SWAP1 PUSH1 0x0 MSTORE PUSH1 0x20 PUSH1 0x0 KECCAK256 SWAP1 JUMPDEST DUP2 SLOAD DUP2 MSTORE SWAP1 PUSH1 0x1 ADD SWAP1 PUSH1 0x20 ADD DUP1 DUP4 GT PUSH2 0x5A4 JUMPI DUP3 SWAP1 SUB PUSH1 0x1F AND DUP3 ADD SWAP2 JUMPDEST POP POP POP POP POP DUP2 JUMP JUMPDEST PUSH1 0x1 DUP1 SLOAD PUSH2 0x548 SWAP1 PUSH2 0x1F10 JUMP JUMPDEST PUSH1 0x8 DUP1 SLOAD PUSH2 0x548 SWAP1 PUSH2 0x1F10 JUMP JUMPDEST PUSH1 0xC DUP2 DUP2 SLOAD DUP2 LT PUSH2 0x5F3 JUMPI PUSH1 0x0 DUP1 REVERT JUMPDEST PUSH1 0x0 SWAP2 DUP3 MSTORE PUSH1 0x20 SWAP1 SWAP2 KECCAK256 PUSH1 0x4 SWAP1 SWAP2 MUL ADD DUP1 SLOAD PUSH1 0x1 DUP3 ADD SLOAD PUSH1 0x2 DUP4 ADD DUP1 SLOAD PUSH1 0x1 PUSH1 0x1 PUSH1 0xA0 SHL SUB SWAP1 SWAP4 AND SWAP5 POP SWAP1 SWAP3 SWAP2 PUSH2 0x629 SWAP1 PUSH2 0x1F10 JUMP JUMPDEST DUP1 PUSH1 0x1F ADD PUSH1 0x20 DUP1 SWAP2 DIV MUL PUSH1 0x20 ADD PUSH1 0x40 MLOAD SWAP1 DUP2 ADD PUSH1 0x40 MSTORE DUP1 SWAP3 SWAP2 SWAP1 DUP2 DUP2 MSTORE PUSH1 0x20 ADD DUP3 DUP1 SLOAD PUSH2 0x655 SWAP1 PUSH2 0x1F10 JUMP JUMPDEST DUP1 ISZERO PUSH2 0x6A2 JUMPI DUP1 PUSH1 0x1F LT PUSH2 0x677 JUMPI PUSH2 0x100 DUP1 DUP4 SLOAD DIV MUL DUP4 MSTORE SWAP2 PUSH1 0x20 ADD SWAP2 PUSH2 0x6A2 JUMP JUMPDEST DUP3 ADD SWAP2 SWAP1 PUSH1 0x0 MSTORE PUSH1 0x20 PUSH1 0x0 KECCAK256 SWAP1 JUMPDEST DUP2 SLOAD DUP2 MSTORE SWAP1 PUSH1 0x1 ADD SWAP1 PUSH1 0x20 ADD DUP1 DUP4 GT PUSH2 0x685 JUMPI DUP3 SWAP1 SUB PUSH1 0x1F AND DUP3 ADD SWAP2 JUMPDEST POP POP POP POP POP SWAP1 DUP1 PUSH1 0x3 ADD DUP1 SLOAD PUSH2 0x6B7 SWAP1 PUSH2 0x1F10 JUMP JUMPDEST DUP1 PUSH1 0x1F ADD PUSH1 0x20 DUP1 SWAP2 DIV MUL PUSH1 0x20 ADD PUSH1 0x40 MLOAD SWAP1 DUP2 ADD PUSH1 0x40 MSTORE DUP1 SWAP3 SWAP2 SWAP1 DUP2 DUP2 MSTORE PUSH1 0x20 ADD DUP3 DUP1 SLOAD PUSH2 0x6E3 SWAP1 PUSH2 0x1F10 JUMP JUMPDEST DUP1 ISZERO PUSH2 0x730 JUMPI DUP1 PUSH1 0x1F LT PUSH2 0x705 JUMPI PUSH2 0x100 DUP1 DUP4 SLOAD DIV MUL DUP4 MSTORE SWAP2 PUSH1 0x20 ADD SWAP2 PUSH2 0x730 JUMP JUMPDEST DUP3 ADD SWAP2 SWAP1 PUSH1 0x0 MSTORE PUSH1 0x20 PUSH1 0x0 KECCAK256 SWAP1 JUMPDEST DUP2 SLOAD DUP2 MSTORE SWAP1 PUSH1 0x1 ADD SWAP1 PUSH1 0x20 ADD DUP1 DUP4 GT PUSH2 0x713 JUMPI DUP3 SWAP1 SUB PUSH1 0x1F AND DUP3 ADD SWAP2 JUMPDEST POP POP POP POP POP SWAP1 POP DUP5 JUMP JUMPDEST PUSH1 0x4 DUP2 DUP2 SLOAD DUP2 LT PUSH2 0x74A JUMPI PUSH1 0x0 DUP1 REVERT JUMPDEST PUSH1 0x0 SWAP2 DUP3 MSTORE PUSH1 0x20 SWAP1 SWAP2 KECCAK256 ADD SLOAD SWAP1 POP DUP2 JUMP JUMPDEST PUSH1 0xC SLOAD PUSH1 0x60 SWAP1 DUP3 GT ISZERO PUSH2 0x77A JUMPI PUSH1 0xC SLOAD PUSH2 0x777 SWAP1 PUSH1 0x1 SWAP1 PUSH2 0x1F60 JUMP JUMPDEST SWAP2 POP JUMPDEST DUP2 DUP4 GT ISZERO PUSH2 0x7C3 JUMPI PUSH1 0x40 MLOAD PUSH3 0x461BCD PUSH1 0xE5 SHL DUP2 MSTORE PUSH1 0x20 PUSH1 0x4 DUP3 ADD MSTORE PUSH1 0x11 PUSH1 0x24 DUP3 ADD MSTORE PUSH17 0x1CDD185C9D081B5D5CDD080F0F48195B99 PUSH1 0x7A SHL PUSH1 0x44 DUP3 ADD MSTORE PUSH1 0x64 ADD JUMPDEST PUSH1 0x40 MLOAD DUP1 SWAP2 SUB SWAP1 REVERT JUMPDEST PUSH1 0x0 PUSH2 0x7CF DUP5 DUP5 PUSH2 0x1F60 JUMP JUMPDEST PUSH2 0x7DA SWAP1 PUSH1 0x1 PUSH2 0x1F73 JUMP JUMPDEST SWAP1 POP PUSH1 0x0 DUP2 PUSH1 0x1 PUSH1 0x1 PUSH1 0x40 SHL SUB DUP2 GT ISZERO PUSH2 0x7F6 JUMPI PUSH2 0x7F6 PUSH2 0x1BAA JUMP JUMPDEST PUSH1 0x40 MLOAD SWAP1 DUP1 DUP3 MSTORE DUP1 PUSH1 0x20 MUL PUSH1 0x20 ADD DUP3 ADD PUSH1 0x40 MSTORE DUP1 ISZERO PUSH2 0x85B JUMPI DUP2 PUSH1 0x20 ADD JUMPDEST PUSH2 0x848 PUSH1 0x40 MLOAD DUP1 PUSH1 0x80 ADD PUSH1 0x40 MSTORE DUP1 PUSH1 0x0 PUSH1 0x1 PUSH1 0x1 PUSH1 0xA0 SHL SUB AND DUP2 MSTORE PUSH1 0x20 ADD PUSH1 0x0 DUP2 MSTORE PUSH1 0x20 ADD PUSH1 0x60 DUP2 MSTORE PUSH1 0x20 ADD PUSH1 0x60 DUP2 MSTORE POP SWAP1 JUMP JUMPDEST DUP2 MSTORE PUSH1 0x20 ADD SWAP1 PUSH1 0x1 SWAP1 SUB SWAP1 DUP2 PUSH2 0x814 JUMPI SWAP1 POP JUMPDEST POP SWAP1 POP DUP5 JUMPDEST PUSH2 0x86B DUP6 PUSH1 0x1 PUSH2 0x1F73 JUMP JUMPDEST DUP2 LT ISZERO PUSH2 0xA36 JUMPI PUSH1 0xC DUP2 DUP2 SLOAD DUP2 LT PUSH2 0x885 JUMPI PUSH2 0x885 PUSH2 0x1EFA JUMP JUMPDEST SWAP1 PUSH1 0x0 MSTORE PUSH1 0x20 PUSH1 0x0 KECCAK256 SWAP1 PUSH1 0x4 MUL ADD PUSH1 0x40 MLOAD DUP1 PUSH1 0x80 ADD PUSH1 0x40 MSTORE SWAP1 DUP2 PUSH1 0x0 DUP3 ADD PUSH1 0x0 SWAP1 SLOAD SWAP1 PUSH2 0x100 EXP SWAP1 DIV PUSH1 0x1 PUSH1 0x1 PUSH1 0xA0 SHL SUB AND PUSH1 0x1 PUSH1 0x1 PUSH1 0xA0 SHL SUB AND PUSH1 0x1 PUSH1 0x1 PUSH1 0xA0 SHL SUB AND DUP2 MSTORE PUSH1 0x20 ADD PUSH1 0x1 DUP3 ADD SLOAD DUP2 MSTORE PUSH1 0x20 ADD PUSH1 0x2 DUP3 ADD DUP1 SLOAD PUSH2 0x8E7 SWAP1 PUSH2 0x1F10 JUMP JUMPDEST DUP1 PUSH1 0x1F ADD PUSH1 0x20 DUP1 SWAP2 DIV MUL PUSH1 0x20 ADD PUSH1 0x40 MLOAD SWAP1 DUP2 ADD PUSH1 0x40 MSTORE DUP1 SWAP3 SWAP2 SWAP1 DUP2 DUP2 MSTORE PUSH1 0x20 ADD DUP3 DUP1 SLOAD PUSH2 0x913 SWAP1 PUSH2 0x1F10 JUMP JUMPDEST DUP1 ISZERO PUSH2 0x960 JUMPI DUP1 PUSH1 0x1F LT PUSH2 0x935 JUMPI PUSH2 0x100 DUP1 DUP4 SLOAD DIV MUL DUP4 MSTORE SWAP2 PUSH1 0x20 ADD SWAP2 PUSH2 0x960 JUMP JUMPDEST DUP3 ADD SWAP2 SWAP1 PUSH1 0x0 MSTORE PUSH1 0x20 PUSH1 0x0 KECCAK256 SWAP1 JUMPDEST DUP2 SLOAD DUP2 MSTORE SWAP1 PUSH1 0x1 ADD SWAP1 PUSH1 0x20 ADD DUP1 DUP4 GT PUSH2 0x943 JUMPI DUP3 SWAP1 SUB PUSH1 0x1F AND DUP3 ADD SWAP2 JUMPDEST POP POP POP POP POP DUP2 MSTORE PUSH1 0x20 ADD PUSH1 0x3 DUP3 ADD DUP1 SLOAD PUSH2 0x979 SWAP1 PUSH2 0x1F10 JUMP JUMPDEST DUP1 PUSH1 0x1F ADD PUSH1 0x20 DUP1 SWAP2 DIV MUL PUSH1 0x20 ADD PUSH1 0x40 MLOAD SWAP1 DUP2 ADD PUSH1 0x40 MSTORE DUP1 SWAP3 SWAP2 SWAP1 DUP2 DUP2 MSTORE PUSH1 0x20 ADD DUP3 DUP1 SLOAD PUSH2 0x9A5 SWAP1 PUSH2 0x1F10 JUMP JUMPDEST DUP1 ISZERO PUSH2 0x9F2 JUMPI DUP1 PUSH1 0x1F LT PUSH2 0x9C7 JUMPI PUSH2 0x100 DUP1 DUP4 SLOAD DIV MUL DUP4 MSTORE SWAP2 PUSH1 0x20 ADD SWAP2 PUSH2 0x9F2 JUMP JUMPDEST DUP3 ADD SWAP2 SWAP1 PUSH1 0x0 MSTORE PUSH1 0x20 PUSH1 0x0 KECCAK256 SWAP1 JUMPDEST DUP2 SLOAD DUP2 MSTORE SWAP1 PUSH1 0x1 ADD SWAP1 PUSH1 0x20 ADD DUP1 DUP4 GT PUSH2 0x9D5 JUMPI DUP3 SWAP1 SUB PUSH1 0x1F AND DUP3 ADD SWAP2 JUMPDEST POP POP POP POP POP DUP2 MSTORE POP POP DUP3 DUP8 DUP4 PUSH2 0xA08 SWAP2 SWAP1 PUSH2 0x1F60 JUMP JUMPDEST DUP2 MLOAD DUP2 LT PUSH2 0xA18 JUMPI PUSH2 0xA18 PUSH2 0x1EFA JUMP JUMPDEST PUSH1 0x20 MUL PUSH1 0x20 ADD ADD DUP2 SWAP1 MSTORE POP DUP1 DUP1 PUSH2 0xA2E SWAP1 PUSH2 0x1F86 JUMP JUMPDEST SWAP2 POP POP PUSH2 0x860 JUMP JUMPDEST POP SWAP2 POP POP JUMPDEST SWAP3 SWAP2 POP POP JUMP JUMPDEST PUSH1 0xE PUSH1 0x20 MSTORE PUSH1 0x0 SWAP1 DUP2 MSTORE PUSH1 0x40 SWAP1 KECCAK256 DUP1 SLOAD PUSH2 0x548 SWAP1 PUSH2 0x1F10 JUMP JUMPDEST PUSH1 0x40 DUP1 MLOAD PUSH1 0x1 DUP1 DUP3 MSTORE DUP2 DUP4 ADD SWAP1 SWAP3 MSTORE PUSH1 0x0 SWAP2 DUP3 SWAP2 SWAP1 DUP2 PUSH1 0x20 ADD JUMPDEST PUSH1 0x60 DUP2 MSTORE PUSH1 0x20 ADD SWAP1 PUSH1 0x1 SWAP1 SUB SWAP1 DUP2 PUSH2 0xA74 JUMPI SWAP1 POP POP SWAP1 POP DUP3 DUP2 PUSH1 0x0 DUP2 MLOAD DUP2 LT PUSH2 0xA9F JUMPI PUSH2 0xA9F PUSH2 0x1EFA JUMP JUMPDEST PUSH1 0x20 MUL PUSH1 0x20 ADD ADD DUP2 SWAP1 MSTORE POP PUSH2 0xAEB PUSH1 0x40 DUP1 MLOAD PUSH1 0xE0 DUP2 ADD SWAP1 SWAP2 MSTORE DUP1 PUSH1 0x0 DUP2 MSTORE PUSH1 0x20 ADD PUSH1 0x0 DUP2 MSTORE PUSH1 0x20 ADD PUSH1 0x0 DUP2 MSTORE PUSH1 0x20 ADD PUSH1 0x60 DUP2 MSTORE PUSH1 0x20 ADD PUSH1 0x60 DUP2 MSTORE PUSH1 0x20 ADD PUSH1 0x60 DUP2 MSTORE PUSH1 0x20 ADD PUSH1 0x60 DUP2 MSTORE POP SWAP1 JUMP JUMPDEST PUSH2 0xB88 PUSH1 0x8 DUP1 SLOAD PUSH2 0xAFB SWAP1 PUSH2 0x1F10 JUMP JUMPDEST DUP1 PUSH1 0x1F ADD PUSH1 0x20 DUP1 SWAP2 DIV MUL PUSH1 0x20 ADD PUSH1 0x40 MLOAD SWAP1 DUP2 ADD PUSH1 0x40 MSTORE DUP1 SWAP3 SWAP2 SWAP1 DUP2 DUP2 MSTORE PUSH1 0x20 ADD DUP3 DUP1 SLOAD PUSH2 0xB27 SWAP1 PUSH2 0x1F10 JUMP JUMPDEST DUP1 ISZERO PUSH2 0xB74 JUMPI DUP1 PUSH1 0x1F LT PUSH2 0xB49 JUMPI PUSH2 0x100 DUP1 DUP4 SLOAD DIV MUL DUP4 MSTORE SWAP2 PUSH1 0x20 ADD SWAP2 PUSH2 0xB74 JUMP JUMPDEST DUP3 ADD SWAP2 SWAP1 PUSH1 0x0 MSTORE PUSH1 0x20 PUSH1 0x0 KECCAK256 SWAP1 JUMPDEST DUP2 SLOAD DUP2 MSTORE SWAP1 PUSH1 0x1 ADD SWAP1 PUSH1 0x20 ADD DUP1 DUP4 GT PUSH2 0xB57 JUMPI DUP3 SWAP1 SUB PUSH1 0x1F AND DUP3 ADD SWAP2 JUMPDEST POP POP POP POP POP DUP3 PUSH2 0x12A0 SWAP1 SWAP2 SWAP1 PUSH4 0xFFFFFFFF AND JUMP JUMPDEST DUP2 MLOAD ISZERO PUSH2 0xB99 JUMPI PUSH2 0xB99 DUP2 DUP4 PUSH2 0x12B1 JUMP JUMPDEST PUSH2 0xBC9 PUSH2 0xBA5 DUP3 PUSH2 0x12DB JUMP JUMPDEST PUSH1 0x7 SLOAD PUSH1 0x6 SLOAD PUSH1 0x1 PUSH1 0x1 PUSH1 0x40 SHL SUB PUSH5 0x100000000 DUP4 DIV AND SWAP2 PUSH4 0xFFFFFFFF AND SWAP1 PUSH2 0x15B3 JUMP JUMPDEST PUSH1 0x0 SSTORE PUSH1 0x9 PUSH2 0xBD8 DUP6 DUP3 PUSH2 0x1FED JUMP JUMPDEST POP PUSH1 0x0 DUP1 SLOAD DUP2 MSTORE PUSH1 0xE PUSH1 0x20 MSTORE PUSH1 0x40 SWAP1 KECCAK256 PUSH2 0xBF2 DUP6 DUP3 PUSH2 0x1FED JUMP JUMPDEST POP PUSH1 0x40 DUP1 MLOAD PUSH1 0x80 DUP2 ADD DUP3 MSTORE CALLER DUP2 MSTORE PUSH1 0x0 PUSH1 0x20 DUP1 DUP4 ADD DUP3 DUP2 MSTORE DUP4 DUP6 ADD DUP10 DUP2 MSTORE DUP6 MLOAD SWAP3 DUP4 ADD SWAP1 SWAP6 MSTORE DUP3 DUP3 MSTORE PUSH1 0x60 DUP5 ADD SWAP2 SWAP1 SWAP2 MSTORE PUSH1 0xC DUP1 SLOAD PUSH1 0x1 DUP2 ADD DUP3 SSTORE SWAP3 MSTORE DUP3 MLOAD PUSH32 0xDF6966C971051C3D54EC59162606531493A51404A002842F56009D7E5CF4A8C7 PUSH1 0x4 SWAP1 SWAP4 MUL SWAP3 DUP4 ADD DUP1 SLOAD PUSH1 0x1 PUSH1 0x1 PUSH1 0xA0 SHL SUB NOT AND PUSH1 0x1 PUSH1 0x1 PUSH1 0xA0 SHL SUB SWAP1 SWAP3 AND SWAP2 SWAP1 SWAP2 OR DUP2 SSTORE SWAP1 MLOAD PUSH32 0xDF6966C971051C3D54EC59162606531493A51404A002842F56009D7E5CF4A8C8 DUP4 ADD SSTORE SWAP3 MLOAD SWAP2 SWAP3 DUP4 SWAP3 SWAP1 SWAP2 PUSH32 0xDF6966C971051C3D54EC59162606531493A51404A002842F56009D7E5CF4A8C9 ADD SWAP1 PUSH2 0xCD2 SWAP1 DUP3 PUSH2 0x1FED JUMP JUMPDEST POP PUSH1 0x60 DUP3 ADD MLOAD PUSH1 0x3 DUP3 ADD SWAP1 PUSH2 0xCE7 SWAP1 DUP3 PUSH2 0x1FED JUMP JUMPDEST POP POP PUSH1 0xC SLOAD PUSH2 0xCF9 SWAP2 POP PUSH1 0x1 SWAP1 PUSH2 0x1F60 JUMP JUMPDEST PUSH1 0xD DUP7 PUSH1 0x40 MLOAD PUSH2 0xD09 SWAP2 SWAP1 PUSH2 0x1EDE JUMP JUMPDEST SWAP1 DUP2 MSTORE PUSH1 0x40 DUP1 MLOAD PUSH1 0x20 SWAP3 DUP2 SWAP1 SUB DUP4 ADD DUP2 KECCAK256 SWAP4 SWAP1 SWAP4 SSTORE PUSH1 0x80 DUP4 ADD DUP2 MSTORE PUSH1 0x0 DUP1 DUP5 MSTORE PUSH1 0x1 DUP4 DUP6 ADD DUP2 DUP2 MSTORE DUP4 MLOAD DUP1 DUP7 ADD DUP6 MSTORE DUP4 DUP2 MSTORE DUP7 DUP6 ADD SWAP1 DUP2 MSTORE DUP5 MLOAD DUP1 DUP8 ADD DUP7 MSTORE DUP5 DUP2 MSTORE PUSH1 0x60 DUP9 ADD MSTORE DUP4 SLOAD DUP5 MSTORE PUSH1 0x3 SWAP1 SWAP6 MSTORE SWAP3 SWAP1 SWAP2 KECCAK256 DUP5 MLOAD DUP2 SLOAD SWAP4 MLOAD PUSH2 0xFFFF NOT SWAP1 SWAP5 AND SWAP1 ISZERO ISZERO PUSH2 0xFF00 NOT AND OR PUSH2 0x100 SWAP4 ISZERO ISZERO SWAP4 SWAP1 SWAP4 MUL SWAP3 SWAP1 SWAP3 OR DUP3 SSTORE SWAP2 MLOAD SWAP1 SWAP2 DUP3 ADD SWAP1 PUSH2 0xD94 SWAP1 DUP3 PUSH2 0x1FED JUMP JUMPDEST POP PUSH1 0x60 DUP3 ADD MLOAD PUSH1 0x2 DUP3 ADD SWAP1 PUSH2 0xDA9 SWAP1 DUP3 PUSH2 0x1FED JUMP JUMPDEST POP POP PUSH1 0x0 DUP1 SLOAD PUSH1 0x4 DUP1 SLOAD PUSH1 0x1 DUP2 ADD DUP3 SSTORE SWAP3 MSTORE PUSH32 0x8A35ACFBC15FF81A39AE7D344FD709F28E8600B4AA8C65C6B64BFE7FE36BD19B SWAP1 SWAP2 ADD DUP2 SWAP1 SSTORE SWAP7 SWAP6 POP POP POP POP POP POP JUMP JUMPDEST PUSH1 0x3 PUSH1 0x20 MSTORE PUSH1 0x0 SWAP1 DUP2 MSTORE PUSH1 0x40 SWAP1 KECCAK256 DUP1 SLOAD PUSH1 0x1 DUP3 ADD DUP1 SLOAD PUSH1 0xFF DUP1 DUP5 AND SWAP5 PUSH2 0x100 SWAP1 SWAP5 DIV AND SWAP3 SWAP2 SWAP1 PUSH2 0xE1B SWAP1 PUSH2 0x1F10 JUMP JUMPDEST DUP1 PUSH1 0x1F ADD PUSH1 0x20 DUP1 SWAP2 DIV MUL PUSH1 0x20 ADD PUSH1 0x40 MLOAD SWAP1 DUP2 ADD PUSH1 0x40 MSTORE DUP1 SWAP3 SWAP2 SWAP1 DUP2 DUP2 MSTORE PUSH1 0x20 ADD DUP3 DUP1 SLOAD PUSH2 0xE47 SWAP1 PUSH2 0x1F10 JUMP JUMPDEST DUP1 ISZERO PUSH2 0xE94 JUMPI DUP1 PUSH1 0x1F LT PUSH2 0xE69 JUMPI PUSH2 0x100 DUP1 DUP4 SLOAD DIV MUL DUP4 MSTORE SWAP2 PUSH1 0x20 ADD SWAP2 PUSH2 0xE94 JUMP JUMPDEST DUP3 ADD SWAP2 SWAP1 PUSH1 0x0 MSTORE PUSH1 0x20 PUSH1 0x0 KECCAK256 SWAP1 JUMPDEST DUP2 SLOAD DUP2 MSTORE SWAP1 PUSH1 0x1 ADD SWAP1 PUSH1 0x20 ADD DUP1 DUP4 GT PUSH2 0xE77 JUMPI DUP3 SWAP1 SUB PUSH1 0x1F AND DUP3 ADD SWAP2 JUMPDEST POP POP POP POP POP SWAP1 DUP1 PUSH1 0x2 ADD DUP1 SLOAD PUSH2 0x6B7 SWAP1 PUSH2 0x1F10 JUMP JUMPDEST PUSH1 0xA DUP1 SLOAD PUSH2 0x548 SWAP1 PUSH2 0x1F10 JUMP JUMPDEST PUSH1 0x60 PUSH1 0xC DUP1 SLOAD DUP1 PUSH1 0x20 MUL PUSH1 0x20 ADD PUSH1 0x40 MLOAD SWAP1 DUP2 ADD PUSH1 0x40 MSTORE DUP1 SWAP3 SWAP2 SWAP1 DUP2 DUP2 MSTORE PUSH1 0x20 ADD PUSH1 0x0 SWAP1 JUMPDEST DUP3 DUP3 LT ISZERO PUSH2 0x1050 JUMPI PUSH1 0x0 DUP5 DUP2 MSTORE PUSH1 0x20 SWAP1 DUP2 SWAP1 KECCAK256 PUSH1 0x40 DUP1 MLOAD PUSH1 0x80 DUP2 ADD DUP3 MSTORE PUSH1 0x4 DUP7 MUL SWAP1 SWAP3 ADD DUP1 SLOAD PUSH1 0x1 PUSH1 0x1 PUSH1 0xA0 SHL SUB AND DUP4 MSTORE PUSH1 0x1 DUP2 ADD SLOAD SWAP4 DUP4 ADD SWAP4 SWAP1 SWAP4 MSTORE PUSH1 0x2 DUP4 ADD DUP1 SLOAD SWAP3 SWAP4 SWAP3 SWAP2 DUP5 ADD SWAP2 PUSH2 0xF2D SWAP1 PUSH2 0x1F10 JUMP JUMPDEST DUP1 PUSH1 0x1F ADD PUSH1 0x20 DUP1 SWAP2 DIV MUL PUSH1 0x20 ADD PUSH1 0x40 MLOAD SWAP1 DUP2 ADD PUSH1 0x40 MSTORE DUP1 SWAP3 SWAP2 SWAP1 DUP2 DUP2 MSTORE PUSH1 0x20 ADD DUP3 DUP1 SLOAD PUSH2 0xF59 SWAP1 PUSH2 0x1F10 JUMP JUMPDEST DUP1 ISZERO PUSH2 0xFA6 JUMPI DUP1 PUSH1 0x1F LT PUSH2 0xF7B JUMPI PUSH2 0x100 DUP1 DUP4 SLOAD DIV MUL DUP4 MSTORE SWAP2 PUSH1 0x20 ADD SWAP2 PUSH2 0xFA6 JUMP JUMPDEST DUP3 ADD SWAP2 SWAP1 PUSH1 0x0 MSTORE PUSH1 0x20 PUSH1 0x0 KECCAK256 SWAP1 JUMPDEST DUP2 SLOAD DUP2 MSTORE SWAP1 PUSH1 0x1 ADD SWAP1 PUSH1 0x20 ADD DUP1 DUP4 GT PUSH2 0xF89 JUMPI DUP3 SWAP1 SUB PUSH1 0x1F AND DUP3 ADD SWAP2 JUMPDEST POP POP POP POP POP DUP2 MSTORE PUSH1 0x20 ADD PUSH1 0x3 DUP3 ADD DUP1 SLOAD PUSH2 0xFBF SWAP1 PUSH2 0x1F10 JUMP JUMPDEST DUP1 PUSH1 0x1F ADD PUSH1 0x20 DUP1 SWAP2 DIV MUL PUSH1 0x20 ADD PUSH1 0x40 MLOAD SWAP1 DUP2 ADD PUSH1 0x40 MSTORE DUP1 SWAP3 SWAP2 SWAP1 DUP2 DUP2 MSTORE PUSH1 0x20 ADD DUP3 DUP1 SLOAD PUSH2 0xFEB SWAP1 PUSH2 0x1F10 JUMP JUMPDEST DUP1 ISZERO PUSH2 0x1038 JUMPI DUP1 PUSH1 0x1F LT PUSH2 0x100D JUMPI PUSH2 0x100 DUP1 DUP4 SLOAD DIV MUL DUP4 MSTORE SWAP2 PUSH1 0x20 ADD SWAP2 PUSH2 0x1038 JUMP JUMPDEST DUP3 ADD SWAP2 SWAP1 PUSH1 0x0 MSTORE PUSH1 0x20 PUSH1 0x0 KECCAK256 SWAP1 JUMPDEST DUP2 SLOAD DUP2 MSTORE SWAP1 PUSH1 0x1 ADD SWAP1 PUSH1 0x20 ADD DUP1 DUP4 GT PUSH2 0x101B JUMPI DUP3 SWAP1 SUB PUSH1 0x1F AND DUP3 ADD SWAP2 JUMPDEST POP POP POP POP POP DUP2 MSTORE POP POP DUP2 MSTORE PUSH1 0x20 ADD SWAP1 PUSH1 0x1 ADD SWAP1 PUSH2 0xEDA JUMP JUMPDEST POP POP POP POP SWAP1 POP SWAP1 JUMP JUMPDEST PUSH1 0x9 DUP1 SLOAD PUSH2 0x548 SWAP1 PUSH2 0x1F10 JUMP JUMPDEST PUSH1 0x0 DUP4 DUP2 MSTORE PUSH1 0x3 PUSH1 0x20 MSTORE PUSH1 0x40 SWAP1 KECCAK256 SLOAD PUSH2 0x100 SWAP1 DIV PUSH1 0xFF AND PUSH2 0x10BD JUMPI PUSH1 0x40 MLOAD PUSH3 0x461BCD PUSH1 0xE5 SHL DUP2 MSTORE PUSH1 0x20 PUSH1 0x4 DUP3 ADD MSTORE PUSH1 0x11 PUSH1 0x24 DUP3 ADD MSTORE PUSH17 0x1C995C5D595CDD081B9BDD08199BDD5B99 PUSH1 0x7A SHL PUSH1 0x44 DUP3 ADD MSTORE PUSH1 0x64 ADD PUSH2 0x7BA JUMP JUMPDEST PUSH1 0x2 PUSH2 0x10C9 DUP3 DUP3 PUSH2 0x1FED JUMP JUMPDEST POP PUSH1 0x1 PUSH2 0x10D6 DUP4 DUP3 PUSH2 0x1FED JUMP JUMPDEST POP PUSH1 0x0 DUP4 DUP2 MSTORE PUSH1 0x3 PUSH1 0x20 MSTORE PUSH1 0x40 SWAP1 KECCAK256 DUP1 SLOAD PUSH1 0xFF NOT AND PUSH1 0x1 SWAP1 DUP2 OR DUP3 SSTORE ADD PUSH2 0x10FD DUP4 DUP3 PUSH2 0x1FED JUMP JUMPDEST POP PUSH1 0x0 DUP4 DUP2 MSTORE PUSH1 0x3 PUSH1 0x20 MSTORE PUSH1 0x40 SWAP1 KECCAK256 PUSH1 0x2 ADD PUSH2 0x1119 DUP3 DUP3 PUSH2 0x1FED JUMP JUMPDEST POP PUSH1 0x0 DUP4 DUP2 MSTORE PUSH1 0xE PUSH1 0x20 MSTORE PUSH1 0x40 DUP2 KECCAK256 DUP1 SLOAD PUSH2 0x1133 SWAP1 PUSH2 0x1F10 JUMP JUMPDEST DUP1 PUSH1 0x1F ADD PUSH1 0x20 DUP1 SWAP2 DIV MUL PUSH1 0x20 ADD PUSH1 0x40 MLOAD SWAP1 DUP2 ADD PUSH1 0x40 MSTORE DUP1 SWAP3 SWAP2 SWAP1 DUP2 DUP2 MSTORE PUSH1 0x20 ADD DUP3 DUP1 SLOAD PUSH2 0x115F SWAP1 PUSH2 0x1F10 JUMP JUMPDEST DUP1 ISZERO PUSH2 0x11AC JUMPI DUP1 PUSH1 0x1F LT PUSH2 0x1181 JUMPI PUSH2 0x100 DUP1 DUP4 SLOAD DIV MUL DUP4 MSTORE SWAP2 PUSH1 0x20 ADD SWAP2 PUSH2 0x11AC JUMP JUMPDEST DUP3 ADD SWAP2 SWAP1 PUSH1 0x0 MSTORE PUSH1 0x20 PUSH1 0x0 KECCAK256 SWAP1 JUMPDEST DUP2 SLOAD DUP2 MSTORE SWAP1 PUSH1 0x1 ADD SWAP1 PUSH1 0x20 ADD DUP1 DUP4 GT PUSH2 0x118F JUMPI DUP3 SWAP1 SUB PUSH1 0x1F AND DUP3 ADD SWAP2 JUMPDEST POP POP POP POP POP SWAP1 POP DUP3 PUSH1 0xA SWAP1 DUP2 PUSH2 0x11C2 SWAP2 SWAP1 PUSH2 0x1FED JUMP JUMPDEST POP PUSH1 0xA PUSH1 0xC PUSH1 0xD DUP4 PUSH1 0x40 MLOAD PUSH2 0x11D7 SWAP2 SWAP1 PUSH2 0x1EDE JUMP JUMPDEST SWAP1 DUP2 MSTORE PUSH1 0x20 ADD PUSH1 0x40 MLOAD DUP1 SWAP2 SUB SWAP1 KECCAK256 SLOAD DUP2 SLOAD DUP2 LT PUSH2 0x11F6 JUMPI PUSH2 0x11F6 PUSH2 0x1EFA JUMP JUMPDEST SWAP1 PUSH1 0x0 MSTORE PUSH1 0x20 PUSH1 0x0 KECCAK256 SWAP1 PUSH1 0x4 MUL ADD PUSH1 0x3 ADD SWAP1 DUP2 PUSH2 0x1213 SWAP2 SWAP1 PUSH2 0x20AC JUMP JUMPDEST POP TIMESTAMP PUSH1 0xC PUSH1 0xD DUP4 PUSH1 0x40 MLOAD PUSH2 0x1227 SWAP2 SWAP1 PUSH2 0x1EDE JUMP JUMPDEST SWAP1 DUP2 MSTORE PUSH1 0x20 ADD PUSH1 0x40 MLOAD DUP1 SWAP2 SUB SWAP1 KECCAK256 SLOAD DUP2 SLOAD DUP2 LT PUSH2 0x1246 JUMPI PUSH2 0x1246 PUSH2 0x1EFA JUMP JUMPDEST SWAP1 PUSH1 0x0 MSTORE PUSH1 0x20 PUSH1 0x0 KECCAK256 SWAP1 PUSH1 0x4 MUL ADD PUSH1 0x1 ADD DUP2 SWAP1 SSTORE POP DUP4 PUSH32 0x160ED0AAFFBEF6885155188B91459CB5A97D5DAADCCF7561D8C46DEEA6641B50 PUSH1 0xA PUSH1 0x1 PUSH1 0x2 PUSH1 0x40 MLOAD PUSH2 0x1292 SWAP4 SWAP3 SWAP2 SWAP1 PUSH2 0x2203 JUMP JUMPDEST PUSH1 0x40 MLOAD DUP1 SWAP2 SUB SWAP1 LOG2 POP POP POP POP JUMP JUMPDEST PUSH2 0x12AD DUP3 PUSH1 0x0 DUP1 DUP5 PUSH2 0x1685 JUMP JUMPDEST POP POP JUMP JUMPDEST DUP1 MLOAD PUSH1 0x0 SUB PUSH2 0x12D3 JUMPI PUSH1 0x40 MLOAD PUSH4 0xFE936CB7 PUSH1 0xE0 SHL DUP2 MSTORE PUSH1 0x4 ADD PUSH1 0x40 MLOAD DUP1 SWAP2 SUB SWAP1 REVERT JUMPDEST PUSH1 0xA0 SWAP1 SWAP2 ADD MSTORE JUMP JUMPDEST PUSH1 0x60 PUSH1 0x0 PUSH2 0x12EA PUSH2 0x100 PUSH2 0x1703 JUMP JUMPDEST SWAP1 POP PUSH2 0x1323 PUSH1 0x40 MLOAD DUP1 PUSH1 0x40 ADD PUSH1 0x40 MSTORE DUP1 PUSH1 0xC DUP2 MSTORE PUSH1 0x20 ADD PUSH12 0x31B7B232A637B1B0BA34B7B7 PUSH1 0xA1 SHL DUP2 MSTORE POP DUP3 PUSH2 0x1724 SWAP1 SWAP2 SWAP1 PUSH4 0xFFFFFFFF AND JUMP JUMPDEST DUP3 MLOAD PUSH2 0x1341 SWAP1 PUSH1 0x2 DUP2 GT ISZERO PUSH2 0x133A JUMPI PUSH2 0x133A PUSH2 0x2246 JUMP JUMPDEST DUP3 SWAP1 PUSH2 0x1742 JUMP JUMPDEST PUSH1 0x40 DUP1 MLOAD DUP1 DUP3 ADD SWAP1 SWAP2 MSTORE PUSH1 0x8 DUP2 MSTORE PUSH8 0x6C616E6775616765 PUSH1 0xC0 SHL PUSH1 0x20 DUP3 ADD MSTORE PUSH2 0x136B SWAP1 DUP3 SWAP1 PUSH2 0x1724 JUMP JUMPDEST PUSH1 0x40 DUP4 ADD MLOAD PUSH2 0x1382 SWAP1 DUP1 ISZERO PUSH2 0x133A JUMPI PUSH2 0x133A PUSH2 0x2246 JUMP JUMPDEST PUSH1 0x40 DUP1 MLOAD DUP1 DUP3 ADD SWAP1 SWAP2 MSTORE PUSH1 0x6 DUP2 MSTORE PUSH6 0x736F75726365 PUSH1 0xD0 SHL PUSH1 0x20 DUP3 ADD MSTORE PUSH2 0x13AA SWAP1 DUP3 SWAP1 PUSH2 0x1724 JUMP JUMPDEST PUSH1 0x60 DUP4 ADD MLOAD PUSH2 0x13BA SWAP1 DUP3 SWAP1 PUSH2 0x1724 JUMP JUMPDEST PUSH1 0xA0 DUP4 ADD MLOAD MLOAD ISZERO PUSH2 0x144E JUMPI PUSH1 0x40 DUP1 MLOAD DUP1 DUP3 ADD SWAP1 SWAP2 MSTORE PUSH1 0x4 DUP2 MSTORE PUSH4 0x61726773 PUSH1 0xE0 SHL PUSH1 0x20 DUP3 ADD MSTORE PUSH2 0x13EB SWAP1 DUP3 SWAP1 PUSH2 0x1724 JUMP JUMPDEST PUSH2 0x13F4 DUP2 PUSH2 0x177B JUMP JUMPDEST PUSH1 0x0 JUMPDEST DUP4 PUSH1 0xA0 ADD MLOAD MLOAD DUP2 LT ISZERO PUSH2 0x1444 JUMPI PUSH2 0x1434 DUP5 PUSH1 0xA0 ADD MLOAD DUP3 DUP2 MLOAD DUP2 LT PUSH2 0x141D JUMPI PUSH2 0x141D PUSH2 0x1EFA JUMP JUMPDEST PUSH1 0x20 MUL PUSH1 0x20 ADD ADD MLOAD DUP4 PUSH2 0x1724 SWAP1 SWAP2 SWAP1 PUSH4 0xFFFFFFFF AND JUMP JUMPDEST PUSH2 0x143D DUP2 PUSH2 0x1F86 JUMP JUMPDEST SWAP1 POP PUSH2 0x13F7 JUMP JUMPDEST POP PUSH2 0x144E DUP2 PUSH2 0x179F JUMP JUMPDEST PUSH1 0x80 DUP4 ADD MLOAD MLOAD ISZERO PUSH2 0x1512 JUMPI PUSH1 0x0 DUP4 PUSH1 0x20 ADD MLOAD PUSH1 0x2 DUP2 GT ISZERO PUSH2 0x1471 JUMPI PUSH2 0x1471 PUSH2 0x2246 JUMP JUMPDEST SUB PUSH2 0x148F JUMPI PUSH1 0x40 MLOAD PUSH4 0xA80D31F7 PUSH1 0xE0 SHL DUP2 MSTORE PUSH1 0x4 ADD PUSH1 0x40 MLOAD DUP1 SWAP2 SUB SWAP1 REVERT JUMPDEST PUSH1 0x40 DUP1 MLOAD DUP1 DUP3 ADD SWAP1 SWAP2 MSTORE PUSH1 0xF DUP2 MSTORE PUSH15 0x39B2B1B932BA39A637B1B0BA34B7B7 PUSH1 0x89 SHL PUSH1 0x20 DUP3 ADD MSTORE PUSH2 0x14C0 SWAP1 DUP3 SWAP1 PUSH2 0x1724 JUMP JUMPDEST PUSH2 0x14D9 DUP4 PUSH1 0x20 ADD MLOAD PUSH1 0x2 DUP2 GT ISZERO PUSH2 0x133A JUMPI PUSH2 0x133A PUSH2 0x2246 JUMP JUMPDEST PUSH1 0x40 DUP1 MLOAD DUP1 DUP3 ADD SWAP1 SWAP2 MSTORE PUSH1 0x7 DUP2 MSTORE PUSH7 0x73656372657473 PUSH1 0xC8 SHL PUSH1 0x20 DUP3 ADD MSTORE PUSH2 0x1502 SWAP1 DUP3 SWAP1 PUSH2 0x1724 JUMP JUMPDEST PUSH1 0x80 DUP4 ADD MLOAD PUSH2 0x1512 SWAP1 DUP3 SWAP1 PUSH2 0x17BD JUMP JUMPDEST PUSH1 0xC0 DUP4 ADD MLOAD MLOAD ISZERO PUSH2 0x15AB JUMPI PUSH1 0x40 DUP1 MLOAD DUP1 DUP3 ADD SWAP1 SWAP2 MSTORE PUSH1 0x9 DUP2 MSTORE PUSH9 0x627974657341726773 PUSH1 0xB8 SHL PUSH1 0x20 DUP3 ADD MSTORE PUSH2 0x1548 SWAP1 DUP3 SWAP1 PUSH2 0x1724 JUMP JUMPDEST PUSH2 0x1551 DUP2 PUSH2 0x177B JUMP JUMPDEST PUSH1 0x0 JUMPDEST DUP4 PUSH1 0xC0 ADD MLOAD MLOAD DUP2 LT ISZERO PUSH2 0x15A1 JUMPI PUSH2 0x1591 DUP5 PUSH1 0xC0 ADD MLOAD DUP3 DUP2 MLOAD DUP2 LT PUSH2 0x157A JUMPI PUSH2 0x157A PUSH2 0x1EFA JUMP JUMPDEST PUSH1 0x20 MUL PUSH1 0x20 ADD ADD MLOAD DUP4 PUSH2 0x17BD SWAP1 SWAP2 SWAP1 PUSH4 0xFFFFFFFF AND JUMP JUMPDEST PUSH2 0x159A DUP2 PUSH2 0x1F86 JUMP JUMPDEST SWAP1 POP PUSH2 0x1554 JUMP JUMPDEST POP PUSH2 0x15AB DUP2 PUSH2 0x179F JUMP JUMPDEST MLOAD MLOAD SWAP3 SWAP2 POP POP JUMP JUMPDEST PUSH1 0x0 DUP1 PUSH32 0x0 PUSH1 0x1 PUSH1 0x1 PUSH1 0xA0 SHL SUB AND PUSH4 0x461D2762 DUP7 DUP9 PUSH1 0x1 DUP9 DUP9 PUSH1 0x40 MLOAD DUP7 PUSH4 0xFFFFFFFF AND PUSH1 0xE0 SHL DUP2 MSTORE PUSH1 0x4 ADD PUSH2 0x160B SWAP6 SWAP5 SWAP4 SWAP3 SWAP2 SWAP1 PUSH2 0x225C JUMP JUMPDEST PUSH1 0x20 PUSH1 0x40 MLOAD DUP1 DUP4 SUB DUP2 PUSH1 0x0 DUP8 GAS CALL ISZERO DUP1 ISZERO PUSH2 0x162A JUMPI RETURNDATASIZE PUSH1 0x0 DUP1 RETURNDATACOPY RETURNDATASIZE PUSH1 0x0 REVERT JUMPDEST POP POP POP POP PUSH1 0x40 MLOAD RETURNDATASIZE PUSH1 0x1F NOT PUSH1 0x1F DUP3 ADD AND DUP3 ADD DUP1 PUSH1 0x40 MSTORE POP DUP2 ADD SWAP1 PUSH2 0x164E SWAP2 SWAP1 PUSH2 0x22A5 JUMP JUMPDEST PUSH1 0x40 MLOAD SWAP1 SWAP2 POP DUP2 SWAP1 PUSH32 0x1131472297A800FEE664D1D89CFA8F7676FF07189ECC53F80BBB5F4969099DB8 SWAP1 PUSH1 0x0 SWAP1 LOG2 SWAP6 SWAP5 POP POP POP POP POP JUMP JUMPDEST DUP1 MLOAD PUSH1 0x0 SUB PUSH2 0x16A7 JUMPI PUSH1 0x40 MLOAD PUSH4 0x22CE3EDD PUSH1 0xE0 SHL DUP2 MSTORE PUSH1 0x4 ADD PUSH1 0x40 MLOAD DUP1 SWAP2 SUB SWAP1 REVERT JUMPDEST DUP4 DUP4 PUSH1 0x2 DUP2 GT ISZERO PUSH2 0x16BA JUMPI PUSH2 0x16BA PUSH2 0x2246 JUMP JUMPDEST SWAP1 DUP2 PUSH1 0x2 DUP2 GT ISZERO PUSH2 0x16CD JUMPI PUSH2 0x16CD PUSH2 0x2246 JUMP JUMPDEST SWAP1 MSTORE POP PUSH1 0x40 DUP5 ADD DUP3 DUP1 ISZERO PUSH2 0x16E3 JUMPI PUSH2 0x16E3 PUSH2 0x2246 JUMP JUMPDEST SWAP1 DUP2 DUP1 ISZERO PUSH2 0x16F3 JUMPI PUSH2 0x16F3 PUSH2 0x2246 JUMP JUMPDEST SWAP1 MSTORE POP PUSH1 0x60 SWAP1 SWAP4 ADD SWAP3 SWAP1 SWAP3 MSTORE POP POP JUMP JUMPDEST PUSH2 0x170B PUSH2 0x1B75 JUMP JUMPDEST DUP1 MLOAD PUSH2 0x1717 SWAP1 DUP4 PUSH2 0x17CA JUMP JUMPDEST POP PUSH1 0x0 PUSH1 0x20 DUP3 ADD MSTORE SWAP2 SWAP1 POP JUMP JUMPDEST PUSH2 0x1731 DUP3 PUSH1 0x3 DUP4 MLOAD PUSH2 0x1841 JUMP JUMPDEST DUP2 MLOAD PUSH2 0x173D SWAP1 DUP3 PUSH2 0x1960 JUMP JUMPDEST POP POP POP JUMP JUMPDEST DUP2 MLOAD PUSH2 0x174F SWAP1 PUSH1 0xC2 PUSH2 0x1988 JUMP JUMPDEST POP PUSH2 0x12AD DUP3 DUP3 PUSH1 0x40 MLOAD PUSH1 0x20 ADD PUSH2 0x1767 SWAP2 DUP2 MSTORE PUSH1 0x20 ADD SWAP1 JUMP JUMPDEST PUSH1 0x40 MLOAD PUSH1 0x20 DUP2 DUP4 SUB SUB DUP2 MSTORE SWAP1 PUSH1 0x40 MSTORE PUSH2 0x17BD JUMP JUMPDEST PUSH2 0x1786 DUP2 PUSH1 0x4 PUSH2 0x19F1 JUMP JUMPDEST PUSH1 0x1 DUP2 PUSH1 0x20 ADD DUP2 DUP2 MLOAD PUSH2 0x1799 SWAP2 SWAP1 PUSH2 0x1F73 JUMP JUMPDEST SWAP1 MSTORE POP POP JUMP JUMPDEST PUSH2 0x17AA DUP2 PUSH1 0x7 PUSH2 0x19F1 JUMP JUMPDEST PUSH1 0x1 DUP2 PUSH1 0x20 ADD DUP2 DUP2 MLOAD PUSH2 0x1799 SWAP2 SWAP1 PUSH2 0x1F60 JUMP JUMPDEST PUSH2 0x1731 DUP3 PUSH1 0x2 DUP4 MLOAD PUSH2 0x1841 JUMP JUMPDEST PUSH1 0x40 DUP1 MLOAD DUP1 DUP3 ADD SWAP1 SWAP2 MSTORE PUSH1 0x60 DUP2 MSTORE PUSH1 0x0 PUSH1 0x20 DUP3 ADD MSTORE PUSH2 0x17EA PUSH1 0x20 DUP4 PUSH2 0x22BE JUMP JUMPDEST ISZERO PUSH2 0x1812 JUMPI PUSH2 0x17FA PUSH1 0x20 DUP4 PUSH2 0x22BE JUMP JUMPDEST PUSH2 0x1805 SWAP1 PUSH1 0x20 PUSH2 0x1F60 JUMP JUMPDEST PUSH2 0x180F SWAP1 DUP4 PUSH2 0x1F73 JUMP JUMPDEST SWAP2 POP JUMPDEST PUSH1 0x20 DUP1 DUP5 ADD DUP4 SWAP1 MSTORE PUSH1 0x40 MLOAD DUP1 DUP6 MSTORE PUSH1 0x0 DUP2 MSTORE SWAP1 DUP2 DUP5 ADD ADD DUP2 DUP2 LT ISZERO PUSH2 0x1836 JUMPI PUSH1 0x0 DUP1 REVERT JUMPDEST PUSH1 0x40 MSTORE POP SWAP2 SWAP3 SWAP2 POP POP JUMP JUMPDEST PUSH1 0x17 DUP2 PUSH1 0x1 PUSH1 0x1 PUSH1 0x40 SHL SUB AND GT PUSH2 0x186D JUMPI DUP3 MLOAD PUSH2 0x1867 SWAP1 PUSH1 0xE0 PUSH1 0x5 DUP6 SWAP1 SHL AND DUP4 OR PUSH2 0x1988 JUMP JUMPDEST POP POP POP POP JUMP JUMPDEST PUSH1 0xFF DUP2 PUSH1 0x1 PUSH1 0x1 PUSH1 0x40 SHL SUB AND GT PUSH2 0x18AD JUMPI DUP3 MLOAD PUSH2 0x1895 SWAP1 PUSH1 0x18 PUSH2 0x1FE0 PUSH1 0x5 DUP7 SWAP1 SHL AND OR PUSH2 0x1988 JUMP JUMPDEST POP DUP3 MLOAD PUSH2 0x1867 SWAP1 PUSH1 0x1 PUSH1 0x1 PUSH1 0x40 SHL SUB DUP4 AND PUSH1 0x1 PUSH2 0x1A08 JUMP JUMPDEST PUSH2 0xFFFF DUP2 PUSH1 0x1 PUSH1 0x1 PUSH1 0x40 SHL SUB AND GT PUSH2 0x18EE JUMPI DUP3 MLOAD PUSH2 0x18D6 SWAP1 PUSH1 0x19 PUSH2 0x1FE0 PUSH1 0x5 DUP7 SWAP1 SHL AND OR PUSH2 0x1988 JUMP JUMPDEST POP DUP3 MLOAD PUSH2 0x1867 SWAP1 PUSH1 0x1 PUSH1 0x1 PUSH1 0x40 SHL SUB DUP4 AND PUSH1 0x2 PUSH2 0x1A08 JUMP JUMPDEST PUSH4 0xFFFFFFFF DUP2 PUSH1 0x1 PUSH1 0x1 PUSH1 0x40 SHL SUB AND GT PUSH2 0x1931 JUMPI DUP3 MLOAD PUSH2 0x1919 SWAP1 PUSH1 0x1A PUSH2 0x1FE0 PUSH1 0x5 DUP7 SWAP1 SHL AND OR PUSH2 0x1988 JUMP JUMPDEST POP DUP3 MLOAD PUSH2 0x1867 SWAP1 PUSH1 0x1 PUSH1 0x1 PUSH1 0x40 SHL SUB DUP4 AND PUSH1 0x4 PUSH2 0x1A08 JUMP JUMPDEST DUP3 MLOAD PUSH2 0x1948 SWAP1 PUSH1 0x1B PUSH2 0x1FE0 PUSH1 0x5 DUP7 SWAP1 SHL AND OR PUSH2 0x1988 JUMP JUMPDEST POP DUP3 MLOAD PUSH2 0x1867 SWAP1 PUSH1 0x1 PUSH1 0x1 PUSH1 0x40 SHL SUB DUP4 AND PUSH1 0x8 PUSH2 0x1A08 JUMP JUMPDEST PUSH1 0x40 DUP1 MLOAD DUP1 DUP3 ADD SWAP1 SWAP2 MSTORE PUSH1 0x60 DUP2 MSTORE PUSH1 0x0 PUSH1 0x20 DUP3 ADD MSTORE PUSH2 0x1981 DUP4 DUP4 DUP5 MLOAD PUSH2 0x1A8D JUMP JUMPDEST SWAP4 SWAP3 POP POP POP JUMP JUMPDEST PUSH1 0x40 DUP1 MLOAD DUP1 DUP3 ADD SWAP1 SWAP2 MSTORE PUSH1 0x60 DUP2 MSTORE PUSH1 0x0 PUSH1 0x20 DUP3 ADD MSTORE DUP3 MLOAD MLOAD PUSH1 0x0 PUSH2 0x19AD DUP3 PUSH1 0x1 PUSH2 0x1F73 JUMP JUMPDEST SWAP1 POP DUP5 PUSH1 0x20 ADD MLOAD DUP3 LT PUSH2 0x19CE JUMPI PUSH2 0x19CE DUP6 PUSH2 0x19C9 DUP4 PUSH1 0x2 PUSH2 0x22E0 JUMP JUMPDEST PUSH2 0x1B5E JUMP JUMPDEST DUP5 MLOAD PUSH1 0x20 DUP4 DUP3 ADD ADD DUP6 DUP2 MSTORE8 POP DUP1 MLOAD DUP3 GT ISZERO PUSH2 0x19E7 JUMPI DUP2 DUP2 MSTORE JUMPDEST POP SWAP4 SWAP5 SWAP4 POP POP POP POP JUMP JUMPDEST DUP2 MLOAD PUSH2 0x173D SWAP1 PUSH1 0x1F PUSH2 0x1FE0 PUSH1 0x5 DUP6 SWAP1 SHL AND OR PUSH2 0x1988 JUMP JUMPDEST PUSH1 0x40 DUP1 MLOAD DUP1 DUP3 ADD SWAP1 SWAP2 MSTORE PUSH1 0x60 DUP2 MSTORE PUSH1 0x0 PUSH1 0x20 DUP3 ADD MSTORE DUP4 MLOAD MLOAD PUSH1 0x0 PUSH2 0x1A2C DUP3 DUP6 PUSH2 0x1F73 JUMP JUMPDEST SWAP1 POP DUP6 PUSH1 0x20 ADD MLOAD DUP2 GT ISZERO PUSH2 0x1A49 JUMPI PUSH2 0x1A49 DUP7 PUSH2 0x19C9 DUP4 PUSH1 0x2 PUSH2 0x22E0 JUMP JUMPDEST PUSH1 0x0 PUSH1 0x1 PUSH2 0x1A59 DUP7 PUSH2 0x100 PUSH2 0x23DB JUMP JUMPDEST PUSH2 0x1A63 SWAP2 SWAP1 PUSH2 0x1F60 JUMP JUMPDEST SWAP1 POP DUP7 MLOAD DUP3 DUP2 ADD DUP8 DUP4 NOT DUP3 MLOAD AND OR DUP2 MSTORE POP DUP1 MLOAD DUP4 GT ISZERO PUSH2 0x1A81 JUMPI DUP3 DUP2 MSTORE JUMPDEST POP SWAP6 SWAP7 SWAP6 POP POP POP POP POP POP JUMP JUMPDEST PUSH1 0x40 DUP1 MLOAD DUP1 DUP3 ADD SWAP1 SWAP2 MSTORE PUSH1 0x60 DUP2 MSTORE PUSH1 0x0 PUSH1 0x20 DUP3 ADD MSTORE DUP3 MLOAD DUP3 GT ISZERO PUSH2 0x1AB0 JUMPI PUSH1 0x0 DUP1 REVERT JUMPDEST DUP4 MLOAD MLOAD PUSH1 0x0 PUSH2 0x1ABF DUP5 DUP4 PUSH2 0x1F73 JUMP JUMPDEST SWAP1 POP DUP6 PUSH1 0x20 ADD MLOAD DUP2 GT ISZERO PUSH2 0x1ADC JUMPI PUSH2 0x1ADC DUP7 PUSH2 0x19C9 DUP4 PUSH1 0x2 PUSH2 0x22E0 JUMP JUMPDEST DUP6 MLOAD DUP1 MLOAD DUP4 DUP3 ADD PUSH1 0x20 ADD SWAP2 PUSH1 0x0 SWAP2 DUP1 DUP6 GT ISZERO PUSH2 0x1AF6 JUMPI DUP5 DUP3 MSTORE JUMPDEST POP POP POP PUSH1 0x20 DUP7 ADD JUMPDEST PUSH1 0x20 DUP7 LT PUSH2 0x1B36 JUMPI DUP1 MLOAD DUP3 MSTORE PUSH2 0x1B15 PUSH1 0x20 DUP4 PUSH2 0x1F73 JUMP JUMPDEST SWAP2 POP PUSH2 0x1B22 PUSH1 0x20 DUP3 PUSH2 0x1F73 JUMP JUMPDEST SWAP1 POP PUSH2 0x1B2F PUSH1 0x20 DUP8 PUSH2 0x1F60 JUMP JUMPDEST SWAP6 POP PUSH2 0x1AFE JUMP JUMPDEST MLOAD DUP2 MLOAD PUSH1 0x0 NOT PUSH1 0x20 DUP9 SWAP1 SUB PUSH2 0x100 EXP ADD SWAP1 DUP2 AND SWAP1 NOT SWAP2 SWAP1 SWAP2 AND OR SWAP1 MSTORE POP DUP5 SWAP2 POP POP SWAP4 SWAP3 POP POP POP JUMP JUMPDEST DUP2 MLOAD PUSH2 0x1B6A DUP4 DUP4 PUSH2 0x17CA JUMP JUMPDEST POP PUSH2 0x1867 DUP4 DUP3 PUSH2 0x1960 JUMP JUMPDEST PUSH1 0x40 MLOAD DUP1 PUSH1 0x40 ADD PUSH1 0x40 MSTORE DUP1 PUSH2 0x1B9D PUSH1 0x40 MLOAD DUP1 PUSH1 0x40 ADD PUSH1 0x40 MSTORE DUP1 PUSH1 0x60 DUP2 MSTORE PUSH1 0x20 ADD PUSH1 0x0 DUP2 MSTORE POP SWAP1 JUMP JUMPDEST DUP2 MSTORE PUSH1 0x20 ADD PUSH1 0x0 DUP2 MSTORE POP SWAP1 JUMP JUMPDEST PUSH4 0x4E487B71 PUSH1 0xE0 SHL PUSH1 0x0 MSTORE PUSH1 0x41 PUSH1 0x4 MSTORE PUSH1 0x24 PUSH1 0x0 REVERT JUMPDEST PUSH1 0x0 PUSH1 0x1 PUSH1 0x1 PUSH1 0x40 SHL SUB DUP1 DUP5 GT ISZERO PUSH2 0x1BDA JUMPI PUSH2 0x1BDA PUSH2 0x1BAA JUMP JUMPDEST PUSH1 0x40 MLOAD PUSH1 0x1F DUP6 ADD PUSH1 0x1F NOT SWAP1 DUP2 AND PUSH1 0x3F ADD AND DUP2 ADD SWAP1 DUP3 DUP3 GT DUP2 DUP4 LT OR ISZERO PUSH2 0x1C02 JUMPI PUSH2 0x1C02 PUSH2 0x1BAA JUMP JUMPDEST DUP2 PUSH1 0x40 MSTORE DUP1 SWAP4 POP DUP6 DUP2 MSTORE DUP7 DUP7 DUP7 ADD GT ISZERO PUSH2 0x1C1B JUMPI PUSH1 0x0 DUP1 REVERT JUMPDEST DUP6 DUP6 PUSH1 0x20 DUP4 ADD CALLDATACOPY PUSH1 0x0 PUSH1 0x20 DUP8 DUP4 ADD ADD MSTORE POP POP POP SWAP4 SWAP3 POP POP POP JUMP JUMPDEST PUSH1 0x0 PUSH1 0x20 DUP3 DUP5 SUB SLT ISZERO PUSH2 0x1C47 JUMPI PUSH1 0x0 DUP1 REVERT JUMPDEST DUP2 CALLDATALOAD PUSH1 0x1 PUSH1 0x1 PUSH1 0x40 SHL SUB DUP2 GT ISZERO PUSH2 0x1C5D JUMPI PUSH1 0x0 DUP1 REVERT JUMPDEST DUP3 ADD PUSH1 0x1F DUP2 ADD DUP5 SGT PUSH2 0x1C6E JUMPI PUSH1 0x0 DUP1 REVERT JUMPDEST PUSH2 0x1C7D DUP5 DUP3 CALLDATALOAD PUSH1 0x20 DUP5 ADD PUSH2 0x1BC0 JUMP JUMPDEST SWAP5 SWAP4 POP POP POP POP JUMP JUMPDEST PUSH1 0x0 JUMPDEST DUP4 DUP2 LT ISZERO PUSH2 0x1CA0 JUMPI DUP2 DUP2 ADD MLOAD DUP4 DUP3 ADD MSTORE PUSH1 0x20 ADD PUSH2 0x1C88 JUMP JUMPDEST POP POP PUSH1 0x0 SWAP2 ADD MSTORE JUMP JUMPDEST PUSH1 0x0 DUP2 MLOAD DUP1 DUP5 MSTORE PUSH2 0x1CC1 DUP2 PUSH1 0x20 DUP7 ADD PUSH1 0x20 DUP7 ADD PUSH2 0x1C85 JUMP JUMPDEST PUSH1 0x1F ADD PUSH1 0x1F NOT AND SWAP3 SWAP1 SWAP3 ADD PUSH1 0x20 ADD SWAP3 SWAP2 POP POP JUMP JUMPDEST PUSH1 0x1 DUP1 PUSH1 0xA0 SHL SUB DUP2 MLOAD AND DUP3 MSTORE PUSH1 0x20 DUP2 ADD MLOAD PUSH1 0x20 DUP4 ADD MSTORE PUSH1 0x0 PUSH1 0x40 DUP3 ADD MLOAD PUSH1 0x80 PUSH1 0x40 DUP6 ADD MSTORE PUSH2 0x1D06 PUSH1 0x80 DUP6 ADD DUP3 PUSH2 0x1CA9 JUMP JUMPDEST SWAP1 POP PUSH1 0x60 DUP4 ADD MLOAD DUP5 DUP3 SUB PUSH1 0x60 DUP7 ADD MSTORE PUSH2 0x1D1F DUP3 DUP3 PUSH2 0x1CA9 JUMP JUMPDEST SWAP6 SWAP5 POP POP POP POP POP JUMP JUMPDEST PUSH1 0x20 DUP2 MSTORE PUSH1 0x0 PUSH2 0x1981 PUSH1 0x20 DUP4 ADD DUP5 PUSH2 0x1CD5 JUMP JUMPDEST PUSH1 0x0 DUP3 PUSH1 0x1F DUP4 ADD SLT PUSH2 0x1D4C JUMPI PUSH1 0x0 DUP1 REVERT JUMPDEST PUSH2 0x1981 DUP4 DUP4 CALLDATALOAD PUSH1 0x20 DUP6 ADD PUSH2 0x1BC0 JUMP JUMPDEST PUSH1 0x0 DUP1 PUSH1 0x0 PUSH1 0x60 DUP5 DUP7 SUB SLT ISZERO PUSH2 0x1D70 JUMPI PUSH1 0x0 DUP1 REVERT JUMPDEST DUP4 CALLDATALOAD SWAP3 POP PUSH1 0x20 DUP5 ADD CALLDATALOAD PUSH1 0x1 PUSH1 0x1 PUSH1 0x40 SHL SUB DUP1 DUP3 GT ISZERO PUSH2 0x1D8E JUMPI PUSH1 0x0 DUP1 REVERT JUMPDEST PUSH2 0x1D9A DUP8 DUP4 DUP9 ADD PUSH2 0x1D3B JUMP JUMPDEST SWAP4 POP PUSH1 0x40 DUP7 ADD CALLDATALOAD SWAP2 POP DUP1 DUP3 GT ISZERO PUSH2 0x1DB0 JUMPI PUSH1 0x0 DUP1 REVERT JUMPDEST POP PUSH2 0x1DBD DUP7 DUP3 DUP8 ADD PUSH2 0x1D3B JUMP JUMPDEST SWAP2 POP POP SWAP3 POP SWAP3 POP SWAP3 JUMP JUMPDEST PUSH1 0x20 DUP2 MSTORE PUSH1 0x0 PUSH2 0x1981 PUSH1 0x20 DUP4 ADD DUP5 PUSH2 0x1CA9 JUMP JUMPDEST PUSH1 0x0 PUSH1 0x20 DUP3 DUP5 SUB SLT ISZERO PUSH2 0x1DEC JUMPI PUSH1 0x0 DUP1 REVERT JUMPDEST POP CALLDATALOAD SWAP2 SWAP1 POP JUMP JUMPDEST PUSH1 0x1 DUP1 PUSH1 0xA0 SHL SUB DUP6 AND DUP2 MSTORE DUP4 PUSH1 0x20 DUP3 ADD MSTORE PUSH1 0x80 PUSH1 0x40 DUP3 ADD MSTORE PUSH1 0x0 PUSH2 0x1E1A PUSH1 0x80 DUP4 ADD DUP6 PUSH2 0x1CA9 JUMP JUMPDEST DUP3 DUP2 SUB PUSH1 0x60 DUP5 ADD MSTORE PUSH2 0x1E2C DUP2 DUP6 PUSH2 0x1CA9 JUMP JUMPDEST SWAP8 SWAP7 POP POP POP POP POP POP POP JUMP JUMPDEST PUSH1 0x0 DUP1 PUSH1 0x40 DUP4 DUP6 SUB SLT ISZERO PUSH2 0x1E4A JUMPI PUSH1 0x0 DUP1 REVERT JUMPDEST POP POP DUP1 CALLDATALOAD SWAP3 PUSH1 0x20 SWAP1 SWAP2 ADD CALLDATALOAD SWAP2 POP JUMP JUMPDEST PUSH1 0x0 PUSH1 0x20 DUP1 DUP4 ADD DUP2 DUP5 MSTORE DUP1 DUP6 MLOAD DUP1 DUP4 MSTORE PUSH1 0x40 DUP7 ADD SWAP2 POP PUSH1 0x40 DUP2 PUSH1 0x5 SHL DUP8 ADD ADD SWAP3 POP DUP4 DUP8 ADD PUSH1 0x0 JUMPDEST DUP3 DUP2 LT ISZERO PUSH2 0x1EAE JUMPI PUSH1 0x3F NOT DUP9 DUP7 SUB ADD DUP5 MSTORE PUSH2 0x1E9C DUP6 DUP4 MLOAD PUSH2 0x1CD5 JUMP JUMPDEST SWAP5 POP SWAP3 DUP6 ADD SWAP3 SWAP1 DUP6 ADD SWAP1 PUSH1 0x1 ADD PUSH2 0x1E80 JUMP JUMPDEST POP SWAP3 SWAP8 SWAP7 POP POP POP POP POP POP POP JUMP JUMPDEST DUP5 ISZERO ISZERO DUP2 MSTORE DUP4 ISZERO ISZERO PUSH1 0x20 DUP3 ADD MSTORE PUSH1 0x80 PUSH1 0x40 DUP3 ADD MSTORE PUSH1 0x0 PUSH2 0x1E1A PUSH1 0x80 DUP4 ADD DUP6 PUSH2 0x1CA9 JUMP JUMPDEST PUSH1 0x0 DUP3 MLOAD PUSH2 0x1EF0 DUP2 DUP5 PUSH1 0x20 DUP8 ADD PUSH2 0x1C85 JUMP JUMPDEST SWAP2 SWAP1 SWAP2 ADD SWAP3 SWAP2 POP POP JUMP JUMPDEST PUSH4 0x4E487B71 PUSH1 0xE0 SHL PUSH1 0x0 MSTORE PUSH1 0x32 PUSH1 0x4 MSTORE PUSH1 0x24 PUSH1 0x0 REVERT JUMPDEST PUSH1 0x1 DUP2 DUP2 SHR SWAP1 DUP3 AND DUP1 PUSH2 0x1F24 JUMPI PUSH1 0x7F DUP3 AND SWAP2 POP JUMPDEST PUSH1 0x20 DUP3 LT DUP2 SUB PUSH2 0x1F44 JUMPI PUSH4 0x4E487B71 PUSH1 0xE0 SHL PUSH1 0x0 MSTORE PUSH1 0x22 PUSH1 0x4 MSTORE PUSH1 0x24 PUSH1 0x0 REVERT JUMPDEST POP SWAP2 SWAP1 POP JUMP JUMPDEST PUSH4 0x4E487B71 PUSH1 0xE0 SHL PUSH1 0x0 MSTORE PUSH1 0x11 PUSH1 0x4 MSTORE PUSH1 0x24 PUSH1 0x0 REVERT JUMPDEST DUP2 DUP2 SUB DUP2 DUP2 GT ISZERO PUSH2 0xA3B JUMPI PUSH2 0xA3B PUSH2 0x1F4A JUMP JUMPDEST DUP1 DUP3 ADD DUP1 DUP3 GT ISZERO PUSH2 0xA3B JUMPI PUSH2 0xA3B PUSH2 0x1F4A JUMP JUMPDEST PUSH1 0x0 PUSH1 0x1 DUP3 ADD PUSH2 0x1F98 JUMPI PUSH2 0x1F98 PUSH2 0x1F4A JUMP JUMPDEST POP PUSH1 0x1 ADD SWAP1 JUMP JUMPDEST PUSH1 0x1F DUP3 GT ISZERO PUSH2 0x173D JUMPI PUSH1 0x0 DUP2 DUP2 MSTORE PUSH1 0x20 DUP2 KECCAK256 PUSH1 0x1F DUP6 ADD PUSH1 0x5 SHR DUP2 ADD PUSH1 0x20 DUP7 LT ISZERO PUSH2 0x1FC6 JUMPI POP DUP1 JUMPDEST PUSH1 0x1F DUP6 ADD PUSH1 0x5 SHR DUP3 ADD SWAP2 POP JUMPDEST DUP2 DUP2 LT ISZERO PUSH2 0x1FE5 JUMPI DUP3 DUP2 SSTORE PUSH1 0x1 ADD PUSH2 0x1FD2 JUMP JUMPDEST POP POP POP POP POP POP JUMP JUMPDEST DUP2 MLOAD PUSH1 0x1 PUSH1 0x1 PUSH1 0x40 SHL SUB DUP2 GT ISZERO PUSH2 0x2006 JUMPI PUSH2 0x2006 PUSH2 0x1BAA JUMP JUMPDEST PUSH2 0x201A DUP2 PUSH2 0x2014 DUP5 SLOAD PUSH2 0x1F10 JUMP JUMPDEST DUP5 PUSH2 0x1F9F JUMP JUMPDEST PUSH1 0x20 DUP1 PUSH1 0x1F DUP4 GT PUSH1 0x1 DUP2 EQ PUSH2 0x204F JUMPI PUSH1 0x0 DUP5 ISZERO PUSH2 0x2037 JUMPI POP DUP6 DUP4 ADD MLOAD JUMPDEST PUSH1 0x0 NOT PUSH1 0x3 DUP7 SWAP1 SHL SHR NOT AND PUSH1 0x1 DUP6 SWAP1 SHL OR DUP6 SSTORE PUSH2 0x1FE5 JUMP JUMPDEST PUSH1 0x0 DUP6 DUP2 MSTORE PUSH1 0x20 DUP2 KECCAK256 PUSH1 0x1F NOT DUP7 AND SWAP2 JUMPDEST DUP3 DUP2 LT ISZERO PUSH2 0x207E JUMPI DUP9 DUP7 ADD MLOAD DUP3 SSTORE SWAP5 DUP5 ADD SWAP5 PUSH1 0x1 SWAP1 SWAP2 ADD SWAP1 DUP5 ADD PUSH2 0x205F JUMP JUMPDEST POP DUP6 DUP3 LT ISZERO PUSH2 0x209C JUMPI DUP8 DUP6 ADD MLOAD PUSH1 0x0 NOT PUSH1 0x3 DUP9 SWAP1 SHL PUSH1 0xF8 AND SHR NOT AND DUP2 SSTORE JUMPDEST POP POP POP POP POP PUSH1 0x1 SWAP1 DUP2 SHL ADD SWAP1 SSTORE POP JUMP JUMPDEST DUP2 DUP2 SUB PUSH2 0x20B7 JUMPI POP POP JUMP JUMPDEST PUSH2 0x20C1 DUP3 SLOAD PUSH2 0x1F10 JUMP JUMPDEST PUSH1 0x1 PUSH1 0x1 PUSH1 0x40 SHL SUB DUP2 GT ISZERO PUSH2 0x20D8 JUMPI PUSH2 0x20D8 PUSH2 0x1BAA JUMP JUMPDEST PUSH2 0x20E6 DUP2 PUSH2 0x2014 DUP5 SLOAD PUSH2 0x1F10 JUMP JUMPDEST PUSH1 0x0 PUSH1 0x1F DUP3 GT PUSH1 0x1 DUP2 EQ PUSH2 0x211A JUMPI PUSH1 0x0 DUP4 ISZERO PUSH2 0x2102 JUMPI POP DUP5 DUP3 ADD SLOAD JUMPDEST PUSH1 0x0 NOT PUSH1 0x3 DUP6 SWAP1 SHL SHR NOT AND PUSH1 0x1 DUP5 SWAP1 SHL OR DUP5 SSTORE PUSH2 0x217F JUMP JUMPDEST PUSH1 0x0 DUP6 DUP2 MSTORE PUSH1 0x20 SWAP1 KECCAK256 PUSH1 0x1F NOT DUP5 AND SWAP1 PUSH1 0x0 DUP7 DUP2 MSTORE PUSH1 0x20 SWAP1 KECCAK256 DUP5 JUMPDEST DUP4 DUP2 LT ISZERO PUSH2 0x2154 JUMPI DUP3 DUP7 ADD SLOAD DUP3 SSTORE PUSH1 0x1 SWAP6 DUP7 ADD SWAP6 SWAP1 SWAP2 ADD SWAP1 PUSH1 0x20 ADD PUSH2 0x2134 JUMP JUMPDEST POP DUP6 DUP4 LT ISZERO PUSH2 0x2172 JUMPI DUP2 DUP6 ADD SLOAD PUSH1 0x0 NOT PUSH1 0x3 DUP9 SWAP1 SHL PUSH1 0xF8 AND SHR NOT AND DUP2 SSTORE JUMPDEST POP POP POP PUSH1 0x1 DUP4 PUSH1 0x1 SHL ADD DUP5 SSTORE JUMPDEST POP POP POP POP POP JUMP JUMPDEST PUSH1 0x0 DUP2 SLOAD PUSH2 0x2193 DUP2 PUSH2 0x1F10 JUMP JUMPDEST DUP1 DUP6 MSTORE PUSH1 0x20 PUSH1 0x1 DUP4 DUP2 AND DUP1 ISZERO PUSH2 0x21B0 JUMPI PUSH1 0x1 DUP2 EQ PUSH2 0x21CA JUMPI PUSH2 0x21F8 JUMP JUMPDEST PUSH1 0xFF NOT DUP6 AND DUP9 DUP5 ADD MSTORE DUP4 ISZERO ISZERO PUSH1 0x5 SHL DUP9 ADD DUP4 ADD SWAP6 POP PUSH2 0x21F8 JUMP JUMPDEST DUP7 PUSH1 0x0 MSTORE DUP3 PUSH1 0x0 KECCAK256 PUSH1 0x0 JUMPDEST DUP6 DUP2 LT ISZERO PUSH2 0x21F0 JUMPI DUP2 SLOAD DUP11 DUP3 ADD DUP7 ADD MSTORE SWAP1 DUP4 ADD SWAP1 DUP5 ADD PUSH2 0x21D5 JUMP JUMPDEST DUP10 ADD DUP5 ADD SWAP7 POP POP JUMPDEST POP POP POP POP POP SWAP3 SWAP2 POP POP JUMP JUMPDEST PUSH1 0x60 DUP2 MSTORE PUSH1 0x0 PUSH2 0x2216 PUSH1 0x60 DUP4 ADD DUP7 PUSH2 0x2186 JUMP JUMPDEST DUP3 DUP2 SUB PUSH1 0x20 DUP5 ADD MSTORE PUSH2 0x2228 DUP2 DUP7 PUSH2 0x2186 JUMP JUMPDEST SWAP1 POP DUP3 DUP2 SUB PUSH1 0x40 DUP5 ADD MSTORE PUSH2 0x223C DUP2 DUP6 PUSH2 0x2186 JUMP JUMPDEST SWAP7 SWAP6 POP POP POP POP POP POP JUMP JUMPDEST PUSH4 0x4E487B71 PUSH1 0xE0 SHL PUSH1 0x0 MSTORE PUSH1 0x21 PUSH1 0x4 MSTORE PUSH1 0x24 PUSH1 0x0 REVERT JUMPDEST PUSH1 0x1 PUSH1 0x1 PUSH1 0x40 SHL SUB DUP7 AND DUP2 MSTORE PUSH1 0xA0 PUSH1 0x20 DUP3 ADD MSTORE PUSH1 0x0 PUSH2 0x227E PUSH1 0xA0 DUP4 ADD DUP8 PUSH2 0x1CA9 JUMP JUMPDEST PUSH2 0xFFFF SWAP6 SWAP1 SWAP6 AND PUSH1 0x40 DUP4 ADD MSTORE POP PUSH4 0xFFFFFFFF SWAP3 SWAP1 SWAP3 AND PUSH1 0x60 DUP4 ADD MSTORE PUSH1 0x80 SWAP1 SWAP2 ADD MSTORE SWAP3 SWAP2 POP POP JUMP JUMPDEST PUSH1 0x0 PUSH1 0x20 DUP3 DUP5 SUB SLT ISZERO PUSH2 0x22B7 JUMPI PUSH1 0x0 DUP1 REVERT JUMPDEST POP MLOAD SWAP2 SWAP1 POP JUMP JUMPDEST PUSH1 0x0 DUP3 PUSH2 0x22DB JUMPI PUSH4 0x4E487B71 PUSH1 0xE0 SHL PUSH1 0x0 MSTORE PUSH1 0x12 PUSH1 0x4 MSTORE PUSH1 0x24 PUSH1 0x0 REVERT JUMPDEST POP MOD SWAP1 JUMP JUMPDEST DUP1 DUP3 MUL DUP2 ISZERO DUP3 DUP3 DIV DUP5 EQ OR PUSH2 0xA3B JUMPI PUSH2 0xA3B PUSH2 0x1F4A JUMP JUMPDEST PUSH1 0x1 DUP2 DUP2 JUMPDEST DUP1 DUP6 GT ISZERO PUSH2 0x2332 JUMPI DUP2 PUSH1 0x0 NOT DIV DUP3 GT ISZERO PUSH2 0x2318 JUMPI PUSH2 0x2318 PUSH2 0x1F4A JUMP JUMPDEST DUP1 DUP6 AND ISZERO PUSH2 0x2325 JUMPI SWAP2 DUP2 MUL SWAP2 JUMPDEST SWAP4 DUP5 SHR SWAP4 SWAP1 DUP1 MUL SWAP1 PUSH2 0x22FC JUMP JUMPDEST POP SWAP3 POP SWAP3 SWAP1 POP JUMP JUMPDEST PUSH1 0x0 DUP3 PUSH2 0x2349 JUMPI POP PUSH1 0x1 PUSH2 0xA3B JUMP JUMPDEST DUP2 PUSH2 0x2356 JUMPI POP PUSH1 0x0 PUSH2 0xA3B JUMP JUMPDEST DUP2 PUSH1 0x1 DUP2 EQ PUSH2 0x236C JUMPI PUSH1 0x2 DUP2 EQ PUSH2 0x2376 JUMPI PUSH2 0x2392 JUMP JUMPDEST PUSH1 0x1 SWAP2 POP POP PUSH2 0xA3B JUMP JUMPDEST PUSH1 0xFF DUP5 GT ISZERO PUSH2 0x2387 JUMPI PUSH2 0x2387 PUSH2 0x1F4A JUMP JUMPDEST POP POP PUSH1 0x1 DUP3 SHL PUSH2 0xA3B JUMP JUMPDEST POP PUSH1 0x20 DUP4 LT PUSH2 0x133 DUP4 LT AND PUSH1 0x4E DUP5 LT PUSH1 0xB DUP5 LT AND OR ISZERO PUSH2 0x23B5 JUMPI POP DUP2 DUP2 EXP PUSH2 0xA3B JUMP JUMPDEST PUSH2 0x23BF DUP4 DUP4 PUSH2 0x22F7 JUMP JUMPDEST DUP1 PUSH1 0x0 NOT DIV DUP3 GT ISZERO PUSH2 0x23D3 JUMPI PUSH2 0x23D3 PUSH2 0x1F4A JUMP JUMPDEST MUL SWAP4 SWAP3 POP POP POP JUMP JUMPDEST PUSH1 0x0 PUSH2 0x1981 DUP4 DUP4 PUSH2 0x233A JUMP INVALID LOG2 PUSH5 0x6970667358 0x22 SLT KECCAK256 PUSH1 0x3F 0x25 EXTCODECOPY 0xBE 0xDB 0xE8 SWAP4 RETURNDATASIZE MSTORE COINBASE 0xAE 0xC 0xD9 CALLER 0xE4 0x28 PUSH28 0xA0F2645EC54D752C0BB76F0B917A64736F6C63430008130033636F6E PUSH20 0x742063697479203D20617267735B305D3B636F6E PUSH20 0x7420617069526573706F6E7365203D2061776169 PUSH21 0x2046756E6374696F6E732E6D616B65487474705265 PUSH18 0x75657374287B75726C3A206068747470733A 0x2F 0x2F PUSH24 0x7474722E696E2F247B636974797D3F666F726D61743D3326 PUSH14 0x602C726573706F6E736554797065 GASPRICE KECCAK256 0x27 PUSH21 0x657874277D293B69662028617069526573706F6E73 PUSH6 0x2E6572726F72 0x29 KECCAK256 PUSH28 0x7468726F77204572726F72282752657175657374206661696C656427 0x29 EXTCODESIZE PUSH30 0x636F6E7374207B2064617461207D203D20617069526573706F6E73653B72 PUSH6 0x7475726E2046 PUSH22 0x6E6374696F6E732E656E636F6465537472696E672864 PUSH2 0x7461 0x29 EXTCODESIZE "
				},
				"gasEstimates": {
					"creation": {
						"codeDepositCost": "1849000",
						"executionCost": "infinite",
						"totalCost": "infinite"
					},
					"external": {
						"cities(uint256)": "infinite",
						"cityIndex(string)": "infinite",
						"getCity(string)": "infinite",
						"getTemperature(string)": "infinite",
						"handleOracleFulfillment(bytes32,bytes,bytes)": "infinite",
						"lastCity()": "infinite",
						"lastError()": "infinite",
						"lastRequestId()": "2405",
						"lastResponse()": "infinite",
						"lastSender()": "2427",
						"lastTemperature()": "infinite",
						"listAllCities()": "infinite",
						"listCities(uint256,uint256)": "infinite",
						"requestIds(uint256)": "4686",
						"request_city(bytes32)": "infinite",
						"requests(bytes32)": "infinite",
						"source()": "infinite",
						"subscriptionId()": "2394"
					},
					"internal": {
						"fulfillRequest(bytes32,bytes memory,bytes memory)": "infinite"
					}
				},
				"methodIdentifiers": {
					"cities(uint256)": "6a51b918",
					"cityIndex(string)": "c69c5bb8",
					"getCity(string)": "0650e971",
					"getTemperature(string)": "94d02941",
					"handleOracleFulfillment(bytes32,bytes,bytes)": "0ca76175",
					"lastCity()": "cd2b8d11",
					"lastError()": "29f0de3f",
					"lastRequestId()": "fc2a88c3",
					"lastResponse()": "62747e42",
					"lastSender()": "256fec88",
					"lastTemperature()": "9fb51771",
					"listAllCities()": "bc6f09c9",
					"listCities(uint256,uint256)": "8b8267cf",
					"requestIds(uint256)": "8796ba8c",
					"request_city(bytes32)": "8fcabccb",
					"requests(bytes32)": "9d866985",
					"source()": "67e828bf",
					"subscriptionId()": "09c1ba2e"
				}
			},
			"storageLayout": {
				"storage": [
					{
						"astId": 2257,
						"contract": "WeatherFunctions.sol:WeatherFunctions",
						"label": "lastRequestId",
						"offset": 0,
						"slot": "0",
						"type": "t_bytes32"
					},
					{
						"astId": 2259,
						"contract": "WeatherFunctions.sol:WeatherFunctions",
						"label": "lastResponse",
						"offset": 0,
						"slot": "1",
						"type": "t_bytes_storage"
					},
					{
						"astId": 2261,
						"contract": "WeatherFunctions.sol:WeatherFunctions",
						"label": "lastError",
						"offset": 0,
						"slot": "2",
						"type": "t_bytes_storage"
					},
					{
						"astId": 2275,
						"contract": "WeatherFunctions.sol:WeatherFunctions",
						"label": "requests",
						"offset": 0,
						"slot": "3",
						"type": "t_mapping(t_bytes32,t_struct(RequestStatus)2270_storage)"
					},
					{
						"astId": 2278,
						"contract": "WeatherFunctions.sol:WeatherFunctions",
						"label": "requestIds",
						"offset": 0,
						"slot": "4",
						"type": "t_array(t_bytes32)dyn_storage"
					},
					{
						"astId": 2291,
						"contract": "WeatherFunctions.sol:WeatherFunctions",
						"label": "router",
						"offset": 0,
						"slot": "5",
						"type": "t_address"
					},
					{
						"astId": 2294,
						"contract": "WeatherFunctions.sol:WeatherFunctions",
						"label": "donID",
						"offset": 0,
						"slot": "6",
						"type": "t_bytes32"
					},
					{
						"astId": 2297,
						"contract": "WeatherFunctions.sol:WeatherFunctions",
						"label": "gasLimit",
						"offset": 0,
						"slot": "7",
						"type": "t_uint32"
					},
					{
						"astId": 2299,
						"contract": "WeatherFunctions.sol:WeatherFunctions",
						"label": "subscriptionId",
						"offset": 4,
						"slot": "7",
						"type": "t_uint64"
					},
					{
						"astId": 2302,
						"contract": "WeatherFunctions.sol:WeatherFunctions",
						"label": "source",
						"offset": 0,
						"slot": "8",
						"type": "t_string_storage"
					},
					{
						"astId": 2304,
						"contract": "WeatherFunctions.sol:WeatherFunctions",
						"label": "lastCity",
						"offset": 0,
						"slot": "9",
						"type": "t_string_storage"
					},
					{
						"astId": 2306,
						"contract": "WeatherFunctions.sol:WeatherFunctions",
						"label": "lastTemperature",
						"offset": 0,
						"slot": "10",
						"type": "t_string_storage"
					},
					{
						"astId": 2308,
						"contract": "WeatherFunctions.sol:WeatherFunctions",
						"label": "lastSender",
						"offset": 0,
						"slot": "11",
						"type": "t_address"
					},
					{
						"astId": 2321,
						"contract": "WeatherFunctions.sol:WeatherFunctions",
						"label": "cities",
						"offset": 0,
						"slot": "12",
						"type": "t_array(t_struct(CityStruct)2317_storage)dyn_storage"
					},
					{
						"astId": 2325,
						"contract": "WeatherFunctions.sol:WeatherFunctions",
						"label": "cityIndex",
						"offset": 0,
						"slot": "13",
						"type": "t_mapping(t_string_memory_ptr,t_uint256)"
					},
					{
						"astId": 2329,
						"contract": "WeatherFunctions.sol:WeatherFunctions",
						"label": "request_city",
						"offset": 0,
						"slot": "14",
						"type": "t_mapping(t_bytes32,t_string_storage)"
					}
				],
				"types": {
					"t_address": {
						"encoding": "inplace",
						"label": "address",
						"numberOfBytes": "20"
					},
					"t_array(t_bytes32)dyn_storage": {
						"base": "t_bytes32",
						"encoding": "dynamic_array",
						"label": "bytes32[]",
						"numberOfBytes": "32"
					},
					"t_array(t_struct(CityStruct)2317_storage)dyn_storage": {
						"base": "t_struct(CityStruct)2317_storage",
						"encoding": "dynamic_array",
						"label": "struct WeatherFunctions.CityStruct[]",
						"numberOfBytes": "32"
					},
					"t_bool": {
						"encoding": "inplace",
						"label": "bool",
						"numberOfBytes": "1"
					},
					"t_bytes32": {
						"encoding": "inplace",
						"label": "bytes32",
						"numberOfBytes": "32"
					},
					"t_bytes_storage": {
						"encoding": "bytes",
						"label": "bytes",
						"numberOfBytes": "32"
					},
					"t_mapping(t_bytes32,t_string_storage)": {
						"encoding": "mapping",
						"key": "t_bytes32",
						"label": "mapping(bytes32 => string)",
						"numberOfBytes": "32",
						"value": "t_string_storage"
					},
					"t_mapping(t_bytes32,t_struct(RequestStatus)2270_storage)": {
						"encoding": "mapping",
						"key": "t_bytes32",
						"label": "mapping(bytes32 => struct WeatherFunctions.RequestStatus)",
						"numberOfBytes": "32",
						"value": "t_struct(RequestStatus)2270_storage"
					},
					"t_mapping(t_string_memory_ptr,t_uint256)": {
						"encoding": "mapping",
						"key": "t_string_memory_ptr",
						"label": "mapping(string => uint256)",
						"numberOfBytes": "32",
						"value": "t_uint256"
					},
					"t_string_memory_ptr": {
						"encoding": "bytes",
						"label": "string",
						"numberOfBytes": "32"
					},
					"t_string_storage": {
						"encoding": "bytes",
						"label": "string",
						"numberOfBytes": "32"
					},
					"t_struct(CityStruct)2317_storage": {
						"encoding": "inplace",
						"label": "struct WeatherFunctions.CityStruct",
						"members": [
							{
								"astId": 2310,
								"contract": "WeatherFunctions.sol:WeatherFunctions",
								"label": "sender",
								"offset": 0,
								"slot": "0",
								"type": "t_address"
							},
							{
								"astId": 2312,
								"contract": "WeatherFunctions.sol:WeatherFunctions",
								"label": "timestamp",
								"offset": 0,
								"slot": "1",
								"type": "t_uint256"
							},
							{
								"astId": 2314,
								"contract": "WeatherFunctions.sol:WeatherFunctions",
								"label": "name",
								"offset": 0,
								"slot": "2",
								"type": "t_string_storage"
							},
							{
								"astId": 2316,
								"contract": "WeatherFunctions.sol:WeatherFunctions",
								"label": "temperature",
								"offset": 0,
								"slot": "3",
								"type": "t_string_storage"
							}
						],
						"numberOfBytes": "128"
					},
					"t_struct(RequestStatus)2270_storage": {
						"encoding": "inplace",
						"label": "struct WeatherFunctions.RequestStatus",
						"members": [
							{
								"astId": 2263,
								"contract": "WeatherFunctions.sol:WeatherFunctions",
								"label": "fulfilled",
								"offset": 0,
								"slot": "0",
								"type": "t_bool"
							},
							{
								"astId": 2265,
								"contract": "WeatherFunctions.sol:WeatherFunctions",
								"label": "exists",
								"offset": 1,
								"slot": "0",
								"type": "t_bool"
							},
							{
								"astId": 2267,
								"contract": "WeatherFunctions.sol:WeatherFunctions",
								"label": "response",
								"offset": 0,
								"slot": "1",
								"type": "t_bytes_storage"
							},
							{
								"astId": 2269,
								"contract": "WeatherFunctions.sol:WeatherFunctions",
								"label": "err",
								"offset": 0,
								"slot": "2",
								"type": "t_bytes_storage"
							}
						],
						"numberOfBytes": "96"
					},
					"t_uint256": {
						"encoding": "inplace",
						"label": "uint256",
						"numberOfBytes": "32"
					},
					"t_uint32": {
						"encoding": "inplace",
						"label": "uint32",
						"numberOfBytes": "4"
					},
					"t_uint64": {
						"encoding": "inplace",
						"label": "uint64",
						"numberOfBytes": "8"
					}
				}
			},
			"userdoc": {
				"kind": "user",
				"methods": {
					"handleOracleFulfillment(bytes32,bytes,bytes)": {
						"notice": "Chainlink Functions response handler called by the Functions Router during fullilment from the designated transmitter node in an OCR round."
					}
				},
				"version": 1
			}
		}
	}
}