{
	"TokenShop.sol": {
		"TokenShop": {
			"abi": [
				{
					"inputs": [
						{
							"internalType": "address",
							"name": "tokenAddress",
							"type": "address"
						}
					],
					"stateMutability": "nonpayable",
					"type": "constructor"
				},
				{
					"inputs": [],
					"name": "getChainlinkDataFeedLatestAnswer",
					"outputs": [
						{
							"internalType": "int256",
							"name": "",
							"type": "int256"
						}
					],
					"stateMutability": "view",
					"type": "function"
				},
				{
					"inputs": [],
					"name": "minter",
					"outputs": [
						{
							"internalType": "contract TokenInterface",
							"name": "",
							"type": "address"
						}
					],
					"stateMutability": "view",
					"type": "function"
				},
				{
					"inputs": [],
					"name": "owner",
					"outputs": [
						{
							"internalType": "address",
							"name": "",
							"type": "address"
						}
					],
					"stateMutability": "view",
					"type": "function"
				},
				{
					"inputs": [
						{
							"internalType": "uint256",
							"name": "amountETH",
							"type": "uint256"
						}
					],
					"name": "tokenAmount",
					"outputs": [
						{
							"internalType": "uint256",
							"name": "",
							"type": "uint256"
						}
					],
					"stateMutability": "view",
					"type": "function"
				},
				{
					"inputs": [],
					"name": "tokenPrice",
					"outputs": [
						{
							"internalType": "uint256",
							"name": "",
							"type": "uint256"
						}
					],
					"stateMutability": "view",
					"type": "function"
				},
				{
					"inputs": [],
					"name": "withdraw",
					"outputs": [],
					"stateMutability": "nonpayable",
					"type": "function"
				},
				{
					"stateMutability": "payable",
					"type": "receive"
				}
			],
			"devdoc": {
				"kind": "dev",
				"methods": {},
				"version": 1
			},
			"evm": {
				"assembly": "    /* \"TokenShop.sol\":262:1983  contract TokenShop {... */\n  mstore(0x40, 0x80)\n    /* \"TokenShop.sol\":396:399  200 */\n  0xc8\n    /* \"TokenShop.sol\":368:399  uint256 public tokenPrice = 200 */\n  0x02\n  sstore\n    /* \"TokenShop.sol\":476:821  constructor(address tokenAddress) {... */\n  callvalue\n  dup1\n  iszero\n  tag_1\n  jumpi\n  0x00\n  dup1\n  revert\ntag_1:\n  pop\n  mload(0x40)\n  sub(codesize, bytecodeSize)\n  dup1\n  bytecodeSize\n  dup4\n  codecopy\n  dup2\n  add\n  0x40\n  dup2\n  swap1\n  mstore\n  tag_2\n  swap2\n  tag_3\n  jump\t// in\ntag_2:\n    /* \"TokenShop.sol\":520:526  minter */\n  0x01\n    /* \"TokenShop.sol\":520:557  minter = TokenInterface(tokenAddress) */\n  dup1\n  sload\n  sub(shl(0xa0, 0x01), 0x01)\n  swap1\n  swap3\n  and\n  not(sub(shl(0xa0, 0x01), 0x01))\n  swap3\n  dup4\n  and\n  or\n  swap1\n  sstore\n    /* \"TokenShop.sol\":520:526  minter */\n  0x00\n    /* \"TokenShop.sol\":709:786  priceFeed = AggregatorV3Interface(0x694AA1769357215DE4FAC081bf1f309aDC325306) */\n  dup1\n  sload\n  dup3\n  and\n    /* \"TokenShop.sol\":743:785  0x694AA1769357215DE4FAC081bf1f309aDC325306 */\n  0x694aa1769357215de4fac081bf1f309adc325306\n    /* \"TokenShop.sol\":709:786  priceFeed = AggregatorV3Interface(0x694AA1769357215DE4FAC081bf1f309aDC325306) */\n  or\n  swap1\n  sstore\n    /* \"TokenShop.sol\":796:801  owner */\n  0x03\n    /* \"TokenShop.sol\":796:814  owner = msg.sender */\n  dup1\n  sload\n  swap1\n  swap2\n  and\n    /* \"TokenShop.sol\":804:814  msg.sender */\n  caller\n    /* \"TokenShop.sol\":796:814  owner = msg.sender */\n  or\n  swap1\n  sstore\n    /* \"TokenShop.sol\":262:1983  contract TokenShop {... */\n  jump(tag_7)\n    /* \"#utility.yul\":14:304   */\ntag_3:\n    /* \"#utility.yul\":84:90   */\n  0x00\n    /* \"#utility.yul\":137:139   */\n  0x20\n    /* \"#utility.yul\":125:134   */\n  dup3\n    /* \"#utility.yul\":116:123   */\n  dup5\n    /* \"#utility.yul\":112:135   */\n  sub\n    /* \"#utility.yul\":108:140   */\n  slt\n    /* \"#utility.yul\":105:157   */\n  iszero\n  tag_9\n  jumpi\n    /* \"#utility.yul\":153:154   */\n  0x00\n    /* \"#utility.yul\":150:151   */\n  dup1\n    /* \"#utility.yul\":143:155   */\n  revert\n    /* \"#utility.yul\":105:157   */\ntag_9:\n    /* \"#utility.yul\":179:195   */\n  dup2\n  mload\n  sub(shl(0xa0, 0x01), 0x01)\n    /* \"#utility.yul\":224:255   */\n  dup2\n  and\n    /* \"#utility.yul\":214:256   */\n  dup2\n  eq\n    /* \"#utility.yul\":204:274   */\n  tag_10\n  jumpi\n    /* \"#utility.yul\":270:271   */\n  0x00\n    /* \"#utility.yul\":267:268   */\n  dup1\n    /* \"#utility.yul\":260:272   */\n  revert\n    /* \"#utility.yul\":204:274   */\ntag_10:\n    /* \"#utility.yul\":293:298   */\n  swap4\n    /* \"#utility.yul\":14:304   */\n  swap3\n  pop\n  pop\n  pop\n  jump\t// out\ntag_7:\n    /* \"TokenShop.sol\":262:1983  contract TokenShop {... */\n  dataSize(sub_0)\n  dup1\n  dataOffset(sub_0)\n  0x00\n  codecopy\n  0x00\n  return\nstop\n\nsub_0: assembly {\n        /* \"TokenShop.sol\":262:1983  contract TokenShop {... */\n      mstore(0x40, 0x80)\n      jumpi(tag_1, lt(calldatasize, 0x04))\n      shr(0xe0, calldataload(0x00))\n      dup1\n      0x07546172\n      eq\n      tag_3\n      jumpi\n      dup1\n      0x3ccfd60b\n      eq\n      tag_4\n      jumpi\n      dup1\n      0x45ab331e\n      eq\n      tag_5\n      jumpi\n      dup1\n      0x7ff9b596\n      eq\n      tag_6\n      jumpi\n      dup1\n      0x8da5cb5b\n      eq\n      tag_7\n      jumpi\n      dup1\n      0xbea4dfb5\n      eq\n      tag_8\n      jumpi\n      0x00\n      dup1\n      revert\n    tag_1:\n      jumpi(tag_2, calldatasize)\n        /* \"TokenShop.sol\":1693:1712  uint256 amountToken */\n      0x00\n        /* \"TokenShop.sol\":1715:1737  tokenAmount(msg.value) */\n      tag_11\n        /* \"TokenShop.sol\":1727:1736  msg.value */\n      callvalue\n        /* \"TokenShop.sol\":1715:1726  tokenAmount */\n      tag_12\n        /* \"TokenShop.sol\":1715:1737  tokenAmount(msg.value) */\n      jump\t// in\n    tag_11:\n        /* \"TokenShop.sol\":1747:1753  minter */\n      sload(0x01)\n        /* \"TokenShop.sol\":1747:1783  minter.mint(msg.sender, amountToken) */\n      mload(0x40)\n      shl(0xe0, 0x40c10f19)\n      dup2\n      mstore\n        /* \"TokenShop.sol\":1759:1769  msg.sender */\n      caller\n        /* \"TokenShop.sol\":1747:1783  minter.mint(msg.sender, amountToken) */\n      0x04\n      dup3\n      add\n        /* \"#utility.yul\":188:239   */\n      mstore\n        /* \"#utility.yul\":255:273   */\n      0x24\n      dup2\n      add\n        /* \"#utility.yul\":248:282   */\n      dup4\n      swap1\n      mstore\n        /* \"TokenShop.sol\":1693:1737  uint256 amountToken = tokenAmount(msg.value) */\n      swap2\n      swap3\n      pop\n      sub(shl(0xa0, 0x01), 0x01)\n        /* \"TokenShop.sol\":1747:1753  minter */\n      and\n      swap1\n        /* \"TokenShop.sol\":1747:1758  minter.mint */\n      0x40c10f19\n      swap1\n        /* \"#utility.yul\":161:179   */\n      0x44\n      add\n        /* \"TokenShop.sol\":1747:1783  minter.mint(msg.sender, amountToken) */\n      0x00\n      mload(0x40)\n      dup1\n      dup4\n      sub\n      dup2\n      0x00\n      dup8\n      dup1\n      extcodesize\n      iszero\n      dup1\n      iszero\n      tag_15\n      jumpi\n      0x00\n      dup1\n      revert\n    tag_15:\n      pop\n      gas\n      call\n      iszero\n      dup1\n      iszero\n      tag_17\n      jumpi\n      returndatasize\n      0x00\n      dup1\n      returndatacopy\n      revert(0x00, returndatasize)\n    tag_17:\n      stop\n        /* \"TokenShop.sol\":262:1983  contract TokenShop {... */\n    tag_2:\n      0x00\n      dup1\n      revert\n        /* \"TokenShop.sol\":334:362  TokenInterface public minter */\n    tag_3:\n      callvalue\n      dup1\n      iszero\n      tag_18\n      jumpi\n      0x00\n      dup1\n      revert\n    tag_18:\n      pop\n      sload(0x01)\n      tag_19\n      swap1\n      sub(shl(0xa0, 0x01), 0x01)\n      and\n      dup2\n      jump\n    tag_19:\n      mload(0x40)\n      sub(shl(0xa0, 0x01), 0x01)\n        /* \"#utility.yul\":478:510   */\n      swap1\n      swap2\n      and\n        /* \"#utility.yul\":460:511   */\n      dup2\n      mstore\n        /* \"#utility.yul\":448:450   */\n      0x20\n        /* \"#utility.yul\":433:451   */\n      add\n        /* \"TokenShop.sol\":334:362  TokenInterface public minter */\n    tag_21:\n      mload(0x40)\n      dup1\n      swap2\n      sub\n      swap1\n      return\n        /* \"TokenShop.sol\":1879:1981  function withdraw() external onlyOwner {... */\n    tag_4:\n      callvalue\n      dup1\n      iszero\n      tag_23\n      jumpi\n      0x00\n      dup1\n      revert\n    tag_23:\n      pop\n      tag_17\n      tag_25\n      jump\t// in\n        /* \"TokenShop.sol\":1188:1650  function tokenAmount(uint256 amountETH) public view returns (uint256) {... */\n    tag_5:\n      callvalue\n      dup1\n      iszero\n      tag_26\n      jumpi\n      0x00\n      dup1\n      revert\n    tag_26:\n      pop\n      tag_27\n      tag_28\n      calldatasize\n      0x04\n      tag_29\n      jump\t// in\n    tag_28:\n      tag_12\n      jump\t// in\n    tag_27:\n      mload(0x40)\n        /* \"#utility.yul\":853:878   */\n      swap1\n      dup2\n      mstore\n        /* \"#utility.yul\":841:843   */\n      0x20\n        /* \"#utility.yul\":826:844   */\n      add\n        /* \"TokenShop.sol\":1188:1650  function tokenAmount(uint256 amountETH) public view returns (uint256) {... */\n      tag_21\n        /* \"#utility.yul\":707:884   */\n      jump\n        /* \"TokenShop.sol\":368:399  uint256 public tokenPrice = 200 */\n    tag_6:\n      callvalue\n      dup1\n      iszero\n      tag_32\n      jumpi\n      0x00\n      dup1\n      revert\n    tag_32:\n      pop\n      tag_27\n      sload(0x02)\n      dup2\n      jump\n        /* \"TokenShop.sol\":449:469  address public owner */\n    tag_7:\n      callvalue\n      dup1\n      iszero\n      tag_36\n      jumpi\n      0x00\n      dup1\n      revert\n    tag_36:\n      pop\n      sload(0x03)\n      tag_19\n      swap1\n      sub(shl(0xa0, 0x01), 0x01)\n      and\n      dup2\n      jump\n        /* \"TokenShop.sol\":874:1182  function getChainlinkDataFeedLatestAnswer() public view returns (int) {... */\n    tag_8:\n      callvalue\n      dup1\n      iszero\n      tag_41\n      jumpi\n      0x00\n      dup1\n      revert\n    tag_41:\n      pop\n      tag_27\n      tag_43\n      jump\t// in\n        /* \"TokenShop.sol\":1188:1650  function tokenAmount(uint256 amountETH) public view returns (uint256) {... */\n    tag_12:\n        /* \"TokenShop.sol\":1249:1256  uint256 */\n      0x00\n        /* \"TokenShop.sol\":1314:1328  uint256 ethUsd */\n      dup1\n        /* \"TokenShop.sol\":1339:1373  getChainlinkDataFeedLatestAnswer() */\n      tag_47\n        /* \"TokenShop.sol\":1339:1371  getChainlinkDataFeedLatestAnswer */\n      tag_43\n        /* \"TokenShop.sol\":1339:1373  getChainlinkDataFeedLatestAnswer() */\n      jump\t// in\n    tag_47:\n        /* \"TokenShop.sol\":1314:1374  uint256 ethUsd = uint256(getChainlinkDataFeedLatestAnswer()) */\n      swap1\n      pop\n        /* \"TokenShop.sol\":1414:1431  uint256 amountUSD */\n      0x00\n        /* \"TokenShop.sol\":1455:1461  10**18 */\n      0x0de0b6b3a7640000\n        /* \"TokenShop.sol\":1434:1452  amountETH * ethUsd */\n      tag_48\n        /* \"TokenShop.sol\":1314:1374  uint256 ethUsd = uint256(getChainlinkDataFeedLatestAnswer()) */\n      dup4\n        /* \"TokenShop.sol\":1434:1443  amountETH */\n      dup7\n        /* \"TokenShop.sol\":1434:1452  amountETH * ethUsd */\n      tag_49\n      jump\t// in\n    tag_48:\n        /* \"TokenShop.sol\":1434:1461  amountETH * ethUsd / 10**18 */\n      tag_50\n      swap2\n      swap1\n      tag_51\n      jump\t// in\n    tag_50:\n        /* \"TokenShop.sol\":1414:1461  uint256 amountUSD = amountETH * ethUsd / 10**18 */\n      swap1\n      pop\n        /* \"TokenShop.sol\":1497:1516  uint256 amountToken */\n      0x00\n        /* \"TokenShop.sol\":1544:1553  10**(8/2) */\n      0x2710\n        /* \"TokenShop.sol\":1531:1541  tokenPrice */\n      sload(0x02)\n        /* \"TokenShop.sol\":1519:1528  amountUSD */\n      dup4\n        /* \"TokenShop.sol\":1519:1541  amountUSD / tokenPrice */\n      tag_52\n      swap2\n      swap1\n      tag_51\n      jump\t// in\n    tag_52:\n        /* \"TokenShop.sol\":1519:1553  amountUSD / tokenPrice / 10**(8/2) */\n      tag_53\n      swap2\n      swap1\n      tag_51\n      jump\t// in\n    tag_53:\n        /* \"TokenShop.sol\":1497:1553  uint256 amountToken = amountUSD / tokenPrice / 10**(8/2) */\n      swap6\n        /* \"TokenShop.sol\":1188:1650  function tokenAmount(uint256 amountETH) public view returns (uint256) {... */\n      swap5\n      pop\n      pop\n      pop\n      pop\n      pop\n      jump\t// out\n        /* \"TokenShop.sol\":1879:1981  function withdraw() external onlyOwner {... */\n    tag_25:\n        /* \"TokenShop.sol\":1849:1854  owner */\n      and(sub(shl(0xa0, 0x01), 0x01), sload(0x03))\n        /* \"TokenShop.sol\":1835:1845  msg.sender */\n      caller\n        /* \"TokenShop.sol\":1835:1854  msg.sender == owner */\n      eq\n        /* \"TokenShop.sol\":1827:1855  require(msg.sender == owner) */\n      tag_55\n      jumpi\n      0x00\n      dup1\n      revert\n    tag_55:\n        /* \"TokenShop.sol\":1936:1941  owner */\n      sload(0x03)\n        /* \"TokenShop.sol\":1928:1974  payable(owner).transfer(address(this).balance) */\n      mload(0x40)\n      sub(shl(0xa0, 0x01), 0x01)\n        /* \"TokenShop.sol\":1936:1941  owner */\n      swap1\n      swap2\n      and\n      swap1\n        /* \"TokenShop.sol\":1952:1973  address(this).balance */\n      selfbalance\n        /* \"TokenShop.sol\":1928:1974  payable(owner).transfer(address(this).balance) */\n      dup1\n      iszero\n      0x08fc\n      mul\n      swap2\n        /* \"TokenShop.sol\":1936:1941  owner */\n      0x00\n        /* \"TokenShop.sol\":1928:1974  payable(owner).transfer(address(this).balance) */\n      dup2\n        /* \"TokenShop.sol\":1936:1941  owner */\n      dup2\n        /* \"TokenShop.sol\":1928:1974  payable(owner).transfer(address(this).balance) */\n      dup2\n        /* \"TokenShop.sol\":1952:1973  address(this).balance */\n      dup6\n        /* \"TokenShop.sol\":1936:1941  owner */\n      dup9\n        /* \"TokenShop.sol\":1928:1974  payable(owner).transfer(address(this).balance) */\n      dup9\n      call\n      swap4\n      pop\n      pop\n      pop\n      pop\n      iszero\n      dup1\n      iszero\n      tag_58\n      jumpi\n      returndatasize\n      0x00\n      dup1\n      returndatacopy\n      revert(0x00, returndatasize)\n    tag_58:\n      pop\n        /* \"TokenShop.sol\":1879:1981  function withdraw() external onlyOwner {... */\n      jump\t// out\n        /* \"TokenShop.sol\":874:1182  function getChainlinkDataFeedLatestAnswer() public view returns (int) {... */\n    tag_43:\n        /* \"TokenShop.sol\":939:942  int */\n      0x00\n        /* \"TokenShop.sol\":1126:1135  priceFeed */\n      dup1\n      sload\n        /* \"TokenShop.sol\":1126:1153  priceFeed.latestRoundData() */\n      0x40\n      dup1\n      mload\n      shl(0xe2, 0x3fabe5a3)\n      dup2\n      mstore\n      swap1\n      mload\n        /* \"TokenShop.sol\":939:942  int */\n      dup4\n      swap3\n      sub(shl(0xa0, 0x01), 0x01)\n        /* \"TokenShop.sol\":1126:1135  priceFeed */\n      and\n      swap2\n        /* \"TokenShop.sol\":1126:1151  priceFeed.latestRoundData */\n      0xfeaf968c\n      swap2\n        /* \"TokenShop.sol\":1126:1153  priceFeed.latestRoundData() */\n      0x04\n      dup1\n      dup4\n      add\n      swap3\n      0xa0\n      swap3\n      swap2\n      swap1\n      dup3\n      swap1\n      sub\n      add\n      dup2\n        /* \"TokenShop.sol\":1126:1135  priceFeed */\n      dup7\n        /* \"TokenShop.sol\":1126:1153  priceFeed.latestRoundData() */\n      gas\n      staticcall\n      iszero\n      dup1\n      iszero\n      tag_61\n      jumpi\n      returndatasize\n      0x00\n      dup1\n      returndatacopy\n      revert(0x00, returndatasize)\n    tag_61:\n      pop\n      pop\n      pop\n      pop\n      mload(0x40)\n      returndatasize\n      not(0x1f)\n      0x1f\n      dup3\n      add\n      and\n      dup3\n      add\n      dup1\n      0x40\n      mstore\n      pop\n      dup2\n      add\n      swap1\n      tag_62\n      swap2\n      swap1\n      tag_63\n      jump\t// in\n    tag_62:\n      pop\n        /* \"TokenShop.sol\":954:1153  (... */\n      swap2\n      swap6\n        /* \"TokenShop.sol\":874:1182  function getChainlinkDataFeedLatestAnswer() public view returns (int) {... */\n      swap5\n      pop\n      pop\n      pop\n      pop\n      pop\n      jump\t// out\n        /* \"#utility.yul\":522:702   */\n    tag_29:\n        /* \"#utility.yul\":581:587   */\n      0x00\n        /* \"#utility.yul\":634:636   */\n      0x20\n        /* \"#utility.yul\":622:631   */\n      dup3\n        /* \"#utility.yul\":613:620   */\n      dup5\n        /* \"#utility.yul\":609:632   */\n      sub\n        /* \"#utility.yul\":605:637   */\n      slt\n        /* \"#utility.yul\":602:654   */\n      iszero\n      tag_69\n      jumpi\n        /* \"#utility.yul\":650:651   */\n      0x00\n        /* \"#utility.yul\":647:648   */\n      dup1\n        /* \"#utility.yul\":640:652   */\n      revert\n        /* \"#utility.yul\":602:654   */\n    tag_69:\n      pop\n        /* \"#utility.yul\":673:696   */\n      calldataload\n      swap2\n        /* \"#utility.yul\":522:702   */\n      swap1\n      pop\n      jump\t// out\n        /* \"#utility.yul\":1277:1542   */\n    tag_49:\n        /* \"#utility.yul\":1350:1359   */\n      dup1\n      dup3\n      mul\n        /* \"#utility.yul\":1381:1390   */\n      dup2\n      iszero\n        /* \"#utility.yul\":1398:1413   */\n      dup3\n      dup3\n      div\n        /* \"#utility.yul\":1392:1414   */\n      dup5\n      eq\n        /* \"#utility.yul\":1378:1415   */\n      or\n        /* \"#utility.yul\":1368:1536   */\n      tag_74\n      jumpi\n        /* \"#utility.yul\":1458:1468   */\n      0x4e487b71\n        /* \"#utility.yul\":1453:1456   */\n      0xe0\n        /* \"#utility.yul\":1449:1469   */\n      shl\n        /* \"#utility.yul\":1446:1447   */\n      0x00\n        /* \"#utility.yul\":1439:1470   */\n      mstore\n        /* \"#utility.yul\":1493:1497   */\n      0x11\n        /* \"#utility.yul\":1490:1491   */\n      0x04\n        /* \"#utility.yul\":1483:1498   */\n      mstore\n        /* \"#utility.yul\":1521:1525   */\n      0x24\n        /* \"#utility.yul\":1518:1519   */\n      0x00\n        /* \"#utility.yul\":1511:1526   */\n      revert\n        /* \"#utility.yul\":1368:1536   */\n    tag_74:\n        /* \"#utility.yul\":1277:1542   */\n      swap3\n      swap2\n      pop\n      pop\n      jump\t// out\n        /* \"#utility.yul\":1547:1764   */\n    tag_51:\n        /* \"#utility.yul\":1587:1588   */\n      0x00\n        /* \"#utility.yul\":1613:1614   */\n      dup3\n        /* \"#utility.yul\":1603:1735   */\n      tag_76\n      jumpi\n        /* \"#utility.yul\":1657:1667   */\n      0x4e487b71\n        /* \"#utility.yul\":1652:1655   */\n      0xe0\n        /* \"#utility.yul\":1648:1668   */\n      shl\n        /* \"#utility.yul\":1645:1646   */\n      0x00\n        /* \"#utility.yul\":1638:1669   */\n      mstore\n        /* \"#utility.yul\":1692:1696   */\n      0x12\n        /* \"#utility.yul\":1689:1690   */\n      0x04\n        /* \"#utility.yul\":1682:1697   */\n      mstore\n        /* \"#utility.yul\":1720:1724   */\n      0x24\n        /* \"#utility.yul\":1717:1718   */\n      0x00\n        /* \"#utility.yul\":1710:1725   */\n      revert\n        /* \"#utility.yul\":1603:1735   */\n    tag_76:\n      pop\n        /* \"#utility.yul\":1749:1758   */\n      div\n      swap1\n        /* \"#utility.yul\":1547:1764   */\n      jump\t// out\n        /* \"#utility.yul\":1769:1948   */\n    tag_64:\n        /* \"#utility.yul\":1847:1860   */\n      dup1\n      mload\n        /* \"#utility.yul\":1900:1922   */\n      0xffffffffffffffffffff\n        /* \"#utility.yul\":1889:1923   */\n      dup2\n      and\n        /* \"#utility.yul\":1879:1924   */\n      dup2\n      eq\n        /* \"#utility.yul\":1869:1942   */\n      tag_78\n      jumpi\n        /* \"#utility.yul\":1938:1939   */\n      0x00\n        /* \"#utility.yul\":1935:1936   */\n      dup1\n        /* \"#utility.yul\":1928:1940   */\n      revert\n        /* \"#utility.yul\":1869:1942   */\n    tag_78:\n        /* \"#utility.yul\":1769:1948   */\n      swap2\n      swap1\n      pop\n      jump\t// out\n        /* \"#utility.yul\":1953:2426   */\n    tag_63:\n        /* \"#utility.yul\":2056:2062   */\n      0x00\n        /* \"#utility.yul\":2064:2070   */\n      dup1\n        /* \"#utility.yul\":2072:2078   */\n      0x00\n        /* \"#utility.yul\":2080:2086   */\n      dup1\n        /* \"#utility.yul\":2088:2094   */\n      0x00\n        /* \"#utility.yul\":2141:2144   */\n      0xa0\n        /* \"#utility.yul\":2129:2138   */\n      dup7\n        /* \"#utility.yul\":2120:2127   */\n      dup9\n        /* \"#utility.yul\":2116:2139   */\n      sub\n        /* \"#utility.yul\":2112:2145   */\n      slt\n        /* \"#utility.yul\":2109:2162   */\n      iszero\n      tag_80\n      jumpi\n        /* \"#utility.yul\":2158:2159   */\n      0x00\n        /* \"#utility.yul\":2155:2156   */\n      dup1\n        /* \"#utility.yul\":2148:2160   */\n      revert\n        /* \"#utility.yul\":2109:2162   */\n    tag_80:\n        /* \"#utility.yul\":2181:2220   */\n      tag_81\n        /* \"#utility.yul\":2210:2219   */\n      dup7\n        /* \"#utility.yul\":2181:2220   */\n      tag_64\n      jump\t// in\n    tag_81:\n        /* \"#utility.yul\":2171:2220   */\n      swap5\n      pop\n        /* \"#utility.yul\":2260:2262   */\n      0x20\n        /* \"#utility.yul\":2249:2258   */\n      dup7\n        /* \"#utility.yul\":2245:2263   */\n      add\n        /* \"#utility.yul\":2239:2264   */\n      mload\n        /* \"#utility.yul\":2229:2264   */\n      swap4\n      pop\n        /* \"#utility.yul\":2304:2306   */\n      0x40\n        /* \"#utility.yul\":2293:2302   */\n      dup7\n        /* \"#utility.yul\":2289:2307   */\n      add\n        /* \"#utility.yul\":2283:2308   */\n      mload\n        /* \"#utility.yul\":2273:2308   */\n      swap3\n      pop\n        /* \"#utility.yul\":2348:2350   */\n      0x60\n        /* \"#utility.yul\":2337:2346   */\n      dup7\n        /* \"#utility.yul\":2333:2351   */\n      add\n        /* \"#utility.yul\":2327:2352   */\n      mload\n        /* \"#utility.yul\":2317:2352   */\n      swap2\n      pop\n        /* \"#utility.yul\":2371:2420   */\n      tag_82\n        /* \"#utility.yul\":2415:2418   */\n      0x80\n        /* \"#utility.yul\":2404:2413   */\n      dup8\n        /* \"#utility.yul\":2400:2419   */\n      add\n        /* \"#utility.yul\":2371:2420   */\n      tag_64\n      jump\t// in\n    tag_82:\n        /* \"#utility.yul\":2361:2420   */\n      swap1\n      pop\n        /* \"#utility.yul\":1953:2426   */\n      swap3\n      swap6\n      pop\n      swap3\n      swap6\n      swap1\n      swap4\n      pop\n      jump\t// out\n\n    auxdata: 0xa26469706673582212209dca7fc35973ae4648bd359baa68ae8be113985a0850cdc3ef8d6b5d3d4118a764736f6c63430008130033\n}\n",
				"bytecode": {
					"linkReferences": {},
					"object": "608060405260c860025534801561001557600080fd5b5060405161048638038061048683398101604081905261003491610080565b600180546001600160a01b039092166001600160a01b031992831617905560008054821673694aa1769357215de4fac081bf1f309adc32530617905560038054909116331790556100b0565b60006020828403121561009257600080fd5b81516001600160a01b03811681146100a957600080fd5b9392505050565b6103c7806100bf6000396000f3fe6080604052600436106100595760003560e01c806307546172146100d15780633ccfd60b1461010e57806345ab331e146101235780637ff9b596146101515780638da5cb5b14610167578063bea4dfb51461018757600080fd5b366100cc5760006100693461019c565b6001546040516340c10f1960e01b8152336004820152602481018390529192506001600160a01b0316906340c10f1990604401600060405180830381600087803b1580156100b657600080fd5b505af11580156100ca573d6000803e3d6000fd5b005b600080fd5b3480156100dd57600080fd5b506001546100f1906001600160a01b031681565b6040516001600160a01b0390911681526020015b60405180910390f35b34801561011a57600080fd5b506100ca6101f0565b34801561012f57600080fd5b5061014361013e3660046102bc565b61019c565b604051908152602001610105565b34801561015d57600080fd5b5061014360025481565b34801561017357600080fd5b506003546100f1906001600160a01b031681565b34801561019357600080fd5b50610143610243565b6000806101a7610243565b90506000670de0b6b3a76400006101be83866102d5565b6101c89190610300565b90506000612710600254836101dd9190610300565b6101e79190610300565b95945050505050565b6003546001600160a01b0316331461020757600080fd5b6003546040516001600160a01b03909116904780156108fc02916000818181858888f19350505050158015610240573d6000803e3d6000fd5b50565b6000805460408051633fabe5a360e21b8152905183926001600160a01b03169163feaf968c9160048083019260a09291908290030181865afa15801561028d573d6000803e3d6000fd5b505050506040513d601f19601f820116820180604052508101906102b19190610341565b509195945050505050565b6000602082840312156102ce57600080fd5b5035919050565b80820281158282048414176102fa57634e487b7160e01b600052601160045260246000fd5b92915050565b60008261031d57634e487b7160e01b600052601260045260246000fd5b500490565b805169ffffffffffffffffffff8116811461033c57600080fd5b919050565b600080600080600060a0868803121561035957600080fd5b61036286610322565b945060208601519350604086015192506060860151915061038560808701610322565b9050929550929590935056fea26469706673582212209dca7fc35973ae4648bd359baa68ae8be113985a0850cdc3ef8d6b5d3d4118a764736f6c63430008130033",
					"opcodes": "PUSH1 0x80 PUSH1 0x40 MSTORE PUSH1 0xC8 PUSH1 0x2 SSTORE CALLVALUE DUP1 ISZERO PUSH2 0x15 JUMPI PUSH1 0x0 DUP1 REVERT JUMPDEST POP PUSH1 0x40 MLOAD PUSH2 0x486 CODESIZE SUB DUP1 PUSH2 0x486 DUP4 CODECOPY DUP2 ADD PUSH1 0x40 DUP2 SWAP1 MSTORE PUSH2 0x34 SWAP2 PUSH2 0x80 JUMP JUMPDEST PUSH1 0x1 DUP1 SLOAD PUSH1 0x1 PUSH1 0x1 PUSH1 0xA0 SHL SUB SWAP1 SWAP3 AND PUSH1 0x1 PUSH1 0x1 PUSH1 0xA0 SHL SUB NOT SWAP3 DUP4 AND OR SWAP1 SSTORE PUSH1 0x0 DUP1 SLOAD DUP3 AND PUSH20 0x694AA1769357215DE4FAC081BF1F309ADC325306 OR SWAP1 SSTORE PUSH1 0x3 DUP1 SLOAD SWAP1 SWAP2 AND CALLER OR SWAP1 SSTORE PUSH2 0xB0 JUMP JUMPDEST PUSH1 0x0 PUSH1 0x20 DUP3 DUP5 SUB SLT ISZERO PUSH2 0x92 JUMPI PUSH1 0x0 DUP1 REVERT JUMPDEST DUP2 MLOAD PUSH1 0x1 PUSH1 0x1 PUSH1 0xA0 SHL SUB DUP2 AND DUP2 EQ PUSH2 0xA9 JUMPI PUSH1 0x0 DUP1 REVERT JUMPDEST SWAP4 SWAP3 POP POP POP JUMP JUMPDEST PUSH2 0x3C7 DUP1 PUSH2 0xBF PUSH1 0x0 CODECOPY PUSH1 0x0 RETURN INVALID PUSH1 0x80 PUSH1 0x40 MSTORE PUSH1 0x4 CALLDATASIZE LT PUSH2 0x59 JUMPI PUSH1 0x0 CALLDATALOAD PUSH1 0xE0 SHR DUP1 PUSH4 0x7546172 EQ PUSH2 0xD1 JUMPI DUP1 PUSH4 0x3CCFD60B EQ PUSH2 0x10E JUMPI DUP1 PUSH4 0x45AB331E EQ PUSH2 0x123 JUMPI DUP1 PUSH4 0x7FF9B596 EQ PUSH2 0x151 JUMPI DUP1 PUSH4 0x8DA5CB5B EQ PUSH2 0x167 JUMPI DUP1 PUSH4 0xBEA4DFB5 EQ PUSH2 0x187 JUMPI PUSH1 0x0 DUP1 REVERT JUMPDEST CALLDATASIZE PUSH2 0xCC JUMPI PUSH1 0x0 PUSH2 0x69 CALLVALUE PUSH2 0x19C JUMP JUMPDEST PUSH1 0x1 SLOAD PUSH1 0x40 MLOAD PUSH4 0x40C10F19 PUSH1 0xE0 SHL DUP2 MSTORE CALLER PUSH1 0x4 DUP3 ADD MSTORE PUSH1 0x24 DUP2 ADD DUP4 SWAP1 MSTORE SWAP2 SWAP3 POP PUSH1 0x1 PUSH1 0x1 PUSH1 0xA0 SHL SUB AND SWAP1 PUSH4 0x40C10F19 SWAP1 PUSH1 0x44 ADD PUSH1 0x0 PUSH1 0x40 MLOAD DUP1 DUP4 SUB DUP2 PUSH1 0x0 DUP8 DUP1 EXTCODESIZE ISZERO DUP1 ISZERO PUSH2 0xB6 JUMPI PUSH1 0x0 DUP1 REVERT JUMPDEST POP GAS CALL ISZERO DUP1 ISZERO PUSH2 0xCA JUMPI RETURNDATASIZE PUSH1 0x0 DUP1 RETURNDATACOPY RETURNDATASIZE PUSH1 0x0 REVERT JUMPDEST STOP JUMPDEST PUSH1 0x0 DUP1 REVERT JUMPDEST CALLVALUE DUP1 ISZERO PUSH2 0xDD JUMPI PUSH1 0x0 DUP1 REVERT JUMPDEST POP PUSH1 0x1 SLOAD PUSH2 0xF1 SWAP1 PUSH1 0x1 PUSH1 0x1 PUSH1 0xA0 SHL SUB AND DUP2 JUMP JUMPDEST PUSH1 0x40 MLOAD PUSH1 0x1 PUSH1 0x1 PUSH1 0xA0 SHL SUB SWAP1 SWAP2 AND DUP2 MSTORE PUSH1 0x20 ADD JUMPDEST PUSH1 0x40 MLOAD DUP1 SWAP2 SUB SWAP1 RETURN JUMPDEST CALLVALUE DUP1 ISZERO PUSH2 0x11A JUMPI PUSH1 0x0 DUP1 REVERT JUMPDEST POP PUSH2 0xCA PUSH2 0x1F0 JUMP JUMPDEST CALLVALUE DUP1 ISZERO PUSH2 0x12F JUMPI PUSH1 0x0 DUP1 REVERT JUMPDEST POP PUSH2 0x143 PUSH2 0x13E CALLDATASIZE PUSH1 0x4 PUSH2 0x2BC JUMP JUMPDEST PUSH2 0x19C JUMP JUMPDEST PUSH1 0x40 MLOAD SWAP1 DUP2 MSTORE PUSH1 0x20 ADD PUSH2 0x105 JUMP JUMPDEST CALLVALUE DUP1 ISZERO PUSH2 0x15D JUMPI PUSH1 0x0 DUP1 REVERT JUMPDEST POP PUSH2 0x143 PUSH1 0x2 SLOAD DUP2 JUMP JUMPDEST CALLVALUE DUP1 ISZERO PUSH2 0x173 JUMPI PUSH1 0x0 DUP1 REVERT JUMPDEST POP PUSH1 0x3 SLOAD PUSH2 0xF1 SWAP1 PUSH1 0x1 PUSH1 0x1 PUSH1 0xA0 SHL SUB AND DUP2 JUMP JUMPDEST CALLVALUE DUP1 ISZERO PUSH2 0x193 JUMPI PUSH1 0x0 DUP1 REVERT JUMPDEST POP PUSH2 0x143 PUSH2 0x243 JUMP JUMPDEST PUSH1 0x0 DUP1 PUSH2 0x1A7 PUSH2 0x243 JUMP JUMPDEST SWAP1 POP PUSH1 0x0 PUSH8 0xDE0B6B3A7640000 PUSH2 0x1BE DUP4 DUP7 PUSH2 0x2D5 JUMP JUMPDEST PUSH2 0x1C8 SWAP2 SWAP1 PUSH2 0x300 JUMP JUMPDEST SWAP1 POP PUSH1 0x0 PUSH2 0x2710 PUSH1 0x2 SLOAD DUP4 PUSH2 0x1DD SWAP2 SWAP1 PUSH2 0x300 JUMP JUMPDEST PUSH2 0x1E7 SWAP2 SWAP1 PUSH2 0x300 JUMP JUMPDEST SWAP6 SWAP5 POP POP POP POP POP JUMP JUMPDEST PUSH1 0x3 SLOAD PUSH1 0x1 PUSH1 0x1 PUSH1 0xA0 SHL SUB AND CALLER EQ PUSH2 0x207 JUMPI PUSH1 0x0 DUP1 REVERT JUMPDEST PUSH1 0x3 SLOAD PUSH1 0x40 MLOAD PUSH1 0x1 PUSH1 0x1 PUSH1 0xA0 SHL SUB SWAP1 SWAP2 AND SWAP1 SELFBALANCE DUP1 ISZERO PUSH2 0x8FC MUL SWAP2 PUSH1 0x0 DUP2 DUP2 DUP2 DUP6 DUP9 DUP9 CALL SWAP4 POP POP POP POP ISZERO DUP1 ISZERO PUSH2 0x240 JUMPI RETURNDATASIZE PUSH1 0x0 DUP1 RETURNDATACOPY RETURNDATASIZE PUSH1 0x0 REVERT JUMPDEST POP JUMP JUMPDEST PUSH1 0x0 DUP1 SLOAD PUSH1 0x40 DUP1 MLOAD PUSH4 0x3FABE5A3 PUSH1 0xE2 SHL DUP2 MSTORE SWAP1 MLOAD DUP4 SWAP3 PUSH1 0x1 PUSH1 0x1 PUSH1 0xA0 SHL SUB AND SWAP2 PUSH4 0xFEAF968C SWAP2 PUSH1 0x4 DUP1 DUP4 ADD SWAP3 PUSH1 0xA0 SWAP3 SWAP2 SWAP1 DUP3 SWAP1 SUB ADD DUP2 DUP7 GAS STATICCALL ISZERO DUP1 ISZERO PUSH2 0x28D JUMPI RETURNDATASIZE PUSH1 0x0 DUP1 RETURNDATACOPY RETURNDATASIZE PUSH1 0x0 REVERT JUMPDEST POP POP POP POP PUSH1 0x40 MLOAD RETURNDATASIZE PUSH1 0x1F NOT PUSH1 0x1F DUP3 ADD AND DUP3 ADD DUP1 PUSH1 0x40 MSTORE POP DUP2 ADD SWAP1 PUSH2 0x2B1 SWAP2 SWAP1 PUSH2 0x341 JUMP JUMPDEST POP SWAP2 SWAP6 SWAP5 POP POP POP POP POP JUMP JUMPDEST PUSH1 0x0 PUSH1 0x20 DUP3 DUP5 SUB SLT ISZERO PUSH2 0x2CE JUMPI PUSH1 0x0 DUP1 REVERT JUMPDEST POP CALLDATALOAD SWAP2 SWAP1 POP JUMP JUMPDEST DUP1 DUP3 MUL DUP2 ISZERO DUP3 DUP3 DIV DUP5 EQ OR PUSH2 0x2FA JUMPI PUSH4 0x4E487B71 PUSH1 0xE0 SHL PUSH1 0x0 MSTORE PUSH1 0x11 PUSH1 0x4 MSTORE PUSH1 0x24 PUSH1 0x0 REVERT JUMPDEST SWAP3 SWAP2 POP POP JUMP JUMPDEST PUSH1 0x0 DUP3 PUSH2 0x31D JUMPI PUSH4 0x4E487B71 PUSH1 0xE0 SHL PUSH1 0x0 MSTORE PUSH1 0x12 PUSH1 0x4 MSTORE PUSH1 0x24 PUSH1 0x0 REVERT JUMPDEST POP DIV SWAP1 JUMP JUMPDEST DUP1 MLOAD PUSH10 0xFFFFFFFFFFFFFFFFFFFF DUP2 AND DUP2 EQ PUSH2 0x33C JUMPI PUSH1 0x0 DUP1 REVERT JUMPDEST SWAP2 SWAP1 POP JUMP JUMPDEST PUSH1 0x0 DUP1 PUSH1 0x0 DUP1 PUSH1 0x0 PUSH1 0xA0 DUP7 DUP9 SUB SLT ISZERO PUSH2 0x359 JUMPI PUSH1 0x0 DUP1 REVERT JUMPDEST PUSH2 0x362 DUP7 PUSH2 0x322 JUMP JUMPDEST SWAP5 POP PUSH1 0x20 DUP7 ADD MLOAD SWAP4 POP PUSH1 0x40 DUP7 ADD MLOAD SWAP3 POP PUSH1 0x60 DUP7 ADD MLOAD SWAP2 POP PUSH2 0x385 PUSH1 0x80 DUP8 ADD PUSH2 0x322 JUMP JUMPDEST SWAP1 POP SWAP3 SWAP6 POP SWAP3 SWAP6 SWAP1 SWAP4 POP JUMP INVALID LOG2 PUSH5 0x6970667358 0x22 SLT KECCAK256 SWAP14 0xCA PUSH32 0xC35973AE4648BD359BAA68AE8BE113985A0850CDC3EF8D6B5D3D4118A764736F PUSH13 0x63430008130033000000000000 "
				},
				"gasEstimates": {
					"creation": {
						"codeDepositCost": "193400",
						"executionCost": "infinite",
						"totalCost": "infinite"
					},
					"external": {
						"getChainlinkDataFeedLatestAnswer()": "infinite",
						"minter()": "2304",
						"owner()": "2392",
						"tokenAmount(uint256)": "infinite",
						"tokenPrice()": "2339",
						"withdraw()": "infinite"
					}
				},
				"methodIdentifiers": {
					"getChainlinkDataFeedLatestAnswer()": "bea4dfb5",
					"minter()": "07546172",
					"owner()": "8da5cb5b",
					"tokenAmount(uint256)": "45ab331e",
					"tokenPrice()": "7ff9b596",
					"withdraw()": "3ccfd60b"
				}
			},
			"storageLayout": {
				"storage": [
					{
						"astId": 59,
						"contract": "TokenShop.sol:TokenShop",
						"label": "priceFeed",
						"offset": 0,
						"slot": "0",
						"type": "t_contract(AggregatorV3Interface)45"
					},
					{
						"astId": 62,
						"contract": "TokenShop.sol:TokenShop",
						"label": "minter",
						"offset": 0,
						"slot": "1",
						"type": "t_contract(TokenInterface)56"
					},
					{
						"astId": 65,
						"contract": "TokenShop.sol:TokenShop",
						"label": "tokenPrice",
						"offset": 0,
						"slot": "2",
						"type": "t_uint256"
					},
					{
						"astId": 67,
						"contract": "TokenShop.sol:TokenShop",
						"label": "owner",
						"offset": 0,
						"slot": "3",
						"type": "t_address"
					}
				],
				"types": {
					"t_address": {
						"encoding": "inplace",
						"label": "address",
						"numberOfBytes": "20"
					},
					"t_contract(AggregatorV3Interface)45": {
						"encoding": "inplace",
						"label": "contract AggregatorV3Interface",
						"numberOfBytes": "20"
					},
					"t_contract(TokenInterface)56": {
						"encoding": "inplace",
						"label": "contract TokenInterface",
						"numberOfBytes": "20"
					},
					"t_uint256": {
						"encoding": "inplace",
						"label": "uint256",
						"numberOfBytes": "32"
					}
				}
			},
			"userdoc": {
				"kind": "user",
				"methods": {
					"getChainlinkDataFeedLatestAnswer()": {
						"notice": "Returns the latest answer"
					}
				},
				"version": 1
			}
		}
	}
}