{
	"CustomLogic_flattened.sol": {
		"CustomLogic": {
			"abi": [
				{
					"inputs": [
						{
							"internalType": "uint256",
							"name": "updateInterval",
							"type": "uint256"
						}
					],
					"stateMutability": "nonpayable",
					"type": "constructor"
				},
				{
					"inputs": [
						{
							"internalType": "bytes",
							"name": "",
							"type": "bytes"
						}
					],
					"name": "checkUpkeep",
					"outputs": [
						{
							"internalType": "bool",
							"name": "upkeepNeeded",
							"type": "bool"
						},
						{
							"internalType": "bytes",
							"name": "",
							"type": "bytes"
						}
					],
					"stateMutability": "view",
					"type": "function"
				},
				{
					"inputs": [],
					"name": "counter",
					"outputs": [
						{
							"internalType": "uint256",
							"name": "",
							"type": "uint256"
						}
					],
					"stateMutability": "view",
					"type": "function"
				},
				{
					"inputs": [],
					"name": "interval",
					"outputs": [
						{
							"internalType": "uint256",
							"name": "",
							"type": "uint256"
						}
					],
					"stateMutability": "view",
					"type": "function"
				},
				{
					"inputs": [],
					"name": "lastTimeStamp",
					"outputs": [
						{
							"internalType": "uint256",
							"name": "",
							"type": "uint256"
						}
					],
					"stateMutability": "view",
					"type": "function"
				},
				{
					"inputs": [
						{
							"internalType": "bytes",
							"name": "",
							"type": "bytes"
						}
					],
					"name": "performUpkeep",
					"outputs": [],
					"stateMutability": "nonpayable",
					"type": "function"
				}
			],
			"devdoc": {
				"kind": "dev",
				"methods": {},
				"version": 1
			},
			"evm": {
				"assembly": "    /* \"CustomLogic_flattened.sol\":3373:4189  contract CustomLogic is AutomationCompatibleInterface {... */\n  mstore(0x40, 0xa0)\n    /* \"CustomLogic_flattened.sol\":3540:3687  constructor(uint256 updateInterval) {  ... */\n  callvalue\n  dup1\n  iszero\n  tag_1\n  jumpi\n  0x00\n  dup1\n  revert\ntag_1:\n  pop\n  mload(0x40)\n  sub(codesize, bytecodeSize)\n  dup1\n  bytecodeSize\n  dup4\n  codecopy\n  dup2\n  add\n  0x40\n  dup2\n  swap1\n  mstore\n  tag_2\n  swap2\n  tag_3\n  jump\t// in\ntag_2:\n    /* \"CustomLogic_flattened.sol\":3588:3613  interval = updateInterval */\n  0x80\n  mstore\n    /* \"CustomLogic_flattened.sol\":3641:3656  block.timestamp */\n  timestamp\n    /* \"CustomLogic_flattened.sol\":3625:3638  lastTimeStamp */\n  0x01\n    /* \"CustomLogic_flattened.sol\":3625:3656  lastTimeStamp = block.timestamp */\n  sstore\n    /* \"CustomLogic_flattened.sol\":3677:3678  0 */\n  0x00\n    /* \"CustomLogic_flattened.sol\":3667:3678  counter = 0 */\n  dup1\n  sstore\n    /* \"CustomLogic_flattened.sol\":3373:4189  contract CustomLogic is AutomationCompatibleInterface {... */\n  jump(tag_7)\n    /* \"#utility.yul\":14:198   */\ntag_3:\n    /* \"#utility.yul\":84:90   */\n  0x00\n    /* \"#utility.yul\":137:139   */\n  0x20\n    /* \"#utility.yul\":125:134   */\n  dup3\n    /* \"#utility.yul\":116:123   */\n  dup5\n    /* \"#utility.yul\":112:135   */\n  sub\n    /* \"#utility.yul\":108:140   */\n  slt\n    /* \"#utility.yul\":105:157   */\n  iszero\n  tag_9\n  jumpi\n    /* \"#utility.yul\":153:154   */\n  0x00\n    /* \"#utility.yul\":150:151   */\n  dup1\n    /* \"#utility.yul\":143:155   */\n  revert\n    /* \"#utility.yul\":105:157   */\ntag_9:\n  pop\n    /* \"#utility.yul\":176:192   */\n  mload\n  swap2\n    /* \"#utility.yul\":14:198   */\n  swap1\n  pop\n  jump\t// out\ntag_7:\n    /* \"CustomLogic_flattened.sol\":3373:4189  contract CustomLogic is AutomationCompatibleInterface {... */\n  mload(0x80)\n  codecopy(0x00, dataOffset(sub_0), dataSize(sub_0))\n  0x00\n  assignImmutable(\"0xcc143a676b82d5e07b2c9d57717b403ab3c58caa273a42cdb95b15980141a86c\")\n  return(0x00, dataSize(sub_0))\nstop\n\nsub_0: assembly {\n        /* \"CustomLogic_flattened.sol\":3373:4189  contract CustomLogic is AutomationCompatibleInterface {... */\n      mstore(0x40, 0x80)\n      callvalue\n      dup1\n      iszero\n      tag_1\n      jumpi\n      0x00\n      dup1\n      revert\n    tag_1:\n      pop\n      jumpi(tag_2, lt(calldatasize, 0x04))\n      div(calldataload(0x00), 0x0100000000000000000000000000000000000000000000000000000000)\n      0x3f3b3b27\n      dup2\n      eq\n      tag_3\n      jumpi\n      dup1\n      0x4585e33b\n      eq\n      tag_4\n      jumpi\n      dup1\n      0x61bc221a\n      eq\n      tag_5\n      jumpi\n      dup1\n      0x6e04ff0d\n      eq\n      tag_6\n      jumpi\n      dup1\n      0x947a36fb\n      eq\n      tag_7\n      jumpi\n    tag_2:\n      0x00\n      dup1\n      revert\n        /* \"CustomLogic_flattened.sol\":3505:3533  uint256 public lastTimeStamp */\n    tag_3:\n      tag_8\n      sload(0x01)\n      dup2\n      jump\n    tag_8:\n      mload(0x40)\n        /* \"#utility.yul\":160:185   */\n      swap1\n      dup2\n      mstore\n        /* \"#utility.yul\":148:150   */\n      0x20\n        /* \"#utility.yul\":133:151   */\n      add\n        /* \"CustomLogic_flattened.sol\":3505:3533  uint256 public lastTimeStamp */\n    tag_10:\n      mload(0x40)\n      dup1\n      swap2\n      sub\n      swap1\n      return\n        /* \"CustomLogic_flattened.sol\":3961:4185  function performUpkeep(bytes calldata) external override {  ... */\n    tag_4:\n      tag_12\n      tag_13\n      calldatasize\n      0x04\n      tag_14\n      jump\t// in\n    tag_13:\n      tag_15\n      jump\t// in\n    tag_12:\n      stop\n        /* \"CustomLogic_flattened.sol\":3434:3456  uint256 public counter */\n    tag_5:\n      tag_8\n      sload(0x00)\n      dup2\n      jump\n        /* \"CustomLogic_flattened.sol\":3693:3955  function checkUpkeep(  ... */\n    tag_6:\n      tag_19\n      tag_20\n      calldatasize\n      0x04\n      tag_14\n      jump\t// in\n    tag_20:\n      tag_21\n      jump\t// in\n    tag_19:\n      mload(0x40)\n      tag_10\n      swap3\n      swap2\n      swap1\n      tag_23\n      jump\t// in\n        /* \"CustomLogic_flattened.sol\":3464:3497  uint256 public immutable interval */\n    tag_7:\n      tag_8\n      immutable(\"0xcc143a676b82d5e07b2c9d57717b403ab3c58caa273a42cdb95b15980141a86c\")\n      dup2\n      jump\n        /* \"CustomLogic_flattened.sol\":3961:4185  function performUpkeep(bytes calldata) external override {  ... */\n    tag_15:\n        /* \"CustomLogic_flattened.sol\":4070:4078  interval */\n      immutable(\"0xcc143a676b82d5e07b2c9d57717b403ab3c58caa273a42cdb95b15980141a86c\")\n        /* \"CustomLogic_flattened.sol\":4053:4066  lastTimeStamp */\n      sload(0x01)\n        /* \"CustomLogic_flattened.sol\":4035:4050  block.timestamp */\n      timestamp\n        /* \"CustomLogic_flattened.sol\":4035:4066  block.timestamp - lastTimeStamp */\n      tag_28\n      swap2\n      swap1\n      tag_29\n      jump\t// in\n    tag_28:\n        /* \"CustomLogic_flattened.sol\":4034:4078  (block.timestamp - lastTimeStamp) > interval */\n      gt\n        /* \"CustomLogic_flattened.sol\":4030:4177  if ((block.timestamp - lastTimeStamp) > interval) {  ... */\n      iszero\n      tag_30\n      jumpi\n        /* \"CustomLogic_flattened.sol\":4112:4127  block.timestamp */\n      timestamp\n        /* \"CustomLogic_flattened.sol\":4096:4109  lastTimeStamp */\n      0x01\n        /* \"CustomLogic_flattened.sol\":4096:4127  lastTimeStamp = block.timestamp */\n      swap1\n      dup2\n      sstore\n        /* \"CustomLogic_flattened.sol\":4153:4160  counter */\n      sload(0x00)\n        /* \"CustomLogic_flattened.sol\":4153:4164  counter + 1 */\n      tag_31\n      swap2\n      tag_32\n      jump\t// in\n    tag_31:\n        /* \"CustomLogic_flattened.sol\":4143:4150  counter */\n      0x00\n        /* \"CustomLogic_flattened.sol\":4143:4164  counter = counter + 1 */\n      sstore\n        /* \"CustomLogic_flattened.sol\":4030:4177  if ((block.timestamp - lastTimeStamp) > interval) {  ... */\n    tag_30:\n        /* \"CustomLogic_flattened.sol\":3961:4185  function performUpkeep(bytes calldata) external override {  ... */\n      pop\n      pop\n      jump\t// out\n        /* \"CustomLogic_flattened.sol\":3693:3955  function checkUpkeep(  ... */\n    tag_21:\n        /* \"CustomLogic_flattened.sol\":3836:3853  bool upkeepNeeded */\n      0x00\n        /* \"CustomLogic_flattened.sol\":3855:3867  bytes memory */\n      0x60\n        /* \"CustomLogic_flattened.sol\":3938:3946  interval */\n      immutable(\"0xcc143a676b82d5e07b2c9d57717b403ab3c58caa273a42cdb95b15980141a86c\")\n        /* \"CustomLogic_flattened.sol\":3921:3934  lastTimeStamp */\n      sload(0x01)\n        /* \"CustomLogic_flattened.sol\":3903:3918  block.timestamp */\n      timestamp\n        /* \"CustomLogic_flattened.sol\":3903:3934  block.timestamp - lastTimeStamp */\n      tag_34\n      swap2\n      swap1\n      tag_29\n      jump\t// in\n    tag_34:\n        /* \"CustomLogic_flattened.sol\":3902:3946  (block.timestamp - lastTimeStamp) > interval */\n      gt\n        /* \"CustomLogic_flattened.sol\":3887:3946  upkeepNeeded = (block.timestamp - lastTimeStamp) > interval */\n      swap2\n      pop\n        /* \"CustomLogic_flattened.sol\":3693:3955  function checkUpkeep(  ... */\n      swap3\n      pop\n      swap3\n      swap1\n      pop\n      jump\t// out\n        /* \"#utility.yul\":196:787   */\n    tag_14:\n        /* \"#utility.yul\":266:272   */\n      0x00\n        /* \"#utility.yul\":274:280   */\n      dup1\n        /* \"#utility.yul\":327:329   */\n      0x20\n        /* \"#utility.yul\":315:324   */\n      dup4\n        /* \"#utility.yul\":306:313   */\n      dup6\n        /* \"#utility.yul\":302:325   */\n      sub\n        /* \"#utility.yul\":298:330   */\n      slt\n        /* \"#utility.yul\":295:347   */\n      iszero\n      tag_39\n      jumpi\n        /* \"#utility.yul\":343:344   */\n      0x00\n        /* \"#utility.yul\":340:341   */\n      dup1\n        /* \"#utility.yul\":333:345   */\n      revert\n        /* \"#utility.yul\":295:347   */\n    tag_39:\n        /* \"#utility.yul\":383:392   */\n      dup3\n        /* \"#utility.yul\":370:393   */\n      calldataload\n        /* \"#utility.yul\":412:430   */\n      0xffffffffffffffff\n        /* \"#utility.yul\":453:455   */\n      dup1\n        /* \"#utility.yul\":445:451   */\n      dup3\n        /* \"#utility.yul\":442:456   */\n      gt\n        /* \"#utility.yul\":439:473   */\n      iszero\n      tag_40\n      jumpi\n        /* \"#utility.yul\":469:470   */\n      0x00\n        /* \"#utility.yul\":466:467   */\n      dup1\n        /* \"#utility.yul\":459:471   */\n      revert\n        /* \"#utility.yul\":439:473   */\n    tag_40:\n        /* \"#utility.yul\":507:513   */\n      dup2\n        /* \"#utility.yul\":496:505   */\n      dup6\n        /* \"#utility.yul\":492:514   */\n      add\n        /* \"#utility.yul\":482:514   */\n      swap2\n      pop\n        /* \"#utility.yul\":552:559   */\n      dup6\n        /* \"#utility.yul\":545:549   */\n      0x1f\n        /* \"#utility.yul\":541:543   */\n      dup4\n        /* \"#utility.yul\":537:550   */\n      add\n        /* \"#utility.yul\":533:560   */\n      slt\n        /* \"#utility.yul\":523:578   */\n      tag_41\n      jumpi\n        /* \"#utility.yul\":574:575   */\n      0x00\n        /* \"#utility.yul\":571:572   */\n      dup1\n        /* \"#utility.yul\":564:576   */\n      revert\n        /* \"#utility.yul\":523:578   */\n    tag_41:\n        /* \"#utility.yul\":614:616   */\n      dup2\n        /* \"#utility.yul\":601:617   */\n      calldataload\n        /* \"#utility.yul\":640:642   */\n      dup2\n        /* \"#utility.yul\":632:638   */\n      dup2\n        /* \"#utility.yul\":629:643   */\n      gt\n        /* \"#utility.yul\":626:660   */\n      iszero\n      tag_42\n      jumpi\n        /* \"#utility.yul\":656:657   */\n      0x00\n        /* \"#utility.yul\":653:654   */\n      dup1\n        /* \"#utility.yul\":646:658   */\n      revert\n        /* \"#utility.yul\":626:660   */\n    tag_42:\n        /* \"#utility.yul\":701:708   */\n      dup7\n        /* \"#utility.yul\":696:698   */\n      0x20\n        /* \"#utility.yul\":687:693   */\n      dup3\n        /* \"#utility.yul\":683:685   */\n      dup6\n        /* \"#utility.yul\":679:694   */\n      add\n        /* \"#utility.yul\":675:699   */\n      add\n        /* \"#utility.yul\":672:709   */\n      gt\n        /* \"#utility.yul\":669:726   */\n      iszero\n      tag_43\n      jumpi\n        /* \"#utility.yul\":722:723   */\n      0x00\n        /* \"#utility.yul\":719:720   */\n      dup1\n        /* \"#utility.yul\":712:724   */\n      revert\n        /* \"#utility.yul\":669:726   */\n    tag_43:\n        /* \"#utility.yul\":753:755   */\n      0x20\n        /* \"#utility.yul\":745:756   */\n      swap3\n      swap1\n      swap3\n      add\n      swap7\n        /* \"#utility.yul\":775:781   */\n      swap2\n      swap6\n      pop\n        /* \"#utility.yul\":196:787   */\n      swap1\n      swap4\n      pop\n      pop\n      pop\n      pop\n      jump\t// out\n        /* \"#utility.yul\":792:1419   */\n    tag_23:\n        /* \"#utility.yul\":975:981   */\n      dup3\n        /* \"#utility.yul\":968:982   */\n      iszero\n        /* \"#utility.yul\":961:983   */\n      iszero\n        /* \"#utility.yul\":950:959   */\n      dup2\n        /* \"#utility.yul\":943:984   */\n      mstore\n        /* \"#utility.yul\":924:928   */\n      0x00\n        /* \"#utility.yul\":1003:1005   */\n      0x20\n        /* \"#utility.yul\":1041:1043   */\n      0x40\n        /* \"#utility.yul\":1036:1038   */\n      dup2\n        /* \"#utility.yul\":1025:1034   */\n      dup5\n        /* \"#utility.yul\":1021:1039   */\n      add\n        /* \"#utility.yul\":1014:1044   */\n      mstore\n        /* \"#utility.yul\":1073:1079   */\n      dup4\n        /* \"#utility.yul\":1067:1080   */\n      mload\n        /* \"#utility.yul\":1116:1122   */\n      dup1\n        /* \"#utility.yul\":1111:1113   */\n      0x40\n        /* \"#utility.yul\":1100:1109   */\n      dup6\n        /* \"#utility.yul\":1096:1114   */\n      add\n        /* \"#utility.yul\":1089:1123   */\n      mstore\n        /* \"#utility.yul\":1141:1142   */\n      0x00\n        /* \"#utility.yul\":1151:1291   */\n    tag_45:\n        /* \"#utility.yul\":1165:1171   */\n      dup2\n        /* \"#utility.yul\":1162:1163   */\n      dup2\n        /* \"#utility.yul\":1159:1172   */\n      lt\n        /* \"#utility.yul\":1151:1291   */\n      iszero\n      tag_47\n      jumpi\n        /* \"#utility.yul\":1260:1274   */\n      dup6\n      dup2\n      add\n        /* \"#utility.yul\":1256:1279   */\n      dup4\n      add\n        /* \"#utility.yul\":1250:1280   */\n      mload\n        /* \"#utility.yul\":1226:1243   */\n      dup6\n      dup3\n      add\n        /* \"#utility.yul\":1245:1247   */\n      0x60\n        /* \"#utility.yul\":1222:1248   */\n      add\n        /* \"#utility.yul\":1215:1281   */\n      mstore\n        /* \"#utility.yul\":1180:1190   */\n      dup3\n      add\n        /* \"#utility.yul\":1151:1291   */\n      jump(tag_45)\n    tag_47:\n        /* \"#utility.yul\":1155:1158   */\n      pop\n        /* \"#utility.yul\":1340:1341   */\n      0x00\n        /* \"#utility.yul\":1335:1337   */\n      0x60\n        /* \"#utility.yul\":1326:1332   */\n      dup3\n        /* \"#utility.yul\":1315:1324   */\n      dup7\n        /* \"#utility.yul\":1311:1333   */\n      add\n        /* \"#utility.yul\":1307:1338   */\n      add\n        /* \"#utility.yul\":1300:1342   */\n      mstore\n        /* \"#utility.yul\":1410:1412   */\n      0x60\n        /* \"#utility.yul\":1403:1405   */\n      0x1f\n        /* \"#utility.yul\":1399:1406   */\n      not\n        /* \"#utility.yul\":1394:1396   */\n      0x1f\n        /* \"#utility.yul\":1386:1392   */\n      dup4\n        /* \"#utility.yul\":1382:1397   */\n      add\n        /* \"#utility.yul\":1378:1407   */\n      and\n        /* \"#utility.yul\":1367:1376   */\n      dup6\n        /* \"#utility.yul\":1363:1408   */\n      add\n        /* \"#utility.yul\":1359:1413   */\n      add\n        /* \"#utility.yul\":1351:1413   */\n      swap3\n      pop\n      pop\n      pop\n        /* \"#utility.yul\":792:1419   */\n      swap4\n      swap3\n      pop\n      pop\n      pop\n      jump\t// out\n        /* \"#utility.yul\":1424:1608   */\n    tag_35:\n        /* \"#utility.yul\":1476:1553   */\n      0x4e487b7100000000000000000000000000000000000000000000000000000000\n        /* \"#utility.yul\":1473:1474   */\n      0x00\n        /* \"#utility.yul\":1466:1554   */\n      mstore\n        /* \"#utility.yul\":1573:1577   */\n      0x11\n        /* \"#utility.yul\":1570:1571   */\n      0x04\n        /* \"#utility.yul\":1563:1578   */\n      mstore\n        /* \"#utility.yul\":1597:1601   */\n      0x24\n        /* \"#utility.yul\":1594:1595   */\n      0x00\n        /* \"#utility.yul\":1587:1602   */\n      revert\n        /* \"#utility.yul\":1613:1741   */\n    tag_29:\n        /* \"#utility.yul\":1680:1689   */\n      dup2\n      dup2\n      sub\n        /* \"#utility.yul\":1701:1712   */\n      dup2\n      dup2\n      gt\n        /* \"#utility.yul\":1698:1735   */\n      iszero\n      tag_51\n      jumpi\n        /* \"#utility.yul\":1715:1733   */\n      tag_51\n      tag_35\n      jump\t// in\n    tag_51:\n        /* \"#utility.yul\":1613:1741   */\n      swap3\n      swap2\n      pop\n      pop\n      jump\t// out\n        /* \"#utility.yul\":1746:1871   */\n    tag_32:\n        /* \"#utility.yul\":1811:1820   */\n      dup1\n      dup3\n      add\n        /* \"#utility.yul\":1832:1842   */\n      dup1\n      dup3\n      gt\n        /* \"#utility.yul\":1829:1865   */\n      iszero\n      tag_51\n      jumpi\n        /* \"#utility.yul\":1845:1863   */\n      tag_51\n      tag_35\n      jump\t// in\n\n    auxdata: 0xa2646970667358221220640224f6c4647bd332caba90bf67d04a67c3885faa2ff181ee27ac4acbb98fd364736f6c63430008130033\n}\n",
				"bytecode": {
					"linkReferences": {},
					"object": "60a060405234801561001057600080fd5b5060405161036038038061036083398101604081905261002f9161003f565b6080524260015560008055610058565b60006020828403121561005157600080fd5b5051919050565b6080516102e161007f6000396000818160d80152818160fc015261014f01526102e16000f3fe608060405234801561001057600080fd5b5060043610610073577c010000000000000000000000000000000000000000000000000000000060003504633f3b3b2781146100785780634585e33b1461009457806361bc221a146100a95780636e04ff0d146100b2578063947a36fb146100d3575b600080fd5b61008160015481565b6040519081526020015b60405180910390f35b6100a76100a2366004610186565b6100fa565b005b61008160005481565b6100c56100c0366004610186565b610149565b60405161008b9291906101f8565b6100817f000000000000000000000000000000000000000000000000000000000000000081565b7f000000000000000000000000000000000000000000000000000000000000000060015442610129919061027f565b11156101455742600190815560005461014191610298565b6000555b5050565b600060607f00000000000000000000000000000000000000000000000000000000000000006001544261017c919061027f565b1191509250929050565b6000806020838503121561019957600080fd5b823567ffffffffffffffff808211156101b157600080fd5b818501915085601f8301126101c557600080fd5b8135818111156101d457600080fd5b8660208285010111156101e657600080fd5b60209290920196919550909350505050565b821515815260006020604081840152835180604085015260005b8181101561022e57858101830151858201606001528201610212565b506000606082860101526060601f19601f830116850101925050509392505050565b7f4e487b7100000000000000000000000000000000000000000000000000000000600052601160045260246000fd5b8181038181111561029257610292610250565b92915050565b808201808211156102925761029261025056fea2646970667358221220640224f6c4647bd332caba90bf67d04a67c3885faa2ff181ee27ac4acbb98fd364736f6c63430008130033",
					"opcodes": "PUSH1 0xA0 PUSH1 0x40 MSTORE CALLVALUE DUP1 ISZERO PUSH2 0x10 JUMPI PUSH1 0x0 DUP1 REVERT JUMPDEST POP PUSH1 0x40 MLOAD PUSH2 0x360 CODESIZE SUB DUP1 PUSH2 0x360 DUP4 CODECOPY DUP2 ADD PUSH1 0x40 DUP2 SWAP1 MSTORE PUSH2 0x2F SWAP2 PUSH2 0x3F JUMP JUMPDEST PUSH1 0x80 MSTORE TIMESTAMP PUSH1 0x1 SSTORE PUSH1 0x0 DUP1 SSTORE PUSH2 0x58 JUMP JUMPDEST PUSH1 0x0 PUSH1 0x20 DUP3 DUP5 SUB SLT ISZERO PUSH2 0x51 JUMPI PUSH1 0x0 DUP1 REVERT JUMPDEST POP MLOAD SWAP2 SWAP1 POP JUMP JUMPDEST PUSH1 0x80 MLOAD PUSH2 0x2E1 PUSH2 0x7F PUSH1 0x0 CODECOPY PUSH1 0x0 DUP2 DUP2 PUSH1 0xD8 ADD MSTORE DUP2 DUP2 PUSH1 0xFC ADD MSTORE PUSH2 0x14F ADD MSTORE PUSH2 0x2E1 PUSH1 0x0 RETURN INVALID PUSH1 0x80 PUSH1 0x40 MSTORE CALLVALUE DUP1 ISZERO PUSH2 0x10 JUMPI PUSH1 0x0 DUP1 REVERT JUMPDEST POP PUSH1 0x4 CALLDATASIZE LT PUSH2 0x73 JUMPI PUSH29 0x100000000000000000000000000000000000000000000000000000000 PUSH1 0x0 CALLDATALOAD DIV PUSH4 0x3F3B3B27 DUP2 EQ PUSH2 0x78 JUMPI DUP1 PUSH4 0x4585E33B EQ PUSH2 0x94 JUMPI DUP1 PUSH4 0x61BC221A EQ PUSH2 0xA9 JUMPI DUP1 PUSH4 0x6E04FF0D EQ PUSH2 0xB2 JUMPI DUP1 PUSH4 0x947A36FB EQ PUSH2 0xD3 JUMPI JUMPDEST PUSH1 0x0 DUP1 REVERT JUMPDEST PUSH2 0x81 PUSH1 0x1 SLOAD DUP2 JUMP JUMPDEST PUSH1 0x40 MLOAD SWAP1 DUP2 MSTORE PUSH1 0x20 ADD JUMPDEST PUSH1 0x40 MLOAD DUP1 SWAP2 SUB SWAP1 RETURN JUMPDEST PUSH2 0xA7 PUSH2 0xA2 CALLDATASIZE PUSH1 0x4 PUSH2 0x186 JUMP JUMPDEST PUSH2 0xFA JUMP JUMPDEST STOP JUMPDEST PUSH2 0x81 PUSH1 0x0 SLOAD DUP2 JUMP JUMPDEST PUSH2 0xC5 PUSH2 0xC0 CALLDATASIZE PUSH1 0x4 PUSH2 0x186 JUMP JUMPDEST PUSH2 0x149 JUMP JUMPDEST PUSH1 0x40 MLOAD PUSH2 0x8B SWAP3 SWAP2 SWAP1 PUSH2 0x1F8 JUMP JUMPDEST PUSH2 0x81 PUSH32 0x0 DUP2 JUMP JUMPDEST PUSH32 0x0 PUSH1 0x1 SLOAD TIMESTAMP PUSH2 0x129 SWAP2 SWAP1 PUSH2 0x27F JUMP JUMPDEST GT ISZERO PUSH2 0x145 JUMPI TIMESTAMP PUSH1 0x1 SWAP1 DUP2 SSTORE PUSH1 0x0 SLOAD PUSH2 0x141 SWAP2 PUSH2 0x298 JUMP JUMPDEST PUSH1 0x0 SSTORE JUMPDEST POP POP JUMP JUMPDEST PUSH1 0x0 PUSH1 0x60 PUSH32 0x0 PUSH1 0x1 SLOAD TIMESTAMP PUSH2 0x17C SWAP2 SWAP1 PUSH2 0x27F JUMP JUMPDEST GT SWAP2 POP SWAP3 POP SWAP3 SWAP1 POP JUMP JUMPDEST PUSH1 0x0 DUP1 PUSH1 0x20 DUP4 DUP6 SUB SLT ISZERO PUSH2 0x199 JUMPI PUSH1 0x0 DUP1 REVERT JUMPDEST DUP3 CALLDATALOAD PUSH8 0xFFFFFFFFFFFFFFFF DUP1 DUP3 GT ISZERO PUSH2 0x1B1 JUMPI PUSH1 0x0 DUP1 REVERT JUMPDEST DUP2 DUP6 ADD SWAP2 POP DUP6 PUSH1 0x1F DUP4 ADD SLT PUSH2 0x1C5 JUMPI PUSH1 0x0 DUP1 REVERT JUMPDEST DUP2 CALLDATALOAD DUP2 DUP2 GT ISZERO PUSH2 0x1D4 JUMPI PUSH1 0x0 DUP1 REVERT JUMPDEST DUP7 PUSH1 0x20 DUP3 DUP6 ADD ADD GT ISZERO PUSH2 0x1E6 JUMPI PUSH1 0x0 DUP1 REVERT JUMPDEST PUSH1 0x20 SWAP3 SWAP1 SWAP3 ADD SWAP7 SWAP2 SWAP6 POP SWAP1 SWAP4 POP POP POP POP JUMP JUMPDEST DUP3 ISZERO ISZERO DUP2 MSTORE PUSH1 0x0 PUSH1 0x20 PUSH1 0x40 DUP2 DUP5 ADD MSTORE DUP4 MLOAD DUP1 PUSH1 0x40 DUP6 ADD MSTORE PUSH1 0x0 JUMPDEST DUP2 DUP2 LT ISZERO PUSH2 0x22E JUMPI DUP6 DUP2 ADD DUP4 ADD MLOAD DUP6 DUP3 ADD PUSH1 0x60 ADD MSTORE DUP3 ADD PUSH2 0x212 JUMP JUMPDEST POP PUSH1 0x0 PUSH1 0x60 DUP3 DUP7 ADD ADD MSTORE PUSH1 0x60 PUSH1 0x1F NOT PUSH1 0x1F DUP4 ADD AND DUP6 ADD ADD SWAP3 POP POP POP SWAP4 SWAP3 POP POP POP JUMP JUMPDEST PUSH32 0x4E487B7100000000000000000000000000000000000000000000000000000000 PUSH1 0x0 MSTORE PUSH1 0x11 PUSH1 0x4 MSTORE PUSH1 0x24 PUSH1 0x0 REVERT JUMPDEST DUP2 DUP2 SUB DUP2 DUP2 GT ISZERO PUSH2 0x292 JUMPI PUSH2 0x292 PUSH2 0x250 JUMP JUMPDEST SWAP3 SWAP2 POP POP JUMP JUMPDEST DUP1 DUP3 ADD DUP1 DUP3 GT ISZERO PUSH2 0x292 JUMPI PUSH2 0x292 PUSH2 0x250 JUMP INVALID LOG2 PUSH5 0x6970667358 0x22 SLT KECCAK256 PUSH5 0x224F6C464 PUSH28 0xD332CABA90BF67D04A67C3885FAA2FF181EE27AC4ACBB98FD364736F PUSH13 0x63430008130033000000000000 "
				},
				"gasEstimates": {
					"creation": {
						"codeDepositCost": "147400",
						"executionCost": "infinite",
						"totalCost": "infinite"
					},
					"external": {
						"checkUpkeep(bytes)": "infinite",
						"counter()": "408",
						"interval()": "infinite",
						"lastTimeStamp()": "364",
						"performUpkeep(bytes)": "infinite"
					}
				},
				"methodIdentifiers": {
					"checkUpkeep(bytes)": "6e04ff0d",
					"counter()": "61bc221a",
					"interval()": "947a36fb",
					"lastTimeStamp()": "3f3b3b27",
					"performUpkeep(bytes)": "4585e33b"
				}
			},
			"storageLayout": {
				"storage": [
					{
						"astId": 66,
						"contract": "CustomLogic_flattened.sol:CustomLogic",
						"label": "counter",
						"offset": 0,
						"slot": "0",
						"type": "t_uint256"
					},
					{
						"astId": 70,
						"contract": "CustomLogic_flattened.sol:CustomLogic",
						"label": "lastTimeStamp",
						"offset": 0,
						"slot": "1",
						"type": "t_uint256"
					}
				],
				"types": {
					"t_uint256": {
						"encoding": "inplace",
						"label": "uint256",
						"numberOfBytes": "32"
					}
				}
			},
			"userdoc": {
				"kind": "user",
				"methods": {},
				"version": 1
			}
		}
	}
}