{
	"data": {
		"bytecode": {
			"linkReferences": {},
			"object": "600580546001600160a01b03191673a9d587a00a31a52ed70d6026794a8fc5e2f5dcb01790557f66756e2d6176616c616e6368652d66756a692d310000000000000000000000006006556007805463ffffffff1916620493e01790556101e060405261010360a081815290620026d460c03960089062000080908262000196565b503480156200008e57600080fd5b50604051620027d7380380620027d7833981016040819052620000b19162000262565b6005546001600160a01b0316608052600780546001600160401b0390921664010000000002600160201b600160601b031990921691909117905562000294565b634e487b7160e01b600052604160045260246000fd5b600181811c908216806200011c57607f821691505b6020821081036200013d57634e487b7160e01b600052602260045260246000fd5b50919050565b601f8211156200019157600081815260208120601f850160051c810160208610156200016c5750805b601f850160051c820191505b818110156200018d5782815560010162000178565b5050505b505050565b81516001600160401b03811115620001b257620001b2620000f1565b620001ca81620001c3845462000107565b8462000143565b602080601f831160018114620002025760008415620001e95750858301515b600019600386901b1c1916600185901b1785556200018d565b600085815260208120601f198616915b82811015620002335788860151825594840194600190910190840162000212565b5085821015620002525787850151600019600388901b60f8161c191681555b5050505050600190811b01905550565b6000602082840312156200027557600080fd5b81516001600160401b03811681146200028d57600080fd5b9392505050565b60805161241d620002b7600039600081816104c201526115b8015261241d6000f3fe608060405234801561001057600080fd5b50600436106101165760003560e01c80638b8267cf116100a25780639fb51771116100715780639fb5177114610289578063bc6f09c914610291578063c69c5bb814610299578063cd2b8d11146102c4578063fc2a88c3146102cc57600080fd5b80638b8267cf146102205780638fcabccb1461024057806394d02941146102535780639d8669851461026657600080fd5b806329f0de3f116100e957806329f0de3f146101b757806362747e42146101cc57806367e828bf146101d45780636a51b918146101dc5780638796ba8c146101ff57600080fd5b80630650e9711461011b57806309c1ba2e146101445780630ca7617514610177578063256fec881461018c575b600080fd5b61012e610129366004611c35565b6102d5565b60405161013b9190611d28565b60405180910390f35b60075461015f9064010000000090046001600160401b031681565b6040516001600160401b03909116815260200161013b565b61018a610185366004611d5b565b6104b7565b005b600b5461019f906001600160a01b031681565b6040516001600160a01b03909116815260200161013b565b6101bf61053b565b60405161013b9190611dc7565b6101bf6105c9565b6101bf6105d6565b6101ef6101ea366004611dda565b6105e3565b60405161013b9493929190611df3565b61021261020d366004611dda565b61073a565b60405190815260200161013b565b61023361022e366004611e37565b61075b565b60405161013b9190611e59565b6101bf61024e366004611dda565b610a41565b610212610261366004611c35565b610a5a565b610279610274366004611dda565b610dec565b60405161013b9493929190611ebb565b6101bf610ea9565b610233610eb6565b6102126102a7366004611c35565b8051602081830181018051600d8252928201919093012091525481565b6101bf611059565b61021260005481565b610309604051806080016040528060006001600160a01b031681526020016000815260200160608152602001606081525090565b600c600d8360405161031b9190611ede565b9081526020016040518091039020548154811061033a5761033a611efa565b90600052602060002090600402016040518060800160405290816000820160009054906101000a90046001600160a01b03166001600160a01b03166001600160a01b031681526020016001820154815260200160028201805461039c90611f10565b80601f01602080910402602001604051908101604052809291908181526020018280546103c890611f10565b80156104155780601f106103ea57610100808354040283529160200191610415565b820191906000526020600020905b8154815290600101906020018083116103f857829003601f168201915b5050505050815260200160038201805461042e90611f10565b80601f016020809104026020016040519081016040528092919081815260200182805461045a90611f10565b80156104a75780601f1061047c576101008083540402835291602001916104a7565b820191906000526020600020905b81548152906001019060200180831161048a57829003601f168201915b5050505050815250509050919050565b336001600160a01b037f000000000000000000000000000000000000000000000000000000000000000016146105005760405163c6829f8360e01b815260040160405180910390fd5b61050b838383611066565b60405183907f85e1543bf2f84fe80c6badbce3648c8539ad1df4d2b3d822938ca0538be727e690600090a2505050565b6002805461054890611f10565b80601f016020809104026020016040519081016040528092919081815260200182805461057490611f10565b80156105c15780601f10610596576101008083540402835291602001916105c1565b820191906000526020600020905b8154815290600101906020018083116105a457829003601f168201915b505050505081565b6001805461054890611f10565b6008805461054890611f10565b600c81815481106105f357600080fd5b60009182526020909120600490910201805460018201546002830180546001600160a01b03909316945090929161062990611f10565b80601f016020809104026020016040519081016040528092919081815260200182805461065590611f10565b80156106a25780601f10610677576101008083540402835291602001916106a2565b820191906000526020600020905b81548152906001019060200180831161068557829003601f168201915b5050505050908060030180546106b790611f10565b80601f01602080910402602001604051908101604052809291908181526020018280546106e390611f10565b80156107305780601f1061070557610100808354040283529160200191610730565b820191906000526020600020905b81548152906001019060200180831161071357829003601f168201915b5050505050905084565b6004818154811061074a57600080fd5b600091825260209091200154905081565b600c5460609082111561077a57600c5461077790600190611f60565b91505b818311156107c35760405162461bcd60e51b81526020600482015260116024820152701cdd185c9d081b5d5cdd080f0f48195b99607a1b60448201526064015b60405180910390fd5b60006107cf8484611f60565b6107da906001611f73565b90506000816001600160401b038111156107f6576107f6611baa565b60405190808252806020026020018201604052801561085b57816020015b610848604051806080016040528060006001600160a01b031681526020016000815260200160608152602001606081525090565b8152602001906001900390816108145790505b509050845b61086b856001611f73565b811015610a3657600c818154811061088557610885611efa565b90600052602060002090600402016040518060800160405290816000820160009054906101000a90046001600160a01b03166001600160a01b03166001600160a01b03168152602001600182015481526020016002820180546108e790611f10565b80601f016020809104026020016040519081016040528092919081815260200182805461091390611f10565b80156109605780601f1061093557610100808354040283529160200191610960565b820191906000526020600020905b81548152906001019060200180831161094357829003601f168201915b5050505050815260200160038201805461097990611f10565b80601f01602080910402602001604051908101604052809291908181526020018280546109a590611f10565b80156109f25780601f106109c7576101008083540402835291602001916109f2565b820191906000526020600020905b8154815290600101906020018083116109d557829003601f168201915b505050505081525050828783610a089190611f60565b81518110610a1857610a18611efa565b60200260200101819052508080610a2e90611f86565b915050610860565b509150505b92915050565b600e602052600090815260409020805461054890611f10565b604080516001808252818301909252600091829190816020015b6060815260200190600190039081610a745790505090508281600081518110610a9f57610a9f611efa565b6020026020010181905250610aeb6040805160e0810190915280600081526020016000815260200160008152602001606081526020016060815260200160608152602001606081525090565b610b8860088054610afb90611f10565b80601f0160208091040260200160405190810160405280929190818152602001828054610b2790611f10565b8015610b745780601f10610b4957610100808354040283529160200191610b74565b820191906000526020600020905b815481529060010190602001808311610b5757829003601f168201915b5050505050826112a090919063ffffffff16565b815115610b9957610b9981836112b1565b610bc9610ba5826112db565b6007546006546001600160401b036401000000008304169163ffffffff16906115b3565b6000556009610bd88582611fed565b50600080548152600e60205260409020610bf28582611fed565b50604080516080810182523381526000602080830182815283850189815285519283019095528282526060840191909152600c8054600181018255925282517fdf6966c971051c3d54ec59162606531493a51404a002842f56009d7e5cf4a8c7600490930292830180546001600160a01b0319166001600160a01b0390921691909117815590517fdf6966c971051c3d54ec59162606531493a51404a002842f56009d7e5cf4a8c883015592519192839290917fdf6966c971051c3d54ec59162606531493a51404a002842f56009d7e5cf4a8c90190610cd29082611fed565b5060608201516003820190610ce79082611fed565b5050600c54610cf99150600190611f60565b600d86604051610d099190611ede565b90815260408051602092819003830181209390935560808301815260008084526001838501818152835180860185528381528685019081528451808701865284815260608801528354845260039095529290912084518154935161ffff1990941690151561ff001916176101009315159390930292909217825591519091820190610d949082611fed565b5060608201516002820190610da99082611fed565b5050600080546004805460018101825592527f8a35acfbc15ff81a39ae7d344fd709f28e8600b4aa8c65c6b64bfe7fe36bd19b9091018190559695505050505050565b6003602052600090815260409020805460018201805460ff8084169461010090940416929190610e1b90611f10565b80601f0160208091040260200160405190810160405280929190818152602001828054610e4790611f10565b8015610e945780601f10610e6957610100808354040283529160200191610e94565b820191906000526020600020905b815481529060010190602001808311610e7757829003601f168201915b5050505050908060020180546106b790611f10565b600a805461054890611f10565b6060600c805480602002602001604051908101604052809291908181526020016000905b82821015611050576000848152602090819020604080516080810182526004860290920180546001600160a01b0316835260018101549383019390935260028301805492939291840191610f2d90611f10565b80601f0160208091040260200160405190810160405280929190818152602001828054610f5990611f10565b8015610fa65780601f10610f7b57610100808354040283529160200191610fa6565b820191906000526020600020905b815481529060010190602001808311610f8957829003601f168201915b50505050508152602001600382018054610fbf90611f10565b80601f0160208091040260200160405190810160405280929190818152602001828054610feb90611f10565b80156110385780601f1061100d57610100808354040283529160200191611038565b820191906000526020600020905b81548152906001019060200180831161101b57829003601f168201915b50505050508152505081526020019060010190610eda565b50505050905090565b6009805461054890611f10565b600083815260036020526040902054610100900460ff166110bd5760405162461bcd60e51b81526020600482015260116024820152701c995c5d595cdd081b9bdd08199bdd5b99607a1b60448201526064016107ba565b60026110c98282611fed565b5060016110d68382611fed565b506000838152600360205260409020805460ff191660019081178255016110fd8382611fed565b5060008381526003602052604090206002016111198282611fed565b506000838152600e60205260408120805461113390611f10565b80601f016020809104026020016040519081016040528092919081815260200182805461115f90611f10565b80156111ac5780601f10611181576101008083540402835291602001916111ac565b820191906000526020600020905b81548152906001019060200180831161118f57829003601f168201915b5050505050905082600a90816111c29190611fed565b50600a600c600d836040516111d79190611ede565b908152602001604051809103902054815481106111f6576111f6611efa565b9060005260206000209060040201600301908161121391906120ac565b5042600c600d836040516112279190611ede565b9081526020016040518091039020548154811061124657611246611efa565b906000526020600020906004020160010181905550837f160ed0aaffbef6885155188b91459cb5a97d5daadccf7561d8c46deea6641b50600a6001600260405161129293929190612203565b60405180910390a250505050565b6112ad8260008084611685565b5050565b80516000036112d35760405163fe936cb760e01b815260040160405180910390fd5b60a090910152565b606060006112ea610100611703565b90506113236040518060400160405280600c81526020016b31b7b232a637b1b0ba34b7b760a11b8152508261172490919063ffffffff16565b825161134190600281111561133a5761133a612246565b8290611742565b6040805180820190915260088152676c616e677561676560c01b602082015261136b908290611724565b604083015161138290801561133a5761133a612246565b604080518082019091526006815265736f7572636560d01b60208201526113aa908290611724565b60608301516113ba908290611724565b60a0830151511561144e576040805180820190915260048152636172677360e01b60208201526113eb908290611724565b6113f48161177b565b60005b8360a0015151811015611444576114348460a00151828151811061141d5761141d611efa565b60200260200101518361172490919063ffffffff16565b61143d81611f86565b90506113f7565b5061144e8161179f565b608083015151156115125760008360200151600281111561147157611471612246565b0361148f5760405163a80d31f760e01b815260040160405180910390fd5b60408051808201909152600f81526e39b2b1b932ba39a637b1b0ba34b7b760891b60208201526114c0908290611724565b6114d98360200151600281111561133a5761133a612246565b6040805180820190915260078152667365637265747360c81b6020820152611502908290611724565b60808301516115129082906117bd565b60c083015151156115ab5760408051808201909152600981526862797465734172677360b81b6020820152611548908290611724565b6115518161177b565b60005b8360c00151518110156115a1576115918460c00151828151811061157a5761157a611efa565b6020026020010151836117bd90919063ffffffff16565b61159a81611f86565b9050611554565b506115ab8161179f565b515192915050565b6000807f00000000000000000000000000000000000000000000000000000000000000006001600160a01b031663461d27628688600188886040518663ffffffff1660e01b815260040161160b95949392919061225c565b6020604051808303816000875af115801561162a573d6000803e3d6000fd5b505050506040513d601f19601f8201168201806040525081019061164e91906122a5565b60405190915081907f1131472297a800fee664d1d89cfa8f7676ff07189ecc53f80bbb5f4969099db890600090a295945050505050565b80516000036116a7576040516322ce3edd60e01b815260040160405180910390fd5b838360028111156116ba576116ba612246565b908160028111156116cd576116cd612246565b905250604084018280156116e3576116e3612246565b908180156116f3576116f3612246565b9052506060909301929092525050565b61170b611b75565b805161171790836117ca565b5060006020820152919050565b6117318260038351611841565b815161173d9082611960565b505050565b815161174f9060c2611988565b506112ad828260405160200161176791815260200190565b6040516020818303038152906040526117bd565b6117868160046119f1565b6001816020018181516117999190611f73565b90525050565b6117aa8160076119f1565b6001816020018181516117999190611f60565b6117318260028351611841565b6040805180820190915260608152600060208201526117ea6020836122be565b15611812576117fa6020836122be565b611805906020611f60565b61180f9083611f73565b91505b60208084018390526040518085526000815290818401018181101561183657600080fd5b604052509192915050565b6017816001600160401b03161161186d5782516118679060e0600585901b168317611988565b50505050565b60ff816001600160401b0316116118ad578251611895906018611fe0600586901b1617611988565b508251611867906001600160401b0383166001611a08565b61ffff816001600160401b0316116118ee5782516118d6906019611fe0600586901b1617611988565b508251611867906001600160401b0383166002611a08565b63ffffffff816001600160401b03161161193157825161191990601a611fe0600586901b1617611988565b508251611867906001600160401b0383166004611a08565b825161194890601b611fe0600586901b1617611988565b508251611867906001600160401b0383166008611a08565b60408051808201909152606081526000602082015261198183838451611a8d565b9392505050565b60408051808201909152606081526000602082015282515160006119ad826001611f73565b9050846020015182106119ce576119ce856119c98360026122e0565b611b5e565b84516020838201018581535080518211156119e7578181525b5093949350505050565b815161173d90601f611fe0600585901b1617611988565b6040805180820190915260608152600060208201528351516000611a2c8285611f73565b90508560200151811115611a4957611a49866119c98360026122e0565b60006001611a59866101006123db565b611a639190611f60565b90508651828101878319825116178152508051831115611a81578281525b50959695505050505050565b6040805180820190915260608152600060208201528251821115611ab057600080fd5b8351516000611abf8483611f73565b90508560200151811115611adc57611adc866119c98360026122e0565b855180518382016020019160009180851115611af6578482525b505050602086015b60208610611b365780518252611b15602083611f73565b9150611b22602082611f73565b9050611b2f602087611f60565b9550611afe565b51815160001960208890036101000a0190811690199190911617905250849150509392505050565b8151611b6a83836117ca565b506118678382611960565b6040518060400160405280611b9d604051806040016040528060608152602001600081525090565b8152602001600081525090565b634e487b7160e01b600052604160045260246000fd5b60006001600160401b0380841115611bda57611bda611baa565b604051601f8501601f19908116603f01168101908282118183101715611c0257611c02611baa565b81604052809350858152868686011115611c1b57600080fd5b858560208301376000602087830101525050509392505050565b600060208284031215611c4757600080fd5b81356001600160401b03811115611c5d57600080fd5b8201601f81018413611c6e57600080fd5b611c7d84823560208401611bc0565b949350505050565b60005b83811015611ca0578181015183820152602001611c88565b50506000910152565b60008151808452611cc1816020860160208601611c85565b601f01601f19169290920160200192915050565b60018060a01b038151168252602081015160208301526000604082015160806040850152611d066080850182611ca9565b905060608301518482036060860152611d1f8282611ca9565b95945050505050565b6020815260006119816020830184611cd5565b600082601f830112611d4c57600080fd5b61198183833560208501611bc0565b600080600060608486031215611d7057600080fd5b8335925060208401356001600160401b0380821115611d8e57600080fd5b611d9a87838801611d3b565b93506040860135915080821115611db057600080fd5b50611dbd86828701611d3b565b9150509250925092565b6020815260006119816020830184611ca9565b600060208284031215611dec57600080fd5b5035919050565b60018060a01b0385168152836020820152608060408201526000611e1a6080830185611ca9565b8281036060840152611e2c8185611ca9565b979650505050505050565b60008060408385031215611e4a57600080fd5b50508035926020909101359150565b6000602080830181845280855180835260408601915060408160051b870101925083870160005b82811015611eae57603f19888603018452611e9c858351611cd5565b94509285019290850190600101611e80565b5092979650505050505050565b84151581528315156020820152608060408201526000611e1a6080830185611ca9565b60008251611ef0818460208701611c85565b9190910192915050565b634e487b7160e01b600052603260045260246000fd5b600181811c90821680611f2457607f821691505b602082108103611f4457634e487b7160e01b600052602260045260246000fd5b50919050565b634e487b7160e01b600052601160045260246000fd5b81810381811115610a3b57610a3b611f4a565b80820180821115610a3b57610a3b611f4a565b600060018201611f9857611f98611f4a565b5060010190565b601f82111561173d57600081815260208120601f850160051c81016020861015611fc65750805b601f850160051c820191505b81811015611fe557828155600101611fd2565b505050505050565b81516001600160401b0381111561200657612006611baa565b61201a816120148454611f10565b84611f9f565b602080601f83116001811461204f57600084156120375750858301515b600019600386901b1c1916600185901b178555611fe5565b600085815260208120601f198616915b8281101561207e5788860151825594840194600190910190840161205f565b508582101561209c5787850151600019600388901b60f8161c191681555b5050505050600190811b01905550565b8181036120b7575050565b6120c18254611f10565b6001600160401b038111156120d8576120d8611baa565b6120e6816120148454611f10565b6000601f82116001811461211a57600083156121025750848201545b600019600385901b1c1916600184901b17845561217f565b600085815260209020601f19841690600086815260209020845b838110156121545782860154825560019586019590910190602001612134565b50858310156121725781850154600019600388901b60f8161c191681555b50505060018360011b0184555b5050505050565b6000815461219381611f10565b8085526020600183811680156121b057600181146121ca576121f8565b60ff1985168884015283151560051b8801830195506121f8565b866000528260002060005b858110156121f05781548a82018601529083019084016121d5565b890184019650505b505050505092915050565b6060815260006122166060830186612186565b82810360208401526122288186612186565b9050828103604084015261223c8185612186565b9695505050505050565b634e487b7160e01b600052602160045260246000fd5b6001600160401b038616815260a06020820152600061227e60a0830187611ca9565b61ffff9590951660408301525063ffffffff92909216606083015260809091015292915050565b6000602082840312156122b757600080fd5b5051919050565b6000826122db57634e487b7160e01b600052601260045260246000fd5b500690565b8082028115828204841417610a3b57610a3b611f4a565b600181815b8085111561233257816000190482111561231857612318611f4a565b8085161561232557918102915b93841c93908002906122fc565b509250929050565b60008261234957506001610a3b565b8161235657506000610a3b565b816001811461236c576002811461237657612392565b6001915050610a3b565b60ff84111561238757612387611f4a565b50506001821b610a3b565b5060208310610133831016604e8410600b84101617156123b5575081810a610a3b565b6123bf83836122f7565b80600019048211156123d3576123d3611f4a565b029392505050565b6000611981838361233a56fea264697066735822122056fc9f81ca28536b48d8ce15900d366a401a7eee521afb56a0a08b5c1e6f029d64736f6c63430008130033636f6e73742063697479203d20617267735b305d3b636f6e737420617069526573706f6e7365203d2061776169742046756e6374696f6e732e6d616b654874747052657175657374287b75726c3a206068747470733a2f2f777474722e696e2f247b636974797d3f666f726d61743d33266d602c726573706f6e7365547970653a202774657874277d293b69662028617069526573706f6e73652e6572726f7229207b7468726f77204572726f72282752657175657374206661696c656427293b7d636f6e7374207b2064617461207d203d20617069526573706f6e73653b72657475726e2046756e6374696f6e732e656e636f6465537472696e672864617461293b",
			"opcodes": "PUSH1 0x5 DUP1 SLOAD PUSH1 0x1 PUSH1 0x1 PUSH1 0xA0 SHL SUB NOT AND PUSH20 0xA9D587A00A31A52ED70D6026794A8FC5E2F5DCB0 OR SWAP1 SSTORE PUSH32 0x66756E2D6176616C616E6368652D66756A692D31000000000000000000000000 PUSH1 0x6 SSTORE PUSH1 0x7 DUP1 SLOAD PUSH4 0xFFFFFFFF NOT AND PUSH3 0x493E0 OR SWAP1 SSTORE PUSH2 0x1E0 PUSH1 0x40 MSTORE PUSH2 0x103 PUSH1 0xA0 DUP2 DUP2 MSTORE SWAP1 PUSH3 0x26D4 PUSH1 0xC0 CODECOPY PUSH1 0x8 SWAP1 PUSH3 0x80 SWAP1 DUP3 PUSH3 0x196 JUMP JUMPDEST POP CALLVALUE DUP1 ISZERO PUSH3 0x8E JUMPI PUSH1 0x0 DUP1 REVERT JUMPDEST POP PUSH1 0x40 MLOAD PUSH3 0x27D7 CODESIZE SUB DUP1 PUSH3 0x27D7 DUP4 CODECOPY DUP2 ADD PUSH1 0x40 DUP2 SWAP1 MSTORE PUSH3 0xB1 SWAP2 PUSH3 0x262 JUMP JUMPDEST PUSH1 0x5 SLOAD PUSH1 0x1 PUSH1 0x1 PUSH1 0xA0 SHL SUB AND PUSH1 0x80 MSTORE PUSH1 0x7 DUP1 SLOAD PUSH1 0x1 PUSH1 0x1 PUSH1 0x40 SHL SUB SWAP1 SWAP3 AND PUSH5 0x100000000 MUL PUSH1 0x1 PUSH1 0x20 SHL PUSH1 0x1 PUSH1 0x60 SHL SUB NOT SWAP1 SWAP3 AND SWAP2 SWAP1 SWAP2 OR SWAP1 SSTORE PUSH3 0x294 JUMP JUMPDEST PUSH4 0x4E487B71 PUSH1 0xE0 SHL PUSH1 0x0 MSTORE PUSH1 0x41 PUSH1 0x4 MSTORE PUSH1 0x24 PUSH1 0x0 REVERT JUMPDEST PUSH1 0x1 DUP2 DUP2 SHR SWAP1 DUP3 AND DUP1 PUSH3 0x11C JUMPI PUSH1 0x7F DUP3 AND SWAP2 POP JUMPDEST PUSH1 0x20 DUP3 LT DUP2 SUB PUSH3 0x13D JUMPI PUSH4 0x4E487B71 PUSH1 0xE0 SHL PUSH1 0x0 MSTORE PUSH1 0x22 PUSH1 0x4 MSTORE PUSH1 0x24 PUSH1 0x0 REVERT JUMPDEST POP SWAP2 SWAP1 POP JUMP JUMPDEST PUSH1 0x1F DUP3 GT ISZERO PUSH3 0x191 JUMPI PUSH1 0x0 DUP2 DUP2 MSTORE PUSH1 0x20 DUP2 KECCAK256 PUSH1 0x1F DUP6 ADD PUSH1 0x5 SHR DUP2 ADD PUSH1 0x20 DUP7 LT ISZERO PUSH3 0x16C JUMPI POP DUP1 JUMPDEST PUSH1 0x1F DUP6 ADD PUSH1 0x5 SHR DUP3 ADD SWAP2 POP JUMPDEST DUP2 DUP2 LT ISZERO PUSH3 0x18D JUMPI DUP3 DUP2 SSTORE PUSH1 0x1 ADD PUSH3 0x178 JUMP JUMPDEST POP POP POP JUMPDEST POP POP POP JUMP JUMPDEST DUP2 MLOAD PUSH1 0x1 PUSH1 0x1 PUSH1 0x40 SHL SUB DUP2 GT ISZERO PUSH3 0x1B2 JUMPI PUSH3 0x1B2 PUSH3 0xF1 JUMP JUMPDEST PUSH3 0x1CA DUP2 PUSH3 0x1C3 DUP5 SLOAD PUSH3 0x107 JUMP JUMPDEST DUP5 PUSH3 0x143 JUMP JUMPDEST PUSH1 0x20 DUP1 PUSH1 0x1F DUP4 GT PUSH1 0x1 DUP2 EQ PUSH3 0x202 JUMPI PUSH1 0x0 DUP5 ISZERO PUSH3 0x1E9 JUMPI POP DUP6 DUP4 ADD MLOAD JUMPDEST PUSH1 0x0 NOT PUSH1 0x3 DUP7 SWAP1 SHL SHR NOT AND PUSH1 0x1 DUP6 SWAP1 SHL OR DUP6 SSTORE PUSH3 0x18D JUMP JUMPDEST PUSH1 0x0 DUP6 DUP2 MSTORE PUSH1 0x20 DUP2 KECCAK256 PUSH1 0x1F NOT DUP7 AND SWAP2 JUMPDEST DUP3 DUP2 LT ISZERO PUSH3 0x233 JUMPI DUP9 DUP7 ADD MLOAD DUP3 SSTORE SWAP5 DUP5 ADD SWAP5 PUSH1 0x1 SWAP1 SWAP2 ADD SWAP1 DUP5 ADD PUSH3 0x212 JUMP JUMPDEST POP DUP6 DUP3 LT ISZERO PUSH3 0x252 JUMPI DUP8 DUP6 ADD MLOAD PUSH1 0x0 NOT PUSH1 0x3 DUP9 SWAP1 SHL PUSH1 0xF8 AND SHR NOT AND DUP2 SSTORE JUMPDEST POP POP POP POP POP PUSH1 0x1 SWAP1 DUP2 SHL ADD SWAP1 SSTORE POP JUMP JUMPDEST PUSH1 0x0 PUSH1 0x20 DUP3 DUP5 SUB SLT ISZERO PUSH3 0x275 JUMPI PUSH1 0x0 DUP1 REVERT JUMPDEST DUP2 MLOAD PUSH1 0x1 PUSH1 0x1 PUSH1 0x40 SHL SUB DUP2 AND DUP2 EQ PUSH3 0x28D JUMPI PUSH1 0x0 DUP1 REVERT JUMPDEST SWAP4 SWAP3 POP POP POP JUMP JUMPDEST PUSH1 0x80 MLOAD PUSH2 0x241D PUSH3 0x2B7 PUSH1 0x0 CODECOPY PUSH1 0x0 DUP2 DUP2 PUSH2 0x4C2 ADD MSTORE PUSH2 0x15B8 ADD MSTORE PUSH2 0x241D PUSH1 0x0 RETURN INVALID PUSH1 0x80 PUSH1 0x40 MSTORE CALLVALUE DUP1 ISZERO PUSH2 0x10 JUMPI PUSH1 0x0 DUP1 REVERT JUMPDEST POP PUSH1 0x4 CALLDATASIZE LT PUSH2 0x116 JUMPI PUSH1 0x0 CALLDATALOAD PUSH1 0xE0 SHR DUP1 PUSH4 0x8B8267CF GT PUSH2 0xA2 JUMPI DUP1 PUSH4 0x9FB51771 GT PUSH2 0x71 JUMPI DUP1 PUSH4 0x9FB51771 EQ PUSH2 0x289 JUMPI DUP1 PUSH4 0xBC6F09C9 EQ PUSH2 0x291 JUMPI DUP1 PUSH4 0xC69C5BB8 EQ PUSH2 0x299 JUMPI DUP1 PUSH4 0xCD2B8D11 EQ PUSH2 0x2C4 JUMPI DUP1 PUSH4 0xFC2A88C3 EQ PUSH2 0x2CC JUMPI PUSH1 0x0 DUP1 REVERT JUMPDEST DUP1 PUSH4 0x8B8267CF EQ PUSH2 0x220 JUMPI DUP1 PUSH4 0x8FCABCCB EQ PUSH2 0x240 JUMPI DUP1 PUSH4 0x94D02941 EQ PUSH2 0x253 JUMPI DUP1 PUSH4 0x9D866985 EQ PUSH2 0x266 JUMPI PUSH1 0x0 DUP1 REVERT JUMPDEST DUP1 PUSH4 0x29F0DE3F GT PUSH2 0xE9 JUMPI DUP1 PUSH4 0x29F0DE3F EQ PUSH2 0x1B7 JUMPI DUP1 PUSH4 0x62747E42 EQ PUSH2 0x1CC JUMPI DUP1 PUSH4 0x67E828BF EQ PUSH2 0x1D4 JUMPI DUP1 PUSH4 0x6A51B918 EQ PUSH2 0x1DC JUMPI DUP1 PUSH4 0x8796BA8C EQ PUSH2 0x1FF JUMPI PUSH1 0x0 DUP1 REVERT JUMPDEST DUP1 PUSH4 0x650E971 EQ PUSH2 0x11B JUMPI DUP1 PUSH4 0x9C1BA2E EQ PUSH2 0x144 JUMPI DUP1 PUSH4 0xCA76175 EQ PUSH2 0x177 JUMPI DUP1 PUSH4 0x256FEC88 EQ PUSH2 0x18C JUMPI JUMPDEST PUSH1 0x0 DUP1 REVERT JUMPDEST PUSH2 0x12E PUSH2 0x129 CALLDATASIZE PUSH1 0x4 PUSH2 0x1C35 JUMP JUMPDEST PUSH2 0x2D5 JUMP JUMPDEST PUSH1 0x40 MLOAD PUSH2 0x13B SWAP2 SWAP1 PUSH2 0x1D28 JUMP JUMPDEST PUSH1 0x40 MLOAD DUP1 SWAP2 SUB SWAP1 RETURN JUMPDEST PUSH1 0x7 SLOAD PUSH2 0x15F SWAP1 PUSH5 0x100000000 SWAP1 DIV PUSH1 0x1 PUSH1 0x1 PUSH1 0x40 SHL SUB AND DUP2 JUMP JUMPDEST PUSH1 0x40 MLOAD PUSH1 0x1 PUSH1 0x1 PUSH1 0x40 SHL SUB SWAP1 SWAP2 AND DUP2 MSTORE PUSH1 0x20 ADD PUSH2 0x13B JUMP JUMPDEST PUSH2 0x18A PUSH2 0x185 CALLDATASIZE PUSH1 0x4 PUSH2 0x1D5B JUMP JUMPDEST PUSH2 0x4B7 JUMP JUMPDEST STOP JUMPDEST PUSH1 0xB SLOAD PUSH2 0x19F SWAP1 PUSH1 0x1 PUSH1 0x1 PUSH1 0xA0 SHL SUB AND DUP2 JUMP JUMPDEST PUSH1 0x40 MLOAD PUSH1 0x1 PUSH1 0x1 PUSH1 0xA0 SHL SUB SWAP1 SWAP2 AND DUP2 MSTORE PUSH1 0x20 ADD PUSH2 0x13B JUMP JUMPDEST PUSH2 0x1BF PUSH2 0x53B JUMP JUMPDEST PUSH1 0x40 MLOAD PUSH2 0x13B SWAP2 SWAP1 PUSH2 0x1DC7 JUMP JUMPDEST PUSH2 0x1BF PUSH2 0x5C9 JUMP JUMPDEST PUSH2 0x1BF PUSH2 0x5D6 JUMP JUMPDEST PUSH2 0x1EF PUSH2 0x1EA CALLDATASIZE PUSH1 0x4 PUSH2 0x1DDA JUMP JUMPDEST PUSH2 0x5E3 JUMP JUMPDEST PUSH1 0x40 MLOAD PUSH2 0x13B SWAP5 SWAP4 SWAP3 SWAP2 SWAP1 PUSH2 0x1DF3 JUMP JUMPDEST PUSH2 0x212 PUSH2 0x20D CALLDATASIZE PUSH1 0x4 PUSH2 0x1DDA JUMP JUMPDEST PUSH2 0x73A JUMP JUMPDEST PUSH1 0x40 MLOAD SWAP1 DUP2 MSTORE PUSH1 0x20 ADD PUSH2 0x13B JUMP JUMPDEST PUSH2 0x233 PUSH2 0x22E CALLDATASIZE PUSH1 0x4 PUSH2 0x1E37 JUMP JUMPDEST PUSH2 0x75B JUMP JUMPDEST PUSH1 0x40 MLOAD PUSH2 0x13B SWAP2 SWAP1 PUSH2 0x1E59 JUMP JUMPDEST PUSH2 0x1BF PUSH2 0x24E CALLDATASIZE PUSH1 0x4 PUSH2 0x1DDA JUMP JUMPDEST PUSH2 0xA41 JUMP JUMPDEST PUSH2 0x212 PUSH2 0x261 CALLDATASIZE PUSH1 0x4 PUSH2 0x1C35 JUMP JUMPDEST PUSH2 0xA5A JUMP JUMPDEST PUSH2 0x279 PUSH2 0x274 CALLDATASIZE PUSH1 0x4 PUSH2 0x1DDA JUMP JUMPDEST PUSH2 0xDEC JUMP JUMPDEST PUSH1 0x40 MLOAD PUSH2 0x13B SWAP5 SWAP4 SWAP3 SWAP2 SWAP1 PUSH2 0x1EBB JUMP JUMPDEST PUSH2 0x1BF PUSH2 0xEA9 JUMP JUMPDEST PUSH2 0x233 PUSH2 0xEB6 JUMP JUMPDEST PUSH2 0x212 PUSH2 0x2A7 CALLDATASIZE PUSH1 0x4 PUSH2 0x1C35 JUMP JUMPDEST DUP1 MLOAD PUSH1 0x20 DUP2 DUP4 ADD DUP2 ADD DUP1 MLOAD PUSH1 0xD DUP3 MSTORE SWAP3 DUP3 ADD SWAP2 SWAP1 SWAP4 ADD KECCAK256 SWAP2 MSTORE SLOAD DUP2 JUMP JUMPDEST PUSH2 0x1BF PUSH2 0x1059 JUMP JUMPDEST PUSH2 0x212 PUSH1 0x0 SLOAD DUP2 JUMP JUMPDEST PUSH2 0x309 PUSH1 0x40 MLOAD DUP1 PUSH1 0x80 ADD PUSH1 0x40 MSTORE DUP1 PUSH1 0x0 PUSH1 0x1 PUSH1 0x1 PUSH1 0xA0 SHL SUB AND DUP2 MSTORE PUSH1 0x20 ADD PUSH1 0x0 DUP2 MSTORE PUSH1 0x20 ADD PUSH1 0x60 DUP2 MSTORE PUSH1 0x20 ADD PUSH1 0x60 DUP2 MSTORE POP SWAP1 JUMP JUMPDEST PUSH1 0xC PUSH1 0xD DUP4 PUSH1 0x40 MLOAD PUSH2 0x31B SWAP2 SWAP1 PUSH2 0x1EDE JUMP JUMPDEST SWAP1 DUP2 MSTORE PUSH1 0x20 ADD PUSH1 0x40 MLOAD DUP1 SWAP2 SUB SWAP1 KECCAK256 SLOAD DUP2 SLOAD DUP2 LT PUSH2 0x33A JUMPI PUSH2 0x33A PUSH2 0x1EFA JUMP JUMPDEST SWAP1 PUSH1 0x0 MSTORE PUSH1 0x20 PUSH1 0x0 KECCAK256 SWAP1 PUSH1 0x4 MUL ADD PUSH1 0x40 MLOAD DUP1 PUSH1 0x80 ADD PUSH1 0x40 MSTORE SWAP1 DUP2 PUSH1 0x0 DUP3 ADD PUSH1 0x0 SWAP1 SLOAD SWAP1 PUSH2 0x100 EXP SWAP1 DIV PUSH1 0x1 PUSH1 0x1 PUSH1 0xA0 SHL SUB AND PUSH1 0x1 PUSH1 0x1 PUSH1 0xA0 SHL SUB AND PUSH1 0x1 PUSH1 0x1 PUSH1 0xA0 SHL SUB AND DUP2 MSTORE PUSH1 0x20 ADD PUSH1 0x1 DUP3 ADD SLOAD DUP2 MSTORE PUSH1 0x20 ADD PUSH1 0x2 DUP3 ADD DUP1 SLOAD PUSH2 0x39C SWAP1 PUSH2 0x1F10 JUMP JUMPDEST DUP1 PUSH1 0x1F ADD PUSH1 0x20 DUP1 SWAP2 DIV MUL PUSH1 0x20 ADD PUSH1 0x40 MLOAD SWAP1 DUP2 ADD PUSH1 0x40 MSTORE DUP1 SWAP3 SWAP2 SWAP1 DUP2 DUP2 MSTORE PUSH1 0x20 ADD DUP3 DUP1 SLOAD PUSH2 0x3C8 SWAP1 PUSH2 0x1F10 JUMP JUMPDEST DUP1 ISZERO PUSH2 0x415 JUMPI DUP1 PUSH1 0x1F LT PUSH2 0x3EA JUMPI PUSH2 0x100 DUP1 DUP4 SLOAD DIV MUL DUP4 MSTORE SWAP2 PUSH1 0x20 ADD SWAP2 PUSH2 0x415 JUMP JUMPDEST DUP3 ADD SWAP2 SWAP1 PUSH1 0x0 MSTORE PUSH1 0x20 PUSH1 0x0 KECCAK256 SWAP1 JUMPDEST DUP2 SLOAD DUP2 MSTORE SWAP1 PUSH1 0x1 ADD SWAP1 PUSH1 0x20 ADD DUP1 DUP4 GT PUSH2 0x3F8 JUMPI DUP3 SWAP1 SUB PUSH1 0x1F AND DUP3 ADD SWAP2 JUMPDEST POP POP POP POP POP DUP2 MSTORE PUSH1 0x20 ADD PUSH1 0x3 DUP3 ADD DUP1 SLOAD PUSH2 0x42E SWAP1 PUSH2 0x1F10 JUMP JUMPDEST DUP1 PUSH1 0x1F ADD PUSH1 0x20 DUP1 SWAP2 DIV MUL PUSH1 0x20 ADD PUSH1 0x40 MLOAD SWAP1 DUP2 ADD PUSH1 0x40 MSTORE DUP1 SWAP3 SWAP2 SWAP1 DUP2 DUP2 MSTORE PUSH1 0x20 ADD DUP3 DUP1 SLOAD PUSH2 0x45A SWAP1 PUSH2 0x1F10 JUMP JUMPDEST DUP1 ISZERO PUSH2 0x4A7 JUMPI DUP1 PUSH1 0x1F LT PUSH2 0x47C JUMPI PUSH2 0x100 DUP1 DUP4 SLOAD DIV MUL DUP4 MSTORE SWAP2 PUSH1 0x20 ADD SWAP2 PUSH2 0x4A7 JUMP JUMPDEST DUP3 ADD SWAP2 SWAP1 PUSH1 0x0 MSTORE PUSH1 0x20 PUSH1 0x0 KECCAK256 SWAP1 JUMPDEST DUP2 SLOAD DUP2 MSTORE SWAP1 PUSH1 0x1 ADD SWAP1 PUSH1 0x20 ADD DUP1 DUP4 GT PUSH2 0x48A JUMPI DUP3 SWAP1 SUB PUSH1 0x1F AND DUP3 ADD SWAP2 JUMPDEST POP POP POP POP POP DUP2 MSTORE POP POP SWAP1 POP SWAP2 SWAP1 POP JUMP JUMPDEST CALLER PUSH1 0x1 PUSH1 0x1 PUSH1 0xA0 SHL SUB PUSH32 0x0 AND EQ PUSH2 0x500 JUMPI PUSH1 0x40 MLOAD PUSH4 0xC6829F83 PUSH1 0xE0 SHL DUP2 MSTORE PUSH1 0x4 ADD PUSH1 0x40 MLOAD DUP1 SWAP2 SUB SWAP1 REVERT JUMPDEST PUSH2 0x50B DUP4 DUP4 DUP4 PUSH2 0x1066 JUMP JUMPDEST PUSH1 0x40 MLOAD DUP4 SWAP1 PUSH32 0x85E1543BF2F84FE80C6BADBCE3648C8539AD1DF4D2B3D822938CA0538BE727E6 SWAP1 PUSH1 0x0 SWAP1 LOG2 POP POP POP JUMP JUMPDEST PUSH1 0x2 DUP1 SLOAD PUSH2 0x548 SWAP1 PUSH2 0x1F10 JUMP JUMPDEST DUP1 PUSH1 0x1F ADD PUSH1 0x20 DUP1 SWAP2 DIV MUL PUSH1 0x20 ADD PUSH1 0x40 MLOAD SWAP1 DUP2 ADD PUSH1 0x40 MSTORE DUP1 SWAP3 SWAP2 SWAP1 DUP2 DUP2 MSTORE PUSH1 0x20 ADD DUP3 DUP1 SLOAD PUSH2 0x574 SWAP1 PUSH2 0x1F10 JUMP JUMPDEST DUP1 ISZERO PUSH2 0x5C1 JUMPI DUP1 PUSH1 0x1F LT PUSH2 0x596 JUMPI PUSH2 0x100 DUP1 DUP4 SLOAD DIV MUL DUP4 MSTORE SWAP2 PUSH1 0x20 ADD SWAP2 PUSH2 0x5C1 JUMP JUMPDEST DUP3 ADD SWAP2 SWAP1 PUSH1 0x0 MSTORE PUSH1 0x20 PUSH1 0x0 KECCAK256 SWAP1 JUMPDEST DUP2 SLOAD DUP2 MSTORE SWAP1 PUSH1 0x1 ADD SWAP1 PUSH1 0x20 ADD DUP1 DUP4 GT PUSH2 0x5A4 JUMPI DUP3 SWAP1 SUB PUSH1 0x1F AND DUP3 ADD SWAP2 JUMPDEST POP POP POP POP POP DUP2 JUMP JUMPDEST PUSH1 0x1 DUP1 SLOAD PUSH2 0x548 SWAP1 PUSH2 0x1F10 JUMP JUMPDEST PUSH1 0x8 DUP1 SLOAD PUSH2 0x548 SWAP1 PUSH2 0x1F10 JUMP JUMPDEST PUSH1 0xC DUP2 DUP2 SLOAD DUP2 LT PUSH2 0x5F3 JUMPI PUSH1 0x0 DUP1 REVERT JUMPDEST PUSH1 0x0 SWAP2 DUP3 MSTORE PUSH1 0x20 SWAP1 SWAP2 KECCAK256 PUSH1 0x4 SWAP1 SWAP2 MUL ADD DUP1 SLOAD PUSH1 0x1 DUP3 ADD SLOAD PUSH1 0x2 DUP4 ADD DUP1 SLOAD PUSH1 0x1 PUSH1 0x1 PUSH1 0xA0 SHL SUB SWAP1 SWAP4 AND SWAP5 POP SWAP1 SWAP3 SWAP2 PUSH2 0x629 SWAP1 PUSH2 0x1F10 JUMP JUMPDEST DUP1 PUSH1 0x1F ADD PUSH1 0x20 DUP1 SWAP2 DIV MUL PUSH1 0x20 ADD PUSH1 0x40 MLOAD SWAP1 DUP2 ADD PUSH1 0x40 MSTORE DUP1 SWAP3 SWAP2 SWAP1 DUP2 DUP2 MSTORE PUSH1 0x20 ADD DUP3 DUP1 SLOAD PUSH2 0x655 SWAP1 PUSH2 0x1F10 JUMP JUMPDEST DUP1 ISZERO PUSH2 0x6A2 JUMPI DUP1 PUSH1 0x1F LT PUSH2 0x677 JUMPI PUSH2 0x100 DUP1 DUP4 SLOAD DIV MUL DUP4 MSTORE SWAP2 PUSH1 0x20 ADD SWAP2 PUSH2 0x6A2 JUMP JUMPDEST DUP3 ADD SWAP2 SWAP1 PUSH1 0x0 MSTORE PUSH1 0x20 PUSH1 0x0 KECCAK256 SWAP1 JUMPDEST DUP2 SLOAD DUP2 MSTORE SWAP1 PUSH1 0x1 ADD SWAP1 PUSH1 0x20 ADD DUP1 DUP4 GT PUSH2 0x685 JUMPI DUP3 SWAP1 SUB PUSH1 0x1F AND DUP3 ADD SWAP2 JUMPDEST POP POP POP POP POP SWAP1 DUP1 PUSH1 0x3 ADD DUP1 SLOAD PUSH2 0x6B7 SWAP1 PUSH2 0x1F10 JUMP JUMPDEST DUP1 PUSH1 0x1F ADD PUSH1 0x20 DUP1 SWAP2 DIV MUL PUSH1 0x20 ADD PUSH1 0x40 MLOAD SWAP1 DUP2 ADD PUSH1 0x40 MSTORE DUP1 SWAP3 SWAP2 SWAP1 DUP2 DUP2 MSTORE PUSH1 0x20 ADD DUP3 DUP1 SLOAD PUSH2 0x6E3 SWAP1 PUSH2 0x1F10 JUMP JUMPDEST DUP1 ISZERO PUSH2 0x730 JUMPI DUP1 PUSH1 0x1F LT PUSH2 0x705 JUMPI PUSH2 0x100 DUP1 DUP4 SLOAD DIV MUL DUP4 MSTORE SWAP2 PUSH1 0x20 ADD SWAP2 PUSH2 0x730 JUMP JUMPDEST DUP3 ADD SWAP2 SWAP1 PUSH1 0x0 MSTORE PUSH1 0x20 PUSH1 0x0 KECCAK256 SWAP1 JUMPDEST DUP2 SLOAD DUP2 MSTORE SWAP1 PUSH1 0x1 ADD SWAP1 PUSH1 0x20 ADD DUP1 DUP4 GT PUSH2 0x713 JUMPI DUP3 SWAP1 SUB PUSH1 0x1F AND DUP3 ADD SWAP2 JUMPDEST POP POP POP POP POP SWAP1 POP DUP5 JUMP JUMPDEST PUSH1 0x4 DUP2 DUP2 SLOAD DUP2 LT PUSH2 0x74A JUMPI PUSH1 0x0 DUP1 REVERT JUMPDEST PUSH1 0x0 SWAP2 DUP3 MSTORE PUSH1 0x20 SWAP1 SWAP2 KECCAK256 ADD SLOAD SWAP1 POP DUP2 JUMP JUMPDEST PUSH1 0xC SLOAD PUSH1 0x60 SWAP1 DUP3 GT ISZERO PUSH2 0x77A JUMPI PUSH1 0xC SLOAD PUSH2 0x777 SWAP1 PUSH1 0x1 SWAP1 PUSH2 0x1F60 JUMP JUMPDEST SWAP2 POP JUMPDEST DUP2 DUP4 GT ISZERO PUSH2 0x7C3 JUMPI PUSH1 0x40 MLOAD PUSH3 0x461BCD PUSH1 0xE5 SHL DUP2 MSTORE PUSH1 0x20 PUSH1 0x4 DUP3 ADD MSTORE PUSH1 0x11 PUSH1 0x24 DUP3 ADD MSTORE PUSH17 0x1CDD185C9D081B5D5CDD080F0F48195B99 PUSH1 0x7A SHL PUSH1 0x44 DUP3 ADD MSTORE PUSH1 0x64 ADD JUMPDEST PUSH1 0x40 MLOAD DUP1 SWAP2 SUB SWAP1 REVERT JUMPDEST PUSH1 0x0 PUSH2 0x7CF DUP5 DUP5 PUSH2 0x1F60 JUMP JUMPDEST PUSH2 0x7DA SWAP1 PUSH1 0x1 PUSH2 0x1F73 JUMP JUMPDEST SWAP1 POP PUSH1 0x0 DUP2 PUSH1 0x1 PUSH1 0x1 PUSH1 0x40 SHL SUB DUP2 GT ISZERO PUSH2 0x7F6 JUMPI PUSH2 0x7F6 PUSH2 0x1BAA JUMP JUMPDEST PUSH1 0x40 MLOAD SWAP1 DUP1 DUP3 MSTORE DUP1 PUSH1 0x20 MUL PUSH1 0x20 ADD DUP3 ADD PUSH1 0x40 MSTORE DUP1 ISZERO PUSH2 0x85B JUMPI DUP2 PUSH1 0x20 ADD JUMPDEST PUSH2 0x848 PUSH1 0x40 MLOAD DUP1 PUSH1 0x80 ADD PUSH1 0x40 MSTORE DUP1 PUSH1 0x0 PUSH1 0x1 PUSH1 0x1 PUSH1 0xA0 SHL SUB AND DUP2 MSTORE PUSH1 0x20 ADD PUSH1 0x0 DUP2 MSTORE PUSH1 0x20 ADD PUSH1 0x60 DUP2 MSTORE PUSH1 0x20 ADD PUSH1 0x60 DUP2 MSTORE POP SWAP1 JUMP JUMPDEST DUP2 MSTORE PUSH1 0x20 ADD SWAP1 PUSH1 0x1 SWAP1 SUB SWAP1 DUP2 PUSH2 0x814 JUMPI SWAP1 POP JUMPDEST POP SWAP1 POP DUP5 JUMPDEST PUSH2 0x86B DUP6 PUSH1 0x1 PUSH2 0x1F73 JUMP JUMPDEST DUP2 LT ISZERO PUSH2 0xA36 JUMPI PUSH1 0xC DUP2 DUP2 SLOAD DUP2 LT PUSH2 0x885 JUMPI PUSH2 0x885 PUSH2 0x1EFA JUMP JUMPDEST SWAP1 PUSH1 0x0 MSTORE PUSH1 0x20 PUSH1 0x0 KECCAK256 SWAP1 PUSH1 0x4 MUL ADD PUSH1 0x40 MLOAD DUP1 PUSH1 0x80 ADD PUSH1 0x40 MSTORE SWAP1 DUP2 PUSH1 0x0 DUP3 ADD PUSH1 0x0 SWAP1 SLOAD SWAP1 PUSH2 0x100 EXP SWAP1 DIV PUSH1 0x1 PUSH1 0x1 PUSH1 0xA0 SHL SUB AND PUSH1 0x1 PUSH1 0x1 PUSH1 0xA0 SHL SUB AND PUSH1 0x1 PUSH1 0x1 PUSH1 0xA0 SHL SUB AND DUP2 MSTORE PUSH1 0x20 ADD PUSH1 0x1 DUP3 ADD SLOAD DUP2 MSTORE PUSH1 0x20 ADD PUSH1 0x2 DUP3 ADD DUP1 SLOAD PUSH2 0x8E7 SWAP1 PUSH2 0x1F10 JUMP JUMPDEST DUP1 PUSH1 0x1F ADD PUSH1 0x20 DUP1 SWAP2 DIV MUL PUSH1 0x20 ADD PUSH1 0x40 MLOAD SWAP1 DUP2 ADD PUSH1 0x40 MSTORE DUP1 SWAP3 SWAP2 SWAP1 DUP2 DUP2 MSTORE PUSH1 0x20 ADD DUP3 DUP1 SLOAD PUSH2 0x913 SWAP1 PUSH2 0x1F10 JUMP JUMPDEST DUP1 ISZERO PUSH2 0x960 JUMPI DUP1 PUSH1 0x1F LT PUSH2 0x935 JUMPI PUSH2 0x100 DUP1 DUP4 SLOAD DIV MUL DUP4 MSTORE SWAP2 PUSH1 0x20 ADD SWAP2 PUSH2 0x960 JUMP JUMPDEST DUP3 ADD SWAP2 SWAP1 PUSH1 0x0 MSTORE PUSH1 0x20 PUSH1 0x0 KECCAK256 SWAP1 JUMPDEST DUP2 SLOAD DUP2 MSTORE SWAP1 PUSH1 0x1 ADD SWAP1 PUSH1 0x20 ADD DUP1 DUP4 GT PUSH2 0x943 JUMPI DUP3 SWAP1 SUB PUSH1 0x1F AND DUP3 ADD SWAP2 JUMPDEST POP POP POP POP POP DUP2 MSTORE PUSH1 0x20 ADD PUSH1 0x3 DUP3 ADD DUP1 SLOAD PUSH2 0x979 SWAP1 PUSH2 0x1F10 JUMP JUMPDEST DUP1 PUSH1 0x1F ADD PUSH1 0x20 DUP1 SWAP2 DIV MUL PUSH1 0x20 ADD PUSH1 0x40 MLOAD SWAP1 DUP2 ADD PUSH1 0x40 MSTORE DUP1 SWAP3 SWAP2 SWAP1 DUP2 DUP2 MSTORE PUSH1 0x20 ADD DUP3 DUP1 SLOAD PUSH2 0x9A5 SWAP1 PUSH2 0x1F10 JUMP JUMPDEST DUP1 ISZERO PUSH2 0x9F2 JUMPI DUP1 PUSH1 0x1F LT PUSH2 0x9C7 JUMPI PUSH2 0x100 DUP1 DUP4 SLOAD DIV MUL DUP4 MSTORE SWAP2 PUSH1 0x20 ADD SWAP2 PUSH2 0x9F2 JUMP JUMPDEST DUP3 ADD SWAP2 SWAP1 PUSH1 0x0 MSTORE PUSH1 0x20 PUSH1 0x0 KECCAK256 SWAP1 JUMPDEST DUP2 SLOAD DUP2 MSTORE SWAP1 PUSH1 0x1 ADD SWAP1 PUSH1 0x20 ADD DUP1 DUP4 GT PUSH2 0x9D5 JUMPI DUP3 SWAP1 SUB PUSH1 0x1F AND DUP3 ADD SWAP2 JUMPDEST POP POP POP POP POP DUP2 MSTORE POP POP DUP3 DUP8 DUP4 PUSH2 0xA08 SWAP2 SWAP1 PUSH2 0x1F60 JUMP JUMPDEST DUP2 MLOAD DUP2 LT PUSH2 0xA18 JUMPI PUSH2 0xA18 PUSH2 0x1EFA JUMP JUMPDEST PUSH1 0x20 MUL PUSH1 0x20 ADD ADD DUP2 SWAP1 MSTORE POP DUP1 DUP1 PUSH2 0xA2E SWAP1 PUSH2 0x1F86 JUMP JUMPDEST SWAP2 POP POP PUSH2 0x860 JUMP JUMPDEST POP SWAP2 POP POP JUMPDEST SWAP3 SWAP2 POP POP JUMP JUMPDEST PUSH1 0xE PUSH1 0x20 MSTORE PUSH1 0x0 SWAP1 DUP2 MSTORE PUSH1 0x40 SWAP1 KECCAK256 DUP1 SLOAD PUSH2 0x548 SWAP1 PUSH2 0x1F10 JUMP JUMPDEST PUSH1 0x40 DUP1 MLOAD PUSH1 0x1 DUP1 DUP3 MSTORE DUP2 DUP4 ADD SWAP1 SWAP3 MSTORE PUSH1 0x0 SWAP2 DUP3 SWAP2 SWAP1 DUP2 PUSH1 0x20 ADD JUMPDEST PUSH1 0x60 DUP2 MSTORE PUSH1 0x20 ADD SWAP1 PUSH1 0x1 SWAP1 SUB SWAP1 DUP2 PUSH2 0xA74 JUMPI SWAP1 POP POP SWAP1 POP DUP3 DUP2 PUSH1 0x0 DUP2 MLOAD DUP2 LT PUSH2 0xA9F JUMPI PUSH2 0xA9F PUSH2 0x1EFA JUMP JUMPDEST PUSH1 0x20 MUL PUSH1 0x20 ADD ADD DUP2 SWAP1 MSTORE POP PUSH2 0xAEB PUSH1 0x40 DUP1 MLOAD PUSH1 0xE0 DUP2 ADD SWAP1 SWAP2 MSTORE DUP1 PUSH1 0x0 DUP2 MSTORE PUSH1 0x20 ADD PUSH1 0x0 DUP2 MSTORE PUSH1 0x20 ADD PUSH1 0x0 DUP2 MSTORE PUSH1 0x20 ADD PUSH1 0x60 DUP2 MSTORE PUSH1 0x20 ADD PUSH1 0x60 DUP2 MSTORE PUSH1 0x20 ADD PUSH1 0x60 DUP2 MSTORE PUSH1 0x20 ADD PUSH1 0x60 DUP2 MSTORE POP SWAP1 JUMP JUMPDEST PUSH2 0xB88 PUSH1 0x8 DUP1 SLOAD PUSH2 0xAFB SWAP1 PUSH2 0x1F10 JUMP JUMPDEST DUP1 PUSH1 0x1F ADD PUSH1 0x20 DUP1 SWAP2 DIV MUL PUSH1 0x20 ADD PUSH1 0x40 MLOAD SWAP1 DUP2 ADD PUSH1 0x40 MSTORE DUP1 SWAP3 SWAP2 SWAP1 DUP2 DUP2 MSTORE PUSH1 0x20 ADD DUP3 DUP1 SLOAD PUSH2 0xB27 SWAP1 PUSH2 0x1F10 JUMP JUMPDEST DUP1 ISZERO PUSH2 0xB74 JUMPI DUP1 PUSH1 0x1F LT PUSH2 0xB49 JUMPI PUSH2 0x100 DUP1 DUP4 SLOAD DIV MUL DUP4 MSTORE SWAP2 PUSH1 0x20 ADD SWAP2 PUSH2 0xB74 JUMP JUMPDEST DUP3 ADD SWAP2 SWAP1 PUSH1 0x0 MSTORE PUSH1 0x20 PUSH1 0x0 KECCAK256 SWAP1 JUMPDEST DUP2 SLOAD DUP2 MSTORE SWAP1 PUSH1 0x1 ADD SWAP1 PUSH1 0x20 ADD DUP1 DUP4 GT PUSH2 0xB57 JUMPI DUP3 SWAP1 SUB PUSH1 0x1F AND DUP3 ADD SWAP2 JUMPDEST POP POP POP POP POP DUP3 PUSH2 0x12A0 SWAP1 SWAP2 SWAP1 PUSH4 0xFFFFFFFF AND JUMP JUMPDEST DUP2 MLOAD ISZERO PUSH2 0xB99 JUMPI PUSH2 0xB99 DUP2 DUP4 PUSH2 0x12B1 JUMP JUMPDEST PUSH2 0xBC9 PUSH2 0xBA5 DUP3 PUSH2 0x12DB JUMP JUMPDEST PUSH1 0x7 SLOAD PUSH1 0x6 SLOAD PUSH1 0x1 PUSH1 0x1 PUSH1 0x40 SHL SUB PUSH5 0x100000000 DUP4 DIV AND SWAP2 PUSH4 0xFFFFFFFF AND SWAP1 PUSH2 0x15B3 JUMP JUMPDEST PUSH1 0x0 SSTORE PUSH1 0x9 PUSH2 0xBD8 DUP6 DUP3 PUSH2 0x1FED JUMP JUMPDEST POP PUSH1 0x0 DUP1 SLOAD DUP2 MSTORE PUSH1 0xE PUSH1 0x20 MSTORE PUSH1 0x40 SWAP1 KECCAK256 PUSH2 0xBF2 DUP6 DUP3 PUSH2 0x1FED JUMP JUMPDEST POP PUSH1 0x40 DUP1 MLOAD PUSH1 0x80 DUP2 ADD DUP3 MSTORE CALLER DUP2 MSTORE PUSH1 0x0 PUSH1 0x20 DUP1 DUP4 ADD DUP3 DUP2 MSTORE DUP4 DUP6 ADD DUP10 DUP2 MSTORE DUP6 MLOAD SWAP3 DUP4 ADD SWAP1 SWAP6 MSTORE DUP3 DUP3 MSTORE PUSH1 0x60 DUP5 ADD SWAP2 SWAP1 SWAP2 MSTORE PUSH1 0xC DUP1 SLOAD PUSH1 0x1 DUP2 ADD DUP3 SSTORE SWAP3 MSTORE DUP3 MLOAD PUSH32 0xDF6966C971051C3D54EC59162606531493A51404A002842F56009D7E5CF4A8C7 PUSH1 0x4 SWAP1 SWAP4 MUL SWAP3 DUP4 ADD DUP1 SLOAD PUSH1 0x1 PUSH1 0x1 PUSH1 0xA0 SHL SUB NOT AND PUSH1 0x1 PUSH1 0x1 PUSH1 0xA0 SHL SUB SWAP1 SWAP3 AND SWAP2 SWAP1 SWAP2 OR DUP2 SSTORE SWAP1 MLOAD PUSH32 0xDF6966C971051C3D54EC59162606531493A51404A002842F56009D7E5CF4A8C8 DUP4 ADD SSTORE SWAP3 MLOAD SWAP2 SWAP3 DUP4 SWAP3 SWAP1 SWAP2 PUSH32 0xDF6966C971051C3D54EC59162606531493A51404A002842F56009D7E5CF4A8C9 ADD SWAP1 PUSH2 0xCD2 SWAP1 DUP3 PUSH2 0x1FED JUMP JUMPDEST POP PUSH1 0x60 DUP3 ADD MLOAD PUSH1 0x3 DUP3 ADD SWAP1 PUSH2 0xCE7 SWAP1 DUP3 PUSH2 0x1FED JUMP JUMPDEST POP POP PUSH1 0xC SLOAD PUSH2 0xCF9 SWAP2 POP PUSH1 0x1 SWAP1 PUSH2 0x1F60 JUMP JUMPDEST PUSH1 0xD DUP7 PUSH1 0x40 MLOAD PUSH2 0xD09 SWAP2 SWAP1 PUSH2 0x1EDE JUMP JUMPDEST SWAP1 DUP2 MSTORE PUSH1 0x40 DUP1 MLOAD PUSH1 0x20 SWAP3 DUP2 SWAP1 SUB DUP4 ADD DUP2 KECCAK256 SWAP4 SWAP1 SWAP4 SSTORE PUSH1 0x80 DUP4 ADD DUP2 MSTORE PUSH1 0x0 DUP1 DUP5 MSTORE PUSH1 0x1 DUP4 DUP6 ADD DUP2 DUP2 MSTORE DUP4 MLOAD DUP1 DUP7 ADD DUP6 MSTORE DUP4 DUP2 MSTORE DUP7 DUP6 ADD SWAP1 DUP2 MSTORE DUP5 MLOAD DUP1 DUP8 ADD DUP7 MSTORE DUP5 DUP2 MSTORE PUSH1 0x60 DUP9 ADD MSTORE DUP4 SLOAD DUP5 MSTORE PUSH1 0x3 SWAP1 SWAP6 MSTORE SWAP3 SWAP1 SWAP2 KECCAK256 DUP5 MLOAD DUP2 SLOAD SWAP4 MLOAD PUSH2 0xFFFF NOT SWAP1 SWAP5 AND SWAP1 ISZERO ISZERO PUSH2 0xFF00 NOT AND OR PUSH2 0x100 SWAP4 ISZERO ISZERO SWAP4 SWAP1 SWAP4 MUL SWAP3 SWAP1 SWAP3 OR DUP3 SSTORE SWAP2 MLOAD SWAP1 SWAP2 DUP3 ADD SWAP1 PUSH2 0xD94 SWAP1 DUP3 PUSH2 0x1FED JUMP JUMPDEST POP PUSH1 0x60 DUP3 ADD MLOAD PUSH1 0x2 DUP3 ADD SWAP1 PUSH2 0xDA9 SWAP1 DUP3 PUSH2 0x1FED JUMP JUMPDEST POP POP PUSH1 0x0 DUP1 SLOAD PUSH1 0x4 DUP1 SLOAD PUSH1 0x1 DUP2 ADD DUP3 SSTORE SWAP3 MSTORE PUSH32 0x8A35ACFBC15FF81A39AE7D344FD709F28E8600B4AA8C65C6B64BFE7FE36BD19B SWAP1 SWAP2 ADD DUP2 SWAP1 SSTORE SWAP7 SWAP6 POP POP POP POP POP POP JUMP JUMPDEST PUSH1 0x3 PUSH1 0x20 MSTORE PUSH1 0x0 SWAP1 DUP2 MSTORE PUSH1 0x40 SWAP1 KECCAK256 DUP1 SLOAD PUSH1 0x1 DUP3 ADD DUP1 SLOAD PUSH1 0xFF DUP1 DUP5 AND SWAP5 PUSH2 0x100 SWAP1 SWAP5 DIV AND SWAP3 SWAP2 SWAP1 PUSH2 0xE1B SWAP1 PUSH2 0x1F10 JUMP JUMPDEST DUP1 PUSH1 0x1F ADD PUSH1 0x20 DUP1 SWAP2 DIV MUL PUSH1 0x20 ADD PUSH1 0x40 MLOAD SWAP1 DUP2 ADD PUSH1 0x40 MSTORE DUP1 SWAP3 SWAP2 SWAP1 DUP2 DUP2 MSTORE PUSH1 0x20 ADD DUP3 DUP1 SLOAD PUSH2 0xE47 SWAP1 PUSH2 0x1F10 JUMP JUMPDEST DUP1 ISZERO PUSH2 0xE94 JUMPI DUP1 PUSH1 0x1F LT PUSH2 0xE69 JUMPI PUSH2 0x100 DUP1 DUP4 SLOAD DIV MUL DUP4 MSTORE SWAP2 PUSH1 0x20 ADD SWAP2 PUSH2 0xE94 JUMP JUMPDEST DUP3 ADD SWAP2 SWAP1 PUSH1 0x0 MSTORE PUSH1 0x20 PUSH1 0x0 KECCAK256 SWAP1 JUMPDEST DUP2 SLOAD DUP2 MSTORE SWAP1 PUSH1 0x1 ADD SWAP1 PUSH1 0x20 ADD DUP1 DUP4 GT PUSH2 0xE77 JUMPI DUP3 SWAP1 SUB PUSH1 0x1F AND DUP3 ADD SWAP2 JUMPDEST POP POP POP POP POP SWAP1 DUP1 PUSH1 0x2 ADD DUP1 SLOAD PUSH2 0x6B7 SWAP1 PUSH2 0x1F10 JUMP JUMPDEST PUSH1 0xA DUP1 SLOAD PUSH2 0x548 SWAP1 PUSH2 0x1F10 JUMP JUMPDEST PUSH1 0x60 PUSH1 0xC DUP1 SLOAD DUP1 PUSH1 0x20 MUL PUSH1 0x20 ADD PUSH1 0x40 MLOAD SWAP1 DUP2 ADD PUSH1 0x40 MSTORE DUP1 SWAP3 SWAP2 SWAP1 DUP2 DUP2 MSTORE PUSH1 0x20 ADD PUSH1 0x0 SWAP1 JUMPDEST DUP3 DUP3 LT ISZERO PUSH2 0x1050 JUMPI PUSH1 0x0 DUP5 DUP2 MSTORE PUSH1 0x20 SWAP1 DUP2 SWAP1 KECCAK256 PUSH1 0x40 DUP1 MLOAD PUSH1 0x80 DUP2 ADD DUP3 MSTORE PUSH1 0x4 DUP7 MUL SWAP1 SWAP3 ADD DUP1 SLOAD PUSH1 0x1 PUSH1 0x1 PUSH1 0xA0 SHL SUB AND DUP4 MSTORE PUSH1 0x1 DUP2 ADD SLOAD SWAP4 DUP4 ADD SWAP4 SWAP1 SWAP4 MSTORE PUSH1 0x2 DUP4 ADD DUP1 SLOAD SWAP3 SWAP4 SWAP3 SWAP2 DUP5 ADD SWAP2 PUSH2 0xF2D SWAP1 PUSH2 0x1F10 JUMP JUMPDEST DUP1 PUSH1 0x1F ADD PUSH1 0x20 DUP1 SWAP2 DIV MUL PUSH1 0x20 ADD PUSH1 0x40 MLOAD SWAP1 DUP2 ADD PUSH1 0x40 MSTORE DUP1 SWAP3 SWAP2 SWAP1 DUP2 DUP2 MSTORE PUSH1 0x20 ADD DUP3 DUP1 SLOAD PUSH2 0xF59 SWAP1 PUSH2 0x1F10 JUMP JUMPDEST DUP1 ISZERO PUSH2 0xFA6 JUMPI DUP1 PUSH1 0x1F LT PUSH2 0xF7B JUMPI PUSH2 0x100 DUP1 DUP4 SLOAD DIV MUL DUP4 MSTORE SWAP2 PUSH1 0x20 ADD SWAP2 PUSH2 0xFA6 JUMP JUMPDEST DUP3 ADD SWAP2 SWAP1 PUSH1 0x0 MSTORE PUSH1 0x20 PUSH1 0x0 KECCAK256 SWAP1 JUMPDEST DUP2 SLOAD DUP2 MSTORE SWAP1 PUSH1 0x1 ADD SWAP1 PUSH1 0x20 ADD DUP1 DUP4 GT PUSH2 0xF89 JUMPI DUP3 SWAP1 SUB PUSH1 0x1F AND DUP3 ADD SWAP2 JUMPDEST POP POP POP POP POP DUP2 MSTORE PUSH1 0x20 ADD PUSH1 0x3 DUP3 ADD DUP1 SLOAD PUSH2 0xFBF SWAP1 PUSH2 0x1F10 JUMP JUMPDEST DUP1 PUSH1 0x1F ADD PUSH1 0x20 DUP1 SWAP2 DIV MUL PUSH1 0x20 ADD PUSH1 0x40 MLOAD SWAP1 DUP2 ADD PUSH1 0x40 MSTORE DUP1 SWAP3 SWAP2 SWAP1 DUP2 DUP2 MSTORE PUSH1 0x20 ADD DUP3 DUP1 SLOAD PUSH2 0xFEB SWAP1 PUSH2 0x1F10 JUMP JUMPDEST DUP1 ISZERO PUSH2 0x1038 JUMPI DUP1 PUSH1 0x1F LT PUSH2 0x100D JUMPI PUSH2 0x100 DUP1 DUP4 SLOAD DIV MUL DUP4 MSTORE SWAP2 PUSH1 0x20 ADD SWAP2 PUSH2 0x1038 JUMP JUMPDEST DUP3 ADD SWAP2 SWAP1 PUSH1 0x0 MSTORE PUSH1 0x20 PUSH1 0x0 KECCAK256 SWAP1 JUMPDEST DUP2 SLOAD DUP2 MSTORE SWAP1 PUSH1 0x1 ADD SWAP1 PUSH1 0x20 ADD DUP1 DUP4 GT PUSH2 0x101B JUMPI DUP3 SWAP1 SUB PUSH1 0x1F AND DUP3 ADD SWAP2 JUMPDEST POP POP POP POP POP DUP2 MSTORE POP POP DUP2 MSTORE PUSH1 0x20 ADD SWAP1 PUSH1 0x1 ADD SWAP1 PUSH2 0xEDA JUMP JUMPDEST POP POP POP POP SWAP1 POP SWAP1 JUMP JUMPDEST PUSH1 0x9 DUP1 SLOAD PUSH2 0x548 SWAP1 PUSH2 0x1F10 JUMP JUMPDEST PUSH1 0x0 DUP4 DUP2 MSTORE PUSH1 0x3 PUSH1 0x20 MSTORE PUSH1 0x40 SWAP1 KECCAK256 SLOAD PUSH2 0x100 SWAP1 DIV PUSH1 0xFF AND PUSH2 0x10BD JUMPI PUSH1 0x40 MLOAD PUSH3 0x461BCD PUSH1 0xE5 SHL DUP2 MSTORE PUSH1 0x20 PUSH1 0x4 DUP3 ADD MSTORE PUSH1 0x11 PUSH1 0x24 DUP3 ADD MSTORE PUSH17 0x1C995C5D595CDD081B9BDD08199BDD5B99 PUSH1 0x7A SHL PUSH1 0x44 DUP3 ADD MSTORE PUSH1 0x64 ADD PUSH2 0x7BA JUMP JUMPDEST PUSH1 0x2 PUSH2 0x10C9 DUP3 DUP3 PUSH2 0x1FED JUMP JUMPDEST POP PUSH1 0x1 PUSH2 0x10D6 DUP4 DUP3 PUSH2 0x1FED JUMP JUMPDEST POP PUSH1 0x0 DUP4 DUP2 MSTORE PUSH1 0x3 PUSH1 0x20 MSTORE PUSH1 0x40 SWAP1 KECCAK256 DUP1 SLOAD PUSH1 0xFF NOT AND PUSH1 0x1 SWAP1 DUP2 OR DUP3 SSTORE ADD PUSH2 0x10FD DUP4 DUP3 PUSH2 0x1FED JUMP JUMPDEST POP PUSH1 0x0 DUP4 DUP2 MSTORE PUSH1 0x3 PUSH1 0x20 MSTORE PUSH1 0x40 SWAP1 KECCAK256 PUSH1 0x2 ADD PUSH2 0x1119 DUP3 DUP3 PUSH2 0x1FED JUMP JUMPDEST POP PUSH1 0x0 DUP4 DUP2 MSTORE PUSH1 0xE PUSH1 0x20 MSTORE PUSH1 0x40 DUP2 KECCAK256 DUP1 SLOAD PUSH2 0x1133 SWAP1 PUSH2 0x1F10 JUMP JUMPDEST DUP1 PUSH1 0x1F ADD PUSH1 0x20 DUP1 SWAP2 DIV MUL PUSH1 0x20 ADD PUSH1 0x40 MLOAD SWAP1 DUP2 ADD PUSH1 0x40 MSTORE DUP1 SWAP3 SWAP2 SWAP1 DUP2 DUP2 MSTORE PUSH1 0x20 ADD DUP3 DUP1 SLOAD PUSH2 0x115F SWAP1 PUSH2 0x1F10 JUMP JUMPDEST DUP1 ISZERO PUSH2 0x11AC JUMPI DUP1 PUSH1 0x1F LT PUSH2 0x1181 JUMPI PUSH2 0x100 DUP1 DUP4 SLOAD DIV MUL DUP4 MSTORE SWAP2 PUSH1 0x20 ADD SWAP2 PUSH2 0x11AC JUMP JUMPDEST DUP3 ADD SWAP2 SWAP1 PUSH1 0x0 MSTORE PUSH1 0x20 PUSH1 0x0 KECCAK256 SWAP1 JUMPDEST DUP2 SLOAD DUP2 MSTORE SWAP1 PUSH1 0x1 ADD SWAP1 PUSH1 0x20 ADD DUP1 DUP4 GT PUSH2 0x118F JUMPI DUP3 SWAP1 SUB PUSH1 0x1F AND DUP3 ADD SWAP2 JUMPDEST POP POP POP POP POP SWAP1 POP DUP3 PUSH1 0xA SWAP1 DUP2 PUSH2 0x11C2 SWAP2 SWAP1 PUSH2 0x1FED JUMP JUMPDEST POP PUSH1 0xA PUSH1 0xC PUSH1 0xD DUP4 PUSH1 0x40 MLOAD PUSH2 0x11D7 SWAP2 SWAP1 PUSH2 0x1EDE JUMP JUMPDEST SWAP1 DUP2 MSTORE PUSH1 0x20 ADD PUSH1 0x40 MLOAD DUP1 SWAP2 SUB SWAP1 KECCAK256 SLOAD DUP2 SLOAD DUP2 LT PUSH2 0x11F6 JUMPI PUSH2 0x11F6 PUSH2 0x1EFA JUMP JUMPDEST SWAP1 PUSH1 0x0 MSTORE PUSH1 0x20 PUSH1 0x0 KECCAK256 SWAP1 PUSH1 0x4 MUL ADD PUSH1 0x3 ADD SWAP1 DUP2 PUSH2 0x1213 SWAP2 SWAP1 PUSH2 0x20AC JUMP JUMPDEST POP TIMESTAMP PUSH1 0xC PUSH1 0xD DUP4 PUSH1 0x40 MLOAD PUSH2 0x1227 SWAP2 SWAP1 PUSH2 0x1EDE JUMP JUMPDEST SWAP1 DUP2 MSTORE PUSH1 0x20 ADD PUSH1 0x40 MLOAD DUP1 SWAP2 SUB SWAP1 KECCAK256 SLOAD DUP2 SLOAD DUP2 LT PUSH2 0x1246 JUMPI PUSH2 0x1246 PUSH2 0x1EFA JUMP JUMPDEST SWAP1 PUSH1 0x0 MSTORE PUSH1 0x20 PUSH1 0x0 KECCAK256 SWAP1 PUSH1 0x4 MUL ADD PUSH1 0x1 ADD DUP2 SWAP1 SSTORE POP DUP4 PUSH32 0x160ED0AAFFBEF6885155188B91459CB5A97D5DAADCCF7561D8C46DEEA6641B50 PUSH1 0xA PUSH1 0x1 PUSH1 0x2 PUSH1 0x40 MLOAD PUSH2 0x1292 SWAP4 SWAP3 SWAP2 SWAP1 PUSH2 0x2203 JUMP JUMPDEST PUSH1 0x40 MLOAD DUP1 SWAP2 SUB SWAP1 LOG2 POP POP POP POP JUMP JUMPDEST PUSH2 0x12AD DUP3 PUSH1 0x0 DUP1 DUP5 PUSH2 0x1685 JUMP JUMPDEST POP POP JUMP JUMPDEST DUP1 MLOAD PUSH1 0x0 SUB PUSH2 0x12D3 JUMPI PUSH1 0x40 MLOAD PUSH4 0xFE936CB7 PUSH1 0xE0 SHL DUP2 MSTORE PUSH1 0x4 ADD PUSH1 0x40 MLOAD DUP1 SWAP2 SUB SWAP1 REVERT JUMPDEST PUSH1 0xA0 SWAP1 SWAP2 ADD MSTORE JUMP JUMPDEST PUSH1 0x60 PUSH1 0x0 PUSH2 0x12EA PUSH2 0x100 PUSH2 0x1703 JUMP JUMPDEST SWAP1 POP PUSH2 0x1323 PUSH1 0x40 MLOAD DUP1 PUSH1 0x40 ADD PUSH1 0x40 MSTORE DUP1 PUSH1 0xC DUP2 MSTORE PUSH1 0x20 ADD PUSH12 0x31B7B232A637B1B0BA34B7B7 PUSH1 0xA1 SHL DUP2 MSTORE POP DUP3 PUSH2 0x1724 SWAP1 SWAP2 SWAP1 PUSH4 0xFFFFFFFF AND JUMP JUMPDEST DUP3 MLOAD PUSH2 0x1341 SWAP1 PUSH1 0x2 DUP2 GT ISZERO PUSH2 0x133A JUMPI PUSH2 0x133A PUSH2 0x2246 JUMP JUMPDEST DUP3 SWAP1 PUSH2 0x1742 JUMP JUMPDEST PUSH1 0x40 DUP1 MLOAD DUP1 DUP3 ADD SWAP1 SWAP2 MSTORE PUSH1 0x8 DUP2 MSTORE PUSH8 0x6C616E6775616765 PUSH1 0xC0 SHL PUSH1 0x20 DUP3 ADD MSTORE PUSH2 0x136B SWAP1 DUP3 SWAP1 PUSH2 0x1724 JUMP JUMPDEST PUSH1 0x40 DUP4 ADD MLOAD PUSH2 0x1382 SWAP1 DUP1 ISZERO PUSH2 0x133A JUMPI PUSH2 0x133A PUSH2 0x2246 JUMP JUMPDEST PUSH1 0x40 DUP1 MLOAD DUP1 DUP3 ADD SWAP1 SWAP2 MSTORE PUSH1 0x6 DUP2 MSTORE PUSH6 0x736F75726365 PUSH1 0xD0 SHL PUSH1 0x20 DUP3 ADD MSTORE PUSH2 0x13AA SWAP1 DUP3 SWAP1 PUSH2 0x1724 JUMP JUMPDEST PUSH1 0x60 DUP4 ADD MLOAD PUSH2 0x13BA SWAP1 DUP3 SWAP1 PUSH2 0x1724 JUMP JUMPDEST PUSH1 0xA0 DUP4 ADD MLOAD MLOAD ISZERO PUSH2 0x144E JUMPI PUSH1 0x40 DUP1 MLOAD DUP1 DUP3 ADD SWAP1 SWAP2 MSTORE PUSH1 0x4 DUP2 MSTORE PUSH4 0x61726773 PUSH1 0xE0 SHL PUSH1 0x20 DUP3 ADD MSTORE PUSH2 0x13EB SWAP1 DUP3 SWAP1 PUSH2 0x1724 JUMP JUMPDEST PUSH2 0x13F4 DUP2 PUSH2 0x177B JUMP JUMPDEST PUSH1 0x0 JUMPDEST DUP4 PUSH1 0xA0 ADD MLOAD MLOAD DUP2 LT ISZERO PUSH2 0x1444 JUMPI PUSH2 0x1434 DUP5 PUSH1 0xA0 ADD MLOAD DUP3 DUP2 MLOAD DUP2 LT PUSH2 0x141D JUMPI PUSH2 0x141D PUSH2 0x1EFA JUMP JUMPDEST PUSH1 0x20 MUL PUSH1 0x20 ADD ADD MLOAD DUP4 PUSH2 0x1724 SWAP1 SWAP2 SWAP1 PUSH4 0xFFFFFFFF AND JUMP JUMPDEST PUSH2 0x143D DUP2 PUSH2 0x1F86 JUMP JUMPDEST SWAP1 POP PUSH2 0x13F7 JUMP JUMPDEST POP PUSH2 0x144E DUP2 PUSH2 0x179F JUMP JUMPDEST PUSH1 0x80 DUP4 ADD MLOAD MLOAD ISZERO PUSH2 0x1512 JUMPI PUSH1 0x0 DUP4 PUSH1 0x20 ADD MLOAD PUSH1 0x2 DUP2 GT ISZERO PUSH2 0x1471 JUMPI PUSH2 0x1471 PUSH2 0x2246 JUMP JUMPDEST SUB PUSH2 0x148F JUMPI PUSH1 0x40 MLOAD PUSH4 0xA80D31F7 PUSH1 0xE0 SHL DUP2 MSTORE PUSH1 0x4 ADD PUSH1 0x40 MLOAD DUP1 SWAP2 SUB SWAP1 REVERT JUMPDEST PUSH1 0x40 DUP1 MLOAD DUP1 DUP3 ADD SWAP1 SWAP2 MSTORE PUSH1 0xF DUP2 MSTORE PUSH15 0x39B2B1B932BA39A637B1B0BA34B7B7 PUSH1 0x89 SHL PUSH1 0x20 DUP3 ADD MSTORE PUSH2 0x14C0 SWAP1 DUP3 SWAP1 PUSH2 0x1724 JUMP JUMPDEST PUSH2 0x14D9 DUP4 PUSH1 0x20 ADD MLOAD PUSH1 0x2 DUP2 GT ISZERO PUSH2 0x133A JUMPI PUSH2 0x133A PUSH2 0x2246 JUMP JUMPDEST PUSH1 0x40 DUP1 MLOAD DUP1 DUP3 ADD SWAP1 SWAP2 MSTORE PUSH1 0x7 DUP2 MSTORE PUSH7 0x73656372657473 PUSH1 0xC8 SHL PUSH1 0x20 DUP3 ADD MSTORE PUSH2 0x1502 SWAP1 DUP3 SWAP1 PUSH2 0x1724 JUMP JUMPDEST PUSH1 0x80 DUP4 ADD MLOAD PUSH2 0x1512 SWAP1 DUP3 SWAP1 PUSH2 0x17BD JUMP JUMPDEST PUSH1 0xC0 DUP4 ADD MLOAD MLOAD ISZERO PUSH2 0x15AB JUMPI PUSH1 0x40 DUP1 MLOAD DUP1 DUP3 ADD SWAP1 SWAP2 MSTORE PUSH1 0x9 DUP2 MSTORE PUSH9 0x627974657341726773 PUSH1 0xB8 SHL PUSH1 0x20 DUP3 ADD MSTORE PUSH2 0x1548 SWAP1 DUP3 SWAP1 PUSH2 0x1724 JUMP JUMPDEST PUSH2 0x1551 DUP2 PUSH2 0x177B JUMP JUMPDEST PUSH1 0x0 JUMPDEST DUP4 PUSH1 0xC0 ADD MLOAD MLOAD DUP2 LT ISZERO PUSH2 0x15A1 JUMPI PUSH2 0x1591 DUP5 PUSH1 0xC0 ADD MLOAD DUP3 DUP2 MLOAD DUP2 LT PUSH2 0x157A JUMPI PUSH2 0x157A PUSH2 0x1EFA JUMP JUMPDEST PUSH1 0x20 MUL PUSH1 0x20 ADD ADD MLOAD DUP4 PUSH2 0x17BD SWAP1 SWAP2 SWAP1 PUSH4 0xFFFFFFFF AND JUMP JUMPDEST PUSH2 0x159A DUP2 PUSH2 0x1F86 JUMP JUMPDEST SWAP1 POP PUSH2 0x1554 JUMP JUMPDEST POP PUSH2 0x15AB DUP2 PUSH2 0x179F JUMP JUMPDEST MLOAD MLOAD SWAP3 SWAP2 POP POP JUMP JUMPDEST PUSH1 0x0 DUP1 PUSH32 0x0 PUSH1 0x1 PUSH1 0x1 PUSH1 0xA0 SHL SUB AND PUSH4 0x461D2762 DUP7 DUP9 PUSH1 0x1 DUP9 DUP9 PUSH1 0x40 MLOAD DUP7 PUSH4 0xFFFFFFFF AND PUSH1 0xE0 SHL DUP2 MSTORE PUSH1 0x4 ADD PUSH2 0x160B SWAP6 SWAP5 SWAP4 SWAP3 SWAP2 SWAP1 PUSH2 0x225C JUMP JUMPDEST PUSH1 0x20 PUSH1 0x40 MLOAD DUP1 DUP4 SUB DUP2 PUSH1 0x0 DUP8 GAS CALL ISZERO DUP1 ISZERO PUSH2 0x162A JUMPI RETURNDATASIZE PUSH1 0x0 DUP1 RETURNDATACOPY RETURNDATASIZE PUSH1 0x0 REVERT JUMPDEST POP POP POP POP PUSH1 0x40 MLOAD RETURNDATASIZE PUSH1 0x1F NOT PUSH1 0x1F DUP3 ADD AND DUP3 ADD DUP1 PUSH1 0x40 MSTORE POP DUP2 ADD SWAP1 PUSH2 0x164E SWAP2 SWAP1 PUSH2 0x22A5 JUMP JUMPDEST PUSH1 0x40 MLOAD SWAP1 SWAP2 POP DUP2 SWAP1 PUSH32 0x1131472297A800FEE664D1D89CFA8F7676FF07189ECC53F80BBB5F4969099DB8 SWAP1 PUSH1 0x0 SWAP1 LOG2 SWAP6 SWAP5 POP POP POP POP POP JUMP JUMPDEST DUP1 MLOAD PUSH1 0x0 SUB PUSH2 0x16A7 JUMPI PUSH1 0x40 MLOAD PUSH4 0x22CE3EDD PUSH1 0xE0 SHL DUP2 MSTORE PUSH1 0x4 ADD PUSH1 0x40 MLOAD DUP1 SWAP2 SUB SWAP1 REVERT JUMPDEST DUP4 DUP4 PUSH1 0x2 DUP2 GT ISZERO PUSH2 0x16BA JUMPI PUSH2 0x16BA PUSH2 0x2246 JUMP JUMPDEST SWAP1 DUP2 PUSH1 0x2 DUP2 GT ISZERO PUSH2 0x16CD JUMPI PUSH2 0x16CD PUSH2 0x2246 JUMP JUMPDEST SWAP1 MSTORE POP PUSH1 0x40 DUP5 ADD DUP3 DUP1 ISZERO PUSH2 0x16E3 JUMPI PUSH2 0x16E3 PUSH2 0x2246 JUMP JUMPDEST SWAP1 DUP2 DUP1 ISZERO PUSH2 0x16F3 JUMPI PUSH2 0x16F3 PUSH2 0x2246 JUMP JUMPDEST SWAP1 MSTORE POP PUSH1 0x60 SWAP1 SWAP4 ADD SWAP3 SWAP1 SWAP3 MSTORE POP POP JUMP JUMPDEST PUSH2 0x170B PUSH2 0x1B75 JUMP JUMPDEST DUP1 MLOAD PUSH2 0x1717 SWAP1 DUP4 PUSH2 0x17CA JUMP JUMPDEST POP PUSH1 0x0 PUSH1 0x20 DUP3 ADD MSTORE SWAP2 SWAP1 POP JUMP JUMPDEST PUSH2 0x1731 DUP3 PUSH1 0x3 DUP4 MLOAD PUSH2 0x1841 JUMP JUMPDEST DUP2 MLOAD PUSH2 0x173D SWAP1 DUP3 PUSH2 0x1960 JUMP JUMPDEST POP POP POP JUMP JUMPDEST DUP2 MLOAD PUSH2 0x174F SWAP1 PUSH1 0xC2 PUSH2 0x1988 JUMP JUMPDEST POP PUSH2 0x12AD DUP3 DUP3 PUSH1 0x40 MLOAD PUSH1 0x20 ADD PUSH2 0x1767 SWAP2 DUP2 MSTORE PUSH1 0x20 ADD SWAP1 JUMP JUMPDEST PUSH1 0x40 MLOAD PUSH1 0x20 DUP2 DUP4 SUB SUB DUP2 MSTORE SWAP1 PUSH1 0x40 MSTORE PUSH2 0x17BD JUMP JUMPDEST PUSH2 0x1786 DUP2 PUSH1 0x4 PUSH2 0x19F1 JUMP JUMPDEST PUSH1 0x1 DUP2 PUSH1 0x20 ADD DUP2 DUP2 MLOAD PUSH2 0x1799 SWAP2 SWAP1 PUSH2 0x1F73 JUMP JUMPDEST SWAP1 MSTORE POP POP JUMP JUMPDEST PUSH2 0x17AA DUP2 PUSH1 0x7 PUSH2 0x19F1 JUMP JUMPDEST PUSH1 0x1 DUP2 PUSH1 0x20 ADD DUP2 DUP2 MLOAD PUSH2 0x1799 SWAP2 SWAP1 PUSH2 0x1F60 JUMP JUMPDEST PUSH2 0x1731 DUP3 PUSH1 0x2 DUP4 MLOAD PUSH2 0x1841 JUMP JUMPDEST PUSH1 0x40 DUP1 MLOAD DUP1 DUP3 ADD SWAP1 SWAP2 MSTORE PUSH1 0x60 DUP2 MSTORE PUSH1 0x0 PUSH1 0x20 DUP3 ADD MSTORE PUSH2 0x17EA PUSH1 0x20 DUP4 PUSH2 0x22BE JUMP JUMPDEST ISZERO PUSH2 0x1812 JUMPI PUSH2 0x17FA PUSH1 0x20 DUP4 PUSH2 0x22BE JUMP JUMPDEST PUSH2 0x1805 SWAP1 PUSH1 0x20 PUSH2 0x1F60 JUMP JUMPDEST PUSH2 0x180F SWAP1 DUP4 PUSH2 0x1F73 JUMP JUMPDEST SWAP2 POP JUMPDEST PUSH1 0x20 DUP1 DUP5 ADD DUP4 SWAP1 MSTORE PUSH1 0x40 MLOAD DUP1 DUP6 MSTORE PUSH1 0x0 DUP2 MSTORE SWAP1 DUP2 DUP5 ADD ADD DUP2 DUP2 LT ISZERO PUSH2 0x1836 JUMPI PUSH1 0x0 DUP1 REVERT JUMPDEST PUSH1 0x40 MSTORE POP SWAP2 SWAP3 SWAP2 POP POP JUMP JUMPDEST PUSH1 0x17 DUP2 PUSH1 0x1 PUSH1 0x1 PUSH1 0x40 SHL SUB AND GT PUSH2 0x186D JUMPI DUP3 MLOAD PUSH2 0x1867 SWAP1 PUSH1 0xE0 PUSH1 0x5 DUP6 SWAP1 SHL AND DUP4 OR PUSH2 0x1988 JUMP JUMPDEST POP POP POP POP JUMP JUMPDEST PUSH1 0xFF DUP2 PUSH1 0x1 PUSH1 0x1 PUSH1 0x40 SHL SUB AND GT PUSH2 0x18AD JUMPI DUP3 MLOAD PUSH2 0x1895 SWAP1 PUSH1 0x18 PUSH2 0x1FE0 PUSH1 0x5 DUP7 SWAP1 SHL AND OR PUSH2 0x1988 JUMP JUMPDEST POP DUP3 MLOAD PUSH2 0x1867 SWAP1 PUSH1 0x1 PUSH1 0x1 PUSH1 0x40 SHL SUB DUP4 AND PUSH1 0x1 PUSH2 0x1A08 JUMP JUMPDEST PUSH2 0xFFFF DUP2 PUSH1 0x1 PUSH1 0x1 PUSH1 0x40 SHL SUB AND GT PUSH2 0x18EE JUMPI DUP3 MLOAD PUSH2 0x18D6 SWAP1 PUSH1 0x19 PUSH2 0x1FE0 PUSH1 0x5 DUP7 SWAP1 SHL AND OR PUSH2 0x1988 JUMP JUMPDEST POP DUP3 MLOAD PUSH2 0x1867 SWAP1 PUSH1 0x1 PUSH1 0x1 PUSH1 0x40 SHL SUB DUP4 AND PUSH1 0x2 PUSH2 0x1A08 JUMP JUMPDEST PUSH4 0xFFFFFFFF DUP2 PUSH1 0x1 PUSH1 0x1 PUSH1 0x40 SHL SUB AND GT PUSH2 0x1931 JUMPI DUP3 MLOAD PUSH2 0x1919 SWAP1 PUSH1 0x1A PUSH2 0x1FE0 PUSH1 0x5 DUP7 SWAP1 SHL AND OR PUSH2 0x1988 JUMP JUMPDEST POP DUP3 MLOAD PUSH2 0x1867 SWAP1 PUSH1 0x1 PUSH1 0x1 PUSH1 0x40 SHL SUB DUP4 AND PUSH1 0x4 PUSH2 0x1A08 JUMP JUMPDEST DUP3 MLOAD PUSH2 0x1948 SWAP1 PUSH1 0x1B PUSH2 0x1FE0 PUSH1 0x5 DUP7 SWAP1 SHL AND OR PUSH2 0x1988 JUMP JUMPDEST POP DUP3 MLOAD PUSH2 0x1867 SWAP1 PUSH1 0x1 PUSH1 0x1 PUSH1 0x40 SHL SUB DUP4 AND PUSH1 0x8 PUSH2 0x1A08 JUMP JUMPDEST PUSH1 0x40 DUP1 MLOAD DUP1 DUP3 ADD SWAP1 SWAP2 MSTORE PUSH1 0x60 DUP2 MSTORE PUSH1 0x0 PUSH1 0x20 DUP3 ADD MSTORE PUSH2 0x1981 DUP4 DUP4 DUP5 MLOAD PUSH2 0x1A8D JUMP JUMPDEST SWAP4 SWAP3 POP POP POP JUMP JUMPDEST PUSH1 0x40 DUP1 MLOAD DUP1 DUP3 ADD SWAP1 SWAP2 MSTORE PUSH1 0x60 DUP2 MSTORE PUSH1 0x0 PUSH1 0x20 DUP3 ADD MSTORE DUP3 MLOAD MLOAD PUSH1 0x0 PUSH2 0x19AD DUP3 PUSH1 0x1 PUSH2 0x1F73 JUMP JUMPDEST SWAP1 POP DUP5 PUSH1 0x20 ADD MLOAD DUP3 LT PUSH2 0x19CE JUMPI PUSH2 0x19CE DUP6 PUSH2 0x19C9 DUP4 PUSH1 0x2 PUSH2 0x22E0 JUMP JUMPDEST PUSH2 0x1B5E JUMP JUMPDEST DUP5 MLOAD PUSH1 0x20 DUP4 DUP3 ADD ADD DUP6 DUP2 MSTORE8 POP DUP1 MLOAD DUP3 GT ISZERO PUSH2 0x19E7 JUMPI DUP2 DUP2 MSTORE JUMPDEST POP SWAP4 SWAP5 SWAP4 POP POP POP POP JUMP JUMPDEST DUP2 MLOAD PUSH2 0x173D SWAP1 PUSH1 0x1F PUSH2 0x1FE0 PUSH1 0x5 DUP6 SWAP1 SHL AND OR PUSH2 0x1988 JUMP JUMPDEST PUSH1 0x40 DUP1 MLOAD DUP1 DUP3 ADD SWAP1 SWAP2 MSTORE PUSH1 0x60 DUP2 MSTORE PUSH1 0x0 PUSH1 0x20 DUP3 ADD MSTORE DUP4 MLOAD MLOAD PUSH1 0x0 PUSH2 0x1A2C DUP3 DUP6 PUSH2 0x1F73 JUMP JUMPDEST SWAP1 POP DUP6 PUSH1 0x20 ADD MLOAD DUP2 GT ISZERO PUSH2 0x1A49 JUMPI PUSH2 0x1A49 DUP7 PUSH2 0x19C9 DUP4 PUSH1 0x2 PUSH2 0x22E0 JUMP JUMPDEST PUSH1 0x0 PUSH1 0x1 PUSH2 0x1A59 DUP7 PUSH2 0x100 PUSH2 0x23DB JUMP JUMPDEST PUSH2 0x1A63 SWAP2 SWAP1 PUSH2 0x1F60 JUMP JUMPDEST SWAP1 POP DUP7 MLOAD DUP3 DUP2 ADD DUP8 DUP4 NOT DUP3 MLOAD AND OR DUP2 MSTORE POP DUP1 MLOAD DUP4 GT ISZERO PUSH2 0x1A81 JUMPI DUP3 DUP2 MSTORE JUMPDEST POP SWAP6 SWAP7 SWAP6 POP POP POP POP POP POP JUMP JUMPDEST PUSH1 0x40 DUP1 MLOAD DUP1 DUP3 ADD SWAP1 SWAP2 MSTORE PUSH1 0x60 DUP2 MSTORE PUSH1 0x0 PUSH1 0x20 DUP3 ADD MSTORE DUP3 MLOAD DUP3 GT ISZERO PUSH2 0x1AB0 JUMPI PUSH1 0x0 DUP1 REVERT JUMPDEST DUP4 MLOAD MLOAD PUSH1 0x0 PUSH2 0x1ABF DUP5 DUP4 PUSH2 0x1F73 JUMP JUMPDEST SWAP1 POP DUP6 PUSH1 0x20 ADD MLOAD DUP2 GT ISZERO PUSH2 0x1ADC JUMPI PUSH2 0x1ADC DUP7 PUSH2 0x19C9 DUP4 PUSH1 0x2 PUSH2 0x22E0 JUMP JUMPDEST DUP6 MLOAD DUP1 MLOAD DUP4 DUP3 ADD PUSH1 0x20 ADD SWAP2 PUSH1 0x0 SWAP2 DUP1 DUP6 GT ISZERO PUSH2 0x1AF6 JUMPI DUP5 DUP3 MSTORE JUMPDEST POP POP POP PUSH1 0x20 DUP7 ADD JUMPDEST PUSH1 0x20 DUP7 LT PUSH2 0x1B36 JUMPI DUP1 MLOAD DUP3 MSTORE PUSH2 0x1B15 PUSH1 0x20 DUP4 PUSH2 0x1F73 JUMP JUMPDEST SWAP2 POP PUSH2 0x1B22 PUSH1 0x20 DUP3 PUSH2 0x1F73 JUMP JUMPDEST SWAP1 POP PUSH2 0x1B2F PUSH1 0x20 DUP8 PUSH2 0x1F60 JUMP JUMPDEST SWAP6 POP PUSH2 0x1AFE JUMP JUMPDEST MLOAD DUP2 MLOAD PUSH1 0x0 NOT PUSH1 0x20 DUP9 SWAP1 SUB PUSH2 0x100 EXP ADD SWAP1 DUP2 AND SWAP1 NOT SWAP2 SWAP1 SWAP2 AND OR SWAP1 MSTORE POP DUP5 SWAP2 POP POP SWAP4 SWAP3 POP POP POP JUMP JUMPDEST DUP2 MLOAD PUSH2 0x1B6A DUP4 DUP4 PUSH2 0x17CA JUMP JUMPDEST POP PUSH2 0x1867 DUP4 DUP3 PUSH2 0x1960 JUMP JUMPDEST PUSH1 0x40 MLOAD DUP1 PUSH1 0x40 ADD PUSH1 0x40 MSTORE DUP1 PUSH2 0x1B9D PUSH1 0x40 MLOAD DUP1 PUSH1 0x40 ADD PUSH1 0x40 MSTORE DUP1 PUSH1 0x60 DUP2 MSTORE PUSH1 0x20 ADD PUSH1 0x0 DUP2 MSTORE POP SWAP1 JUMP JUMPDEST DUP2 MSTORE PUSH1 0x20 ADD PUSH1 0x0 DUP2 MSTORE POP SWAP1 JUMP JUMPDEST PUSH4 0x4E487B71 PUSH1 0xE0 SHL PUSH1 0x0 MSTORE PUSH1 0x41 PUSH1 0x4 MSTORE PUSH1 0x24 PUSH1 0x0 REVERT JUMPDEST PUSH1 0x0 PUSH1 0x1 PUSH1 0x1 PUSH1 0x40 SHL SUB DUP1 DUP5 GT ISZERO PUSH2 0x1BDA JUMPI PUSH2 0x1BDA PUSH2 0x1BAA JUMP JUMPDEST PUSH1 0x40 MLOAD PUSH1 0x1F DUP6 ADD PUSH1 0x1F NOT SWAP1 DUP2 AND PUSH1 0x3F ADD AND DUP2 ADD SWAP1 DUP3 DUP3 GT DUP2 DUP4 LT OR ISZERO PUSH2 0x1C02 JUMPI PUSH2 0x1C02 PUSH2 0x1BAA JUMP JUMPDEST DUP2 PUSH1 0x40 MSTORE DUP1 SWAP4 POP DUP6 DUP2 MSTORE DUP7 DUP7 DUP7 ADD GT ISZERO PUSH2 0x1C1B JUMPI PUSH1 0x0 DUP1 REVERT JUMPDEST DUP6 DUP6 PUSH1 0x20 DUP4 ADD CALLDATACOPY PUSH1 0x0 PUSH1 0x20 DUP8 DUP4 ADD ADD MSTORE POP POP POP SWAP4 SWAP3 POP POP POP JUMP JUMPDEST PUSH1 0x0 PUSH1 0x20 DUP3 DUP5 SUB SLT ISZERO PUSH2 0x1C47 JUMPI PUSH1 0x0 DUP1 REVERT JUMPDEST DUP2 CALLDATALOAD PUSH1 0x1 PUSH1 0x1 PUSH1 0x40 SHL SUB DUP2 GT ISZERO PUSH2 0x1C5D JUMPI PUSH1 0x0 DUP1 REVERT JUMPDEST DUP3 ADD PUSH1 0x1F DUP2 ADD DUP5 SGT PUSH2 0x1C6E JUMPI PUSH1 0x0 DUP1 REVERT JUMPDEST PUSH2 0x1C7D DUP5 DUP3 CALLDATALOAD PUSH1 0x20 DUP5 ADD PUSH2 0x1BC0 JUMP JUMPDEST SWAP5 SWAP4 POP POP POP POP JUMP JUMPDEST PUSH1 0x0 JUMPDEST DUP4 DUP2 LT ISZERO PUSH2 0x1CA0 JUMPI DUP2 DUP2 ADD MLOAD DUP4 DUP3 ADD MSTORE PUSH1 0x20 ADD PUSH2 0x1C88 JUMP JUMPDEST POP POP PUSH1 0x0 SWAP2 ADD MSTORE JUMP JUMPDEST PUSH1 0x0 DUP2 MLOAD DUP1 DUP5 MSTORE PUSH2 0x1CC1 DUP2 PUSH1 0x20 DUP7 ADD PUSH1 0x20 DUP7 ADD PUSH2 0x1C85 JUMP JUMPDEST PUSH1 0x1F ADD PUSH1 0x1F NOT AND SWAP3 SWAP1 SWAP3 ADD PUSH1 0x20 ADD SWAP3 SWAP2 POP POP JUMP JUMPDEST PUSH1 0x1 DUP1 PUSH1 0xA0 SHL SUB DUP2 MLOAD AND DUP3 MSTORE PUSH1 0x20 DUP2 ADD MLOAD PUSH1 0x20 DUP4 ADD MSTORE PUSH1 0x0 PUSH1 0x40 DUP3 ADD MLOAD PUSH1 0x80 PUSH1 0x40 DUP6 ADD MSTORE PUSH2 0x1D06 PUSH1 0x80 DUP6 ADD DUP3 PUSH2 0x1CA9 JUMP JUMPDEST SWAP1 POP PUSH1 0x60 DUP4 ADD MLOAD DUP5 DUP3 SUB PUSH1 0x60 DUP7 ADD MSTORE PUSH2 0x1D1F DUP3 DUP3 PUSH2 0x1CA9 JUMP JUMPDEST SWAP6 SWAP5 POP POP POP POP POP JUMP JUMPDEST PUSH1 0x20 DUP2 MSTORE PUSH1 0x0 PUSH2 0x1981 PUSH1 0x20 DUP4 ADD DUP5 PUSH2 0x1CD5 JUMP JUMPDEST PUSH1 0x0 DUP3 PUSH1 0x1F DUP4 ADD SLT PUSH2 0x1D4C JUMPI PUSH1 0x0 DUP1 REVERT JUMPDEST PUSH2 0x1981 DUP4 DUP4 CALLDATALOAD PUSH1 0x20 DUP6 ADD PUSH2 0x1BC0 JUMP JUMPDEST PUSH1 0x0 DUP1 PUSH1 0x0 PUSH1 0x60 DUP5 DUP7 SUB SLT ISZERO PUSH2 0x1D70 JUMPI PUSH1 0x0 DUP1 REVERT JUMPDEST DUP4 CALLDATALOAD SWAP3 POP PUSH1 0x20 DUP5 ADD CALLDATALOAD PUSH1 0x1 PUSH1 0x1 PUSH1 0x40 SHL SUB DUP1 DUP3 GT ISZERO PUSH2 0x1D8E JUMPI PUSH1 0x0 DUP1 REVERT JUMPDEST PUSH2 0x1D9A DUP8 DUP4 DUP9 ADD PUSH2 0x1D3B JUMP JUMPDEST SWAP4 POP PUSH1 0x40 DUP7 ADD CALLDATALOAD SWAP2 POP DUP1 DUP3 GT ISZERO PUSH2 0x1DB0 JUMPI PUSH1 0x0 DUP1 REVERT JUMPDEST POP PUSH2 0x1DBD DUP7 DUP3 DUP8 ADD PUSH2 0x1D3B JUMP JUMPDEST SWAP2 POP POP SWAP3 POP SWAP3 POP SWAP3 JUMP JUMPDEST PUSH1 0x20 DUP2 MSTORE PUSH1 0x0 PUSH2 0x1981 PUSH1 0x20 DUP4 ADD DUP5 PUSH2 0x1CA9 JUMP JUMPDEST PUSH1 0x0 PUSH1 0x20 DUP3 DUP5 SUB SLT ISZERO PUSH2 0x1DEC JUMPI PUSH1 0x0 DUP1 REVERT JUMPDEST POP CALLDATALOAD SWAP2 SWAP1 POP JUMP JUMPDEST PUSH1 0x1 DUP1 PUSH1 0xA0 SHL SUB DUP6 AND DUP2 MSTORE DUP4 PUSH1 0x20 DUP3 ADD MSTORE PUSH1 0x80 PUSH1 0x40 DUP3 ADD MSTORE PUSH1 0x0 PUSH2 0x1E1A PUSH1 0x80 DUP4 ADD DUP6 PUSH2 0x1CA9 JUMP JUMPDEST DUP3 DUP2 SUB PUSH1 0x60 DUP5 ADD MSTORE PUSH2 0x1E2C DUP2 DUP6 PUSH2 0x1CA9 JUMP JUMPDEST SWAP8 SWAP7 POP POP POP POP POP POP POP JUMP JUMPDEST PUSH1 0x0 DUP1 PUSH1 0x40 DUP4 DUP6 SUB SLT ISZERO PUSH2 0x1E4A JUMPI PUSH1 0x0 DUP1 REVERT JUMPDEST POP POP DUP1 CALLDATALOAD SWAP3 PUSH1 0x20 SWAP1 SWAP2 ADD CALLDATALOAD SWAP2 POP JUMP JUMPDEST PUSH1 0x0 PUSH1 0x20 DUP1 DUP4 ADD DUP2 DUP5 MSTORE DUP1 DUP6 MLOAD DUP1 DUP4 MSTORE PUSH1 0x40 DUP7 ADD SWAP2 POP PUSH1 0x40 DUP2 PUSH1 0x5 SHL DUP8 ADD ADD SWAP3 POP DUP4 DUP8 ADD PUSH1 0x0 JUMPDEST DUP3 DUP2 LT ISZERO PUSH2 0x1EAE JUMPI PUSH1 0x3F NOT DUP9 DUP7 SUB ADD DUP5 MSTORE PUSH2 0x1E9C DUP6 DUP4 MLOAD PUSH2 0x1CD5 JUMP JUMPDEST SWAP5 POP SWAP3 DUP6 ADD SWAP3 SWAP1 DUP6 ADD SWAP1 PUSH1 0x1 ADD PUSH2 0x1E80 JUMP JUMPDEST POP SWAP3 SWAP8 SWAP7 POP POP POP POP POP POP POP JUMP JUMPDEST DUP5 ISZERO ISZERO DUP2 MSTORE DUP4 ISZERO ISZERO PUSH1 0x20 DUP3 ADD MSTORE PUSH1 0x80 PUSH1 0x40 DUP3 ADD MSTORE PUSH1 0x0 PUSH2 0x1E1A PUSH1 0x80 DUP4 ADD DUP6 PUSH2 0x1CA9 JUMP JUMPDEST PUSH1 0x0 DUP3 MLOAD PUSH2 0x1EF0 DUP2 DUP5 PUSH1 0x20 DUP8 ADD PUSH2 0x1C85 JUMP JUMPDEST SWAP2 SWAP1 SWAP2 ADD SWAP3 SWAP2 POP POP JUMP JUMPDEST PUSH4 0x4E487B71 PUSH1 0xE0 SHL PUSH1 0x0 MSTORE PUSH1 0x32 PUSH1 0x4 MSTORE PUSH1 0x24 PUSH1 0x0 REVERT JUMPDEST PUSH1 0x1 DUP2 DUP2 SHR SWAP1 DUP3 AND DUP1 PUSH2 0x1F24 JUMPI PUSH1 0x7F DUP3 AND SWAP2 POP JUMPDEST PUSH1 0x20 DUP3 LT DUP2 SUB PUSH2 0x1F44 JUMPI PUSH4 0x4E487B71 PUSH1 0xE0 SHL PUSH1 0x0 MSTORE PUSH1 0x22 PUSH1 0x4 MSTORE PUSH1 0x24 PUSH1 0x0 REVERT JUMPDEST POP SWAP2 SWAP1 POP JUMP JUMPDEST PUSH4 0x4E487B71 PUSH1 0xE0 SHL PUSH1 0x0 MSTORE PUSH1 0x11 PUSH1 0x4 MSTORE PUSH1 0x24 PUSH1 0x0 REVERT JUMPDEST DUP2 DUP2 SUB DUP2 DUP2 GT ISZERO PUSH2 0xA3B JUMPI PUSH2 0xA3B PUSH2 0x1F4A JUMP JUMPDEST DUP1 DUP3 ADD DUP1 DUP3 GT ISZERO PUSH2 0xA3B JUMPI PUSH2 0xA3B PUSH2 0x1F4A JUMP JUMPDEST PUSH1 0x0 PUSH1 0x1 DUP3 ADD PUSH2 0x1F98 JUMPI PUSH2 0x1F98 PUSH2 0x1F4A JUMP JUMPDEST POP PUSH1 0x1 ADD SWAP1 JUMP JUMPDEST PUSH1 0x1F DUP3 GT ISZERO PUSH2 0x173D JUMPI PUSH1 0x0 DUP2 DUP2 MSTORE PUSH1 0x20 DUP2 KECCAK256 PUSH1 0x1F DUP6 ADD PUSH1 0x5 SHR DUP2 ADD PUSH1 0x20 DUP7 LT ISZERO PUSH2 0x1FC6 JUMPI POP DUP1 JUMPDEST PUSH1 0x1F DUP6 ADD PUSH1 0x5 SHR DUP3 ADD SWAP2 POP JUMPDEST DUP2 DUP2 LT ISZERO PUSH2 0x1FE5 JUMPI DUP3 DUP2 SSTORE PUSH1 0x1 ADD PUSH2 0x1FD2 JUMP JUMPDEST POP POP POP POP POP POP JUMP JUMPDEST DUP2 MLOAD PUSH1 0x1 PUSH1 0x1 PUSH1 0x40 SHL SUB DUP2 GT ISZERO PUSH2 0x2006 JUMPI PUSH2 0x2006 PUSH2 0x1BAA JUMP JUMPDEST PUSH2 0x201A DUP2 PUSH2 0x2014 DUP5 SLOAD PUSH2 0x1F10 JUMP JUMPDEST DUP5 PUSH2 0x1F9F JUMP JUMPDEST PUSH1 0x20 DUP1 PUSH1 0x1F DUP4 GT PUSH1 0x1 DUP2 EQ PUSH2 0x204F JUMPI PUSH1 0x0 DUP5 ISZERO PUSH2 0x2037 JUMPI POP DUP6 DUP4 ADD MLOAD JUMPDEST PUSH1 0x0 NOT PUSH1 0x3 DUP7 SWAP1 SHL SHR NOT AND PUSH1 0x1 DUP6 SWAP1 SHL OR DUP6 SSTORE PUSH2 0x1FE5 JUMP JUMPDEST PUSH1 0x0 DUP6 DUP2 MSTORE PUSH1 0x20 DUP2 KECCAK256 PUSH1 0x1F NOT DUP7 AND SWAP2 JUMPDEST DUP3 DUP2 LT ISZERO PUSH2 0x207E JUMPI DUP9 DUP7 ADD MLOAD DUP3 SSTORE SWAP5 DUP5 ADD SWAP5 PUSH1 0x1 SWAP1 SWAP2 ADD SWAP1 DUP5 ADD PUSH2 0x205F JUMP JUMPDEST POP DUP6 DUP3 LT ISZERO PUSH2 0x209C JUMPI DUP8 DUP6 ADD MLOAD PUSH1 0x0 NOT PUSH1 0x3 DUP9 SWAP1 SHL PUSH1 0xF8 AND SHR NOT AND DUP2 SSTORE JUMPDEST POP POP POP POP POP PUSH1 0x1 SWAP1 DUP2 SHL ADD SWAP1 SSTORE POP JUMP JUMPDEST DUP2 DUP2 SUB PUSH2 0x20B7 JUMPI POP POP JUMP JUMPDEST PUSH2 0x20C1 DUP3 SLOAD PUSH2 0x1F10 JUMP JUMPDEST PUSH1 0x1 PUSH1 0x1 PUSH1 0x40 SHL SUB DUP2 GT ISZERO PUSH2 0x20D8 JUMPI PUSH2 0x20D8 PUSH2 0x1BAA JUMP JUMPDEST PUSH2 0x20E6 DUP2 PUSH2 0x2014 DUP5 SLOAD PUSH2 0x1F10 JUMP JUMPDEST PUSH1 0x0 PUSH1 0x1F DUP3 GT PUSH1 0x1 DUP2 EQ PUSH2 0x211A JUMPI PUSH1 0x0 DUP4 ISZERO PUSH2 0x2102 JUMPI POP DUP5 DUP3 ADD SLOAD JUMPDEST PUSH1 0x0 NOT PUSH1 0x3 DUP6 SWAP1 SHL SHR NOT AND PUSH1 0x1 DUP5 SWAP1 SHL OR DUP5 SSTORE PUSH2 0x217F JUMP JUMPDEST PUSH1 0x0 DUP6 DUP2 MSTORE PUSH1 0x20 SWAP1 KECCAK256 PUSH1 0x1F NOT DUP5 AND SWAP1 PUSH1 0x0 DUP7 DUP2 MSTORE PUSH1 0x20 SWAP1 KECCAK256 DUP5 JUMPDEST DUP4 DUP2 LT ISZERO PUSH2 0x2154 JUMPI DUP3 DUP7 ADD SLOAD DUP3 SSTORE PUSH1 0x1 SWAP6 DUP7 ADD SWAP6 SWAP1 SWAP2 ADD SWAP1 PUSH1 0x20 ADD PUSH2 0x2134 JUMP JUMPDEST POP DUP6 DUP4 LT ISZERO PUSH2 0x2172 JUMPI DUP2 DUP6 ADD SLOAD PUSH1 0x0 NOT PUSH1 0x3 DUP9 SWAP1 SHL PUSH1 0xF8 AND SHR NOT AND DUP2 SSTORE JUMPDEST POP POP POP PUSH1 0x1 DUP4 PUSH1 0x1 SHL ADD DUP5 SSTORE JUMPDEST POP POP POP POP POP JUMP JUMPDEST PUSH1 0x0 DUP2 SLOAD PUSH2 0x2193 DUP2 PUSH2 0x1F10 JUMP JUMPDEST DUP1 DUP6 MSTORE PUSH1 0x20 PUSH1 0x1 DUP4 DUP2 AND DUP1 ISZERO PUSH2 0x21B0 JUMPI PUSH1 0x1 DUP2 EQ PUSH2 0x21CA JUMPI PUSH2 0x21F8 JUMP JUMPDEST PUSH1 0xFF NOT DUP6 AND DUP9 DUP5 ADD MSTORE DUP4 ISZERO ISZERO PUSH1 0x5 SHL DUP9 ADD DUP4 ADD SWAP6 POP PUSH2 0x21F8 JUMP JUMPDEST DUP7 PUSH1 0x0 MSTORE DUP3 PUSH1 0x0 KECCAK256 PUSH1 0x0 JUMPDEST DUP6 DUP2 LT ISZERO PUSH2 0x21F0 JUMPI DUP2 SLOAD DUP11 DUP3 ADD DUP7 ADD MSTORE SWAP1 DUP4 ADD SWAP1 DUP5 ADD PUSH2 0x21D5 JUMP JUMPDEST DUP10 ADD DUP5 ADD SWAP7 POP POP JUMPDEST POP POP POP POP POP SWAP3 SWAP2 POP POP JUMP JUMPDEST PUSH1 0x60 DUP2 MSTORE PUSH1 0x0 PUSH2 0x2216 PUSH1 0x60 DUP4 ADD DUP7 PUSH2 0x2186 JUMP JUMPDEST DUP3 DUP2 SUB PUSH1 0x20 DUP5 ADD MSTORE PUSH2 0x2228 DUP2 DUP7 PUSH2 0x2186 JUMP JUMPDEST SWAP1 POP DUP3 DUP2 SUB PUSH1 0x40 DUP5 ADD MSTORE PUSH2 0x223C DUP2 DUP6 PUSH2 0x2186 JUMP JUMPDEST SWAP7 SWAP6 POP POP POP POP POP POP JUMP JUMPDEST PUSH4 0x4E487B71 PUSH1 0xE0 SHL PUSH1 0x0 MSTORE PUSH1 0x21 PUSH1 0x4 MSTORE PUSH1 0x24 PUSH1 0x0 REVERT JUMPDEST PUSH1 0x1 PUSH1 0x1 PUSH1 0x40 SHL SUB DUP7 AND DUP2 MSTORE PUSH1 0xA0 PUSH1 0x20 DUP3 ADD MSTORE PUSH1 0x0 PUSH2 0x227E PUSH1 0xA0 DUP4 ADD DUP8 PUSH2 0x1CA9 JUMP JUMPDEST PUSH2 0xFFFF SWAP6 SWAP1 SWAP6 AND PUSH1 0x40 DUP4 ADD MSTORE POP PUSH4 0xFFFFFFFF SWAP3 SWAP1 SWAP3 AND PUSH1 0x60 DUP4 ADD MSTORE PUSH1 0x80 SWAP1 SWAP2 ADD MSTORE SWAP3 SWAP2 POP POP JUMP JUMPDEST PUSH1 0x0 PUSH1 0x20 DUP3 DUP5 SUB SLT ISZERO PUSH2 0x22B7 JUMPI PUSH1 0x0 DUP1 REVERT JUMPDEST POP MLOAD SWAP2 SWAP1 POP JUMP JUMPDEST PUSH1 0x0 DUP3 PUSH2 0x22DB JUMPI PUSH4 0x4E487B71 PUSH1 0xE0 SHL PUSH1 0x0 MSTORE PUSH1 0x12 PUSH1 0x4 MSTORE PUSH1 0x24 PUSH1 0x0 REVERT JUMPDEST POP MOD SWAP1 JUMP JUMPDEST DUP1 DUP3 MUL DUP2 ISZERO DUP3 DUP3 DIV DUP5 EQ OR PUSH2 0xA3B JUMPI PUSH2 0xA3B PUSH2 0x1F4A JUMP JUMPDEST PUSH1 0x1 DUP2 DUP2 JUMPDEST DUP1 DUP6 GT ISZERO PUSH2 0x2332 JUMPI DUP2 PUSH1 0x0 NOT DIV DUP3 GT ISZERO PUSH2 0x2318 JUMPI PUSH2 0x2318 PUSH2 0x1F4A JUMP JUMPDEST DUP1 DUP6 AND ISZERO PUSH2 0x2325 JUMPI SWAP2 DUP2 MUL SWAP2 JUMPDEST SWAP4 DUP5 SHR SWAP4 SWAP1 DUP1 MUL SWAP1 PUSH2 0x22FC JUMP JUMPDEST POP SWAP3 POP SWAP3 SWAP1 POP JUMP JUMPDEST PUSH1 0x0 DUP3 PUSH2 0x2349 JUMPI POP PUSH1 0x1 PUSH2 0xA3B JUMP JUMPDEST DUP2 PUSH2 0x2356 JUMPI POP PUSH1 0x0 PUSH2 0xA3B JUMP JUMPDEST DUP2 PUSH1 0x1 DUP2 EQ PUSH2 0x236C JUMPI PUSH1 0x2 DUP2 EQ PUSH2 0x2376 JUMPI PUSH2 0x2392 JUMP JUMPDEST PUSH1 0x1 SWAP2 POP POP PUSH2 0xA3B JUMP JUMPDEST PUSH1 0xFF DUP5 GT ISZERO PUSH2 0x2387 JUMPI PUSH2 0x2387 PUSH2 0x1F4A JUMP JUMPDEST POP POP PUSH1 0x1 DUP3 SHL PUSH2 0xA3B JUMP JUMPDEST POP PUSH1 0x20 DUP4 LT PUSH2 0x133 DUP4 LT AND PUSH1 0x4E DUP5 LT PUSH1 0xB DUP5 LT AND OR ISZERO PUSH2 0x23B5 JUMPI POP DUP2 DUP2 EXP PUSH2 0xA3B JUMP JUMPDEST PUSH2 0x23BF DUP4 DUP4 PUSH2 0x22F7 JUMP JUMPDEST DUP1 PUSH1 0x0 NOT DIV DUP3 GT ISZERO PUSH2 0x23D3 JUMPI PUSH2 0x23D3 PUSH2 0x1F4A JUMP JUMPDEST MUL SWAP4 SWAP3 POP POP POP JUMP JUMPDEST PUSH1 0x0 PUSH2 0x1981 DUP4 DUP4 PUSH2 0x233A JUMP INVALID LOG2 PUSH5 0x6970667358 0x22 SLT KECCAK256 JUMP 0xFC SWAP16 DUP2 0xCA 0x28 MSTORE8 PUSH12 0x48D8CE15900D366A401A7EEE MSTORE BYTE 0xFB JUMP LOG0 LOG0 DUP12 0x5C 0x1E PUSH16 0x29D64736F6C63430008130033636F6E PUSH20 0x742063697479203D20617267735B305D3B636F6E PUSH20 0x7420617069526573706F6E7365203D2061776169 PUSH21 0x2046756E6374696F6E732E6D616B65487474705265 PUSH18 0x75657374287B75726C3A206068747470733A 0x2F 0x2F PUSH24 0x7474722E696E2F247B636974797D3F666F726D61743D3326 PUSH14 0x602C726573706F6E736554797065 GASPRICE KECCAK256 0x27 PUSH21 0x657874277D293B69662028617069526573706F6E73 PUSH6 0x2E6572726F72 0x29 KECCAK256 PUSH28 0x7468726F77204572726F72282752657175657374206661696C656427 0x29 EXTCODESIZE PUSH30 0x636F6E7374207B2064617461207D203D20617069526573706F6E73653B72 PUSH6 0x7475726E2046 PUSH22 0x6E6374696F6E732E656E636F6465537472696E672864 PUSH2 0x7461 0x29 EXTCODESIZE "
		},
		"gasEstimates": {
			"creation": {
				"codeDepositCost": "1849000",
				"executionCost": "infinite",
				"totalCost": "infinite"
			},
			"external": {
				"cities(uint256)": "infinite",
				"cityIndex(string)": "infinite",
				"getCity(string)": "infinite",
				"getTemperature(string)": "infinite",
				"handleOracleFulfillment(bytes32,bytes,bytes)": "infinite",
				"lastCity()": "infinite",
				"lastError()": "infinite",
				"lastRequestId()": "2405",
				"lastResponse()": "infinite",
				"lastSender()": "2427",
				"lastTemperature()": "infinite",
				"listAllCities()": "infinite",
				"listCities(uint256,uint256)": "infinite",
				"requestIds(uint256)": "4686",
				"request_city(bytes32)": "infinite",
				"requests(bytes32)": "infinite",
				"source()": "infinite",
				"subscriptionId()": "2394"
			},
			"internal": {
				"fulfillRequest(bytes32,bytes memory,bytes memory)": "infinite"
			}
		},
		"methodIdentifiers": {
			"cities(uint256)": "6a51b918",
			"cityIndex(string)": "c69c5bb8",
			"getCity(string)": "0650e971",
			"getTemperature(string)": "94d02941",
			"handleOracleFulfillment(bytes32,bytes,bytes)": "0ca76175",
			"lastCity()": "cd2b8d11",
			"lastError()": "29f0de3f",
			"lastRequestId()": "fc2a88c3",
			"lastResponse()": "62747e42",
			"lastSender()": "256fec88",
			"lastTemperature()": "9fb51771",
			"listAllCities()": "bc6f09c9",
			"listCities(uint256,uint256)": "8b8267cf",
			"requestIds(uint256)": "8796ba8c",
			"request_city(bytes32)": "8fcabccb",
			"requests(bytes32)": "9d866985",
			"source()": "67e828bf",
			"subscriptionId()": "09c1ba2e"
		}
	},
	"abi": [
		{
			"inputs": [
				{
					"internalType": "uint64",
					"name": "functionsSubscriptionId",
					"type": "uint64"
				}
			],
			"stateMutability": "nonpayable",
			"type": "constructor"
		},
		{
			"inputs": [],
			"name": "EmptyArgs",
			"type": "error"
		},
		{
			"inputs": [],
			"name": "EmptySource",
			"type": "error"
		},
		{
			"inputs": [],
			"name": "NoInlineSecrets",
			"type": "error"
		},
		{
			"inputs": [],
			"name": "OnlyRouterCanFulfill",
			"type": "error"
		},
		{
			"anonymous": false,
			"inputs": [
				{
					"indexed": true,
					"internalType": "bytes32",
					"name": "id",
					"type": "bytes32"
				}
			],
			"name": "RequestFulfilled",
			"type": "event"
		},
		{
			"anonymous": false,
			"inputs": [
				{
					"indexed": true,
					"internalType": "bytes32",
					"name": "id",
					"type": "bytes32"
				}
			],
			"name": "RequestSent",
			"type": "event"
		},
		{
			"anonymous": false,
			"inputs": [
				{
					"indexed": true,
					"internalType": "bytes32",
					"name": "requestId",
					"type": "bytes32"
				},
				{
					"indexed": false,
					"internalType": "string",
					"name": "temperature",
					"type": "string"
				},
				{
					"indexed": false,
					"internalType": "bytes",
					"name": "response",
					"type": "bytes"
				},
				{
					"indexed": false,
					"internalType": "bytes",
					"name": "err",
					"type": "bytes"
				}
			],
			"name": "Response",
			"type": "event"
		},
		{
			"inputs": [
				{
					"internalType": "uint256",
					"name": "",
					"type": "uint256"
				}
			],
			"name": "cities",
			"outputs": [
				{
					"internalType": "address",
					"name": "sender",
					"type": "address"
				},
				{
					"internalType": "uint256",
					"name": "timestamp",
					"type": "uint256"
				},
				{
					"internalType": "string",
					"name": "name",
					"type": "string"
				},
				{
					"internalType": "string",
					"name": "temperature",
					"type": "string"
				}
			],
			"stateMutability": "view",
			"type": "function"
		},
		{
			"inputs": [
				{
					"internalType": "string",
					"name": "",
					"type": "string"
				}
			],
			"name": "cityIndex",
			"outputs": [
				{
					"internalType": "uint256",
					"name": "",
					"type": "uint256"
				}
			],
			"stateMutability": "view",
			"type": "function"
		},
		{
			"inputs": [
				{
					"internalType": "string",
					"name": "city",
					"type": "string"
				}
			],
			"name": "getCity",
			"outputs": [
				{
					"components": [
						{
							"internalType": "address",
							"name": "sender",
							"type": "address"
						},
						{
							"internalType": "uint256",
							"name": "timestamp",
							"type": "uint256"
						},
						{
							"internalType": "string",
							"name": "name",
							"type": "string"
						},
						{
							"internalType": "string",
							"name": "temperature",
							"type": "string"
						}
					],
					"internalType": "struct FujiWeatherFunctions.CityStruct",
					"name": "",
					"type": "tuple"
				}
			],
			"stateMutability": "view",
			"type": "function"
		},
		{
			"inputs": [
				{
					"internalType": "string",
					"name": "_city",
					"type": "string"
				}
			],
			"name": "getTemperature",
			"outputs": [
				{
					"internalType": "bytes32",
					"name": "requestId",
					"type": "bytes32"
				}
			],
			"stateMutability": "nonpayable",
			"type": "function"
		},
		{
			"inputs": [
				{
					"internalType": "bytes32",
					"name": "requestId",
					"type": "bytes32"
				},
				{
					"internalType": "bytes",
					"name": "response",
					"type": "bytes"
				},
				{
					"internalType": "bytes",
					"name": "err",
					"type": "bytes"
				}
			],
			"name": "handleOracleFulfillment",
			"outputs": [],
			"stateMutability": "nonpayable",
			"type": "function"
		},
		{
			"inputs": [],
			"name": "lastCity",
			"outputs": [
				{
					"internalType": "string",
					"name": "",
					"type": "string"
				}
			],
			"stateMutability": "view",
			"type": "function"
		},
		{
			"inputs": [],
			"name": "lastError",
			"outputs": [
				{
					"internalType": "bytes",
					"name": "",
					"type": "bytes"
				}
			],
			"stateMutability": "view",
			"type": "function"
		},
		{
			"inputs": [],
			"name": "lastRequestId",
			"outputs": [
				{
					"internalType": "bytes32",
					"name": "",
					"type": "bytes32"
				}
			],
			"stateMutability": "view",
			"type": "function"
		},
		{
			"inputs": [],
			"name": "lastResponse",
			"outputs": [
				{
					"internalType": "bytes",
					"name": "",
					"type": "bytes"
				}
			],
			"stateMutability": "view",
			"type": "function"
		},
		{
			"inputs": [],
			"name": "lastSender",
			"outputs": [
				{
					"internalType": "address",
					"name": "",
					"type": "address"
				}
			],
			"stateMutability": "view",
			"type": "function"
		},
		{
			"inputs": [],
			"name": "lastTemperature",
			"outputs": [
				{
					"internalType": "string",
					"name": "",
					"type": "string"
				}
			],
			"stateMutability": "view",
			"type": "function"
		},
		{
			"inputs": [],
			"name": "listAllCities",
			"outputs": [
				{
					"components": [
						{
							"internalType": "address",
							"name": "sender",
							"type": "address"
						},
						{
							"internalType": "uint256",
							"name": "timestamp",
							"type": "uint256"
						},
						{
							"internalType": "string",
							"name": "name",
							"type": "string"
						},
						{
							"internalType": "string",
							"name": "temperature",
							"type": "string"
						}
					],
					"internalType": "struct FujiWeatherFunctions.CityStruct[]",
					"name": "",
					"type": "tuple[]"
				}
			],
			"stateMutability": "view",
			"type": "function"
		},
		{
			"inputs": [
				{
					"internalType": "uint256",
					"name": "start",
					"type": "uint256"
				},
				{
					"internalType": "uint256",
					"name": "end",
					"type": "uint256"
				}
			],
			"name": "listCities",
			"outputs": [
				{
					"components": [
						{
							"internalType": "address",
							"name": "sender",
							"type": "address"
						},
						{
							"internalType": "uint256",
							"name": "timestamp",
							"type": "uint256"
						},
						{
							"internalType": "string",
							"name": "name",
							"type": "string"
						},
						{
							"internalType": "string",
							"name": "temperature",
							"type": "string"
						}
					],
					"internalType": "struct FujiWeatherFunctions.CityStruct[]",
					"name": "",
					"type": "tuple[]"
				}
			],
			"stateMutability": "view",
			"type": "function"
		},
		{
			"inputs": [
				{
					"internalType": "uint256",
					"name": "",
					"type": "uint256"
				}
			],
			"name": "requestIds",
			"outputs": [
				{
					"internalType": "bytes32",
					"name": "",
					"type": "bytes32"
				}
			],
			"stateMutability": "view",
			"type": "function"
		},
		{
			"inputs": [
				{
					"internalType": "bytes32",
					"name": "",
					"type": "bytes32"
				}
			],
			"name": "request_city",
			"outputs": [
				{
					"internalType": "string",
					"name": "",
					"type": "string"
				}
			],
			"stateMutability": "view",
			"type": "function"
		},
		{
			"inputs": [
				{
					"internalType": "bytes32",
					"name": "",
					"type": "bytes32"
				}
			],
			"name": "requests",
			"outputs": [
				{
					"internalType": "bool",
					"name": "fulfilled",
					"type": "bool"
				},
				{
					"internalType": "bool",
					"name": "exists",
					"type": "bool"
				},
				{
					"internalType": "bytes",
					"name": "response",
					"type": "bytes"
				},
				{
					"internalType": "bytes",
					"name": "err",
					"type": "bytes"
				}
			],
			"stateMutability": "view",
			"type": "function"
		},
		{
			"inputs": [],
			"name": "source",
			"outputs": [
				{
					"internalType": "string",
					"name": "",
					"type": "string"
				}
			],
			"stateMutability": "view",
			"type": "function"
		},
		{
			"inputs": [],
			"name": "subscriptionId",
			"outputs": [
				{
					"internalType": "uint64",
					"name": "",
					"type": "uint64"
				}
			],
			"stateMutability": "view",
			"type": "function"
		}
	]
}