{
	"data": {
		"bytecode": {
			"linkReferences": {},
			"object": "60806040526000805534801561001457600080fd5b506104f9806100246000396000f3fe608060405234801561001057600080fd5b5060043610610068577c0100000000000000000000000000000000000000000000000000000000600035046340691db4811461006d5780634585e33b146100975780635ced058e146100ac578063f937f910146100e2575b600080fd5b61008061007b366004610205565b6100f9565b60405161008e9291906102e4565b60405180910390f35b6100aa6100a536600461033c565b610167565b005b6100bd6100ba3660046103ae565b90565b60405173ffffffffffffffffffffffffffffffffffffffff909116815260200161008e565b6100eb60005481565b60405190815260200161008e565b60016060600061012a61010f60c08701876103c7565b600181811061012057610120610417565b9050602002013590565b6040805173ffffffffffffffffffffffffffffffffffffffff83166020820152919250016040516020818303038152906040529150509250929050565b60016000808282546101799190610446565b909155506000905061018d82840184610486565b60405190915073ffffffffffffffffffffffffffffffffffffffff8216907f9dc7dc9b337aa2897cc3559260e1bf9eae7db329f1121de7c27a28fca8b2eed190600090a2505050565b7f4e487b7100000000000000000000000000000000000000000000000000000000600052604160045260246000fd5b6000806040838503121561021857600080fd5b823567ffffffffffffffff8082111561023057600080fd5b90840190610100828703121561024557600080fd5b9092506020840135908082111561025b57600080fd5b818501915085601f83011261026f57600080fd5b813581811115610281576102816101d6565b604051601f8201601f19908116603f011681019083821181831017156102a9576102a96101d6565b816040528281528860208487010111156102c257600080fd5b8260208601602083013760006020848301015280955050505050509250929050565b821515815260006020604081840152835180604085015260005b8181101561031a578581018301518582016060015282016102fe565b506000606082860101526060601f19601f830116850101925050509392505050565b6000806020838503121561034f57600080fd5b823567ffffffffffffffff8082111561036757600080fd5b818501915085601f83011261037b57600080fd5b81358181111561038a57600080fd5b86602082850101111561039c57600080fd5b60209290920196919550909350505050565b6000602082840312156103c057600080fd5b5035919050565b6000808335601e198436030181126103de57600080fd5b83018035915067ffffffffffffffff8211156103f957600080fd5b602090810192508102360382131561041057600080fd5b9250929050565b7f4e487b7100000000000000000000000000000000000000000000000000000000600052603260045260246000fd5b80820180821115610480577f4e487b7100000000000000000000000000000000000000000000000000000000600052601160045260246000fd5b92915050565b60006020828403121561049857600080fd5b813573ffffffffffffffffffffffffffffffffffffffff811681146104bc57600080fd5b939250505056fea26469706673582212209ebf4ee39a7a27364ab0904745c1a01673ef069a01754193370da16bc9e2f09664736f6c63430008130033",
			"opcodes": "PUSH1 0x80 PUSH1 0x40 MSTORE PUSH1 0x0 DUP1 SSTORE CALLVALUE DUP1 ISZERO PUSH2 0x14 JUMPI PUSH1 0x0 DUP1 REVERT JUMPDEST POP PUSH2 0x4F9 DUP1 PUSH2 0x24 PUSH1 0x0 CODECOPY PUSH1 0x0 RETURN INVALID PUSH1 0x80 PUSH1 0x40 MSTORE CALLVALUE DUP1 ISZERO PUSH2 0x10 JUMPI PUSH1 0x0 DUP1 REVERT JUMPDEST POP PUSH1 0x4 CALLDATASIZE LT PUSH2 0x68 JUMPI PUSH29 0x100000000000000000000000000000000000000000000000000000000 PUSH1 0x0 CALLDATALOAD DIV PUSH4 0x40691DB4 DUP2 EQ PUSH2 0x6D JUMPI DUP1 PUSH4 0x4585E33B EQ PUSH2 0x97 JUMPI DUP1 PUSH4 0x5CED058E EQ PUSH2 0xAC JUMPI DUP1 PUSH4 0xF937F910 EQ PUSH2 0xE2 JUMPI JUMPDEST PUSH1 0x0 DUP1 REVERT JUMPDEST PUSH2 0x80 PUSH2 0x7B CALLDATASIZE PUSH1 0x4 PUSH2 0x205 JUMP JUMPDEST PUSH2 0xF9 JUMP JUMPDEST PUSH1 0x40 MLOAD PUSH2 0x8E SWAP3 SWAP2 SWAP1 PUSH2 0x2E4 JUMP JUMPDEST PUSH1 0x40 MLOAD DUP1 SWAP2 SUB SWAP1 RETURN JUMPDEST PUSH2 0xAA PUSH2 0xA5 CALLDATASIZE PUSH1 0x4 PUSH2 0x33C JUMP JUMPDEST PUSH2 0x167 JUMP JUMPDEST STOP JUMPDEST PUSH2 0xBD PUSH2 0xBA CALLDATASIZE PUSH1 0x4 PUSH2 0x3AE JUMP JUMPDEST SWAP1 JUMP JUMPDEST PUSH1 0x40 MLOAD PUSH20 0xFFFFFFFFFFFFFFFFFFFFFFFFFFFFFFFFFFFFFFFF SWAP1 SWAP2 AND DUP2 MSTORE PUSH1 0x20 ADD PUSH2 0x8E JUMP JUMPDEST PUSH2 0xEB PUSH1 0x0 SLOAD DUP2 JUMP JUMPDEST PUSH1 0x40 MLOAD SWAP1 DUP2 MSTORE PUSH1 0x20 ADD PUSH2 0x8E JUMP JUMPDEST PUSH1 0x1 PUSH1 0x60 PUSH1 0x0 PUSH2 0x12A PUSH2 0x10F PUSH1 0xC0 DUP8 ADD DUP8 PUSH2 0x3C7 JUMP JUMPDEST PUSH1 0x1 DUP2 DUP2 LT PUSH2 0x120 JUMPI PUSH2 0x120 PUSH2 0x417 JUMP JUMPDEST SWAP1 POP PUSH1 0x20 MUL ADD CALLDATALOAD SWAP1 JUMP JUMPDEST PUSH1 0x40 DUP1 MLOAD PUSH20 0xFFFFFFFFFFFFFFFFFFFFFFFFFFFFFFFFFFFFFFFF DUP4 AND PUSH1 0x20 DUP3 ADD MSTORE SWAP2 SWAP3 POP ADD PUSH1 0x40 MLOAD PUSH1 0x20 DUP2 DUP4 SUB SUB DUP2 MSTORE SWAP1 PUSH1 0x40 MSTORE SWAP2 POP POP SWAP3 POP SWAP3 SWAP1 POP JUMP JUMPDEST PUSH1 0x1 PUSH1 0x0 DUP1 DUP3 DUP3 SLOAD PUSH2 0x179 SWAP2 SWAP1 PUSH2 0x446 JUMP JUMPDEST SWAP1 SWAP2 SSTORE POP PUSH1 0x0 SWAP1 POP PUSH2 0x18D DUP3 DUP5 ADD DUP5 PUSH2 0x486 JUMP JUMPDEST PUSH1 0x40 MLOAD SWAP1 SWAP2 POP PUSH20 0xFFFFFFFFFFFFFFFFFFFFFFFFFFFFFFFFFFFFFFFF DUP3 AND SWAP1 PUSH32 0x9DC7DC9B337AA2897CC3559260E1BF9EAE7DB329F1121DE7C27A28FCA8B2EED1 SWAP1 PUSH1 0x0 SWAP1 LOG2 POP POP POP JUMP JUMPDEST PUSH32 0x4E487B7100000000000000000000000000000000000000000000000000000000 PUSH1 0x0 MSTORE PUSH1 0x41 PUSH1 0x4 MSTORE PUSH1 0x24 PUSH1 0x0 REVERT JUMPDEST PUSH1 0x0 DUP1 PUSH1 0x40 DUP4 DUP6 SUB SLT ISZERO PUSH2 0x218 JUMPI PUSH1 0x0 DUP1 REVERT JUMPDEST DUP3 CALLDATALOAD PUSH8 0xFFFFFFFFFFFFFFFF DUP1 DUP3 GT ISZERO PUSH2 0x230 JUMPI PUSH1 0x0 DUP1 REVERT JUMPDEST SWAP1 DUP5 ADD SWAP1 PUSH2 0x100 DUP3 DUP8 SUB SLT ISZERO PUSH2 0x245 JUMPI PUSH1 0x0 DUP1 REVERT JUMPDEST SWAP1 SWAP3 POP PUSH1 0x20 DUP5 ADD CALLDATALOAD SWAP1 DUP1 DUP3 GT ISZERO PUSH2 0x25B JUMPI PUSH1 0x0 DUP1 REVERT JUMPDEST DUP2 DUP6 ADD SWAP2 POP DUP6 PUSH1 0x1F DUP4 ADD SLT PUSH2 0x26F JUMPI PUSH1 0x0 DUP1 REVERT JUMPDEST DUP2 CALLDATALOAD DUP2 DUP2 GT ISZERO PUSH2 0x281 JUMPI PUSH2 0x281 PUSH2 0x1D6 JUMP JUMPDEST PUSH1 0x40 MLOAD PUSH1 0x1F DUP3 ADD PUSH1 0x1F NOT SWAP1 DUP2 AND PUSH1 0x3F ADD AND DUP2 ADD SWAP1 DUP4 DUP3 GT DUP2 DUP4 LT OR ISZERO PUSH2 0x2A9 JUMPI PUSH2 0x2A9 PUSH2 0x1D6 JUMP JUMPDEST DUP2 PUSH1 0x40 MSTORE DUP3 DUP2 MSTORE DUP9 PUSH1 0x20 DUP5 DUP8 ADD ADD GT ISZERO PUSH2 0x2C2 JUMPI PUSH1 0x0 DUP1 REVERT JUMPDEST DUP3 PUSH1 0x20 DUP7 ADD PUSH1 0x20 DUP4 ADD CALLDATACOPY PUSH1 0x0 PUSH1 0x20 DUP5 DUP4 ADD ADD MSTORE DUP1 SWAP6 POP POP POP POP POP POP SWAP3 POP SWAP3 SWAP1 POP JUMP JUMPDEST DUP3 ISZERO ISZERO DUP2 MSTORE PUSH1 0x0 PUSH1 0x20 PUSH1 0x40 DUP2 DUP5 ADD MSTORE DUP4 MLOAD DUP1 PUSH1 0x40 DUP6 ADD MSTORE PUSH1 0x0 JUMPDEST DUP2 DUP2 LT ISZERO PUSH2 0x31A JUMPI DUP6 DUP2 ADD DUP4 ADD MLOAD DUP6 DUP3 ADD PUSH1 0x60 ADD MSTORE DUP3 ADD PUSH2 0x2FE JUMP JUMPDEST POP PUSH1 0x0 PUSH1 0x60 DUP3 DUP7 ADD ADD MSTORE PUSH1 0x60 PUSH1 0x1F NOT PUSH1 0x1F DUP4 ADD AND DUP6 ADD ADD SWAP3 POP POP POP SWAP4 SWAP3 POP POP POP JUMP JUMPDEST PUSH1 0x0 DUP1 PUSH1 0x20 DUP4 DUP6 SUB SLT ISZERO PUSH2 0x34F JUMPI PUSH1 0x0 DUP1 REVERT JUMPDEST DUP3 CALLDATALOAD PUSH8 0xFFFFFFFFFFFFFFFF DUP1 DUP3 GT ISZERO PUSH2 0x367 JUMPI PUSH1 0x0 DUP1 REVERT JUMPDEST DUP2 DUP6 ADD SWAP2 POP DUP6 PUSH1 0x1F DUP4 ADD SLT PUSH2 0x37B JUMPI PUSH1 0x0 DUP1 REVERT JUMPDEST DUP2 CALLDATALOAD DUP2 DUP2 GT ISZERO PUSH2 0x38A JUMPI PUSH1 0x0 DUP1 REVERT JUMPDEST DUP7 PUSH1 0x20 DUP3 DUP6 ADD ADD GT ISZERO PUSH2 0x39C JUMPI PUSH1 0x0 DUP1 REVERT JUMPDEST PUSH1 0x20 SWAP3 SWAP1 SWAP3 ADD SWAP7 SWAP2 SWAP6 POP SWAP1 SWAP4 POP POP POP POP JUMP JUMPDEST PUSH1 0x0 PUSH1 0x20 DUP3 DUP5 SUB SLT ISZERO PUSH2 0x3C0 JUMPI PUSH1 0x0 DUP1 REVERT JUMPDEST POP CALLDATALOAD SWAP2 SWAP1 POP JUMP JUMPDEST PUSH1 0x0 DUP1 DUP4 CALLDATALOAD PUSH1 0x1E NOT DUP5 CALLDATASIZE SUB ADD DUP2 SLT PUSH2 0x3DE JUMPI PUSH1 0x0 DUP1 REVERT JUMPDEST DUP4 ADD DUP1 CALLDATALOAD SWAP2 POP PUSH8 0xFFFFFFFFFFFFFFFF DUP3 GT ISZERO PUSH2 0x3F9 JUMPI PUSH1 0x0 DUP1 REVERT JUMPDEST PUSH1 0x20 SWAP1 DUP2 ADD SWAP3 POP DUP2 MUL CALLDATASIZE SUB DUP3 SGT ISZERO PUSH2 0x410 JUMPI PUSH1 0x0 DUP1 REVERT JUMPDEST SWAP3 POP SWAP3 SWAP1 POP JUMP JUMPDEST PUSH32 0x4E487B7100000000000000000000000000000000000000000000000000000000 PUSH1 0x0 MSTORE PUSH1 0x32 PUSH1 0x4 MSTORE PUSH1 0x24 PUSH1 0x0 REVERT JUMPDEST DUP1 DUP3 ADD DUP1 DUP3 GT ISZERO PUSH2 0x480 JUMPI PUSH32 0x4E487B7100000000000000000000000000000000000000000000000000000000 PUSH1 0x0 MSTORE PUSH1 0x11 PUSH1 0x4 MSTORE PUSH1 0x24 PUSH1 0x0 REVERT JUMPDEST SWAP3 SWAP2 POP POP JUMP JUMPDEST PUSH1 0x0 PUSH1 0x20 DUP3 DUP5 SUB SLT ISZERO PUSH2 0x498 JUMPI PUSH1 0x0 DUP1 REVERT JUMPDEST DUP2 CALLDATALOAD PUSH20 0xFFFFFFFFFFFFFFFFFFFFFFFFFFFFFFFFFFFFFFFF DUP2 AND DUP2 EQ PUSH2 0x4BC JUMPI PUSH1 0x0 DUP1 REVERT JUMPDEST SWAP4 SWAP3 POP POP POP JUMP INVALID LOG2 PUSH5 0x6970667358 0x22 SLT KECCAK256 SWAP15 0xBF 0x4E 0xE3 SWAP11 PUSH27 0x27364AB0904745C1A01673EF069A01754193370DA16BC9E2F09664 PUSH20 0x6F6C634300081300330000000000000000000000 "
		},
		"gasEstimates": {
			"creation": {
				"codeDepositCost": "254600",
				"executionCost": "5300",
				"totalCost": "259900"
			},
			"external": {
				"bytes32ToAddress(bytes32)": "302",
				"checkLog((uint256,uint256,bytes32,uint256,bytes32,address,bytes32[],bytes),bytes)": "infinite",
				"counted()": "441",
				"performUpkeep(bytes)": "21994"
			}
		},
		"methodIdentifiers": {
			"bytes32ToAddress(bytes32)": "5ced058e",
			"checkLog((uint256,uint256,bytes32,uint256,bytes32,address,bytes32[],bytes),bytes)": "40691db4",
			"counted()": "f937f910",
			"performUpkeep(bytes)": "4585e33b"
		}
	},
	"abi": [
		{
			"inputs": [],
			"stateMutability": "nonpayable",
			"type": "constructor"
		},
		{
			"anonymous": false,
			"inputs": [
				{
					"indexed": true,
					"internalType": "address",
					"name": "msgSender",
					"type": "address"
				}
			],
			"name": "CountedBy",
			"type": "event"
		},
		{
			"inputs": [
				{
					"internalType": "bytes32",
					"name": "_address",
					"type": "bytes32"
				}
			],
			"name": "bytes32ToAddress",
			"outputs": [
				{
					"internalType": "address",
					"name": "",
					"type": "address"
				}
			],
			"stateMutability": "pure",
			"type": "function"
		},
		{
			"inputs": [
				{
					"components": [
						{
							"internalType": "uint256",
							"name": "index",
							"type": "uint256"
						},
						{
							"internalType": "uint256",
							"name": "timestamp",
							"type": "uint256"
						},
						{
							"internalType": "bytes32",
							"name": "txHash",
							"type": "bytes32"
						},
						{
							"internalType": "uint256",
							"name": "blockNumber",
							"type": "uint256"
						},
						{
							"internalType": "bytes32",
							"name": "blockHash",
							"type": "bytes32"
						},
						{
							"internalType": "address",
							"name": "source",
							"type": "address"
						},
						{
							"internalType": "bytes32[]",
							"name": "topics",
							"type": "bytes32[]"
						},
						{
							"internalType": "bytes",
							"name": "data",
							"type": "bytes"
						}
					],
					"internalType": "struct Log",
					"name": "log",
					"type": "tuple"
				},
				{
					"internalType": "bytes",
					"name": "",
					"type": "bytes"
				}
			],
			"name": "checkLog",
			"outputs": [
				{
					"internalType": "bool",
					"name": "upkeepNeeded",
					"type": "bool"
				},
				{
					"internalType": "bytes",
					"name": "performData",
					"type": "bytes"
				}
			],
			"stateMutability": "pure",
			"type": "function"
		},
		{
			"inputs": [],
			"name": "counted",
			"outputs": [
				{
					"internalType": "uint256",
					"name": "",
					"type": "uint256"
				}
			],
			"stateMutability": "view",
			"type": "function"
		},
		{
			"inputs": [
				{
					"internalType": "bytes",
					"name": "performData",
					"type": "bytes"
				}
			],
			"name": "performUpkeep",
			"outputs": [],
			"stateMutability": "nonpayable",
			"type": "function"
		}
	]
}